S01C00004D6F746F72436F6E74726F6C6C65725F323031382E73726563A9
S113000051C000006DC000006BC0000069C000005A
S113001067C0000065C000009DC6000061C000000C
S11300205FC000005DC000005BC0000059C000005C
S113003037C6000055C0000053C0000051C0000086
S1130040D1C500000C94E50A0C94550849C0000081
S113005047C00000ECC40000CCC4000041C0000054
S11300603FC000003DC000003BC0000039C000009C
S113007037C0000035C0000033C0000031C00000AC
S11300800FC50000EFC400002BC0000029C0000011
S113009027C0000027082C08320838083E08430807
S11300A049084F0811241FBECFEFD0E1DEBFCDBFFA
S11300B011E0A0E0B1E0E2E6F0E200E00BBF02C034
S11300C007900D92A433B107D9F723E0A4E3B1E07C
S11300D001C01D92AA37B207E1F724D50C942F1062
S11300E08FCF1092390110923A0110923B01109275
S11300F03C0108954F925F926F927F928F929F92EC
S1130100AF92BF92CF92DF92EF92FF920F931F9321
S1130110CF93DF934B015C0129013A01C0900001A8
S1130120D0900101E0900201F090030120E030E062
S11301304EEB52E4C701B6010E94D50C882354F457
S113014020E030E048E452E4C701B6010E94860B87
S1130150181624F081E08093340102C01092340117
S1130160A3019201C501B4010E94210B6B017C0122
S11301706093350170933601809337019093380171
S11301808091340181111CC02AE037ED43E25CE325
S1130190C701B6010E94D90C9B01AC0160913901E1
S11301A070913A0180913B0190913C010E94220B95
S11301B06093390170933A0180933B0190933C0121
S11301C023E333E343E752E46091390170913A0148
S11301D080913B0190913C010E94D90C4B015C0140
S11301E029EF3FE049E75FE3C701B6010E94D90C5C
S11301F09B01AC01C501B4010E94220B20E030E058
S113020048E452E40E94220B6B017C0160930001DC
S113021070930101809302019093030120E030E088
S11302204EEB52E40E94D50C18166CF480E090E07A
S1130230AEEBB2E48093000190930101A09302011C
S1130240B093030116C020E030E048E452E4C70153
S1130250B6010E94860B882364F480E090E0A8E451
S1130260B2E48093000190930101A0930201B09342
S11302700301C0919600D091970020E030E048EC53
S113028052E460910001709101018091020190910A
S113029003010E948A0B6B017C01BE0180E090E0A7
S11302A00E94230C9B01AC01C701B6010E94D90C2A
S11302B00E94F20BE8E9F0E0718360838081918110
S11302C090939B0080939A006091000170910101CA
S11302D080910201909103010E94F70BF801608361
S11302E0DF91CF911F910F91FF90EF90DF90CF900E
S11302F0BF90AF909F908F907F906F905F904F9042
S11303000895249A0895882311F02C9A08952C981E
S11303100895CF92DF92EF92FF920F931F93CF93A2
S1130320DF93EC018E89823069F030F4882309F47C
S113033048C0813009F14EC0833099F1843009F40A
S113034045C048C081E0DFDF81E08A8F8E010D5E09
S11303501F4FC880D980EA80FB806A8970E071955C
S113036061957109072E000C880B990B0E94250CCE
S1130370A7019601BFDE2EC081E0C5DF81E08A8F30
S11303808E010D5E1F4FC880D980EA80FB806A8988
S113039070E080E090E00E94230CA7019601AADEA1
S11303A019C081E0B0DF81E08A8F8E010D5E1F4F9E
S11303B0288139814A815B8160E070E0CB019ADE5B
S11303C009C080E0A0DF1A8E8CDE04C080E09BDFD1
S11303D01A8E87DEDF91CF911F910F91FF90EF90DE
S11303E0DF90CF900895CF93DF93EC0160E471E048
S11303F080E025D621E043E050E06DE371E080E445
S113040091E00E94C10AEDE3F1E061816F716183C3
S113041070E0762F66278281682BCE01B2D4DF91FB
S1130420CF910895CF93DF93EC0160E471E081E014
S113043006D621E043E050E06DE371E080E491E012
S11304400E94C10AEDE3F1E061816F71618370E0A4
S1130450762F66278281682BCE0193D4DF91CF91CA
S11304600895CF93DF93EC0160E471E082E0E7D577
S113047021E043E050E06DE371E080E491E00E940C
S1130480C10AEDE3F1E061816F71618370E0762F61
S113049066278281682B80E090E00E94230C23E38E
S11304A033E344E852E40E948A0B24EA30E74DEB3C
S11304B05EE30E94210B688379838A839B83DF91A7
S11304C0CF910895CF93DF93EC0160E471E084E071
S11304D0B6D521E043E050E06DE371E080E491E0C3
S11304E00E94C10AEDE3F1E061816F71618370E004
S11304F0762F66278281682BCE01B3D4DF91CF910A
S113050008950F931F93CF93DF938C01EB01CB01DD
S113051012D78823C9F1F80186898430A9F188812A
S113052099818033924081F58E818B30A0F081E0F7
S1130530F801868B6E8170E080E090E00E94250CCB
S113054020E030E040E251E40E948A0B0E94F70B65
S1130550F801628B19C083E0F801868B128A8D81C1
S11305608A3190F082E0868B6D8170E080E090E0CB
S11305700E94250C20E030E040E251E40E948A0B06
S11305800E94F70BF801628BDF91CF911F910F91BD
S11305900895EF92FF920F931F93CF93DF93E1EEB1
S11305A0F2E020E534E03183208328E02283FC015B
S11305B02081222361F1EB018C010F2EF1EEEF2E4D
S11305C0F2E0FF2EF02D8E89F70183831482688177
S11305D079818A819B810E94F70BF7017683658379
S11305E020E030E04AE754E46C857D858E859F8564
S11305F00E94D90C0E94F70BF701708767838989E1
S113060090E092878187C701D9D6F8011082DF91E3
S1130610CF911F910F91FF90EF9008950F931F9327
S1130620CF93DF9300D0CDB7DEB7FC019091500398
S113063020910E03921B9F7179F18689843061F1B8
S11306408F0178D19A838983FAD089819A810B9713
S113065058F089819A81459738F489819A818A5022
S1130660F801828B82E0868B89819A81892B51F0F3
S113067089819A810B9730F489819A81F801828B60
S113068081E0868B89819A81892B31F489819A81D1
S1130690F801828B83E0868B0F900F90DF91CF91CE
S11306A01F910F910895CF93DF93CDB7DEB720E06C
S11306B030E04AE754E46D817E818F8198850E9401
S11306C0D90C0E94F20B7F936F938DE291E09F937C
S11306D08F930E946A0D8CE290E00E947D0D20E0D1
S11306E030E04AE754E46D857E858F8598890E94C1
S11306F0D90C0E94F70B7F936F9380E391E09F9353
S11307008F930E946A0D8AE090E00E947D0D0FB6DF
S1130710F894DEBF0FBECDBFDF91CF910895CF9384
S1130720DF93CDB7DEB780EE08D78B8D823089F0AA
S113073028F4882341F0813049F013C0833061F0FC
S1130740843069F00EC080E802D70BC080E404D77F
S113075008C080E401D705C080E4F9D602C080E275
S1130760F6D6DF91CF9108956D987598ED98EAE6E5
S1130770F0E080818C608083E59AED9A08958F92F1
S11307809F92AF92BF92CF92DF92EF92FF920F931C
S11307901F93CF93DF931F92CDB7DEB76C017B011C
S11307A08A01FB016081718180E090E00E94230C4A
S11307B020E030E04AEF53E40E94D90C23EC35EFFB
S11307C048E450E40E94D90C4B015C01B80180E07C
S11307D090E00E94230C9B01AC01C501B4019AD79F
S11307E00E94F70B69838981F6018083F7011182E6
S11307F010820F90DF91CF911F910F91FF90EF9096
S1130800DF90CF90BF90AF909F908F90089590917C
S11308102F039F5F9F7120910D039217E1F3E92F3E
S1130820F0E0EC5AFC4F80832FB7F89490932F0399
S1130830E1ECF0E08081806280832FBF0895909185
S11308400D0380912F039813FACF089590915303C9
S11308509F5F9F71209151039217E1F3E92FF0E01C
S1130860E15FFC4F80832FB7F89490935303E9EC36
S1130870F0E08081806280832FBF0895CF93C82FDA
S1130880FB0184859585019739F0CA3011F48DE018
S1130890BEDF8C2FBCDF06C0CA3011F48DE0D6DF7A
S11308A08C2FD4DF80E090E0CF91089580910E03E7
S11308B090915003891759F08F5F982F9F71E92FFA
S11308C0F0E0E451FD4F808190930E03089580E0A1
S11308D00895EF92FF920F931F93CF93DF937C01C0
S11308E0162FE4DFF70180838132D8F3E7012196E4
S11308F01230C1F01350812F90E002968701080F47
S1130900191FD4DF88838823E1F38D3021F4CEDFEF
S11309108823E9F307C0813228F021960C171D07BC
S113092081F7E8011882DF91CF911F910F91FF9019
S1130930EF900895CF93DF93CDB7DEB727970FB627
S1130940F894DEBF0FBECDBF67E0CE010196C1DFD4
S1130950CE0101960E94450D27960FB6F894DEBF8E
S11309600FBECDBFDF91CF91089580910E0390917A
S11309705003891761F08F5F8F71E82FF0E0E45125
S1130980FD4F908180930E03892F90E008958FEF9F
S11309909FEF089580910C0390915203891761F0A1
S11309A08F5F8F71E82FF0E0E05DFC4F90818093C2
S11309B00C03892F90E008958FEF9FEF0895CF9354
S11309C0DF93FC0184859585019741F0CEDFEC012E
S11309D09923E4F31CDFCE01992707C0DBDFEC0188
S11309E09923E4F333DFCE0199279927DF91CF913F
S11309F008950F930FB7EF93FF93E0910D03F091D8
S1130A002F03E395EF71EF1305C0F091C100FF7D53
S1130A10F093C100E0930D03F0E0EC5AFC4FE08149
S1130A20E093C600FF91EF910FBF0F9118950F93BC
S1130A300FB79F939091C600EF93FF93E0915003FB
S1130A40F0910E03E395EF71FE1731F0E09350033C
S1130A50F0E0E451FD4F9083FF91EF919F910FBF20
S1130A600F9118950F930FB7EF93FF93E0915103F4
S1130A70F0915303E395EF71EF1305C0F091C900B2
S1130A80FF7DF093C900E0935103F0E0E15FFC4F78
S1130A90E081E093CE00FF91EF910FBF0F91189585
S1130AA00F930FB79F939091CE00EF93FF93E09134
S1130AB05203F0910C03E395EF71FE1731F0E093CC
S1130AC05203F0E0E05DFC4F9083FF91EF919F9122
S1130AD00FBF0F911895E1E8F0E080818360808377
S1130AE08081886080831092850010928400EFE6F4
S1130AF0F0E08081826080838DE790E090938900AC
S1130B0080938800089584B5856084BD84B5886029
S1130B1084BD16BCEEE6F0E080818260808387E2CB
S1130B2087BD0895F8940DD580EE11D5C5D460E045
S1130B3070E080E090E0AAD3CEDFE5DF15DE80E050
S1130B400FD51092C4001092C50088E98093C100AB
S1130B50E4E7F3E084E091E09383828391838083EC
S1130B60F0D4CFDB789462E171E085E491E011DDAB
S1130B7066ED72E082E191E0C4DC8DB79EB74B97DD
S1130B800FB6F8949EBF0FBE8DBFADB7BEB711961A
S1130B908BE1E2E1F1E001900D928A95E1F783DDCA
S1130BA082E191E03BDD82E191E014D28DB79EB702
S1130BB04B970FB6F8949EBF0FBE8DBFADB7BEB7AF
S1130BC011968BE1E2E1F1E001900D928A95E1F753
S1130BD0A6DD8DB79EB7C6960FB6F8949EBF0FBE1E
S1130BE08DBFC1CF1F920F920FB60F9211240BB677
S1130BF00F92EF920F931F932F933F934F935F9313
S1130C006F937F938F939F93AF93BF93EF93FF93D0
S1130C10809147018130A1F4E2E1F1E00085118582
S1130C202285338544815581668177810F2EFAE0D0
S1130C30EF2EF02D8EE191E096D11092470103C082
S1130C408F5F8093470180914601843669F481E087
S1130C508093450148EE53E062E471E083E291E061
S1130C608EDD1092460103C08F5F8093460182E1BE
S1130C7091E04FDBFF91EF91BF91AF919F918F91E5
S1130C807F916F915F914F913F912F911F910F91A0
S1130C90EF900F900BBE0F900FBE0F901F90189502
S1130CA01F920F920FB60F9211240BB60F922F932F
S1130CB03F934F935F936F937F938F939F93AF93E0
S1130CC0BF93EF93FF9380914401843031F482E227
S1130CD091E0F8DB1092440112C0833021F484E0E7
S1130CE08093440118C080914401823041F48AE128
S1130CF091E0B7DB809144018F5F80934401809140
S1130D004401813041F486E191E08CDB809144011F
S1130D108F5F8093440180914401811108C082E176
S1130D2091E061DB809144018F5F80934401FF91E6
S1130D30EF91BF91AF919F918F917F916F915F914F
S1130D404F913F912F910F900BBE0F900FBE0F90BC
S1130D501F9018951F920F920FB60F9211248F9324
S1130D609F93809142019091430101969093430196
S1130D70809342019F918F910F900FBE0F901F900F
S1130D8018958F929F92AF92BF92CF92DF92EF927B
S1130D90FF920F931F93CF93DF9300D000D0CDB772
S1130DA0DEB78C0180E090E04ED520E030E040EAF0
S1130DB050E4FFD520E030E040E859E3FAD529E2D9
S1130DC03CE54FE050E43DD423EC34E64AE25DE3F5
S1130DD0A1D420E030E040E450E49CD469837A83D9
S1130DE08B839C8369817A818B819C812EEA37E491
S1130DF041EE5FE326D469837A838B839C83898065
S1130E009A80AB80BC8026E636E646E65FE3F801CE
S1130E106081718182819381CCD56B017C012DEC41
S1130E203CEC4CEC5DE3C501B401C3D59B01AC01C2
S1130E30C701B60107D4F801608371838283938369
S1130E400F900F900F900F90DF91CF911F910F9102
S1130E50FF90EF90DF90CF90BF90AF909F908F90D6
S1130E6008950F931F93CF93DF9300D000D0CDB795
S1130E70DEB78C0180E090E0E6D420E030E040EA88
S1130E8050E497D520E030E040E859E392D56983F7
S1130E907A838B839C8369817A818B819C812DECFD
S1130EA03CEC4CE650E432D418168CF069817A811B
S1130EB08B819C8120E030E040EA51E47AD520E047
S1130EC030E040EB51E4BDD392D4F80160836981F2
S1130ED07A818B819C8126E636E646E950E416D475
S1130EE01816E4F069817A818B819C812DEC3CECAD
S1130EF04CE650E45AD518168CF469817A818B81BA
S1130F009C8120E030E04EE552E453D520E030E807
S1130F104BE153E496D36BD4F801608369817A8101
S1130F208B819C8126E636E646E950E43ED51816C8
S1130F308CF469817A818B819C8120E030E048E4E3
S1130F4053E437D520E030E042E554E47AD34FD47B
S1130F50F80160830F900F900F900F90DF91CF9165
S1130F601F910F9108958F929F92AF92BF92EF922B
S1130F700F931F93CF93DF93EC014A015B01C901E7
S1130F80B801A501940115D54B015C016E2D70E0EB
S1130F9080E090E058D49B01AC01C501B40109D5AF
S1130FA020E030E04AE754E4B5D39B01AC0168810A
S1130FB079818A819B8146D3688379838A839B83E1
S1130FC0DF91CF911F910F91EF90BF90AF909F90C1
S1130FD08F900895CF92DF92EF92FF92CF93DF9399
S1130FE0EC01C884D984EA84FB8420E030E040E743
S1130FF051E4C701B6018AD3882324F48E8984304E
S113100009F01E8A20E030E040E751E468817981EC
S11310108A819B81CAD488234CF420E030E04CE5DB
S113102052E4C701B601C1D4181614F484E08E8BBF
S1131030DF91CF91FF90EF90DF90CF90089590E0F3
S11310408830910588F5FC01E65BFF4F15C586E005
S1131050FB0180831182089586E0FB01808380E494
S11310608183089586E0FB01808380E8818308956D
S113107086E0FB01808380EC8183089587E0FB0197
S113108080831182089587E0FB01808380E481835B
S1131090089587E0FB01808380E88183089587E0D9
S11310A0FB01808380EC818308951F920F920FB619
S11310B00F9211240BB60F922F933F934F935F938C
S11310C06F938F939F93AF93BF93EF93FF93CF93BC
S11310D0DF931F92CDB7DEB78091E00080FF47C059
S11310E09091DE0090FF43C01092ED00EEEEF0E030
S11310F08081898380818F7B808380914D01909151
S11311004C01981789F18F702BE0829FC001112444
S1131110FC01E250FE4F20812093F00020812093B7
S1131120F20021812093F3002381AAEFB0E02C93F5
S113113024812C9325812C9326812C9327812C9315
S113114020852C9321852C9322852C93FC01E0503F
S1131150FE4F80818F7080648093EF0080914D01F9
S11311608F5F80934D017DC010924B017AC081FF47
S113117078C08091DE0081FF74C080E18093ED002F
S113118080914901282F30E090914A01291B3109AF
S11311902F773327203131050CF058C0E82FEF703A
S11311A09091EF002E2F30E04BE0E49FF0011124EA
S11311B0E25BFE4F9F704281407F942B928340916B
S11311C0F2009091F000407E9770942B9083909160
S11311D0F3009183AAEFB0E09C9193839C91948354
S11311E09C9195839C9196839C9197839C919087E5
S11311F09C9191879C9192878F5F80934901408154
S11312004295469547705181652F660F660F660FAC
S1131210862F842B952F929596959770892BB1F4F0
S11312208BE0829FF001839FF00D1124E25BFE4F5F
S11312308381833059F498E088E10FB6F894A89537
S1131240809360000FBE90936000FFCFEEEEF0E05D
S113125080818983898180818F7D808380E88093E8
S1131260EF000F90DF91CF91FF91EF91BF91AF917C
S11312709F918F916F915F914F913F912F910F901B
S11312800BBE0F900FBE0F901F901895CF93DF9356
S1131290E8EDF0E021E020831092E2002CE02093BE
S11312A0E30027E32093E4001092E7001092E600A5
S11312B01092E9001092E8001092EC001092E50000
S11312C0CDEED0E01882AEEEB0E01C9220E128838F
S11312D01C921092F400282F2295220F207E209336
S11312E0F60096958795969587959695879580931C
S11312F0F7001092F000862F8295880F807E8093ED
S1131300F2007695679576956795769567956093DF
S1131310F30080E88093EF0083E08093DC00809307
S1131320DE0080EB8093DB0082E080831092480132
S1131330DF91CF910895CF93DF93EC0140914A015F
S113134020914901241789F1A42FAF708BE0A89F45
S1131350B0011124FB01E25BFE4F2081229526950A
S113136027703181532F550F550F550F252B32956B
S11313703695377028833983FB01E05BFE4F20816B
S11313802F702A83222399F0DB01AF5ABE4FFE014E
S1131390339630E02D5F3F4FCE01820F931F2D9186
S11313A02193E817F907D9F702C080E004C04F5F22
S11313B040934A0181E0DF91CF910895CF93DF9369
S11313C0FC01ABEDB0E08C918F778C9380914B0155
S11313D0811127C01092ED0080818295880F807E54
S11313E08093F20080819181969587959695879553
S11313F0969587958093F300DF0113969F01255FEF
S11314003F4FCAEFD0E09D919883A217B307D9F755
S113141081E080934B01828180648093EF0081E0BE
S113142043C020914C01822F90E030914D01831BE9
S113143091098F7799274097B1F1A22FAF708BE074
S1131440A89FD0011124ED01C250DE4F8081982F56
S11314509295990F907E88818F71892B88838081E2
S1131460982F9695969596958981807E892B898368
S113147091819295990F907E8F71892B89838281B6
S1131480982F9F708A81807F892B8A83AF5FBD4F9D
S1131490339688E001900D928A95E1F72F5F2093AF
S11314A04C0181E001C080E0EBEDF0E090819068B8
S11314B09083DF91CF9108958EB1877E8EB98DB1DF
S11314C088618DB9A1E9B0E08C9188618C93E0E9E1
S11314D0F0E080818260808380818E7F8083808140
S11314E08068808380818F7B808380818062808319
S11314F08081806180838C9181608C938C91897FC1
S11315008C93E6E9F0E089E991E09183808360813E
S1131510718180E090E097D120E030E040E05FE32B
S113152048D260D1E8E9F0E07183608380819181E1
S113153090939B0080939A00089595B1892B85B967
S1131540089584B1806E84B980EEF7CF089595B183
S11315508095982395B9089595B1892785B90895FB
S113156094B1976094B982FB992790F9282F22703F
S113157081708065822B8CBD8CB5837F8CBD9DBDB5
S11315800895CF93DF93EC01289841155105C1F0DC
S1131590FB01DC01460F571F8FEF209711F09C9140
S11315A001C0982F9EBD0DB407FEFDCF61157105D6
S11315B011F09EB5908331961196E417F50769F7FB
S11315C02111289ADF91CF9108951F920F920FB69F
S11315D00F9211240BB60F922F933F934F935F9367
S11315E06F937F938F93AF93BF93EF93FF93AEEC7F
S11315F0B2E0EEEAF2E02EEC32E08D91882359F06D
S11316004081518162817381505E6F4F7F4F40836F
S11316105183628373833496E217F30771F7FF9162
S1131620EF91BF91AF918F917F916F915F914F91A6
S11316303F912F910F900BBE0F900FBE0F901F90F4
S113164018955058BB27AA270ED075C166D130F023
S11316506BD120F031F49F3F11F41EF45BC10EF402
S1131660E095E7FB51C1E92F77D180F3BA17620700
S113167073078407950718F071F49EF58FC10EF473
S1131680E0950B2EBA2FA02D0B01B90190010C018E
S1131690CA01A0011124FF27591B99F0593F50F4A6
S11316A0503E68F11A16F040A22F232F342F4427FE
S11316B0585FF3CF469537952795A795F0405395F6
S11316C0C9F77EF41F16BA0B620B730B840BBAF0C6
S11316D09150A1F0FF0FBB1F661F771F881FC2F731
S11316E00EC0BA0F621F731F841F48F48795779545
S11316F06795B795F7959E3F08F0B3CF9395880FFC
S113170008F09927EE0F979587950895D9D008F496
S113171081E008950CD00FC107D140F0FED030F025
S113172021F45F3F19F0F0C0511139C1F3C014D155
S113173098F39923C9F35523B1F3951B550BBB2794
S1131740AA2762177307840738F09F5F5F4F220F41
S1131750331F441FAA1FA9F333D00E2E3AF0E0E83A
S113176030D091505040E695001CCAF729D0FE2F86
S113177027D0660F771F881FBB1F26173707480718
S1131780AB07B0E809F0BB0B802DBF01FF279358CE
S11317905F4F2AF09E3F510568F0B6C000C15F3F1D
S11317A0ECF3983EDCF3869577956795B795F795B6
S11317B09F5FC9F7880F911D9695879597F90895AE
S11317C0E1E0660F771F881FBB1F6217730784074A
S11317D0BA0720F0621B730B840BBA0BEE1F88F759
S11317E0E095089504D06894B111D9C00895BCD08F
S11317F088F09F5790F0B92F9927B751A0F0D1F0F6
S1131800660F771F881F991F1AF0BA95C9F712C07F
S1131810B13081F0C3D0B1E00895C0C0672F782FF4
S11318208827B85F39F0B93FCCF3869577956795EB
S1131830B395D9F73EF490958095709561957F4F57
S11318408F4F9F4F0895E89409C097FB3EF49095FD
S11318508095709561957F4F8F4F9F4F9923A9F085
S1131860F92F96E9BB279395F69587957795679514
S1131870B795F111F8CFFAF4BB0F11F460FF1BC058
S11318806F5F7F4F8F4F9F4F16C0882311F096E9EB
S113189011C0772321F09EE8872F762F05C0662399
S11318A071F096E8862F70E060E02AF09A95660F52
S11318B0771F881FDAF7880F9695879597F908950B
S11318C0990F0008550FAA0BE0E8FEEF161617064D
S11318D0E807F907C0F012161306E407F50798F0B5
S11318E0621B730B840B950B39F40A2661F0232BCE
S11318F0242B252B21F408950A2609F4A140A6954A
S11319008FEF811D811D089597F99F6780E870E02E
S113191060E008959FEF80EC089500240A94161661
S1131920170618060906089500240A9412161306C9
S1131930140605060895092E0394000C11F4882357
S113194052F0BB0F40F4BF2B11F460FF04C06F5F73
S11319507F4F8F4F9F4F089557FD9058440F551F49
S113196059F05F3F71F04795880F97FB991F61F01D
S11319709F3F79F087950895121613061406551F94
S1131980F2CF4695F1DF08C0161617061806991F00
S1131990F1CF86957105610508940895E894BB27F5
S11319A066277727CB0197F908958ADF08F48FEF2C
S11319B008950BD0C0CFB1DF28F0B6DF18F095231F
S11319C009F0A2CFA7CF1124EACFC6DFA0F3959FD9
S11319D0D1F3950F50E0551F629FF001729FBB2712
S11319E0F00DB11D639FAA27F00DB11DAA1F649FBE
S11319F06627B00DA11D661F829F2227B00DA11D71
S1131A00621F739FB00DA11D621F839FA00D611DF6
S1131A10221F749F3327A00D611D231F849F600D17
S1131A20211D822F762F6A2F11249F5750408AF050
S1131A30E1F088234AF0EE0FFF1FBB1F661F771FDC
S1131A40881F91505040A9F79E3F510570F05CCF1C
S1131A50A6CF5F3FECF3983EDCF3869577956795C8
S1131A60B795F795E7959F5FC1F7FE2B880F911DFA
S1131A709695879597F90895EE0FFF1F0024001C93
S1131A800BBE0790F691E02D0994FC018827992755
S1131A90E89421912032E9F3293010F02E30C8F374
S1131AA02B3239F02D3231F4689403C00BD0820FFD
S1131AB0911D219120532A30C8F31EF490958195ED
S1131AC09F4F08957AE0979F902D879F802D910DC9
S1131AD011240895CF93DF93CDB7DEB7AE014B5FEA
S1131AE05F4FFA0161917191AF01809176039091FA
S1131AF0770308D0DF91CF910895609176037091B8
S1131B00770313C22F923F924F925F926F927F920C
S1131B108F929F92AF92BF92CF92DF92EF92FF92F9
S1131B200F931F93CF93DF93CDB7DEB72B970FB6E9
S1131B30F894DEBF0FBECDBF6C017B018A01FC01AE
S1131B4017821682838181FFBFC1CE0101963C01B9
S1131B50F6019381F70193FD859193FF81917F01B4
S1131B60882309F4ADC1853239F493FD859193FF3F
S1131B7081917F01853221F4B60190E0D6D1E8CF7E
S1131B80912C212C312CFFE1F315D8F08B3279F014
S1131B9038F4803279F08332A1F4232D20611DC002
S1131BA08D3261F0803369F4232D216016C0832DBA
S1131BB08260382EE32DE4603E2E2AC0F32DF860B7
S1131BC01DC037FC2DC020ED280F2A3040F08E3286
S1131BD0B9F436FC75C1232D2064322E19C036FEAB
S1131BE006C08AE0989E200D1124922E11C0EAE0CE
S1131BF02E9E200D1124222EF32DF0623F2E08C0BC
S1131C008C3621F4832D8068382E02C0883641F446
S1131C10F70193FD859193FF81917F018111B3CFEA
S1131C20982F9F7D9554933028F40C5F1F4F9FE3AA
S1131C3099830DC0833631F0833771F0833509F011
S1131C4055C020C0F801808189830E5F1F4F88240E
S1131C508394912C530112C02801F2E04F0E511CC1
S1131C60F801A080B18036FE03C0692D70E002C087
S1131C706FEF7FEFC5014ED14C018201F32DFF7749
S1131C803F2E15C0280122E0420E511CF801A0800D
S1131C90B18036FE03C0692D70E002C06FEF7FEFA4
S1131CA0C5012DD14C01F32DF0683F2E820133FC88
S1131CB019C0822D90E088169906A0F4B60180E23E
S1131CC090E033D12A94F5CFF50137FC859137FEA6
S1131CD081915F01B60190E028D121102A9421E07E
S1131CE0821A91088114910479F7E1C0843611F0C5
S1131CF0893639F5F80137FE07C060817181828128
S1131D0093810C5F1F4F08C060817181072E000C06
S1131D10880B990B0E5F1F4FF32DFF763F2E97FF15
S1131D2009C090958095709561957F4F8F4F9F4F17
S1131D30F0683F2E2AE030E0A30133D1882E8618C4
S1131D4044C0853731F4232D2F7EB22E2AE030E0B3
S1131D5025C0932D997FB92E8F36C1F018F488359C
S1131D6079F0AEC0803719F0883721F0A9C0E92F87
S1131D70E061BE2EB4FE0DC0FB2DF460BF2E09C081
S1131D8034FE0AC0292F2660B22E06C028E030E0B7
S1131D9005C020E130E002C020E132E0F801B7FEE6
S1131DA007C060817181828193810C5F1F4F06C0DF
S1131DB06081718180E090E00E5F1F4FA301F1D03C
S1131DC0882E8618FB2DFF773F2E36FE0DC0232D5F
S1131DD02E7FA22E891458F434FE0BC032FC09C0A5
S1131DE0832D8E7EA82E05C0B82CA32C03C0B82C3E
S1131DF001C0B92CA4FE0FC0FE01E80DF11D8081C5
S1131E00803321F49A2D997EA92E09C0A2FE06C022
S1131E10B394B39404C08A2D867809F0B394A3FCD8
S1131E2010C0A0FE06C0B21480F4280C922C9B189B
S1131E300DC0B21458F4B60180E290E076D0B394A9
S1131E40F8CFB21418F42B1802C0982C212CA4FE3D
S1131E500FC0B60180E390E068D0A2FE16C0A1FCDA
S1131E6003C088E790E002C088E590E0B6010CC0AA
S1131E708A2D867851F0A1FE02C08BE201C080E277
S1131E80A7FC8DE2B60190E050D0891430F4B6017D
S1131E9080E390E04AD09A94F8CF8A94F301E80D55
S1131EA0F11D8081B60190E040D08110F6CF222050
S1131EB009F44ECEB60180E290E037D02A94F7CFF1
S1131EC0F6018681978102C08FEF9FEF2B960FB6A4
S1131ED0F894DEBF0FBECDBFDF91CF911F910F915C
S1131EE0FF90EF90DF90CF90BF90AF909F908F9036
S1131EF07F906F905F904F903F902F900895FC01DA
S1131F000590615070400110D8F7809590958E0F20
S1131F109F1F0895FC016150704001900110D8F793
S1131F20809590958E0F9F1F08950F931F93CF93C5
S1131F30DF93FB01238121FD03C08FEF9FEF2CC0B2
S1131F4022FF16C0468157812481358142175307E9
S1131F5044F4A081B1819D012F5F3F4F31832083E1
S1131F608C93268137812F5F3F4F3783268314C09C
S1131F708B01EC01FB010084F185E02D0995892B8F
S1131F80E1F6D80116968D919C91179701961796B4
S1131F909C938E931697CE01DF91CF911F910F9151
S1131FA00895FA01AA27283051F1203181F1E894EB
S1131FB06F936E7F6E5F7F4F8F4F9F4FAF4FB1E038
S1131FC03ED0B4E03CD0670F781F891F9A1FA11D33
S1131FD0680F791F8A1F911DA11D6A0F711D811D34
S1131FE0911DA11D20D009F468943F912AE0269FF9
S1131FF011243019305D3193DEF6CF010895462F58
S11320004770405D4193B3E00FD0C9F7F6CF462F38
S11320104F70405D4A3318F0495D31FD40524193A1
S113202002D0A9F7EACFB4E0A6959795879577955E
S11320306795BA95C9F700976105710508959B01E5
S1132040AC010A2E06945795479537952795BA956E
S1132050C9F7620F731F841F951FA01D0895F8947C
S1052060FFCFAC
S11320620000484200000003000000003E04DF04B8
S1132072000000000000000000000000000000005A
S1132082000000000032F401030000000025690092
S107209225750000AC
S9030000FC
