:1000000051C000006DC000006BC0000069C000005E
:1000100067C0000065C00000A4C7000061C0000008
:100020005FC000005DC000005BC0000059C0000060
:100030003EC7000055C0000053C0000051C0000082
:10004000A2C600000C94E80B0C94990949C000006A
:1000500047C00000CDC50000ADC5000041C0000094
:100060003FC000003DC000003BC0000039C00000A0
:1000700037C0000035C0000033C0000031C00000B0
:10008000F0C50000D0C500002BC0000029C0000052
:1000900027C000006B09700976097C09820987096D
:1000A0008D09930911241FBECFEFD0E1DEBFCDBF74
:1000B00011E0A0E0B1E0E8E6F2E200E00BBF02C030
:1000C00007900D92A433B107D9F723E0A4E3B1E080
:1000D00001C01D92AC37B207E1F705D60C9432117E
:1000E0008FCF1092390110923A0110923B01109279
:1000F0003C0108954F925F926F927F928F929F92F0
:10010000AF92BF92CF92DF92EF92FF920F931F9325
:10011000CF93DF934B015C0129013A01E1107FC0CD
:10012000C0900001D0900101E0900201F090030125
:1001300020E030E04EEB52E4C701B6010E94D80D3A
:10014000882354F420E030E048E452E4C701B601CB
:100150000E94890C181624F081E08093340102C0BB
:1001600010923401A3019201C501B4010E94240C34
:100170006B017C01609335017093360180933701E8
:10018000909338018091340181111CC02AE037ED31
:1001900043E25CE3C701B6010E94DC0D9B01AC01A8
:1001A0006091390170913A0180913B0190913C013D
:1001B0000E94250C6093390170933A0180933B01B2
:1001C00090933C0123E333E343E752E46091390128
:1001D00070913A0180913B0190913C010E94DC0DAD
:1001E0004B015C0129EF3FE049E75FE3C701B6013E
:1001F0000E94DC0D9B01AC01C501B4010E94250CDD
:1002000020E030E048E452E40E94250C60930001B5
:1002100070930101809302019093030112C081E069
:10022000E8120FC0F801608170E080E090E00E9469
:10023000260D609300017093010180930201909359
:100240000301C0900001D0900101E0900201F09004
:10025000030120E030E04EEB52E4C701B6010E94FA
:10026000D80D18166CF480E090E0AEEBB2E4809309
:10027000000190930101A0930201B093030116C005
:1002800020E030E048E452E4C701B6010E94890C46
:10029000882364F480E090E0A8E4B2E48093000155
:1002A00090930101A0930201B0930301C0919600C5
:1002B000D091970020E030E048EC52E460910001DA
:1002C0007091010180910201909103010E948D0CB7
:1002D0006B017C01BE0180E090E00E94260D9B0135
:1002E000AC01C701B6010E94DC0D0E94F50CE8E9E3
:1002F000F0E0718360838081918190939B00809373
:100300009A00609100017091010180910201909129
:1003100003010E94FA0CF8016083DF91CF911F91D5
:100320000F91FF90EF90DF90CF90BF90AF909F9094
:100330008F907F906F905F904F900895249A0895CA
:10034000882311F02C9A08952C9808958F929F92EB
:10035000AF92BF92EF920F931F93CF93DF93EC0175
:100360008E89823069F030F4882309F44CC08130E2
:1003700011F158C08330A9F1843009F44CC052C047
:1003800081E0DEDF81E08A8F8E010D5E1F4F888065
:100390009980AA80BB806A8970E071956195710926
:1003A000072E000C880B990B0E94280DEB8CA501E1
:1003B0009401A0DE37C081E0C3DF81E08A8F8E0127
:1003C0000D5E1F4F88809980AA80BB806A8970E08B
:1003D00080E090E00E94260DEB8CA50194018ADE5E
:1003E00021C081E0ADDF81E08A8F1A8A8E010D5E27
:1003F0001F4F288139814A815B81EB8C60E070E07E
:10040000CB0178DE0FC080E09BDF1A8E6ADE1A8A8D
:1004100082E38B8B07C080E093DF1A8E62DE1A8A3C
:1004200082E38B8BDF91CF911F910F91EF90BF9063
:10043000AF909F908F900895CF93DF93EC0160E48D
:1004400071E080E040D721E043E050E06DE371E0EF
:1004500080E491E00E94C40BEDE3F1E061816F71F3
:10046000618370E0762F66278281682BCE0190D55C
:10047000DF91CF910895CF93DF93EC0160E471E0B9
:1004800081E021D721E043E050E06DE371E080E4BA
:1004900091E00E94C40BEDE3F1E061816F71618333
:1004A00070E0762F66278281682BCE0171D5DF91AF
:1004B000CF910895CF93DF93EC0160E471E082E087
:1004C00002D721E043E050E06DE371E080E491E089
:1004D0000E94C40BEDE3F1E061816F71618370E014
:1004E000762F66278281682B80E090E00E94260D9F
:1004F00023E333E344E852E40E948D0C24EA30E71E
:100500004DEB5EE30E94240C688379838A839B838E
:10051000DF91CF910895CF93DF93EC0160E471E018
:1005200084E0D1D621E043E050E06DE371E080E467
:1005300091E00E94C40BEDE3F1E061816F71618392
:1005400070E0762F66278281682BCE0191D5DF91EE
:10055000CF9108950F931F93CF93DF938C01EB01FD
:10056000CB010E94DF0A8823E9F1F80186898430F3
:10057000C9F18881998180339240A1F584E190E0AE
:10058000F801958B848B8E818B3098F081E0868B7F
:100590006E8170E080E090E00E94280D20E030E065
:1005A00040E251E40E948D0C0E94FA0CF801628B2B
:1005B00019C083E0F801868B128A8D818A3190F010
:1005C00082E0868B6D8170E080E090E00E94280DD3
:1005D00020E030E040E251E40E948D0C0E94FA0CD1
:1005E000F801628BDF91CF911F910F910895EF92E7
:1005F000FF920F931F93CF93DF93E3EEF2E020E59A
:1006000034E03183208328E02283FC0120812223EF
:1006100061F1EB018C010F2EF3EEEF2EF2E0FF2ED5
:10062000F02D8E89F70183831482688179818A8114
:100630009B810E94FA0CF7017683658320E030E00D
:100640004AE754E46C857D858E859F850E94DC0D8C
:100650000E94FA0CF70170876783898990E092877E
:100660008187C701EFD7F8011082DF91CF911F91E9
:100670000F91FF90EF9008950F931F93CF93DF9307
:1006800000D0CDB7DEB7FC0190915203209110034A
:10069000921B9F71D9F186898430C1F18F012BD2D1
:1006A0009A838983ADD1F801838D811127C0898117
:1006B0009A810B9750F089819A81459730F489810E
:1006C0009A818A50828B82E0868B89819A81892BDC
:1006D00051F089819A810B9730F489819A81F801D0
:1006E000828B81E0868B89819A81892B79F489813B
:1006F0009A81F801828B83E0868B08C0813031F4C7
:1007000089819A81F801838B81E0868B0F900F900D
:10071000DF91CF911F910F910895FF920F931F9337
:10072000CF93DF93CDB7DEB7FA8C688979898A8950
:100730009B890E94FA0C24E6269FA001279F500D5A
:1007400011245F934F930EE211E01F930F930E94C9
:100750006D0E8CE290E00E94800E2B8D30E0C9017E
:10076000880F991F220F331F220F331F220F331FB1
:10077000820F931F9F938F931F930F930E946D0E71
:100780008CE290E00E94800E0FB6F894DEBF0FBEA0
:10079000CDBF8E8D8230A1F428E13CEFF29EC001E6
:1007A000F39E900D11249F938F9381E391E09F938B
:1007B0008F930E946D0E0F900F900F900F9013C0AB
:1007C00028EE33E0F29EC001F39E900D11249F931A
:1007D0008F9381E391E09F938F930E946D0E0F9012
:1007E0000F900F900F908CE290E00E94800E20E01E
:1007F00030E04AE754E4688579858A859B850E94C4
:10080000DC0D0E94F50C7F936F9381E391E09F9341
:100810008F930E946D0E8AE090E00E94800E0F90F0
:100820000F900F900F90DF91CF911F910F91FF903C
:100830000895CF93DF93CDB7DEB78B8D8230C9F0AB
:1008400028F4882341F0813069F027C08330C1F05B
:100850008430E9F022C080E473D780E271D780E869
:1008600079D71BC080E26CD780E86AD780E477D75D
:1008700014C080E265D780E863D780E470D70DC0EC
:1008800080E25ED780E85CD780E464D706C080E46D
:1008900057D780E855D780E25DD7DF91CF91089593
:1008A0006D987598ED98EAE6F0E080818C60808321
:1008B000E59AED9A08958F929F92AF92BF92CF9250
:1008C000DF92EF92FF920F931F93CF93DF931F92CC
:1008D000CDB7DEB76C017B018A01FB0160817181BC
:1008E00080E090E00E94260D20E030E04AEF53E4E3
:1008F0000E94DC0D23EC35EF48E450E40E94DC0D4F
:100900004B015C01B80180E090E00E94260D9B0144
:10091000AC01C501B4010E948D0C0E94FA0C6983E0
:100920008981F6018083F701118210820F90DF9197
:10093000CF911F910F91FF90EF90DF90CF90BF90DC
:10094000AF909F908F9008958EB1877E8EB98DB1B4
:1009500088618DB9A1E9B0E08C9188618C93E0E960
:10096000F0E080818260808380818E7F80838081BF
:100970008068808380818F7B808380818062808398
:100980008081806180838C9181608C938C91897F40
:100990008C93E6E9F0E089E991E0918380836081BE
:1009A000718180E090E00E94260D20E030E040E080
:1009B0005FE30E94DC0D0E94F50CE8E9F0E0718332
:1009C00060838081918190939B0080939A00089529
:1009D000909131039F5F9F7120910F039217E1F374
:1009E000E92FF0E0EA5AFC4F80832FB7F8949093F8
:1009F0003103E1ECF0E08081806280832FBF0895B5
:100A000090910F03809131039813FACF089590913C
:100A100055039F5F9F71209153039217E1F3E92FD4
:100A2000F0E0EF5EFC4F80832FB7F894909355036E
:100A3000E9ECF0E08081806280832FBF0895CF933E
:100A4000C82FFB0184859585019739F0CA3011F4D0
:100A50008DE0BEDF8C2FBCDF06C0CA3011F48DE004
:100A6000D6DF8C2FD4DF80E090E0CF910895809185
:100A7000100390915203891759F08F5F982F9F713F
:100A8000E92FF0E0E251FD4F80819093100308952B
:100A900080E00895EF92FF920F931F93CF93DF931F
:100AA0007C01162FE4DFF70180838132D8F3E70160
:100AB00021961230C1F01350812F90E002968701E9
:100AC000080F191FD4DF88838823E1F38D3021F4C8
:100AD000CEDF8823E9F307C0813228F021960C1776
:100AE0001D0781F7E8011882DF91CF911F910F91C7
:100AF000FF90EF900895CF93DF93CDB7DEB72797A0
:100B00000FB6F894DEBF0FBECDBF67E0CE010196F1
:100B1000C1DFCE0101960E94480E27960FB6F894C9
:100B2000DEBF0FBECDBFDF91CF910895809110033E
:100B300090915203891761F08F5F8F71E82FF0E079
:100B4000E251FD4F908180931003892F90E008952A
:100B50008FEF9FEF089580910E03909154038917B2
:100B600061F08F5F8F71E82FF0E0EE5CFC4F9081B9
:100B700080930E03892F90E008958FEF9FEF0895E3
:100B8000CF93DF93FC0184859585019741F0CEDFFB
:100B9000EC019923E4F31CDFCE01992707C0DBDFCA
:100BA000EC019923E4F333DFCE0199279927DF91F4
:100BB000CF9108950F930FB7EF93FF93E0910F0339
:100BC000F0913103E395EF71EF1305C0F091C1008F
:100BD000FF7DF093C100E0930F03F0E0EA5AFC4F71
:100BE000E081E093C600FF91EF910FBF0F91189540
:100BF0000F930FB79F939091C600EF93FF93E091EF
:100C00005203F0911003E395EF71FE1731F0E0937A
:100C10005203F0E0E251FD4F9083FF91EF919F91DD
:100C20000FBF0F9118950F930FB7EF93FF93E091BC
:100C30005303F0915503E395EF71EF1305C0F09165
:100C4000C900FF7DF093C900E0935303F0E0EF5E2D
:100C5000FC4FE081E093CE00FF91EF910FBF0F9129
:100C600018950F930FB79F939091CE00EF93FF933A
:100C7000E0915403F0910E03E395EF71FE1731F00C
:100C8000E0935403F0E0EE5CFC4F9083FF91EF9112
:100C90009F910FBF0F911895E1E8F0E0808183608C
:100CA0008083808188608083109285001092840008
:100CB000EFE6F0E08081826080838DE790E09093A2
:100CC000890080938800089584B5856084BD84B5CB
:100CD000886084BD16BCEEE6F0E08081826080838F
:100CE00087E287BD0895F8942FD52EDE60E070E08E
:100CF00080E090E00FD4D0DFE7DFD2DD80E033D5B5
:100D00001092C4001092C50088E98093C100E6E704
:100D1000F3E084E091E093838283918380830EDB10
:100D2000789462E171E086E491E061DC68ED72E064
:100D300082E191E00FDC809145018823E9F08DB7D5
:100D40009EB74C970FB6F8949EBF0FBE8DBFADB740
:100D5000BEB711968CE1E2E1F1E001900D928A9527
:100D6000E1F7DBDC109245018DB79EB74C960FB6CC
:100D7000F8949EBF0FBE8DBF82E191E07DDC82E1E1
:100D800091E02FD2CECF1F920F920FB60F92112467
:100D90000BB60F92EF920F931F932F933F934F93A6
:100DA0005F936F937F938F939F93AF93BF93EF93D3
:100DB000FF9380914901813041F5809345018091F5
:100DC000260190912701009739F480912801843001
:100DD00041F01092280105C001979093270180935C
:100DE0002601E2E1F1E00085118522853385448109
:100DF0005581668177810F2EFAE0EF2EF02D8EE17E
:100E000091E0B8D11092490103C08F5F80934901EE
:100E100080914701909148018436910551F581E018
:100E20008093460144EF51E062E471E083E291E097
:100E300042DD8DB79EB74C970FB6F8949EBF0FBE9C
:100E40008DBFADB7BEB711968CE1E2E1F1E0019044
:100E50000D928A95E1F7EDDC10924801109247015E
:100E60008DB79EB74C960FB6F8949EBF0FBE8DBF40
:100E700005C00196909348018093470182E191E07B
:100E800065DAFF91EF91BF91AF919F918F917F9123
:100E90006F915F914F913F912F911F910F91EF9023
:100EA0000F900BBE0F900FBE0F901F9018951F92C2
:100EB0000F920FB60F9211240BB60F922F933F9300
:100EC0004F935F936F937F938F939F93AF93BF9352
:100ED000EF93FF9380914401843031F482E291E0FA
:100EE0001ADB1092440112C0833021F484E0809315
:100EF000440118C080914401823041F48AE191E0BC
:100F0000D9DA809144018F5F80934401809144013C
:100F1000813041F486E191E0AEDA809144018F5F47
:100F20008093440180914401811108C082E191E0E5
:100F300083DA809144018F5F80934401FF91EF91A8
:100F4000BF91AF919F918F917F916F915F914F91E1
:100F50003F912F910F900BBE0F900FBE0F901F90DF
:100F600018951F920F920FB60F9211248F939F9393
:100F700080914201909143010196909343018093A7
:100F800042019F918F910F900FBE0F901F90189567
:100F90008F929F92AF92BF92CF92DF92EF92FF9289
:100FA0000F931F93CF93DF9300D000D0CDB7DEB760
:100FB0008C0180E090E04AD520E030E040EA50E447
:100FC000FBD520E030E040E859E3F6D529E23CE5E6
:100FD0004FE050E439D423EC34E64AE25DE39DD49B
:100FE00020E030E040E450E498D469837A838B8336
:100FF0009C8369817A818B819C812EEA37E441EE62
:101000005FE322D469837A838B839C8389809A806F
:10101000AB80BC8026E636E646E65FE3F8016081F9
:10102000718182819381C8D56B017C012DEC3CECF0
:101030004CEC5DE3C501B401BFD59B01AC01C70118
:10104000B60103D4F80160837183828393830F9088
:101050000F900F900F90DF91CF911F910F91FF9004
:10106000EF90DF90CF90BF90AF909F908F900895BA
:101070000F931F93CF93DF9300D000D0CDB7DEB78F
:101080008C0180E090E0E2D420E030E040EA50E4DF
:1010900093D520E030E040E859E38ED569837A8328
:1010A0008B839C8369817A818B819C812DEC3CECC4
:1010B0004CE650E42ED418168CF069817A818B812D
:1010C0009C8120E030E040EA51E476D520E030E039
:1010D00040EB51E4B9D38ED4F801608369817A8101
:1010E0008B819C8126E636E646E950E412D4181638
:1010F000E4F069817A818B819C812DEC3CEC4CE69B
:1011000050E456D518168CF469817A818B819C81C4
:1011100020E030E04EE552E44FD520E030E84BE1EE
:1011200053E492D367D4F801608369817A818B811B
:101130009C8126E636E646E950E43AD518168CF44A
:1011400069817A818B819C8120E030E048E453E41E
:1011500033D520E030E042E554E476D34BD4F801B7
:1011600060830F900F900F900F90DF91CF911F91A0
:101170000F9108958F929F92AF92BF92EF920F932B
:101180001F93CF93DF93EC014A015B01C901B801C2
:10119000A501940111D54B015C016E2D70E080E03A
:1011A00090E054D49B01AC01C501B40105D520E009
:1011B00030E04AE754E4B1D39B01AC016881798106
:1011C0008A819B8142D3688379838A839B83DF9161
:1011D000CF911F910F91EF90BF90AF909F908F9004
:1011E00008958F929F92AF92BF92CF92DF92EF922B
:1011F000FF92CF93DF93EC01C884D984EA84FB8407
:1012000020E030E040E751E4C701B60182D38823F3
:101210004CF020E030E048EC52E4C701B601C8D4FD
:10122000181624F48E89843009F01E8A88809980EB
:10123000AA80BB8020E030E040E751E4C501B40162
:10124000B7D48823B4F420E030E04CE552E4C70181
:10125000B601AED418164CF420E030E048EC52E46D
:10126000C701B60156D3882324F088898436F0F468
:1012700019C084E08E8B88898436D0F420E030E079
:1012800040E751E4C501B40144D388238CF420E045
:1012900030E04CE552E4C701B6013BD3181644F0E8
:1012A0001E8A06C08E89843019F4E8CF84E08E8BC4
:1012B000DF91CF91FF90EF90DF90CF90BF90AF90F4
:1012C0009F908F90089590E08830910588F5FC01FB
:1012D000E65BFF4FD4C486E0FB0180831182089552
:1012E00086E0FB01808380E48183089586E0FB0132
:1012F000808380E88183089586E0FB01808380EC11
:101300008183089587E0FB0180831182089587E03F
:10131000FB01808380E48183089587E0FB01808363
:1013200080E88183089587E0FB01808380EC8183DE
:1013300008951F920F920FB60F9211240BB60F92C1
:101340002F933F934F935F936F938F939F93AF939D
:10135000BF93EF93FF93CF93DF931F92CDB7DEB789
:101360008091E00080FF47C09091DE0090FF43C075
:101370001092ED00EEEEF0E08081898380818F7B1A
:10138000808380914F0190914E01981789F18F7061
:101390002BE0829FC0011124FC01E050FE4F208110
:1013A0002093F00020812093F20021812093F3000C
:1013B0002381AAEFB0E02C9324812C9325812C93D8
:1013C00026812C9327812C9320852C9321852C9387
:1013D00022852C93FC01EE5FFD4F80818F7080642D
:1013E0008093EF0080914F018F5F80934F017DC00C
:1013F00010924D017AC081FF78C08091DE0081FF9C
:1014000074C080E18093ED0080914B01282F30E083
:1014100090914C01291B31092F7733272031310559
:101420000CF058C0E82FEF709091EF002E2F30E0B5
:101430004BE0E49FF0011124E05BFE4F9F7042817E
:10144000407F942B92834091F2009091F000407E77
:101450009770942B90839091F3009183AAEFB0E062
:101460009C9193839C9194839C9195839C9196836A
:101470009C9197839C9190879C9191879C91928756
:101480008F5F80934B014081429546954770518113
:10149000652F660F660F660F862F842B952F92950A
:1014A00096959770892BB1F48BE0829FF001839F12
:1014B000F00D1124E05BFE4F8381833059F498E0F6
:1014C00088E10FB6F894A895809360000FBE9093C2
:1014D0006000FFCFEEEEF0E080818983898180811A
:1014E0008F7D808380E88093EF000F90DF91CF9114
:1014F000FF91EF91BF91AF919F918F916F915F910C
:101500004F913F912F910F900BBE0F900FBE0F90F8
:101510001F901895CF93DF93E8EDF0E021E0208352
:101520001092E2002CE02093E30027E32093E400F4
:101530001092E7001092E6001092E9001092E80085
:101540001092EC001092E500CDEED0E01882AEEEE5
:10155000B0E01C9220E128831C921092F400282F06
:101560002295220F207E2093F600969587959695DA
:101570008795969587958093F7001092F000862FB7
:101580008295880F807E8093F20076956795769598
:101590006795769567956093F30080E88093EF00F8
:1015A00083E08093DC008093DE0080EB8093DB009F
:1015B00082E0808310924A01DF91CF910895CF930A
:1015C000DF93EC0140914C0120914B01241789F1EC
:1015D000A42FAF708BE0A89FB0011124FB01E05B4A
:1015E000FE4F20812295269527703181532F550F6C
:1015F000550F550F252B3295369537702883398333
:10160000FB01EE5AFE4F20812F702A83222399F08E
:10161000DB01AD5ABE4FFE01339630E02D5F3F4FE8
:10162000CE01820F931F2D912193E817F907D9F767
:1016300002C080E004C04F5F40934C0181E0DF9125
:10164000CF910895CF93DF93FC01ABEDB0E08C9187
:101650008F778C9380914D01811127C01092ED00FE
:1016600080818295880F807E8093F20080819181B5
:101670009695879596958795969587958093F3008F
:10168000DF0113969F01255F3F4FCAEFD0E09D9188
:101690009883A217B307D9F781E080934D01828127
:1016A00080648093EF0081E043C020914E01822F3F
:1016B00090E030914F01831B91098F7799274097D4
:1016C000B1F1A22FAF708BE0A89FD0011124ED01E2
:1016D000C050DE4F8081982F9295990F907E88811F
:1016E0008F71892B88838081982F969596959695F2
:1016F0008981807E892B898391819295990F907E33
:101700008F71892B89838281982F9F708A81807F36
:10171000892B8A83AD5FBD4F339688E001900D928F
:101720008A95E1F72F5F20934E0181E001C080E0B0
:10173000EBEDF0E0908190689083DF91CF91089578
:1017400095B1892B85B9089584B1806E84B980EEF6
:10175000F7CF089595B18095982395B9089595B1DF
:10176000892785B9089594B1976094B982FB992728
:1017700090F9282F227081708065822B8CBD8CB5EA
:10178000837F8CBD9DBD0895CF93DF93EC01289896
:1017900041155105C1F0FB01DC01460F571F8FEFCA
:1017A000209711F09C9101C0982F9EBD0DB407FEAB
:1017B000FDCF6115710511F09EB59083319611969C
:1017C000E417F50769F72111289ADF91CF91089561
:1017D0001F920F920FB60F9211240BB60F922F93F8
:1017E0003F934F935F936F937F938F93AF93BF9389
:1017F000EF93FF93A0EDB2E0E0EBF2E020ED32E0FA
:101800008D91882359F04081518162817381505EAE
:101810006F4F7F4F40835183628373833496E21707
:10182000F30771F7FF91EF91BF91AF918F917F9186
:101830006F915F914F913F912F910F900BBE0F9041
:101840000FBE0F901F9018955058BB27AA270ED097
:1018500075C166D130F06BD120F031F49F3F11F4A7
:101860001EF45BC10EF4E095E7FB51C1E92F77D17F
:1018700080F3BA17620773078407950718F071F4AD
:101880009EF58FC10EF4E0950B2EBA2FA02D0B0103
:10189000B90190010C01CA01A0011124FF27591BB5
:1018A00099F0593F50F4503E68F11A16F040A22FBB
:1018B000232F342F4427585FF3CF4695379527952C
:1018C000A795F0405395C9F77EF41F16BA0B620B2B
:1018D000730B840BBAF09150A1F0FF0FBB1F661F72
:1018E000771F881FC2F70EC0BA0F621F731F841FB5
:1018F00048F4879577956795B795F7959E3F08F0DB
:10190000B3CF9395880F08F09927EE0F9795879599
:101910000895D9D008F481E008950CD00FC107D103
:1019200040F0FED030F021F45F3F19F0F0C05111CB
:1019300039C1F3C014D198F39923C9F35523B1F3F6
:10194000951B550BBB27AA2762177307840738F02E
:101950009F5F5F4F220F331F441FAA1FA9F333D08D
:101960000E2E3AF0E0E830D091505040E695001C41
:10197000CAF729D0FE2F27D0660F771F881FBB1FFD
:10198000261737074807AB07B0E809F0BB0B802DD7
:10199000BF01FF2793585F4F2AF09E3F510568F023
:1019A000B6C000C15F3FECF3983EDCF386957795B7
:1019B0006795B795F7959F5FC9F7880F911D969525
:1019C000879597F90895E1E0660F771F881FBB1F81
:1019D000621773078407BA0720F0621B730B840B2E
:1019E000BA0BEE1F88F7E095089504D06894B11102
:1019F000D9C00895BCD088F09F5790F0B92F99278F
:101A0000B751A0F0D1F0660F771F881F991F1AF009
:101A1000BA95C9F712C0B13081F0C3D0B1E00895D2
:101A2000C0C0672F782F8827B85F39F0B93FCCF353
:101A3000869577956795B395D9F73EF490958095FF
:101A4000709561957F4F8F4F9F4F0895E89409C01F
:101A500097FB3EF490958095709561957F4F8F4FE1
:101A60009F4F9923A9F0F92F96E9BB279395F695F7
:101A7000879577956795B795F111F8CFFAF4BB0F75
:101A800011F460FF1BC06F5F7F4F8F4F9F4F16C0D9
:101A9000882311F096E911C0772321F09EE8872F63
:101AA000762F05C0662371F096E8862F70E060E01F
:101AB0002AF09A95660F771F881FDAF7880F969598
:101AC000879597F90895990F0008550FAA0BE0E83C
:101AD000FEEF16161706E807F907C0F012161306F0
:101AE000E407F50798F0621B730B840B950B39F430
:101AF0000A2661F0232B242B252B21F408950A2696
:101B000009F4A140A6958FEF811D811D089597F9D5
:101B10009F6780E870E060E008959FEF80EC089593
:101B200000240A94161617061806090608950024BC
:101B30000A9412161306140605060895092E039436
:101B4000000C11F4882352F0BB0F40F4BF2B11F4AA
:101B500060FF04C06F5F7F4F8F4F9F4F089557FD09
:101B60009058440F551F59F05F3F71F04795880F0B
:101B700097FB991F61F09F3F79F0879508951216A2
:101B800013061406551FF2CF4695F1DF08C016164E
:101B900017061806991FF1CF8695710561050894FF
:101BA0000895E894BB2766277727CB0197F9089516
:101BB0008ADF08F48FEF08950BD0C0CFB1DF28F093
:101BC000B6DF18F0952309F0A2CFA7CF1124EACFF2
:101BD000C6DFA0F3959FD1F3950F50E0551F629F8C
:101BE000F001729FBB27F00DB11D639FAA27F00D76
:101BF000B11DAA1F649F6627B00DA11D661F829F9D
:101C00002227B00DA11D621F739FB00DA11D621F81
:101C1000839FA00D611D221F749F3327A00D611D9E
:101C2000231F849F600D211D822F762F6A2F112480
:101C30009F5750408AF0E1F088234AF0EE0FFF1FD3
:101C4000BB1F661F771F881F91505040A9F79E3F0A
:101C5000510570F05CCFA6CF5F3FECF3983EDCF30C
:101C6000869577956795B795F795E7959F5FC1F747
:101C7000FE2B880F911D9695879597F90895EE0F85
:101C8000FF1F0024001C0BBE0790F691E02D099465
:101C9000FC0188279927E89421912032E9F3293023
:101CA00010F02E30C8F32B3239F02D3231F4689415
:101CB00003C00BD0820F911D219120532A30C8F30D
:101CC0001EF4909581959F4F08957AE0979F902DEF
:101CD000879F802D910D11240895CF93DF93CDB769
:101CE000DEB7AE014B5F5F4FFA0161917191AF01B9
:101CF000809178039091790308D0DF91CF91089576
:101D0000609178037091790313C22F923F924F92A2
:101D10005F926F927F928F929F92AF92BF92CF927B
:101D2000DF92EF92FF920F931F93CF93DF93CDB784
:101D3000DEB72B970FB6F894DEBF0FBECDBF6C0198
:101D40007B018A01FC0117821682838181FFBFC15A
:101D5000CE0101963C01F6019381F70193FD859137
:101D600093FF81917F01882309F4ADC1853239F455
:101D700093FD859193FF81917F01853221F4B60116
:101D800090E0D6D1E8CF912C212C312CFFE1F31536
:101D9000D8F08B3279F038F4803279F08332A1F4C4
:101DA000232D20611DC08D3261F0803369F4232D15
:101DB000216016C0832D8260382EE32DE4603E2E14
:101DC0002AC0F32DF8601DC037FC2DC020ED280F70
:101DD0002A3040F08E32B9F436FC75C1232D2064D0
:101DE000322E19C036FE06C08AE0989E200D1124BE
:101DF000922E11C0EAE02E9E200D1124222EF32DEA
:101E0000F0623F2E08C08C3621F4832D8068382E76
:101E100002C0883641F4F70193FD859193FF8191CB
:101E20007F018111B3CF982F9F7D9554933028F473
:101E30000C5F1F4F9FE399830DC0833631F08337CA
:101E400071F0833509F055C020C0F8018081898385
:101E50000E5F1F4F88248394912C530112C02801D8
:101E6000F2E04F0E511CF801A080B18036FE03C095
:101E7000692D70E002C06FEF7FEFC5014ED14C01BC
:101E80008201F32DFF773F2E15C0280122E0420E7C
:101E9000511CF801A080B18036FE03C0692D70E0AE
:101EA00002C06FEF7FEFC5012DD14C01F32DF0681B
:101EB0003F2E820133FC19C0822D90E088169906CE
:101EC000A0F4B60180E290E033D12A94F5CFF50179
:101ED00037FC859137FE81915F01B60190E028D1F2
:101EE00021102A9421E0821A91088114910479F733
:101EF000E1C0843611F0893639F5F80137FE07C0A4
:101F000060817181828193810C5F1F4F08C0608165
:101F10007181072E000C880B990B0E5F1F4FF32D5C
:101F2000FF763F2E97FF09C090958095709561953B
:101F30007F4F8F4F9F4FF0683F2E2AE030E0A30184
:101F400033D1882E861844C0853731F4232D2F7E57
:101F5000B22E2AE030E025C0932D997FB92E8F361E
:101F6000C1F018F4883579F0AEC0803719F08837A1
:101F700021F0A9C0E92FE061BE2EB4FE0DC0FB2DFB
:101F8000F460BF2E09C034FE0AC0292F2660B22E8D
:101F900006C028E030E005C020E130E002C020E1CA
:101FA00032E0F801B7FE07C06081718182819381C0
:101FB0000C5F1F4F06C06081718180E090E00E5F72
:101FC0001F4FA301F1D0882E8618FB2DFF773F2EDF
:101FD00036FE0DC0232D2E7FA22E891458F434FE18
:101FE0000BC032FC09C0832D8E7EA82E05C0B82CF4
:101FF000A32C03C0B82C01C0B92CA4FE0FC0FE0155
:10200000E80DF11D8081803321F49A2D997EA92E4F
:1020100009C0A2FE06C0B394B39404C08A2D86788A
:1020200009F0B394A3FC10C0A0FE06C0B21480F463
:10203000280C922C9B180DC0B21458F4B60180E203
:1020400090E076D0B394F8CFB21418F42B1802C0F5
:10205000982C212CA4FE0FC0B60180E390E068D03C
:10206000A2FE16C0A1FC03C088E790E002C088E58C
:1020700090E0B6010CC08A2D867851F0A1FE02C016
:102080008BE201C080E2A7FC8DE2B60190E050D067
:10209000891430F4B60180E390E04AD09A94F8CFE6
:1020A0008A94F301E80DF11D8081B60190E040D0E3
:1020B0008110F6CF222009F44ECEB60180E290E0E6
:1020C00037D02A94F7CFF6018681978102C08FEF2F
:1020D0009FEF2B960FB6F894DEBF0FBECDBFDF91FA
:1020E000CF911F910F91FF90EF90DF90CF90BF9015
:1020F000AF909F908F907F906F905F904F903F90A8
:102100002F900895FC010590615070400110D8F7A0
:10211000809590958E0F9F1F0895FC01615070402F
:1021200001900110D8F7809590958E0F9F1F08950C
:102130000F931F93CF93DF93FB01238121FD03C0F6
:102140008FEF9FEF2CC022FF16C04681578124815C
:1021500035814217530744F4A081B1819D012F5F5F
:102160003F4F318320838C93268137812F5F3F4FF0
:102170003783268314C08B01EC01FB010084F185B9
:10218000E02D0995892BE1F6D80116968D919C9149
:102190001797019617969C938E931697CE01DF9111
:1021A000CF911F910F910895FA01AA27283051F17C
:1021B000203181F1E8946F936E7F6E5F7F4F8F4F78
:1021C0009F4FAF4FB1E03ED0B4E03CD0670F781FD7
:1021D000891F9A1FA11D680F791F8A1F911DA11DBC
:1021E0006A0F711D811D911DA11D20D009F46894F5
:1021F0003F912AE0269F11243019305D3193DEF69D
:10220000CF010895462F4770405D4193B3E00FD052
:10221000C9F7F6CF462F4F70405D4A3318F0495D3D
:1022200031FD4052419302D0A9F7EACFB4E0A69520
:102230009795879577956795BA95C9F70097610542
:10224000710508959B01AC010A2E06945795479598
:1022500037952795BA95C9F7620F731F841F951F8D
:08226000A01D0895F894FFCFC2
:102268000000484200000003000000001F05C005F0
:102278000000000000000000000000000000000056
:102288000000000000321400000000000000257566
:0422980000256900B4
:00000001FF
