S01C00004D6F746F72436F6E74726F6C6C65725F323031382E73726563A9
S113000051C000006DC000006BC0000069C000005A
S113001067C0000065C000000C94920861C0000035
S11300205FC000005DC000005BC0000059C000005C
S11300300C94380855C0000053C0000051C00000A3
S113004086C700000C94630C0C94140A49C0000089
S113005047C00000B0C6000090C6000041C00000C8
S11300603FC000003DC000003BC0000039C000009C
S113007037C0000035C0000033C0000031C00000AC
S1130080D3C60000B3C600002BC0000029C0000086
S113009027C00000E609EB09F109F709FD09020A86
S11300A0080A0E0A11241FBECFEFD0E1DEBFCDBF78
S11300B013E0A0E0B1E0E4E3FEE100E00BBF02C026
S11300C007900D92A83EB107D9F726E0A8EEB3E059
S11300D001C01D92A233B207E1F7E8D60C94180FC1
S11300E08FCF1092ED031092EE031092EF03109253
S11300F0F00308954F925F926F927F928F929F9236
S1130100AF92BF92CF92DF92EF92FF920F931F9321
S1130110CF93DF934B015C0129013A01E1107FC0C9
S1130120C0900001D0900101E0900201F090030121
S113013020E030E04EEB52E4C701B6010E94530EBA
S1130140882354F420E030E048E452E4C701B601C7
S11301500E94040D181624F081E08093E80302C085
S11301601092E803A3019201C501B4010E949F0CFF
S11301706B017C016093E9037093EA038093EB03C2
S11301809093EC038091E80381111CC02AE037EDC1
S113019043E25CE3C701B6010E94570E9B01AC0128
S11301A06091ED037091EE038091EF039091F00361
S11301B00E94A00C6093ED037093EE038093EF0311
S11301C09093F00323E333E343E752E46091ED03B8
S11301D07091EE038091EF039091F0030E94570E0B
S11301E04B015C0129EF3FE049E75FE3C701B6013A
S11301F00E94570E9B01AC01C501B4010E94A00CE2
S113020020E030E048E452E40E94A00C6093000136
S113021070930101809302019093030112C081E065
S1130220E8120FC0F801608170E080E090E00E9465
S1130230A10D6093000170930101809302019093DA
S11302400301C0900001D0900101E0900201F09000
S1130250030120E030E04EEB52E4C701B6010E94F6
S1130260530E18166CF480E090E0AEEBB2E4809389
S1130270000190930101A0930201B093030116C001
S113028020E030E048E452E4C701B6010E94040DC6
S1130290882364F480E090E0A8E4B2E48093000151
S11302A090930101A0930201B0930301C6E9D0E049
S11302B0E880F98020E030E048EC52E460910001ED
S11302C07091010180910201909103010E94080D37
S11302D04B015C01B70180E090E00E94A10D9B01FD
S11302E0AC01C501B4010E94570E0E94700D7093B9
S11302F0990060939800688179810990D881C02D14
S113030080E090E00E94A10D6B017C0120E030E0D0
S113031048EC52E460910001709101018091020166
S1130320909103010E94080D4B015C01BE0180E025
S113033090E00E94A10D9B01AC01C501B4010E9493
S1130340570E9B01AC01C701B6010E949F0C0E948D
S1130350700D70939B0060939A00609100017091FE
S1130360010180910201909103010E94750DF80131
S11303706083DF91CF911F910F91FF90EF90DF90F9
S1130380CF90BF90AF909F908F907F906F905F9031
S11303904F900895249A0895882311F02C9A089573
S11303A02C980895CF93DF93EC0165EF73E080E020
S11303B00E94DE0921E043E050E062EF73E085EF44
S11303C093E00E943F0CE2EFF3E061816F7161837F
S11303D070E0762F66278281682B40E0CE01B9D683
S11303E0DF91CF910895CF93DF93EC0165EF73E034
S11303F081E0E4D721E043E050E062EF73E085EF71
S113040093E00E943F0CE2EFF3E061816F7161833E
S113041070E0762F66278281682B41E0CE0199D661
S1130420DF91CF910895CF93DF93EC0165EF73E0F3
S113043082E0C4D721E043E050E062EF73E085EF4F
S113044093E00E943F0CE2EFF3E061816F716183FE
S113045070E0762F66278281682B80E090E00E940E
S1130460A10D23E333E344E852E40E94080D24EA97
S113047030E74DEB5EE30E949F0C688379838A83A7
S11304809B83DF91CF910895CF93DF93EC0165EFC8
S113049073E084E093D721E043E050E062EF73E03F
S11304A085EF93E00E943F0CE2EFF3E061816F710E
S11304B0618370E0762F66278281682BCE01C5D6D2
S11304C0DF91CF910895FF920F931F93CF93DF9302
S11304D08C01EB01CB010E945A0B882309F452C012
S11304E0F801F688F4E0FF1609F44CC0888199817C
S11304F08033924009F046C081E0F801878B88EC94
S113050090E0958B848B6E816B30E0F08F2D8D7F26
S11305108130C1F4838D813019F4685D638B14C01C
S1130520811112C070E080E090E00E94A30D20E0F1
S113053030E040E251E40E94080D0E94700DF80181
S1130540628B02C0F801128A6D816A31C8F08EEFA5
S11305508F0D8230A8F470E0719561957109072EB2
S1130560000C880B990B0E94A30D20E030E040EAB8
S113057051E40E94080D0E94700DF801628B02C0C4
S1130580F801128ADF91CF911F910F91FF90089586
S1130590EF92FF920F931F93CF93DF93E9E9F5E076
S11305A020E532E03183208328E02283FC0120818E
S11305B0222371F1EB018C010F2EF9E9EF2EF5E006
S11305C0FF2EF02D8E89F70183838B8984836881C4
S11305D079818A819B810E94750DF70176836583F9
S11305E020E030E04AE754E46C857D858E859F8564
S11305F00E94570E0E94750DF701708767838989E1
S113060090E092878187C7010E949D0BF8011082B8
S1130610DF91CF911F910F91FF90EF900895FF927A
S11306200F931F93CF93DF9300D000D0CDB7DEB7E5
S1130630AC01909108062091C605921B9F7109F4A4
S1130640AAC08A018091F103823009F054C0FA01F2
S113065087898111A0C032D39C838B83B4D28B81D0
S11306609C810B9769F4F801138E8FE291E00E944C
S1130670E80E81E0F801848F88EC90E0958B848B00
S11306808B819C810C9771F4FF24F394F801F38E11
S113069080E591E00E94E80EF801F48E88EC90E089
S11306A0958B848B8B819C810D9769F4F801158A55
S11306B0148A8DE691E00E94E80E8BE791E00E9497
S11306C0E80EF801148EF801838D81110EC08B8120
S11306D09C81873F9F4F7CF08B819C810A975CF4BF
S11306E08B819C81F801828B06C0813021F48B813F
S11306F09C81F801838B8091F1038130C1F5DED2B6
S11307009A83898360D289819A81019779F480E9F7
S113071091E00E94E80E81E0F801848F82E08093EA
S1130720F10389819A810297B1F504C089819A8184
S11307300297E9F4F801178A82E08093F10382EBCF
S113074091E00E94E80E80ED91E00E94E80E89E0BD
S113075092E00E94E80E82E492E00E94E80E8CE7A8
S113076092E00E94E80E89EE92E00E94E80E8091E9
S1130770F103811110C08EE293E00E94E80E81E63D
S113078093E00E94E80E84EA93E00E94E80E1BD2F4
S113079081E08093F1030F900F900F900F90DF9101
S11307A0CF911F910F91FF900895CF93DF93CDB711
S11307B0DEB7DF91CF910895CF93DF93CDB7DEB746
S11307C08B8D8230F9F028F4882341F0813081F058
S11307D036C0833009F1843049F131C080E40E948D
S11307E01B0C80E20E941B0C80E80E94250C27C091
S11307F080E20E941B0C80E80E941B0C80E40E9493
S11308002A0C1DC080E20E941B0C80E80E941B0C75
S113081080E40E942A0C13C080E20E941B0C80E832
S11308200E941B0C80E40E94250C09C080E40E94F5
S11308301B0C80E80E941B0C80E20E94250CDF91B7
S1130840CF9108956D987598ED98EAE6F0E080816F
S11308508C608083E59AED9A08958F929F92AF926F
S1130860BF92CF92DF92EF92FF920F931F93CF9399
S1130870DF931F92CDB7DEB76C017B018A01FB01C8
S11308806081718180E090E00E94A10D20E030E061
S11308904AEF53E40E94570E23EC35EF48E450E44A
S11308A00E94570E4B015C01B80180E090E00E9469
S11308B0A10D9B01AC01C501B4010E94080D0E9469
S11308C0750D69838981F6018083F7011182108295
S11308D00F90DF91CF911F910F91FF90EF90DF90D8
S11308E0CF90BF90AF909F908F9008958F929F92DA
S11308F0AF92BF92CF92DF92EF92FF920F931F932A
S1130900CF93DF93EC01C884D984EA84FB8420E08C
S113091030E040E751E4C701B6010E94530E88233A
S11309205CF120E030E048EC52E4C701B6010E94DB
S1130930040D88230CF4C7C0F12C22C020E030E061
S11309404CE552E4C701B6010E94530E1816B4F4E4
S113095081E08093F7038E89823009F46FC030F40C
S11309608823F9F0813009F44FC096C0833059F1DF
S1130970843009F487C090C0F12C02C0FF24F394A2
S11309808E89823009F45CC030F4882361F08130B0
S113099009F43CC083C08330C1F0843009F468C0DA
S11309A07DC0FF24F3948C899D89892B21F0FF203D
S11309B011F083E08E8B80E0EFDC1A8E92DB1A8AD2
S11309C082E38B8B6BC0FF24F3948A89181614F48A
S11309D091E09E8B882314F482E08E8B81E0DCDC32
S11309E088809980AA80BB806A89062E000C770BC8
S11309F0880B990B0E94A30DEB8C8E010D5E1F4F8B
S1130A00A501940177DB4AC0FF24F3946A8961113C
S1130A1002C083E08E8B88809980AA80BB80062EDA
S1130A20000C770B880B990B0E94A30DEB8C8E01A5
S1130A300D5E1F4FA50194015DDB30C0FF24F394CC
S1130A406A89611102C083E08E8B88809980AA80B4
S1130A50BB80062E000C770B880B990B0E94A30D0C
S1130A60EB8C8E010D5E1F4FA501940143DB16C074
S1130A708091F703811108C08889843628F483E0C3
S1130A808E8B02C0FF24F39480E086DC1A8E29DB6F
S1130A901A8A82E38B8B02C0FF24F3948E898150DF
S1130AA0833038F48C899D89892B11F0F11001C0B1
S1130AB01E8A8091F703811103C08889843688F0E7
S1130AC084E08E8B0EC020E030E040E751E4688182
S1130AD079818A819B810E94530E88230CF038CF40
S1130AE02DCFDF91CF911F910F91FF90EF90DF9069
S1130AF0CF90BF90AF909F908F900895CF93DF9346
S1130B008EB1877E8EB98DB188618DB9A1E9B0E0CF
S1130B108C9180618C938C91877F8C93E0E9F0E0D9
S1130B2080818260808380818E7F808380818068E1
S1130B30808380818F7B80838081806280838081B9
S1130B408F7E80838C9181608C938C91897F8C9330
S1130B50C6E9D0E085E890E099838883688179814B
S1130B6080E090E0EED720E030E040E05FE30E94D8
S1130B70570EB6D7E8E9F0E07183608388819981E4
S1130B8020813181821B930B90939B0080939A0068
S1130B90DF91CF9108959091E7059F5F9F71209118
S1130BA0C5059217E1F3E92FF0E0E45FF94F808384
S1130BB02FB7F8949093E705E1ECF0E08081806230
S1130BC080832FBF08959091C5058091E705981300
S1130BD0FACF089590910B069F5F9F7120910906AB
S1130BE09217E1F3E92FF0E0E953FA4F80832FB72E
S1130BF0F89490930B06E9ECF0E0808180628083A6
S1130C002FBF0895CF93C82FFB0184859585019745
S1130C1039F0CA3011F48DE0BEDF8C2FBCDF06C082
S1130C20CA3011F48DE0D6DF8C2FD4DF80E090E061
S1130C30CF9108958091C60590910806891759F0BF
S1130C408F5F982F9F71E92FF0E0EC55FA4F808168
S1130C509093C605089580E00895EF92FF920F9354
S1130C601F93CF93DF937C01162FE4DFF70180837A
S1130C708132D8F3E70121961230C1F01350812F4D
S1130C8090E002968701080F191FD4DF8883882318
S1130C90E1F38D3021F4CEDF8823E9F307C08132FC
S1130CA028F021960C171D0781F7E8011882DF91BF
S1130CB0CF911F910F91FF90EF900895CF93DF9301
S1130CC0CDB7DEB727970FB6F894DEBF0FBECDBF02
S1130CD067E0CE010196C1DFCE0101960E94C30EEA
S1130CE027960FB6F894DEBF0FBECDBFDF91CF912C
S1130CF008958091C60590910806891761F08F5F69
S1130D008F71E82FF0E0EC55FA4F90818093C6057F
S1130D10892F90E008958FEF9FEF08958091C40587
S1130D2090910A06891761F08F5F8F71E82FF0E0C8
S1130D30E851FA4F90818093C405892F90E008957B
S1130D408FEF9FEF0895CF93DF93FC018485958502
S1130D50019741F0CEDFEC019923E4F31CDFCE01CF
S1130D60992707C0DBDFEC019923E4F333DFCE01DD
S1130D7099279927DF91CF9108950F930FB7EF9398
S1130D80FF93E091C505F091E705E395EF71EF134B
S1130D9005C0F091C100FF7DF093C100E093C5054B
S1130DA0F0E0E45FF94FE081E093C600FF91EF913A
S1130DB00FBF0F9118950F930FB79F939091C60093
S1130DC0EF93FF93E0910806F091C605E395EF7168
S1130DD0FE1731F0E0930806F0E0EC55FA4F9083EB
S1130DE0FF91EF919F910FBF0F9118950F930FB73C
S1130DF0EF93FF93E0910906F0910B06E395EF71F1
S1130E00EF1305C0F091C900FF7DF093C900E09392
S1130E100906F0E0E953FA4FE081E093CE00FF9138
S1130E20EF910FBF0F9118950F930FB79F93909168
S1130E30CE00EF93FF93E0910A06F091C405E39589
S1130E40EF71FE1731F0E0930A06F0E0E851FA4F33
S1130E509083FF91EF919F910FBF0F911895E1E857
S1130E60F0E0808183608083808188608083109239
S1130E70850010928400EFE6F0E080818260808338
S1130E808DE790E09093890080938800089584B55D
S1130E90856084BD84B5886084BD16BCEEE6F0E050
S1130EA080818260808387E287BD0895F894C7D4E7
S1130EB025DE60E070E080E090E0A7D3D0DFE7DFDC
S1130EC0C1DC80E0CBD41092C4001092C50088E944
S1130ED08093C100ECE2F6E084E091E093838283A6
S1130EE09183808357DA78946EE875E082E191E02B
S1130EF0EADA82E191E093DB8091FC03882329F014
S1130F0062E171E08CEF93E043DB8091FB03882383
S1130F1059F38DB79EB74D970FB6F8949EBF0FBE89
S1130F208DBFADB7BEB711968DE1E2E1F1E001905E
S1130F300D928A95E1F739DC1092FB038DB79EB7C9
S1130F404D960FB6F8949EBF0FBE8DBFCDCF1F92A6
S1130F500F920FB60F9211240BB60F92EF920F93CC
S1130F601F932F933F934F935F936F937F938F932D
S1130F709F93AF93BF93EF93FF938091FF038130CF
S1130F8029F58093FB038091260190912701009716
S1130F9049F020912901213029F4019790932701E8
S1130FA080932601E2E1F1E00085118522853385F5
S1130FB044815581668177810F2EFAE0EF2EF02D62
S1130FC08EE191E0C4D11092FF0303C08F5F809340
S1130FD0FF038091FD039091FE038436910551F542
S1130FE081E08093FC0344EF51E068EF73E083E217
S1130FF091E033DC8DB79EB74D970FB6F8949EBF42
S11310000FBE8DBFADB7BEB711968DE1E2E1F1E041
S113101001900D928A95E1F7CFDB1092FE031092B6
S1131020FD038DB79EB74D960FB6F8949EBF0FBEC5
S11310308DBF05C001969093FE038093FD0382E16A
S113104091E054DCFF91EF91BF91AF919F918F910B
S11310507F916F915F914F913F912F911F910F91CC
S1131060EF900F900BBE0F900FBE0F901F9018952E
S11310701F920F920FB60F9211240BB60F922F935B
S11310803F934F935F936F937F938F939F93AF930C
S1131090BF93EF93FF938091FA03843031F482E29B
S11310A091E0F2D91092FA0312C0833021F484E063
S11310B08093FA0318C08091FA03823041F48AE1E4
S11310C091E0B1D98091FA038F5F8093FA03809104
S11310D0FA03813041F486E191E085D98091FA03E5
S11310E08F5F8093FA038091FA03811108C082E133
S11310F091E058D98091FA038F5F8093FA03FF91AE
S1131100EF91BF91AF919F918F917F916F915F917B
S11311104F913F912F910F900BBE0F900FBE0F90E8
S11311201F9018951F920F920FB60F9211248F9350
S11311309F938091F8039091F90301969093F9039A
S11311408093F8039F918F910F900FBE0F901F9083
S113115018958F929F92AF92BF92CF92DF92EF92A7
S1131160FF920F931F93CF93DF9300D000D0CDB79E
S1131170DEB78C01F42E80E090E0E3D420E030E090
S113118040EA50E494D520E030E040E859E38FD5BC
S11311902EEA37E441E250E4D2D323EC34E64AE2C7
S11311A05DE336D469837A838B839C83FF2071F05B
S11311B069817A818B819C8120E030E040E85FE3A3
S11311C0BFD369837A838B839C830DC069817A81C1
S11311D08B819C812CEE31E548E95FE3B1D36983CF
S11311E07A838B839C8389809A80AB80BC8026E63B
S11311F036E646E65FE3F80160817181828193817E
S113120056D56B017C012DEC3CEC4CEC5DE3C50147
S1131210B4014DD59B01AC01C701B60191D3F801CE
S113122060837183828393830F900F900F900F904C
S1131230DF91CF911F910F91FF90EF90DF90CF90AE
S1131240BF90AF909F908F9008950F931F93CF936B
S1131250DF9300D000D0CDB7DEB78C0180E090E002
S113126070D420E030E040EA50E421D520E030E0C2
S113127040E859E31CD569837A838B839C83698115
S11312807A818B819C812DEC3CEC4CE650E4BCD300
S113129018168CF069817A818B819C8120E030E082
S11312A040EA51E404D520E030E040EB51E447D378
S11312B01CD4F801608369817A818B819C8126E644
S11312C036E646E950E4A0D31816E4F069817A8141
S11312D08B819C812DEC3CEC4CE650E4E4D4181654
S11312E08CF469817A818B819C8120E030E04EE529
S11312F052E4DDD420E030E84BE153E420D3F5D3CD
S1131300F801608369817A818B819C8126E636E6C7
S113131046E950E4C8D418168CF469817A818B812B
S11313209C8120E030E048E453E4C1D420E030E084
S113133042E554E404D3D9D3F80160830F900F90AD
S11313400F900F90DF91CF911F910F9108958F927D
S11313509F92AF92BF92EF920F931F93CF93DF931D
S1131360EC014A015B01C901B801A50194019FD4B4
S11313704B015C016E2D70E080E090E0E2D39B01B4
S1131380AC01C501B40193D420E030E04AE754E451
S11313903FD39B01AC01688179818A819B81D0D242
S11313A0688379838A839B83DF91CF911F910F9107
S11313B0EF90BF90AF909F908F90089590E0883009
S11313C0910588F5FC01E65BFF4FD4C486E0FB0180
S11313D080831182089586E0FB01808380E4818309
S11313E0089586E0FB01808380E88183089586E088
S11313F0FB01808380EC8183089587E0FB01808377
S11314001182089587E0FB01808380E4818308953D
S113141087E0FB01808380E88183089587E0FB01F6
S1131420808380EC818308951F920F920FB60F92F0
S113143011240BB60F922F933F934F935F936F93A7
S11314408F939F93AF93BF93EF93FF93CF93DF93C8
S11314501F92CDB7DEB78091E00080FF47C0909126
S1131460DE0090FF43C01092ED00EEEEF0E08081CC
S1131470898380818F7B808380910504909104040B
S1131480981789F18F702BE0829FC0011124FC0111
S1131490EA54FB4F20812093F00020812093F20036
S11314A021812093F3002381AAEFB0E02C932481BF
S11314B02C9325812C9326812C9327812C93208592
S11314C02C9321852C9322852C93FC01E854FB4F0B
S11314D080818F7080648093EF00809105048F5F1A
S11314E0809305047DC0109203047AC081FF78C004
S11314F08091DE0081FF74C080E18093ED008091D3
S11315000104282F30E090910204291B31092F7720
S11315103327203131050CF058C0E82FEF7090913B
S1131520EF002E2F30E04BE0E49FF0011124EA5F3E
S1131530FB4F9F704281407F942B92834091F20035
S11315409091F000407E9770942B90839091F300DB
S11315509183AAEFB0E09C9193839C9194839C9196
S113156095839C9196839C9197839C9190879C9161
S113157091879C9192878F5F80930104408142956B
S1131580469547705181652F660F660F660F862F4B
S1131590842B952F929596959770892BB1F48BE0B7
S11315A0829FF001839FF00D1124EA5FFB4F83813A
S11315B0833059F498E088E10FB6F894A8958093A5
S11315C060000FBE90936000FFCFEEEEF0E08081EC
S11315D08983898180818F7D808380E88093EF0077
S11315E00F90DF91CF91FF91EF91BF91AF919F91B8
S11315F08F916F915F914F913F912F910F900BBEFF
S11316000F900FBE0F901F901895CF93DF93E8EDC6
S1131610F0E021E020831092E2002CE02093E3002C
S113162027E32093E4001092E7001092E600109262
S1131630E9001092E8001092EC001092E500CDEE63
S1131640D0E01882AEEEB0E01C9220E128831C9218
S11316501092F400282F2295220F207E2093F6006A
S11316609695879596958795969587958093F70097
S11316701092F000862F8295880F807E8093F2006E
S11316807695679576956795769567956093F3005B
S113169080E88093EF0083E08093DC008093DE0099
S11316A080EB8093DB0082E0808310920004DF9162
S11316B0CF910895CF93DF93EC01409102042091E0
S11316C00104241789F1A42FAF708BE0A89FB00107
S11316D01124FB01EA5FFB4F208122952695277098
S11316E03181532F550F550F550F252B32953695B4
S11316F0377028833983FB01E85FFB4F20812F700B
S11317002A83222399F0DB01A75FBB4FFE013396A6
S113171030E02D5F3F4FCE01820F931F2D91219317
S1131720E817F907D9F702C080E004C04F5F40937F
S1131730020481E0DF91CF910895CF93DF93FC0100
S1131740ABEDB0E08C918F778C9380910304811181
S113175027C01092ED0080818295880F807E80934F
S1131760F2008081918196958795969587959695B7
S113177087958093F300DF0113969F01255F3F4F08
S1131780CAEFD0E09D919883A217B307D9F781E0FF
S113179080930304828180648093EF0081E043C0DE
S11317A020910404822F90E030910504831B910959
S11317B08F7799274097B1F1A22FAF708BE0A89F44
S11317C0D0011124ED01CA54DB4F8081982F9295EA
S11317D0990F907E88818F71892B88838081982FBF
S11317E09695969596958981807E892B898391819A
S11317F09295990F907E8F71892B89838281982F7E
S11318009F708A81807F892B8A83A754BB4F33962C
S113181088E001900D928A95E1F72F5F20930404EC
S113182081E001C080E0EBEDF0E09081906890836E
S1131830DF91CF91089595B1892B85B9089584B12D
S1131840806E84B980EEF7CF089595B18095982382
S113185095B9089595B1892785B9089594B197608C
S113186094B982FB992790F9282F227081708065A2
S1131870822B8CBD8CB5837F8CBD9DBD0895CF9389
S1131880DF93EC01289841155105C1F0FB01DC01FF
S1131890460F571F8FEF209711F09C9101C0982F8E
S11318A09EBD0DB407FEFDCF6115710511F09EB507
S11318B0908331961196E417F50769F72111289A58
S11318C0DF91CF9108951F920F920FB60F921124BA
S11318D00BB60F922F933F934F935F936F937F9326
S11318E08F93AF93BF93EF93FF93A6E8B5E0E6E63B
S11318F0F5E026E835E08D91882359F04081518147
S113190062817381505E6F4F7F4F40835183628346
S113191073833496E217F30771F7FF91EF91BF9148
S1131920AF918F917F916F915F914F913F912F91E3
S11319300F900BBE0F900FBE0F901F90189550582C
S1131940BB27AA270ED075C166D130F06BD120F029
S113195031F49F3F11F41EF45BC10EF4E095E7FBF4
S113196051C1E92F77D180F3BA176207730784074F
S1131970950718F071F49EF58FC10EF4E0950B2EC7
S1131980BA2FA02D0B01B90190010C01CA01A001CD
S11319901124FF27591B99F0593F50F4503E68F128
S11319A01A16F040A22F232F342F4427585FF3CF69
S11319B0469537952795A795F0405395C9F77EF43A
S11319C01F16BA0B620B730B840BBAF09150A1F083
S11319D0FF0FBB1F661F771F881FC2F70EC0BA0F09
S11319E0621F731F841F48F4879577956795B79591
S11319F0F7959E3F08F0B3CF9395880F08F0992789
S1131A00EE0F979587950895D9D008F481E008954D
S1131A100CD00FC107D140F0FED030F021F45F3F6D
S1131A2019F0F0C0511139C1F3C014D198F39923BE
S1131A30C9F35523B1F3951B550BBB27AA2762178E
S1131A407307840738F09F5F5F4F220F331F441FD3
S1131A50AA1FA9F333D00E2E3AF0E0E830D091500B
S1131A605040E695001CCAF729D0FE2F27D0660FF8
S1131A70771F881FBB1F261737074807AB07B0E837
S1131A8009F0BB0B802DBF01FF2793585F4F2AF04D
S1131A909E3F510568F0B6C000C15F3FECF3983E2D
S1131AA0DCF3869577956795B795F7959F5FC9F7AA
S1131AB0880F911D9695879597F90895E1E0660F33
S1131AC0771F881FBB1F621773078407BA0720F0AC
S1131AD0621B730B840BBA0BEE1F88F7E095089515
S1131AE004D06894B111D9C00895BCD088F09F5730
S1131AF090F0B92F9927B751A0F0D1F0660F771F56
S1131B00881F991F1AF0BA95C9F712C0B13081F035
S1131B10C3D0B1E00895C0C0672F782F8827B85F7D
S1131B2039F0B93FCCF3869577956795B395D9F796
S1131B303EF490958095709561957F4F8F4F9F4FA0
S1131B400895E89409C097FB3EF4909580957095AC
S1131B5061957F4F8F4F9F4F9923A9F0F92F96E9F5
S1131B60BB279395F695879577956795B795F1116A
S1131B70F8CFFAF4BB0F11F460FF1BC06F5F7F4F07
S1131B808F4F9F4F16C0882311F096E911C0772319
S1131B9021F09EE8872F762F05C0662371F096E822
S1131BA0862F70E060E02AF09A95660F771F881FF1
S1131BB0DAF7880F9695879597F90895990F000895
S1131BC0550FAA0BE0E8FEEF16161706E807F9070B
S1131BD0C0F012161306E407F50798F0621B730BA6
S1131BE0840B950B39F40A2661F0232B242B252B27
S1131BF021F408950A2609F4A140A6958FEF811DCA
S1131C00811D089597F99F6780E870E060E008956A
S1131C109FEF80EC089500240A9416161706180600
S1131C200906089500240A941216130614060506DC
S1131C300895092E0394000C11F4882352F0BB0F6D
S1131C4040F4BF2B11F460FF04C06F5F7F4F8F4FD0
S1131C509F4F089557FD9058440F551F59F05F3F0B
S1131C6071F04795880F97FB991F61F09F3F79F0BA
S1131C7087950895121613061406551FF2CF46953C
S1131C80F1DF08C0161617061806991FF1CF8695BE
S1131C907105610508940895E894BB2766277727A2
S1131CA0CB0197F908958ADF08F48FEF08950BD0DC
S1131CB0C0CFB1DF28F0B6DF18F0952309F0A2CF2A
S1131CC0A7CF1124EACFC6DFA0F3959FD1F3950FD8
S1131CD050E0551F629FF001729FBB27F00DB11DAC
S1131CE0639FAA27F00DB11DAA1F649F6627B00D3C
S1131CF0A11D661F829F2227B00DA11D621F739F25
S1131D00B00DA11D621F839FA00D611D221F749F32
S1131D103327A00D611D231F849F600D211D822F79
S1131D20762F6A2F11249F5750408AF0E1F08823C0
S1131D304AF0EE0FFF1FBB1F661F771F881F9150CD
S1131D405040A9F79E3F510570F05CCFA6CF5F3F8E
S1131D50ECF3983EDCF3869577956795B795F79500
S1131D60E7959F5FC1F7FE2B880F911D9695879588
S1131D7097F90895EE0FFF1F0024001C0BBE079077
S1131D80F691E02D0994FC0188279927E894219184
S1131D902032E9F3293010F02E30C8F32B3239F019
S1131DA02D3231F4689403C00BD0820F911D219120
S1131DB020532A30C8F31EF4909581959F4F0895BF
S1131DC07AE0979F902D879F802D910D112408957F
S1131DD00F931F93CF93DF93E0912E06F0912F067C
S1131DE0238121FF1BC08C01D0E0C0E0F801819168
S1131DF08F0160912E0670912F06DB011896ED91EC
S1131E00FC911997882331F00995892B79F3DFEF39
S1131E10CFEFECCF8AE00995892B19F08FEF9FEF74
S1131E2002C08D2F9C2FDF91CF911F910F910895A8
S1071E30F894FFCF50
S1131E340000484200000003000000000206A3065C
S1131E44000000000000000000000000000000008A
S1131E540000000000320000000100000000000A3D
S1131E6443555252454E5420636F6E74726F6C2006
S1131E746D6F6465206163746976617465642E00B2
S1131E840A50574D20636F6E74726F6C206D6F64CB
S1131E9465206163746976617465642E000A5475FF
S1131EA4726E696E67206F66662E00447269766589
S1131EB472732064656163746976617465642E0069
S1131EC40A2043414E20636F6E74726F6C206D6FF1
S1131ED464652E2073656E64696E67206461746141
S1131EE42E0055415254206D657373616765206DEE
S1131EF46F6465206163746976617465642E0A0095
S1131F04666F722043555252454E5420636F6E746B
S1131F14726F6C206D6F64652C2077726974653AF6
S1131F242031312C20666F6C6C6F77656420627984
S1131F34206120737061636500666F722050574D91
S1131F4420636F6E74726F6C206D6F64652C2077E0
S1131F54726974653A202020202031322C20666F67
S1131F646C6C6F776564206279206120737061639F
S1131F746500746F207475726E204F46462C20776A
S1131F84726974653A2020202020202020202020FB
S1131F9420202031332C20666F6C6C6F77656420AD
S1131FA4627920612073706163650A00496E20437D
S1131FB4555252454E542C20666F722061636365FA
S1131FC46C65726174696F6E206F72206272616BEA
S1131FD4696E672C20777269746520746865206E55
S1131FE4756D626572206F6620416D707320286977
S1131FF46E7465676572732C205B2D31302031302B
S11320045D292C20666F6C6C6F776564206279207F
S1132014612073706163650A00496E2050574D2C2A
S113202420777269746520746865206475747920F6
S11320346379636C652028696E7465676572732CB3
S1132044205B352039355D292C20666F6C6C6F77E5
S1132054656420627920612073706163650057654B
S11320646C636F6D6520746F2074686520554152EC
S11320745420696E74657266616365206F66206DB1
S11320846F746F722064726976652076322E312EF5
S113209400546F20757365207468652043414E2095
S11320A462757320617320636F6E74726F6C206D3C
S11320B4656469756D2C20747970653A20312066E5
S11320C46F6C6C6F77656420627920612073706132
S11320D463652E00546F20757365207468652055FC
S11320E441525420617320636F6E74726F6C206D5F
S11320F4656469756D2C20747970653A20202020FC
S11321043220666F6C6C6F7765642062792061207D
S10B211473706163652E000085
S9030000FC
