S01C00004D6F746F72436F6E74726F6C6C65725F323031382E73726563A9
S113000061C000007EC000007CC000007AC0000017
S113001078C0000076C000000C947F0B72C0000012
S113002070C000006EC000006CC000006AC0000018
S11300300C94100B66C0000064C0000062C0000095
S11300400C94660A0C94780F0C94290D5AC0000085
S113005058C000000C9456090C94380952C0000092
S113006050C000004EC000004CC000004AC0000058
S113007048C0000046C0000044C0000042C0000068
S11300800C948F090C9471093CC000003AC0000024
S113009038C00000C604E204EC04F60400050A05B6
S11300A01405D8047A06360756076F078C078C06A2
S11300B0B007C606FB0C000D060D0C0D120D170D36
S11300C01D0D230D11241FBECFEFD0E1DEBFCDBF28
S11300D011E0A0E0B1E0E8EEF9E200E00BBF02C0FD
S11300E007900D92AE39B107D9F724E0AEE9B1E03B
S11300F001C01D92A030B207E1F70E94D1090C940F
S1130100F2147ECF10929F011092A0011092A101CF
S11301101092A2010895682F70E080E090E00E94A0
S1130120B81020E030E048E452E40E94B40F27ED18
S113013033EA48E851E40E941D1060939F017093D4
S1130140A0018093A1019093A2010895249A089597
S1130150813011F42C9A08952C9808958F929F92CF
S1130160AF92BF92CF92DF92EF92FF920F931F93C1
S1130170CF93DF93EC018C8D833019F08C8D843018
S113018071F46E8970E0719561957109072E000C08
S1130190880B990B0E94B8106B017C0103C0C12C21
S11301A0D12C76018C8D813019F08C8D823041F404
S11301B06D8970E080E090E00E94B6106B017C01D4
S11301C089A1811182C08090040190900501A090C2
S11301D00601B090070120E030E04EEB52E4C50187
S11301E0B4010E946811882354F420E030E048E40C
S11301F052E4C501B4010E941910181644F081E0BC
S113020080939E019F8D8BA1981394C16AC1109213
S11302109E019F8D8BA198137CC158C1288139817F
S11302204A815B81C701B6010E94B40F6B017C0156
S113023080919E0181111CC02AE037ED43EA5BE303
S1130240C701B6010E946C119B01AC0160919F0132
S11302507091A0018091A1019091A2010E94B50F1B
S113026060939F017093A0018093A1019093A201D8
S113027027ED33EA48E851E460919F017091A001B1
S11302808091A1019091A2010E946C114B015C012B
S113029027E83FEB46E25EE3C701B6010E946C111A
S11302A09B01AC01C501B4010E94B50F20E030E010
S11302B048E452E40E94B50F609304017093050171
S11302C080930601909307011EC089A18130D9F45F
S11302D08CA1882311F080E03BDF6F8970E080E01F
S11302E090E00E94B610609304017093050180931E
S11302F006019093070188819981AA81BB81888135
S11303009981AA81BB81C0900401D0900501E0903D
S11303100601F090070120E030E04EEB52E4C70103
S1130320B6010E94681118166CF480E090E0AEEB00
S1130330B2E48093040190930501A0930601B09365
S1130340070116C020E030E048E452E4C701B601DA
S11303500E941910882364F480E090E0A8E4B2E4D9
S11303608093040190930501A0930601B0930701C3
S11303708BA1823031F08F8D8230D1F48BA1811129
S113038017C020910401309105014091060150915C
S1130390070160E070E088EC92E40E94B40F60937F
S11303A000017093010180930201909303012AC01C
S11303B08BA1813031F08F8D8130A1F48BA181111B
S11303C011C08091040190910501A0910601B091A2
S11303D007018093000190930101A0930201B0935F
S11303E0030110C08091040190910501A0910601C0
S11303F0B09107018093000190930101A093020141
S1130400B093030106E910E0F801E080F18020E0F8
S113041030E048EC52E46091000170910101809158
S11304200201909103010E941D104B015C01B70170
S113043080E090E00E94B6109B01AC01C501B401BC
S11304400E946C110E94851070939900609398002B
S1130450F801608171810081118180E090E00E9447
S1130460B6106B017C0120E030E048EC52E460916E
S113047000017091010180910201909103010E9499
S11304801D104B015C01B80180E090E00E94B610A1
S11304909B01AC01C501B4010E946C119B01AC012C
S11304A0C701B6010E94B40F0E94851070939B008F
S11304B060939A0060910401709105018091060196
S11304C0909107010E948A106F8B38C0288139816E
S11304D04A815B81C701B6010E94B40F6B017C01A4
S11304E0ABCE288139814A815B81C701B6010E9464
S11304F0B40F6B017C01BCCE288139814A815B81B8
S113050060E070E088EC91EC0E94B40F6B017C0118
S113051093CE8CA1882381F381CE288139814A81AD
S11305205B8160E070E088EC91EC0E94B40F6B0199
S11305307C019ECE8CA1811171CEEFCFDF91CF9142
S11305401F910F91FF90EF90DF90CF90BF90AF90ED
S11305509F908F900895CF93DF93EC0166EA71E04A
S113056080E00E94F30C21E043E050E063EA71E094
S113057086EA91E00E94540FE3EAF1E061816F7131
S1130580618370E0762F66278281682B40E0CE017C
S11305900E94B10BDF91CF910895CF93DF93EC01CB
S11305A066EA71E081E00E94F30C21E043E050E050
S11305B063EA71E086EA91E00E94540FE3EAF1E015
S11305C061816F71618370E0762F66278281682B69
S11305D041E0CE010E94B10BDF91CF910895CF93FA
S11305E0DF93EC0166EA71E082E00E94F30C21E003
S11305F043E050E063EA71E086EA91E00E94540F20
S1130600E3EAF1E061816F71618370E0762F662720
S11306108281682B80E090E00E94B61020E030E0F8
S113062049E852E40E941D102AE939E949E95EE3E8
S11306300E94B50F688379838A839B83DF91CF916E
S11306400895CF93DF93EC0166EA71E084E00E94A1
S1130650F30C21E043E050E063EA71E086EA91E0C4
S11306600E94540FE3EAF1E061816F71618370E0ED
S1130670762F66278281682BCE010E942D0CDF9194
S1130680CF9108950F931F93CF93DF938C01EB01C8
S1130690CB010E946F0E882309F44FC0F801848DAA
S11306A0863009F44AC0888199818032F1E09F073D
S11306B091F18033924009F040C081E0F801858FC8
S11306C011A282E390E0918F808F8E81893040F077
S11306D0869586958695858B8EE190E0938F828FA3
S11306E08D81893080F09DEC899F812D1124869520
S11306F086958695F801868B8EE190E0938F828FA4
S11307008D81893010F4F801168A8E818930A8F41D
S1130710F801158A12C0F80182A1811103C081E099
S113072082A3178E8B819C81F801948B838B8D819E
S1130730868F8E8183A38F8184A3DF91CF911F91B4
S11307400F9108950F931F93CF93DF93CDB7DEB727
S113075007E613E080E592E0F8019183808388E066
S113076082838BA183836F81788589859A8520E034
S113077030E040E251E40E946C110E948510F801BF
S113078064836F85788989899A8920E030E040E222
S113079051E40E946C110E948A10F80176836583EB
S11307A06B897C898D899E890E948510072E000C97
S11307B0880B990B0E94B81020E030E048EC52E41A
S11307C00E941D100E9485109B01772324F4222788
S11307D03327261B370B30936F0320936E03688DEA
S11307E0798D07E613E080E090E00E94B61026E6DB
S11307F036E646E650E40E946C1120E030E040E02A
S11308005FE30E946C110E948A10F80161878F894E
S11308108287C8010E94B20EDF91CF911F910F9180
S11308200895CF93DF93CDB7DEB7ECE5F3E081E530
S113083092E09183808381E082838CA18383CF01C2
S11308400E94B20EDF91CF9108950F931F93CF931F
S1130850DF93EC019091D60320919403921B9F7136
S113086001F11D8EA6D4182F092F28D482E390E01D
S1130870998F888F89A1811110C0812F902F9C019D
S1130880275F3F4F2930310518F4212F21952E8BF6
S11308900197099730F41D8B04C089A1813009F4B4
S11308A01F8BDF91CF911F910F910895CF93DF9309
S11308B0CDB7DEB78BE391E00E9415126E897F8974
S11308C080E090E00E94B61026E636E646E650E464
S11308D00E946C1120E030E040E251E40E941D10BF
S11308E00E948A107F936F938DE391E09F938F937F
S11308F00E94FD118CE290E00E9410128CA11F92C4
S11309008F938DE491E09F938F930E94FD118CE26D
S113091090E00E9410128BA11F928F938CE591E0BE
S11309209F938F930E94FD118CE290E00E9410121D
S11309308EA11F928F938EE691E09F938F930E94D6
S1130940FD118CE290E00E94101289A11F928F93F6
S11309508DE891E09F938F930E94FD110FB6F89458
S1130960DEBF0FBECDBFDF91CF910895CF93DF934C
S1130970CDB7DEB7E9A18E2F90E08830910508F05D
S11309805CC0FC01E65BFF4F0C94CF1180E40E9435
S1130990300F80E80E943A0F8D8D9E8D892B21F4B3
S11309A080E20E943A0F49C080E20E94300F45C0A5
S11309B080E20E94300F80E40E94300F80E80E94A1
S11309C03A0F3BC080E20E94300F80E80E94300F53
S11309D080E40E943F0F31C080E20E94300F80E823
S11309E00E943A0F80E40E943F0F27C080E80E94D3
S11309F0300F80E40E943F0F80E20E943F0F1DC031
S1130A0080E80E943A0F80E40E943F0F80E20E9437
S1130A103F0F13C080E20E94300F80E80E94300F25
S1130A2080E40E943A0F09C080E40E94300F80E8FD
S1130A300E94300F80E20E943A0FDF91CF91089517
S1130A406D987598ED98EAE6F0E080818460808383
S1130A50E59AED9A08950F931F93CF93DF93FB01CB
S1130A602081318127343105B8F0EB018C0160819C
S1130A70718180E090E00E94B6109B01AC0160E0BF
S1130A8076E788E096E40E941D100E948A10F8011F
S1130A907183608319821882DF91CF911F910F9126
S1130AA00895CF92DF92EF92FF92CF93DF931F923C
S1130AB0CDB7DEB7898369017A01613021F5698197
S1130AC070E080E090E00E94B81022E135E841EE49
S1130AD05EE30E946C11A70196010E941D1020E0A4
S1130AE030E048EC52E40E946C1120E030E048E42D
S1130AF052E40E94B50F0E948A10862F623309F0D7
S1130B004AC084E348C0623019F5698170E080E02E
S1130B1090E00E94B81025E038E846E65EE30E94C3
S1130B206C11A70196010E941D1020E030E048ECF2
S1130B3052E40E946C1120E030E048E452E40E9448
S1130B40B50F0E948A10862F623329F584E323C0EF
S1130B50633001F5698170E080E090E00E94B81094
S1130B6022E135E841EE5EE30E946C11A701960193
S1130B700E941D1020E030E048EC52E40E946C1109
S1130B8020E030E048E452E40E94B50F0E948A104D
S1130B90862F01C082E30F90DF91CF91FF90EF90F9
S1130BA0DF90CF900895662369F1411108C0833125
S1130BB0910540F419C08631910520F417C086319F
S1130BC09105B0F02223B1F06623F9F0411108C079
S1130BD0439790F082E00895469780F082E008956C
S1130BE0469770F082E0089581E0089581E00895C9
S1130BF081E0089581E0089580E0089580E00895FB
S1130C0080E008954423F1F2D6CF4111E5CF80E08E
S1130C1008951F93CF93DF93EC01688579858A85C6
S1130C209B8520E030E040E751E40E94681188236E
S1130C30D4F1688579858A859B8520E030E048EC8D
S1130C4052E40E94191088230CF4BFC110E030C094
S1130C50688179818A819B8120E030E048EC51EC05
S1130C600E941910181664F4688579858A859B8515
S1130C7020E030E04CE552E40E9468111816ACF410
S1130C808091AD018F5F8093AD01833081F481E069
S1130C908093AE018091AA018F5F8093AA0188E5B9
S1130CA092E011E00BC010E003C011E001C011E0BC
S1130CB08091AB019091AC01009731F00197909332
S1130CC0AC018093AB010AC08091AE01882331F05E
S1130CD08091AA01833010F41092AE01EC8D8E2F16
S1130CE090E08830910508F04DC1FC01EE5AFF4FA9
S1130CF00C94CF11888D998D892B21F0112311F03B
S1130D0085E08C8F80E024DA18A2FCD91E8A1D8A23
S1130D1082E38F8B1F8E36C18AA1811124C018DA19
S1130D20F1D982E38F8B8E89882369F028853985F0
S1130D304A855B8589899A8963E0B3DE8F8B8F89C5
S1130D40EAD983E08C8F8D89882369F028853985D9
S1130D504A855B8589899A8963E0A3DE8F8B8F89B5
S1130D60DAD981E08C8F8AA1813009F00BC18D8999
S1130D70811103C08E89882311F087E08C8F80E075
S1130D80E7D91F8EBFD982E38F8BFCC02AA14E897D
S1130D906D8989899A8907DF8F8F9F8D8E8D98172A
S1130DA041F08091A801811104C081E08093A901E0
S1130DB00AC09F8D8E8D981302C01092A801809155
S1130DC0A901882399F09BA18F8D98130FC02885C2
S1130DD039854A855B856F8D89899A8962DE8F8B17
S1130DE08F8999D981E089A31092A901CE01B6D93E
S1130DF081E0AED98E89882349F089899A894697FA
S1130E0028F48E8D813011F483E08C8F8E898823B1
S1130E1049F089899A89479728F08E8D823011F498
S1130E2084E08C8F8D89882341F089899A8943973E
S1130E3020F48E8D813009F48C8F8D89882341F0C4
S1130E4089899A89449720F08E8D823009F48C8F99
S1130E508D89811197C08E89811194C08A8D9B8D53
S1130E60892B09F08FC085E08C8F8CC019A2CE012C
S1130E7075D981E06DD98D89811106C08A8D9B8DCC
S1130E80892B11F485E08C8F8E8D882361F08E89F7
S1130E90811109C08D89882309F474C089899A89CC
S1130EA0479708F46FC087E08C8F6CC019A2CE01FD
S1130EB055D981E04DD98D89811106C08A8D9B8DCC
S1130EC0892B11F485E08C8F8AA1813019F48E8DE1
S1130ED0882319F08E89882311F087E08C8F19A25A
S1130EE0CE013CD981E034D98E89811106C08A8D26
S1130EF09B8D892B11F485E08C8F8AA1813019F4A4
S1130F008E8D882331F08E8981113CC08D89882390
S1130F10C9F187E08C8F36C019A2CE011FD981E0B8
S1130F2017D98E89811106C08A8D9B8D892B11F466
S1130F3085E08C8F8AA1813019F48E8D882369F025
S1130F408E89811103C08D89811107C08E89882300
S1130F50C9F089899A894697A8F487E08C8F12C0D2
S1130F608091AE01811105C08889843610F485E032
S1130F708C8F80E0EDD818A21F8EC4D81E8A1D8ADB
S1130F8082E38F8B8C8D853079F08C8D813061F08C
S1130F908C8D823049F08C8D833031F08C8D84308F
S1130FA019F08C8D873039F4888D998D892B11F047
S1130FB0111101C01C8E8091AE01811103C088897A
S1130FC0843688F086E08C8F0EC0688179818A81AE
S1130FD09B8120E030E048EC51E40E9468118823B2
S1130FE00CF04ECE35CEDF91CF911F910895CF9363
S1130FF0DF938EB1877E8EB98DB188618DB9A1E9F9
S1131000B0E08C9180618C938C91877F8C93E0E924
S1131010F0E080818260808380818E7F8083808104
S11310208068808380818F7B8083808180628083DD
S113103080818F7E80838C9181608C938C91897F59
S11310408C93C6E9D0E085E890E099838883688131
S1131050798180E090E00E94B61020E030E040E02A
S11310605FE30E946C110E948510E8E9F0E071834F
S113107060838881998120813181821B930B9093B5
S11310809B0080939A00DF91CF9108959091B503CE
S11310909F5F9F71209193039217E1F3E92FF0E092
S11310A0E652FC4F80832FB7F8949093B503E1EC9C
S11310B0F0E08081806280832FBF08959091930334
S11310C08091B5039813FACF08959091D9039F5F47
S11310D09F712091D7039217E1F3E92FF0E0EB56CB
S11310E0FC4F80832FB7F8949093D903E9ECF0E098
S11310F08081806280832FBF0895CF93C82FFB0126
S113110084859585019739F0CA3011F48DE0BEDFEE
S11311108C2FBCDF06C0CA3011F48DE0D6DF8C2FD3
S1131120D4DF80E090E0CF91089580919403909172
S1131130D603891759F08F5F982F9F71E92FF0E03C
S1131140EE58FC4F808190939403089580E00895B5
S1131150EF92FF920F931F93CF93DF937C01162F8F
S1131160E4DFF70180838132D8F3E701219612305E
S1131170C1F01350812F90E002968701080F191FC8
S1131180D4DF88838823E1F38D3021F4CEDF8823F4
S1131190E9F307C0813228F021960C171D0781F767
S11311A0E8011882DF91CF911F910F91FF90EF908A
S11311B00895CF93DF93CDB7DEB727970FB6F89492
S11311C0DEBF0FBECDBF67E0CE010196C1DFCE0109
S11311D001960E94D81127960FB6F894DEBF0FBE71
S11311E0CDBFDF91CF910895809194039091D60360
S11311F0891761F08F5F8F71E82FF0E0EE58FC4F94
S1131200908180939403892F90E008958FEF9FEF4E
S11312100895809192039091D803891761F08F5FAC
S11312208F71E82FF0E0EA54FC4F90818093920391
S1131230892F90E008958FEF9FEF0895CF93DF9368
S1131240FC0184859585019741F0CEDFEC0199235B
S1131250E4F31CDFCE01992707C0DBDFEC019923FF
S1131260E4F333DFCE0199279927DF91CF910895D5
S11312700F930FB7EF93FF93E0919303F091B503AE
S1131280E395EF71EF1305C0F091C100FF7DF0937A
S1131290C100E0939303F0E0E652FC4FE081E09359
S11312A0C600FF91EF910FBF0F9118950F930FB7E1
S11312B09F939091C600EF93FF93E091D603F09132
S11312C09403E395EF71FE1731F0E093D603F0E059
S11312D0EE58FC4F9083FF91EF919F910FBF0F91B8
S11312E018950F930FB7EF93FF93E091D703F09105
S11312F0D903E395EF71EF1305C0F091C900FF7DA9
S1131300F093C900E093D703F0E0EB56FC4FE08183
S1131310E093CE00FF91EF910FBF0F9118950F93BB
S11313200FB79F939091CE00EF93FF93E091D80372
S1131330F0919203E395EF71FE1731F0E093D80337
S1131340F0E0EA54FC4F9083FF91EF919F910FBF1F
S11313500F911895E1E8F0E08081836080838081BB
S1131360886080831092850010928400EFE6F0E09C
S11313708081826080838DE790E0909389008093E0
S11313808800089584B5856084BD84B5886084BD73
S113139016BCEEE6F0E080818260808387E287BD40
S11313A00895F89461D5D6D122DE60E070E080E043
S11313B090E040D4CFDFE6DF43DB80E064D51092D9
S11313C0C4001092C50088E98093C100EAEFF3E0FD
S11313D088E091E093838283918380830E94A600B6
S11313E080E00E94A8007894C1E066E473E086E19E
S11313F091E048D986E191E028DA8091B40188230C
S113140009F441C08091B3018823F1F08DB79EB7F0
S113141085970FB6F8949EBF0FBE8DBFADB7BEB70C
S1131420119685E2E6E1F1E001900D928A95E1F7EB
S113143089D91092B3018DB79EB785960FB6F894EB
S11314409EBF0FBE8DBF1DC08DB79EB785970FB6CB
S1131450F8949EBF0FBE8DBFADB7BEB7119685E29F
S1131460E6E1F1E001900D928A95E1F7DAD9C093B3
S1131470B3018DB79EB785960FB6F8949EBF0FBE85
S11314808DBF1092B4018091B201882309F4ADCFCD
S11314908DB79EB785970FB6F8949EBF0FBE8DBFCC
S11314A0ADB7BEB7119685E2E6E1F1E001900D9289
S11314B08A95E1F7FBD91092B2018DB79EB7859654
S11314C00FB6F8949EBF0FBE8DBF8FCF1F920F92A1
S11314D00FB60F9211240BB60F92EF920F931F9336
S11314E02F933F934F935F936F937F938F939F9328
S11314F0AF93BF93EF93FF9386E191E02CD186E104
S113150091E087DB8091B701873009F044C081E026
S11315108093B4018093B20180912E0190912F01A8
S1131520892B59F080913301813039F4E6E1F1E0FF
S1131530808D918D0197918F808F80913001909152
S11315403101892B61F080913301813041F4E6E16E
S1131550F1E0828D938D0197938F828F08C08091E3
S11315603301811104C01092310110923001E6E17F
S1131570F1E000851185228533854481558166819A
S113158077810F2EF9E2EF2EF02D82E291E0CED199
S11315901092B70103C08F5F8093B7018091B501AA
S11315A09091B6018436910501F58DB79EB7859764
S11315B00FB6F8949EBF0FBE8DBFADB7BEB71196E0
S11315C085E2E6E1F1E001900D928A95E1F7CED94A
S11315D01092B6011092B5018DB79EB785960FB6DD
S11315E0F8949EBF0FBE8DBF05C001969093B601BF
S11315F08093B501FF91EF91BF91AF919F918F912E
S11316007F916F915F914F913F912F911F910F9116
S1131610EF900F900BBE0F900FBE0F901F90189578
S11316201F920F920FB60F9211240BB60F922F93A5
S11316303F934F935F936F937F938F939F93AF9356
S1131640BF93EF93FF938091AF019091B001803DE0
S1131650974050F48091AF019091B001019690931E
S1131660B0018093AF0108C01092280110922701A5
S11316701092B0011092AF018091B101833039F41E
S113168086E291E00E9421031092B10118C08230D9
S113169049F48EE191E00E94EF028091B1018F5FE5
S11316A08093B1018091B101813049F48AE191E0E4
S11316B00E94CD028091B1018F5F8093B10180912E
S11316C0B101811109C086E191E00E94AB028091D1
S11316D0B1018F5F8093B101FF91EF91BF91AF9101
S11316E09F918F917F916F915F914F913F912F9136
S11316F00F900BBE0F900FBE0F901F9018951F9266
S11317000F920FB60F9211240BB60F922F933F93A3
S11317104F935F936F937F938F939F93AF93BF93F5
S1131720EF93FF936FEA71E087E291E094D9FF9120
S1131730EF91BF91AF919F918F917F916F915F9145
S11317404F913F912F910F900BBE0F900FBE0F90B2
S11317501F90189508957A9903C0FC01158A168A7A
S113176008958F929F92AF92BF92CF92DF92EF92A1
S1131770FF920F931F93CF93DF9300D000D0CDB788
S1131780DEB78C01F42E80E090E0F0D420E030E06D
S113179040EA50E4A1D520E030E040E859E39CD58C
S11317A02EEA37E441E250E4DFD323EC34E64AE2A4
S11317B05DE343D469837A838B839C83FF2071F038
S11317C069817A818B819C812DEC3CEC4CE45EE355
S11317D0CCD369837A838B839C830DC069817A819E
S11317E08B819C812DEC3CEC4CE45DE3BED369839E
S11317F07A838B839C83F8016081718182819381D8
S113180089809A80AB80BC8026E636E646E65FE3B4
S113181063D56B017C012DEC3CEC4CEC5DE3C50124
S1131820B4015AD59B01AC01C701B6019ED3F8019E
S113183060837183828393830F900F900F900F9036
S1131840DF91CF911F910F91FF90EF90DF90CF9098
S1131850BF90AF909F908F900895CF92DF92EF92B8
S1131860FF92CF93DF93EC0180E090E07FD420E0FF
S113187030E040EA50E430D520E030E040E859E37D
S11318802BD56B017C012DEC3CEC4CE650E4D1D320
S1131890181674F020E030E040EA51E4C701B601C4
S11318A01BD520E030E040EB51E45ED333D46883B1
S11318B026E636E646E950E4C701B601BAD318165F
S11318C0BCF02DEC3CEC4CE650E4C701B60100D56D
S11318D0181674F420E030E04EE552E4C701B60176
S11318E0FBD420E030E84BE153E43ED313D46883C7
S11318F026E636E646E950E4C701B601E9D41816EF
S113190074F420E030E048E453E4C701B601E4D4C1
S113191020E030E042E554E427D3FCD36883DF9130
S1131920CF91FF90EF90DF90CF9008954F925F9208
S11319306F927F928F929F92AF92BF92CF92DF92DB
S1131940EF920F931F93CF93DF93CDB7DEB7289712
S11319500FB6F894DEBF0FBECDBF6C0149835A8326
S11319606B837C830D831E832F8338876D817E81F7
S11319708F81988529813A814B815C81F601808031
S11319809180A280B380A8D42B013C016E2D70E01D
S113199080E090E0EBD39B01AC01C301B2019CD485
S11319A020E030E04AE754E448D3A5019401DDD2B5
S11319B0F601608371838283938328960FB6F8942B
S11319C0DEBF0FBECDBFDF91CF911F910F91EF907E
S11319D0DF90CF90BF90AF909F908F907F906F904B
S11319E05F904F90089590E08830910588F5FC0150
S11319F0E65AFF4FD4C486E0FB0180831182089528
S1131A0086E0FB01808380E48183089586E0FB0106
S1131A10808380E88183089586E0FB01808380ECE5
S1131A208183089587E0FB0180831182089587E014
S1131A30FB01808380E48183089587E0FB01808338
S1131A4080E88183089587E0FB01808380EC8183B3
S1131A5008951F920F920FB60F9211240BB60F9296
S1131A602F933F934F935F936F938F939F93AF9372
S1131A70BF93EF93FF93CF93DF931F92CDB7DEB75E
S1131A808091E00080FF47C09091DE0090FF43C04A
S1131A901092ED00EEEEF0E08081898380818F7BEF
S1131AA080838091BD019091BC01981789F18F705A
S1131AB02BE0829FC0011124FC01E259FD4F2081DB
S1131AC02093F00020812093F20021812093F300E1
S1131AD02381AAEFB0E02C9324812C9325812C93AD
S1131AE026812C9327812C9320852C9321852C935C
S1131AF022852C93FC01E059FD4F80818F70806416
S1131B008093EF008091BD018F5F8093BD017DC004
S1131B101092BB017AC081FF78C08091DE0081FF02
S1131B2074C080E18093ED008091B901282F30E0EA
S1131B309091BA01291B31092F77332720313105C0
S1131B400CF058C0E82FEF709091EF002E2F30E08A
S1131B504BE0E49FF0011124E254FE4F9F70428158
S1131B60407F942B92834091F2009091F000407E4C
S1131B709770942B90839091F3009183AAEFB0E037
S1131B809C9193839C9194839C9195839C9196833F
S1131B909C9197839C9190879C9191879C9192872B
S1131BA08F5F8093B901408142954695477051817A
S1131BB0652F660F660F660F862F842B952F9295DF
S1131BC096959770892BB1F48BE0829FF001839FE7
S1131BD0F00D1124E254FE4F8381833059F498E0D0
S1131BE088E10FB6F894A895809360000FBE909397
S1131BF06000FFCFEEEEF0E08081898389818081EF
S1131C008F7D808380E88093EF000F90DF91CF91E8
S1131C10FF91EF91BF91AF919F918F916F915F91E0
S1131C204F913F912F910F900BBE0F900FBE0F90CD
S1131C301F901895CF93DF93E8EDF0E021E0208327
S1131C401092E2002CE02093E30027E32093E400C9
S1131C501092E7001092E6001092E9001092E8005A
S1131C601092EC001092E500CDEED0E01882AEEEBA
S1131C70B0E01C9220E128831C921092F400282FDB
S1131C802295220F207E2093F600969587959695AF
S1131C908795969587958093F7001092F000862F8C
S1131CA08295880F807E8093F2007695679576956D
S1131CB06795769567956093F30080E88093EF00CD
S1131CC083E08093DC008093DE0080EB8093DB0074
S1131CD082E080831092B801DF91CF910895CF9371
S1131CE0DF93EC014091BA012091B901241789F1E5
S1131CF0A42FAF708BE0A89FB0011124FB01E25424
S1131D00FE4F20812295269527703181532F550F40
S1131D10550F550F252B3295369537702883398307
S1131D20FB01E054FE4F20812F702A83222399F077
S1131D30DB01AF53BE4FFE01339630E02D5F3F4FC2
S1131D40CE01820F931F2D912193E817F907D9F73C
S1131D5002C080E004C04F5F4093BA0181E0DF918C
S1131D60CF910895CF93DF93FC01ABEDB0E08C915C
S1131D708F778C938091BB01811127C01092ED0065
S1131D8080818295880F807E8093F200808191818A
S1131D909695879596958795969587958093F30064
S1131DA0DF0113969F01255F3F4FCAEFD0E09D915D
S1131DB09883A217B307D9F781E08093BB0182818E
S1131DC080648093EF0081E043C02091BC01822FA6
S1131DD090E03091BD01831B91098F77992740973B
S1131DE0B1F1A22FAF708BE0A89FD0011124ED01B7
S1131DF0C259DD4F8081982F9295990F907E8881EA
S1131E008F71892B88838081982F969596959695C6
S1131E108981807E892B898391819295990F907E07
S1131E208F71892B89838281982F9F708A81807F0B
S1131E30892B8A83AF58BD4F339688E001900D9269
S1131E408A95E1F72F5F2093BC0181E001C080E017
S1131E50EBEDF0E0908190689083DF91CF9108954D
S1131E6095B1892B85B9089584B1806E84B980EECB
S1131E70F7CF089595B18095982395B9089595B1B4
S1131E80892785B9089594B1976094B982FB9927FD
S1131E9090F9282F227081708065822B8CBD8CB5BF
S1131EA0837F8CBD9DBD0895CF93DF93EC0128986B
S1131EB041155105C1F0FB01DC01460F571F8FEF9F
S1131EC0209711F09C9101C0982F9EBD0DB407FE80
S1131ED0FDCF6115710511F09EB590833196119671
S1131EE0E417F50769F72111289ADF91CF91089536
S1131EF01F920F920FB60F9211240BB60F922F93CD
S1131F003F934F935F936F937F938F93AF93BF935D
S1131F10EF93FF93AEE3B3E0EEE1F3E02EE333E0BF
S1131F208D91882359F04081518162817381505E83
S1131F306F4F7F4F40835183628373833496E217DC
S1131F40F30771F7FF91EF91BF91AF918F917F915B
S1131F506F915F914F913F912F910F900BBE0F9016
S1131F600FBE0F901F9018955058BB27AA270ED06C
S1131F7075C166D130F06BD120F031F49F3F11F47C
S1131F801EF45BC10EF4E095E7FB51C1E92F77D154
S1131F9080F3BA17620773078407950718F071F482
S1131FA09EF58FC10EF4E0950B2EBA2FA02D0B01D8
S1131FB0B90190010C01CA01A0011124FF27591B8A
S1131FC099F0593F50F4503E68F11A16F040A22F90
S1131FD0232F342F4427585FF3CF46953795279501
S1131FE0A795F0405395C9F77EF41F16BA0B620B00
S1131FF0730B840BBAF09150A1F0FF0FBB1F661F47
S1132000771F881FC2F70EC0BA0F621F731F841F89
S113201048F4879577956795B795F7959E3F08F0AF
S1132020B3CF9395880F08F09927EE0F979587956E
S11320300895D9D008F481E008950CD00FC107D1D8
S113204040F0FED030F021F45F3F19F0F0C05111A0
S113205039C1F3C014D198F39923C9F35523B1F3CB
S1132060951B550BBB27AA2762177307840738F003
S11320709F5F5F4F220F331F441FAA1FA9F333D062
S11320800E2E3AF0E0E830D091505040E695001C16
S1132090CAF729D0FE2F27D0660F771F881FBB1FD2
S11320A0261737074807AB07B0E809F0BB0B802DAC
S11320B0BF01FF2793585F4F2AF09E3F510568F0F8
S11320C0B6C000C15F3FECF3983EDCF3869577958C
S11320D06795B795F7959F5FC9F7880F911D9695FA
S11320E0879597F90895E1E0660F771F881FBB1F56
S11320F0621773078407BA0720F0621B730B840B03
S1132100BA0BEE1F88F7E095089504D06894B111D6
S1132110D9C00895BCD088F09F5790F0B92F992763
S1132120B751A0F0D1F0660F771F881F991F1AF0DE
S1132130BA95C9F712C0B13081F0C3D0B1E00895A7
S1132140C0C0672F782F8827B85F39F0B93FCCF328
S1132150869577956795B395D9F73EF490958095D4
S1132160709561957F4F8F4F9F4F0895E89409C0F4
S113217097FB3EF490958095709561957F4F8F4FB6
S11321809F4F9923A9F0F92F96E9BB279395F695CC
S1132190879577956795B795F111F8CFFAF4BB0F4A
S11321A011F460FF1BC06F5F7F4F8F4F9F4F16C0AE
S11321B0882311F096E911C0772321F09EE8872F38
S11321C0762F05C0662371F096E8862F70E060E0F4
S11321D02AF09A95660F771F881FDAF7880F96956D
S11321E0879597F90895990F0008550FAA0BE0E811
S11321F0FEEF16161706E807F907C0F012161306C5
S1132200E407F50798F0621B730B840B950B39F404
S11322100A2661F0232B242B252B21F408950A266A
S113222009F4A140A6958FEF811D811D089597F9AA
S11322309F6780E870E060E008959FEF80EC089568
S113224000240A9416161706180609060895002491
S11322500A9412161306140605060895092E03940B
S1132260000C11F4882352F0BB0F40F4BF2B11F47F
S113227060FF04C06F5F7F4F8F4F9F4F089557FDDE
S11322809058440F551F59F05F3F71F04795880FE0
S113229097FB991F61F09F3F79F087950895121677
S11322A013061406551FF2CF4695F1DF08C0161623
S11322B017061806991FF1CF8695710561050894D4
S11322C00895E894BB2766277727CB0197F90895EB
S11322D08ADF08F48FEF08950BD0C0CFB1DF28F068
S11322E0B6DF18F0952309F0A2CFA7CF1124EACFC7
S11322F0C6DFA0F3959FD1F3950F50E0551F629F61
S1132300F001729FBB27F00DB11D639FAA27F00D4A
S1132310B11DAA1F649F6627B00DA11D661F829F71
S11323202227B00DA11D621F739FB00DA11D621F56
S1132330839FA00D611D221F749F3327A00D611D73
S1132340231F849F600D211D822F762F6A2F112455
S11323509F5750408AF0E1F088234AF0EE0FFF1FA8
S1132360BB1F661F771F881F91505040A9F79E3FDF
S1132370510570F05CCFA6CF5F3FECF3983EDCF3E1
S1132380869577956795B795F795E7959F5FC1F71C
S1132390FE2B880F911D9695879597F90895EE0F5A
S11323A0FF1F0024001C0BBE0790F691E02D09943A
S11323B0FC0188279927E89421912032E9F32930F8
S11323C010F02E30C8F32B3239F02D3231F46894EA
S11323D003C00BD0820F911D219120532A30C8F3E2
S11323E01EF4909581959F4F08957AE0979F902DC4
S11323F0879F802D910D11240895CF93DF93CDB73E
S1132400DEB7AE014B5F5F4FFA0161917191AF018D
S11324108091FC039091FD0338D0DF91CF91089512
S11324206091FC037091FD0343C20F931F93CF93FC
S1132430DF93E091FC03F091FD03238121FF1BC096
S11324408C01D0E0C0E0F80181918F016091FC0320
S11324507091FD03DB011896ED91FC911997882387
S113246031F00995892B79F3DFEFCFEFECCF8AE0D8
S11324700995892B19F08FEF9FEF02C08D2F9C2FA8
S1132480DF91CF911F910F9108952F923F924F9218
S11324905F926F927F928F929F92AF92BF92CF92F0
S11324A0DF92EF92FF920F931F93CF93DF93CDB7F9
S11324B0DEB72B970FB6F894DEBF0FBECDBF6C010D
S11324C07B018A01FC0117821682838181FFBFC1CF
S11324D0CE0101963C01F6019381F70193FD8591AC
S11324E093FF81917F01882309F4ADC1853239F4CA
S11324F093FD859193FF81917F01853221F4B6018B
S113250090E0D6D1E8CF912C212C312CFFE1F315AA
S1132510D8F08B3279F038F4803279F08332A1F438
S1132520232D20611DC08D3261F0803369F4232D89
S1132530216016C0832D8260382EE32DE4603E2E88
S11325402AC0F32DF8601DC037FC2DC020ED280FE4
S11325502A3040F08E32B9F436FC75C1232D206444
S1132560322E19C036FE06C08AE0989E200D112432
S1132570922E11C0EAE02E9E200D1124222EF32D5E
S1132580F0623F2E08C08C3621F4832D8068382EEB
S113259002C0883641F4F70193FD859193FF819140
S11325A07F018111B3CF982F9F7D9554933028F4E8
S11325B00C5F1F4F9FE399830DC0833631F083373F
S11325C071F0833509F055C020C0F80180818983FA
S11325D00E5F1F4F88248394912C530112C028014D
S11325E0F2E04F0E511CF801A080B18036FE03C00A
S11325F0692D70E002C06FEF7FEFC5014ED14C0131
S11326008201F32DFF773F2E15C0280122E0420EF0
S1132610511CF801A080B18036FE03C0692D70E022
S113262002C06FEF7FEFC5012DD14C01F32DF0688F
S11326303F2E820133FC19C0822D90E08816990642
S1132640A0F4B60180E290E033D12A94F5CFF501ED
S113265037FC859137FE81915F01B60190E028D166
S113266021102A9421E0821A91088114910479F7A7
S1132670E1C0843611F0893639F5F80137FE07C018
S113268060817181828193810C5F1F4F08C06081DA
S11326907181072E000C880B990B0E5F1F4FF32DD1
S11326A0FF763F2E97FF09C09095809570956195B0
S11326B07F4F8F4F9F4FF0683F2E2AE030E0A301F9
S11326C033D1882E861844C0853731F4232D2F7ECC
S11326D0B22E2AE030E025C0932D997FB92E8F3693
S11326E0C1F018F4883579F0AEC0803719F0883716
S11326F021F0A9C0E92FE061BE2EB4FE0DC0FB2D70
S1132700F460BF2E09C034FE0AC0292F2660B22E01
S113271006C028E030E005C020E130E002C020E13E
S113272032E0F801B7FE07C0608171818281938134
S11327300C5F1F4F06C06081718180E090E00E5FE6
S11327401F4FA301F1D0882E8618FB2DFF773F2E53
S113275036FE0DC0232D2E7FA22E891458F434FE8C
S11327600BC032FC09C0832D8E7EA82E05C0B82C68
S1132770A32C03C0B82C01C0B92CA4FE0FC0FE01C9
S1132780E80DF11D8081803321F49A2D997EA92EC4
S113279009C0A2FE06C0B394B39404C08A2D8678FF
S11327A009F0B394A3FC10C0A0FE06C0B21480F4D8
S11327B0280C922C9B180DC0B21458F4B60180E278
S11327C090E076D0B394F8CFB21418F42B1802C06A
S11327D0982C212CA4FE0FC0B60180E390E068D0B1
S11327E0A2FE16C0A1FC03C088E790E002C088E501
S11327F090E0B6010CC08A2D867851F0A1FE02C08B
S11328008BE201C080E2A7FC8DE2B60190E050D0DB
S1132810891430F4B60180E390E04AD09A94F8CF5A
S11328208A94F301E80DF11D8081B60190E040D057
S11328308110F6CF222009F44ECEB60180E290E05A
S113284037D02A94F7CFF6018681978102C08FEFA3
S11328509FEF2B960FB6F894DEBF0FBECDBFDF916E
S1132860CF911F910F91FF90EF90DF90CF90BF9089
S1132870AF909F908F907F906F905F904F903F901C
S11328802F900895FC010590615070400110D8F715
S1132890809590958E0F9F1F0895FC0161507040A4
S11328A001900110D8F7809590958E0F9F1F089581
S11328B00F931F93CF93DF93FB01238121FD03C06B
S11328C08FEF9FEF2CC022FF16C0468157812481D1
S11328D035814217530744F4A081B1819D012F5FD4
S11328E03F4F318320838C93268137812F5F3F4F65
S11328F03783268314C08B01EC01FB010084F1852E
S1132900E02D0995892BE1F6D80116968D919C91BD
S11329101797019617969C938E931697CE01DF9185
S1132920CF911F910F910895FA01AA27283051F1F0
S1132930203181F1E8946F936E7F6E5F7F4F8F4FEC
S11329409F4FAF4FB1E03ED0B4E03CD0670F781F4B
S1132950891F9A1FA11D680F791F8A1F911DA11D30
S11329606A0F711D811D911DA11D20D009F4689469
S11329703F912AE0269F11243019305D3193DEF611
S1132980CF010895462F4770405D4193B3E00FD0C7
S1132990C9F7F6CF462F4F70405D4A3318F0495DB2
S11329A031FD4052419302D0A9F7EACFB4E0A69595
S11329B09795879577956795BA95C9F700976105B7
S11329C0710508959B01AC010A2E0694579547950D
S11329D037952795BA95C9F7620F731F841F951F02
S10B29E0A01D0895F894FFCF37
S11329E800004842000048420000000300000000C4
S11329F87D081E090000000000000000000000001F
S1132A080000000000000000000000000032000088
S1132A1800000001010100000001010D0073706550
S1132A286564206B6D2F68203A2025750020676542
S1132A38617220726571203A2025750020676561EE
S1132A487220737461747573203A202575002063AD
S1132A5874726C206D6F64652028303A4375722C4B
S1132A6820313A50574D29203A20257500206D6FA2
S1112A78746F72206D6F6465203A202575001E
S9030000FC
