S01C00004D6F746F72436F6E74726F6C6C65725F323031382E73726563A9
S113000051C000006DC000006BC0000069C000005A
S113001067C0000065C00000CFC6000061C00000DA
S11300205FC000005DC000005BC0000059C000005C
S113003060C6000055C0000053C0000051C000005D
S1130040CBC500000C94680B0C94D80849C0000080
S113005047C00000F5C40000D5C4000041C0000042
S11300603FC000003DC000003BC0000039C000009C
S113007037C0000035C0000033C0000031C00000AC
S113008018C50000F8C400002BC0000029C00000FF
S113009027C00000AA08AF08B508BB08C108C608F5
S11300A0CC08D20811241FBECFEFD0E1DEBFCDBFF4
S11300B011E0A0E0B1E0E8E6F1E200E00BBF02C02D
S11300C007900D92A234B107D9F723E0A2E4B1E07E
S11300D001C01D92AA38B207E1F72DD50C94B210D5
S11300E08FCF10924701109248011092490110924B
S11300F04A0108954F925F926F927F928F929F92DE
S1130100AF92BF92CF92DF92EF92FF920F931F9321
S1130110CF93DF934B015C0129013A01C0900001A8
S1130120D0900101E0900201F090030120E030E062
S11301304EEB52E4C701B6010E94580D882354F4D3
S113014020E030E048E452E4C701B6010E94090C03
S1130150181624F081E08093420102C010924201FB
S1130160A3019201C501B4010E94A40B6B017C019F
S11301706093430170934401809345019093460139
S11301808091420181111CC02AE037ED43E25CE317
S1130190C701B6010E945C0D9B01AC01609147014F
S11301A0709148018091490190914A010E94A50BE8
S11301B060934701709348018093490190934A01E9
S11301C023E333E343E752E460914701709148012C
S11301D08091490190914A010E945C0D4B015C01A0
S11301E029EF3FE049E75FE3C701B6010E945C0DD8
S11301F09B01AC01C501B4010E94A50B20E030E0D5
S113020048E452E40E94A50B6B017C016093000159
S113021070930101809302019093030120E030E088
S11302204EEB52E40E94580D18166CF480E090E0F6
S1130230AEEBB2E48093000190930101A09302011C
S1130240B093030116C020E030E048E452E4C70153
S1130250B6010E94090C882364F480E090E0A8E4CD
S1130260B2E48093000190930101A0930201B09342
S11302700301C0919600D091970020E030E048EC53
S113028052E460910001709101018091020190910A
S113029003010E940D0C6B017C01BE0180E090E023
S11302A00E94A60C9B01AC01C701B6010E945C0D23
S11302B00E94750CE8E9F0E071836083808191818C
S11302C090939B0080939A006091000170910101CA
S11302D080910201909103010E947A0CF8016083DD
S11302E0DF91CF911F910F91FF90EF90DF90CF900E
S11302F0BF90AF909F908F907F906F905F904F9042
S11303000895249A0895882311F02C9A08952C981E
S11303100895CF92DF92EF92FF920F931F93CF93A2
S1130320DF93EC018E89823069F030F4882309F47C
S113033048C0813009F14EC0833099F1843009F40A
S113034045C048C081E0DFDF81E08A8F8E010D5E09
S11303501F4FC880D980EA80FB806A8970E071955C
S113036061957109072E000C880B990B0E94A80C4B
S1130370A7019601BFDE2EC081E0C5DF81E08A8F30
S11303808E010D5E1F4FC880D980EA80FB806A8988
S113039070E080E090E00E94A60CA7019601AADE1E
S11303A019C081E0B0DF81E08A8F8E010D5E1F4F9E
S11303B0288139814A815B8160E070E0CB019ADE5B
S11303C009C080E0A0DF1A8E8CDE04C080E09BDFD1
S11303D01A8E87DEDF91CF911F910F91FF90EF90DE
S11303E0DF90CF900895CF93DF93EC016EE471E03A
S11303F080E0A8D621E043E050E06BE471E08EE4B5
S113040091E00E94440BEBE4F1E061816F71618340
S113041070E0762F66278281682BCE01F8D4DF91B5
S1130420CF910895CF93DF93EC016EE471E081E006
S113043089D621E043E050E06BE471E08EE491E082
S11304400E94440BEBE4F1E061816F71618370E021
S1130450762F66278281682BCE01D9D4DF91CF9184
S11304600895CF93DF93EC016EE471E082E06AD6E5
S113047021E043E050E06BE471E08EE491E00E94FF
S1130480440BEBE4F1E061816F71618370E0762FDE
S113049066278281682B80E090E00E94A60C23E30B
S11304A033E344E852E40E940D0C24EA30E74DEBB8
S11304B05EE30E94A40B688379838A839B83DF9124
S11304C0CF910895CF93DF93EC016EE471E084E063
S11304D039D621E043E050E06BE471E08EE491E032
S11304E00E94440BEBE4F1E061816F71618370E081
S11304F0762F66278281682BCE01F9D4DF91CF91C4
S113050008950F931F93CF93DF938C01EB01CB01DD
S113051095D78823E9F1F80186898430C9F1888167
S1130520998180339240A1F584E190E0F801958BA4
S1130530848B8E818B3098F081E0868B6E8170E0A5
S113054080E090E00E94A80C20E030E040E251E41A
S11305500E940D0C0E947A0CF801628B19C083E092
S1130560F801868B128A8D818A3190F082E0868B25
S11305706D8170E080E090E00E94A80C20E030E003
S113058040E251E40E940D0C0E947A0CF801628B47
S1130590DF91CF911F910F910895EF92FF920F93E6
S11305A01F93CF93DF93E1EFF2E020E534E0318352
S11305B0208328E02283FC012081222361F1EB01C6
S11305C08C010F2EF1EFEF2EF2E0FF2EF02D8E892D
S11305D0F70183831482688179818A819B810E94D7
S11305E07A0CF7017683658320E030E04AE754E42F
S11305F06C857D858E859F850E945C0D0E947A0C9A
S1130600F70170876783898990E092878187C701A2
S113061058D7F8011082DF91CF911F910F91FF906D
S1130620EF9008950F931F93CF93DF9300D0CDB72E
S1130630DEB7FC019091600320911E03921B9F7111
S113064079F18689843061F18F017DD19A83898320
S1130650FFD089819A810B9758F089819A814597B7
S113066038F489819A818A50F801828B82E0868BE2
S113067089819A81892B51F089819A810B9730F471
S113068089819A81F801828B81E0868B89819A81A4
S1130690892B31F489819A81F801828B83E0868BDE
S11306A00F900F90DF91CF911F910F910895CF93E9
S11306B0DF93CDB7DEB78F891F928F938D891F92F9
S11306C08F93888D1F928F938E891F928F9320E032
S11306D030E04AE754E46D857E858F8598890E94D1
S11306E05C0D0E947A0C7F936F9320E030E04AE720
S11306F054E469857A858B859C850E945C0D0E94F3
S1130700750C7F936F9320E030E04AE754E46D81E9
S11307107E818F8198850E945C0D0E94750C7F9369
S11307206F938DE291E09F938F930E94ED0D8AE089
S113073090E00E94000E0FB6F894DEBF0FBECDBF4E
S1130740DF91CF910895CF93DF93CDB7DEB78B8D33
S11307508230C9F028F4882341F0813069F027C041
S11307608330C1F08430E9F022C080E469D780E2AC
S113077067D780E86FD71BC080E262D780E860D774
S113078080E46DD714C080E25BD780E859D780E459
S113079066D70DC080E254D780E852D780E45AD798
S11307A006C080E44DD780E84BD780E253D7DF9171
S11307B0CF9108956D987598ED98EAE6F0E0808100
S11307C08C608083E59AED9A0895EF92FF920F93DF
S11307D01F93CF93DF931F92CDB7DEB77C018B01BC
S11307E0FB016081718180E090E00E94A60C9B0176
S11307F0AC0160E070E484EC94E40E940D0C0E946F
S11308007A0C69838981F7018083F801118210824F
S11308100F90DF91CF911F910F91FF90EF9008956A
S113082090913F039F5F9F7120911D039217E1F305
S1130830E92FF0E0EC59FC4F80832FB7F8949093A4
S11308403F03E1ECF0E08081806280832FBF089554
S113085090911D0380913F039813FACF08959091CE
S113086063039F5F9F71209161039217E1F3E92F66
S1130870F0E0E15EFC4F80832FB7F894909363031C
S1130880E9ECF0E08081806280832FBF0895CF93EC
S1130890C82FFB0184859585019739F0CA3011F47E
S11308A08DE0BEDF8C2FBCDF06C0CA3011F48DE0B2
S11308B0D6DF8C2FD4DF80E090E0CF910895809133
S11308C01E0390916003891759F08F5F982F9F71D1
S11308D0E92FF0E0E450FD4F808190931E030895CA
S11308E080E00895EF92FF920F931F93CF93DF93CD
S11308F07C01162FE4DFF70180838132D8F3E7010E
S113090021961230C1F01350812F90E00296870196
S1130910080F191FD4DF88838823E1F38D3021F475
S1130920CEDF8823E9F307C0813228F021960C1723
S11309301D0781F7E8011882DF91CF911F910F9174
S1130940FF90EF900895CF93DF93CDB7DEB727974D
S11309500FB6F894DEBF0FBECDBF67E0CE0101969F
S1130960C1DFCE0101960E94C80D27960FB6F894F8
S1130970DEBF0FBECDBFDF91CF91089580911E03DE
S113098090916003891761F08F5F8F71E82FF0E019
S1130990E450FD4F908180931E03892F90E00895C9
S11309A08FEF9FEF089580911C0390916203891744
S11309B061F08F5F8F71E82FF0E0E05CFC4F908175
S11309C080931C03892F90E008958FEF9FEF089583
S11309D0CF93DF93FC0184859585019741F0CEDFA9
S11309E0EC019923E4F31CDFCE01992707C0DBDF78
S11309F0EC019923E4F333DFCE0199279927DF91A2
S1130A00CF9108950F930FB7EF93FF93E0911D03D8
S1130A10F0913F03E395EF71EF1305C0F091C1002E
S1130A20FF7DF093C100E0931D03F0E0EC59FC4F0F
S1130A30E081E093C600FF91EF910FBF0F911895ED
S1130A400F930FB79F939091C600EF93FF93E0919C
S1130A506003F0911E03E395EF71FE1731F0E0930C
S1130A606003F0E0E450FD4F9083FF91EF919F917C
S1130A700FBF0F9118950F930FB7EF93FF93E0916A
S1130A806103F0916303E395EF71EF1305C0F091F7
S1130A90C900FF7DF093C900E0936103F0E0E15EDB
S1130AA0FC4FE081E093CE00FF91EF910FBF0F91D7
S1130AB018950F930FB79F939091CE00EF93FF93E8
S1130AC0E0916203F0911C03E395EF71FE1731F09E
S1130AD0E0936203F0E0E05CFC4F9083FF91EF91C0
S1130AE09F910FBF0F911895E1E8F0E0808183603A
S1130AF080838081886080831092850010928400B6
S1130B00EFE6F0E08081826080838DE790E090934F
S1130B10890080938800089584B5856084BD84B578
S1130B20886084BD16BCEEE6F0E08081826080833C
S1130B3087E287BD0895F89487D541D560E070E0D9
S1130B4080E090E026D4D0DFE7DF34DE80E08BD590
S1130B501092C4001092C50088E98093C100E4E8B3
S1130B60F3E084E091E093838283918380836CD566
S1130B70C8DB789462E171E084E591E00EDD66EE15
S1130B8072E082E191E0BDDC809153018823E9F0B9
S1130B908DB79EB74B970FB6F8949EBF0FBE8DBF0F
S1130BA0ADB7BEB711968BE1E2E1F1E001900D9291
S1130BB08A95E1F77CDD109253018DB79EB74B9671
S1130BC00FB6F8949EBF0FBE8DBF82E191E02ADD7F
S1130BD082E191E045D2CECF1F920F920FB60F92D1
S1130BE011240BB60F92EF920F931F932F933F9301
S1130BF04F935F936F937F938F939F93AF93BF9321
S1130C00EF93FF9380915701813031F58091260154
S1130C1090912701009739F480912801843041F0A4
S1130C201092280105C00197909327018093260113
S1130C30E2E1F1E000851185228533854481558107
S1130C40668177810F2EFAE0EF2EF02D8EE191E090
S1130C50D0D11092570103C08F5F809357018091C8
S1130C605501909156018436910529F511E01093B0
S1130C7053018DB79EB74B970FB6F8949EBF0FBE26
S1130C808DBFADB7BEB711968BE1E2E1F1E0019003
S1130C900D928A95E1F757DD109354011092560195
S1130CA0109255018DB79EB74B960FB6F8949EBF20
S1130CB00FBE8DBF05C001969093560180935501D8
S1130CC082E191E026DBFF91EF91BF91AF919F917B
S1130CD08F917F916F915F914F913F912F911F91D0
S1130CE00F91EF900F900BBE0F900FBE0F901F90BF
S1130CF018951F920F920FB60F9211240BB60F92F4
S1130D002F933F934F935F936F937F938F939F930F
S1130D10AF93BF93EF93FF93809150019091510152
S1130D200196909351018093500180915201843037
S1130D3031F482E291E0C6DB1092520112C083309A
S1130D4021F484E08093520118C0809152018230D2
S1130D5041F48AE191E085DB809152018F5F8093B9
S1130D60520180915201813041F486E191E05ADBD5
S1130D70809152018F5F80935201809152018111C1
S1130D8008C082E191E02FDB809152018F5F809354
S1130D905201FF91EF91BF91AF919F918F917F91FC
S1130DA06F915F914F913F912F910F900BBE0F90D8
S1130DB00FBE0F901F9018951F920F920FB60F92AF
S1130DC011240BB60F922F933F934F935F936F931E
S1130DD07F938F939F93AF93BF93EF93FF9360E5BC
S1130DE071E083E291E0F1DCFF91EF91BF91AF916B
S1130DF09F918F917F916F915F914F913F912F912F
S1130E000F900BBE0F900FBE0F901F9018958F92EE
S1130E109F92AF92BF92CF92DF92EF92FF920F9385
S1130E201F93CF93DF9300D000D0CDB7DEB78C01F2
S1130E3080E090E08BD520E030E040EA50E43CD6FE
S1130E4020E030E040E859E337D629E23CE54FE0C2
S1130E5050E47AD423EC34E64AE25DE3DED420E0C5
S1130E6030E040E450E4D9D469837A838B839C8353
S1130E7069817A818B819C812EEA37E441EE5FE3BC
S1130E8063D469837A838B839C8389809A80AB80C3
S1130E90BC8026E636E646E65FE3F80160817181B0
S1130EA08281938109D66B017C012DEC3CEC4CECE6
S1130EB05DE3C501B40100D69B01AC01C701B601D5
S1130EC044D4F80160837183828393830F900F90DD
S1130ED00F900F90DF91CF911F910F91FF90EF90A2
S1130EE0DF90CF90BF90AF909F908F9008950F9315
S1130EF01F93CF93DF9300D000D0CDB7DEB78C0122
S1130F0080E090E023D520E030E040EA50E4D4D5FE
S1130F1020E030E040E859E3CFD569837A838B83BE
S1130F209C8369817A818B819C812DEC3CEC4CE61D
S1130F3050E46FD418168CF069817A818B819C817E
S1130F4020E030E040EA51E4B7D520E030E040EB67
S1130F5051E4FAD3CFD4F801608369817A818B811B
S1130F609C8126E636E646E950E453D41816E4F0AC
S1130F7069817A818B819C812DEC3CEC4CE650E4B8
S1130F8097D518168CF469817A818B819C8120E035
S1130F9030E04EE552E490D520E030E84BE153E4F4
S1130FA0D3D3A8D4F801608369817A818B819C8131
S1130FB026E636E646E950E47BD518168CF46981BA
S1130FC07A818B819C8120E030E048E453E474D53D
S1130FD020E030E042E554E4B7D38CD4F8016083D8
S1130FE00F900F900F900F90DF91CF911F910F9161
S1130FF008958F929F92AF92BF92EF920F931F9397
S1131000CF93DF93EC014A015B01C901B801A5014B
S1131010940152D54B015C016E2D70E080E090E0AC
S113102095D49B01AC01C501B40146D520E030E064
S11310304AE754E4F2D39B01AC01688179818A8147
S11310409B8183D3688379838A839B83DF91CF9148
S11310501F910F91EF90BF90AF909F908F90089544
S11310608F929F92AF92BF92CF92DF92EF92FF92B4
S1131070CF93DF93EC01C884D984EA84FB8420E015
S113108030E040E751E4C701B601C3D388234CF0F4
S113109020E030E048EC52E4C701B60109D5181647
S11310A024F48E89843009F01E8A88809980AA806D
S11310B0BB8020E030E040E751E4C501B401F8D43E
S11310C08823B4F420E030E04CE552E4C701B601D3
S11310D0EFD418164CF420E030E048EC52E4C70199
S11310E0B60197D3882324F088898436F0F419C094
S11310F084E08E8B88898436D0F420E030E040E7A9
S113110051E4C501B40185D388238CF420E030E098
S11311104CE552E4C701B6017CD3181644F01E8A8C
S113112006C08E89843019F4E8CF84E08E8BDF9179
S1131130CF91FF90EF90DF90CF90BF90AF909F90B2
S11311408F90089590E08830910588F5FC01E65B66
S1131150FF4F15C586E0FB0180831182089586E068
S1131160FB01808380E48183089586E0FB01808312
S113117080E88183089586E0FB01808380EC81838D
S1131180089587E0FB0180831182089587E0FB01C5
S1131190808380E48183089587E0FB01808380E875
S11311A08183089587E0FB01808380EC8183089527
S11311B01F920F920FB60F9211240BB60F922F931A
S11311C03F934F935F936F938F939F93AF93BF938B
S11311D0EF93FF93CF93DF931F92CDB7DEB7809148
S11311E0E00080FF47C09091DE0090FF43C0109262
S11311F0ED00EEEEF0E08081898380818F7B808337
S113120080915D0190915C01981789F18F702BE0BA
S1131210829FC0011124FC01E25FFD4F20812093D5
S1131220F00020812093F20021812093F300238198
S1131230AAEFB0E02C9324812C9325812C93268152
S11312402C9327812C9320852C9321852C93228504
S11312502C93FC01E05FFD4F80818F70806480934C
S1131260EF0080915D018F5F80935D017DC01092DE
S11312705B017AC081FF78C08091DE0081FF74C079
S113128080E18093ED0080915901282F30E0909106
S11312905A01291B31092F773327203131050CF0EE
S11312A058C0E82FEF709091EF002E2F30E04BE004
S11312B0E49FF0011124E25AFE4F9F704281407F67
S11312C0942B92834091F2009091F000407E9770AD
S11312D0942B90839091F3009183AAEFB0E09C91BA
S11312E093839C9194839C9195839C9196839C91E8
S11312F097839C9190879C9191879C9192878F5F13
S11313008093590140814295469547705181652FDC
S1131310660F660F660F862F842B952F92959695F0
S11313209770892BB1F48BE0829FF001839FF00DBD
S11313301124E25AFE4F8381833059F498E088E106
S11313400FB6F894A895809360000FBE9093600048
S1131350FFCFEEEEF0E080818983898180818F7DEB
S1131360808380E88093EF000F90DF91CF91FF910D
S1131370EF91BF91AF919F918F916F915F914F9139
S11313803F912F910F900BBE0F900FBE0F901F90A7
S11313901895CF93DF93E8EDF0E021E020831092DD
S11313A0E2002CE02093E30027E32093E400109272
S11313B0E7001092E6001092E9001092E800109203
S11313C0EC001092E500CDEED0E01882AEEEB0E075
S11313D01C9220E128831C921092F400282F22955D
S11313E0220F207E2093F6009695879596958795F3
S11313F0969587958093F7001092F000862F82953A
S1131400880F807E8093F200769567957695679530
S1131410769567956093F30080E88093EF0083E00E
S11314208093DC008093DE0080EB8093DB0082E01D
S1131430808310925801DF91CF910895CF93DF9369
S1131440EC0140915A0120915901241789F1A42FEC
S1131450AF708BE0A89FB0011124FB01E25AFE4F4C
S113146020812295269527703181532F550F550FD2
S1131470550F252B32953695377028833983FB0118
S1131480E05AFE4F20812F702A83222399F0DB013A
S1131490AF59BE4FFE01339630E02D5F3F4FCE0172
S11314A0820F931F2D912193E817F907D9F702C0F2
S11314B080E004C04F5F40935A0181E0DF91CF91F7
S11314C00895CF93DF93FC01ABEDB0E08C918F775F
S11314D08C9380915B01811127C01092ED00808173
S11314E08295880F807E8093F20080819181969509
S11314F0879596958795969587958093F300DF0158
S113150013969F01255F3F4FCAEFD0E09D919883CA
S1131510A217B307D9F781E080935B0182818064CD
S11315208093EF0081E043C020915C01822F90E022
S113153030915D01831B91098F7799274097B1F111
S1131540A22FAF708BE0A89FD0011124ED01C25FE0
S1131550DD4F8081982F9295990F907E88818F71AD
S1131560892B88838081982F969596959695898165
S1131570807E892B898391819295990F907E8F71BA
S1131580892B89838281982F9F708A81807F892B00
S11315908A83AF5EBD4F339688E001900D928A95A1
S11315A0E1F72F5F20935C0181E001C080E0EBED67
S11315B0F0E0908190689083DF91CF9108958EB18F
S11315C0877E8EB98DB188618DB9A1E9B0E08C9127
S11315D088618C93E0E9F0E080818260808380817F
S11315E08E7F808380818068808380818F7B8083ED
S11315F08081806280838081806180838C9181601E
S11316008C938C91897F8C93E6E9F0E089E991E0F1
S1131610918380836081718180E090E097D120E0A4
S113162030E040E05FE348D260D1E8E9F0E0718364
S113163060838081918190939B0080939A000895A8
S113164095B1892B85B9089584B1806E84B980EEF3
S1131650F7CF089595B18095982395B9089595B1DC
S1131660892785B9089594B1976094B982FB992725
S113167090F9282F227081708065822B8CBD8CB5E7
S1131680837F8CBD9DBD0895CF93DF93EC01289893
S113169041155105C1F0FB01DC01460F571F8FEFC7
S11316A0209711F09C9101C0982F9EBD0DB407FEA8
S11316B0FDCF6115710511F09EB590833196119699
S11316C0E417F50769F72111289ADF91CF9108955E
S11316D01F920F920FB60F9211240BB60F922F93F5
S11316E03F934F935F936F937F938F93AF93BF9386
S11316F0EF93FF93AEEDB2E0EEEBF2E02EED32E0CD
S11317008D91882359F04081518162817381505EAB
S11317106F4F7F4F40835183628373833496E21704
S1131720F30771F7FF91EF91BF91AF918F917F9183
S11317306F915F914F913F912F910F900BBE0F903E
S11317400FBE0F901F9018955058BB27AA270ED094
S113175075C166D130F06BD120F031F49F3F11F4A4
S11317601EF45BC10EF4E095E7FB51C1E92F77D17C
S113177080F3BA17620773078407950718F071F4AA
S11317809EF58FC10EF4E0950B2EBA2FA02D0B0100
S1131790B90190010C01CA01A0011124FF27591BB2
S11317A099F0593F50F4503E68F11A16F040A22FB8
S11317B0232F342F4427585FF3CF46953795279529
S11317C0A795F0405395C9F77EF41F16BA0B620B28
S11317D0730B840BBAF09150A1F0FF0FBB1F661F6F
S11317E0771F881FC2F70EC0BA0F621F731F841FB2
S11317F048F4879577956795B795F7959E3F08F0D8
S1131800B3CF9395880F08F09927EE0F9795879596
S11318100895D9D008F481E008950CD00FC107D100
S113182040F0FED030F021F45F3F19F0F0C05111C8
S113183039C1F3C014D198F39923C9F35523B1F3F3
S1131840951B550BBB27AA2762177307840738F02B
S11318509F5F5F4F220F331F441FAA1FA9F333D08A
S11318600E2E3AF0E0E830D091505040E695001C3E
S1131870CAF729D0FE2F27D0660F771F881FBB1FFA
S1131880261737074807AB07B0E809F0BB0B802DD4
S1131890BF01FF2793585F4F2AF09E3F510568F020
S11318A0B6C000C15F3FECF3983EDCF386957795B4
S11318B06795B795F7959F5FC9F7880F911D969522
S11318C0879597F90895E1E0660F771F881FBB1F7E
S11318D0621773078407BA0720F0621B730B840B2B
S11318E0BA0BEE1F88F7E095089504D06894B111FF
S11318F0D9C00895BCD088F09F5790F0B92F99278C
S1131900B751A0F0D1F0660F771F881F991F1AF006
S1131910BA95C9F712C0B13081F0C3D0B1E00895CF
S1131920C0C0672F782F8827B85F39F0B93FCCF350
S1131930869577956795B395D9F73EF490958095FC
S1131940709561957F4F8F4F9F4F0895E89409C01C
S113195097FB3EF490958095709561957F4F8F4FDE
S11319609F4F9923A9F0F92F96E9BB279395F695F4
S1131970879577956795B795F111F8CFFAF4BB0F72
S113198011F460FF1BC06F5F7F4F8F4F9F4F16C0D6
S1131990882311F096E911C0772321F09EE8872F60
S11319A0762F05C0662371F096E8862F70E060E01C
S11319B02AF09A95660F771F881FDAF7880F969595
S11319C0879597F90895990F0008550FAA0BE0E839
S11319D0FEEF16161706E807F907C0F012161306ED
S11319E0E407F50798F0621B730B840B950B39F42D
S11319F00A2661F0232B242B252B21F408950A2693
S1131A0009F4A140A6958FEF811D811D089597F9D2
S1131A109F6780E870E060E008959FEF80EC089590
S1131A2000240A94161617061806090608950024B9
S1131A300A9412161306140605060895092E039433
S1131A40000C11F4882352F0BB0F40F4BF2B11F4A7
S1131A5060FF04C06F5F7F4F8F4F9F4F089557FD06
S1131A609058440F551F59F05F3F71F04795880F08
S1131A7097FB991F61F09F3F79F08795089512169F
S1131A8013061406551FF2CF4695F1DF08C016164B
S1131A9017061806991FF1CF8695710561050894FC
S1131AA00895E894BB2766277727CB0197F9089513
S1131AB08ADF08F48FEF08950BD0C0CFB1DF28F090
S1131AC0B6DF18F0952309F0A2CFA7CF1124EACFEF
S1131AD0C6DFA0F3959FD1F3950F50E0551F629F89
S1131AE0F001729FBB27F00DB11D639FAA27F00D73
S1131AF0B11DAA1F649F6627B00DA11D661F829F9A
S1131B002227B00DA11D621F739FB00DA11D621F7E
S1131B10839FA00D611D221F749F3327A00D611D9B
S1131B20231F849F600D211D822F762F6A2F11247D
S1131B309F5750408AF0E1F088234AF0EE0FFF1FD0
S1131B40BB1F661F771F881F91505040A9F79E3F07
S1131B50510570F05CCFA6CF5F3FECF3983EDCF309
S1131B60869577956795B795F795E7959F5FC1F744
S1131B70FE2B880F911D9695879597F90895EE0F82
S1131B80FF1F0024001C0BBE0790F691E02D099462
S1131B90FC0188279927E89421912032E9F3293020
S1131BA010F02E30C8F32B3239F02D3231F4689412
S1131BB003C00BD0820F911D219120532A30C8F30A
S1131BC01EF4909581959F4F08957AE0979F902DEC
S1131BD0879F802D910D11240895CF93DF93CDB766
S1131BE0DEB7AE014B5F5F4FFA0161917191AF01B6
S1131BF0809186039091870308D0DF91CF91089557
S1131C00609186037091870313C22F923F924F9283
S1131C105F926F927F928F929F92AF92BF92CF9278
S1131C20DF92EF92FF920F931F93CF93DF93CDB781
S1131C30DEB72B970FB6F894DEBF0FBECDBF6C0195
S1131C407B018A01FC0117821682838181FFBFC157
S1131C50CE0101963C01F6019381F70193FD859134
S1131C6093FF81917F01882309F4ADC1853239F452
S1131C7093FD859193FF81917F01853221F4B60113
S1131C8090E0D6D1E8CF912C212C312CFFE1F31533
S1131C90D8F08B3279F038F4803279F08332A1F4C1
S1131CA0232D20611DC08D3261F0803369F4232D12
S1131CB0216016C0832D8260382EE32DE4603E2E11
S1131CC02AC0F32DF8601DC037FC2DC020ED280F6D
S1131CD02A3040F08E32B9F436FC75C1232D2064CD
S1131CE0322E19C036FE06C08AE0989E200D1124BB
S1131CF0922E11C0EAE02E9E200D1124222EF32DE7
S1131D00F0623F2E08C08C3621F4832D8068382E73
S1131D1002C0883641F4F70193FD859193FF8191C8
S1131D207F018111B3CF982F9F7D9554933028F470
S1131D300C5F1F4F9FE399830DC0833631F08337C7
S1131D4071F0833509F055C020C0F8018081898382
S1131D500E5F1F4F88248394912C530112C02801D5
S1131D60F2E04F0E511CF801A080B18036FE03C092
S1131D70692D70E002C06FEF7FEFC5014ED14C01B9
S1131D808201F32DFF773F2E15C0280122E0420E79
S1131D90511CF801A080B18036FE03C0692D70E0AB
S1131DA002C06FEF7FEFC5012DD14C01F32DF06818
S1131DB03F2E820133FC19C0822D90E088169906CB
S1131DC0A0F4B60180E290E033D12A94F5CFF50176
S1131DD037FC859137FE81915F01B60190E028D1EF
S1131DE021102A9421E0821A91088114910479F730
S1131DF0E1C0843611F0893639F5F80137FE07C0A1
S1131E0060817181828193810C5F1F4F08C0608162
S1131E107181072E000C880B990B0E5F1F4FF32D59
S1131E20FF763F2E97FF09C0909580957095619538
S1131E307F4F8F4F9F4FF0683F2E2AE030E0A30181
S1131E4033D1882E861844C0853731F4232D2F7E54
S1131E50B22E2AE030E025C0932D997FB92E8F361B
S1131E60C1F018F4883579F0AEC0803719F088379E
S1131E7021F0A9C0E92FE061BE2EB4FE0DC0FB2DF8
S1131E80F460BF2E09C034FE0AC0292F2660B22E8A
S1131E9006C028E030E005C020E130E002C020E1C7
S1131EA032E0F801B7FE07C06081718182819381BD
S1131EB00C5F1F4F06C06081718180E090E00E5F6F
S1131EC01F4FA301F1D0882E8618FB2DFF773F2EDC
S1131ED036FE0DC0232D2E7FA22E891458F434FE15
S1131EE00BC032FC09C0832D8E7EA82E05C0B82CF1
S1131EF0A32C03C0B82C01C0B92CA4FE0FC0FE0152
S1131F00E80DF11D8081803321F49A2D997EA92E4C
S1131F1009C0A2FE06C0B394B39404C08A2D867887
S1131F2009F0B394A3FC10C0A0FE06C0B21480F460
S1131F30280C922C9B180DC0B21458F4B60180E200
S1131F4090E076D0B394F8CFB21418F42B1802C0F2
S1131F50982C212CA4FE0FC0B60180E390E068D039
S1131F60A2FE16C0A1FC03C088E790E002C088E589
S1131F7090E0B6010CC08A2D867851F0A1FE02C013
S1131F808BE201C080E2A7FC8DE2B60190E050D064
S1131F90891430F4B60180E390E04AD09A94F8CFE3
S1131FA08A94F301E80DF11D8081B60190E040D0E0
S1131FB08110F6CF222009F44ECEB60180E290E0E3
S1131FC037D02A94F7CFF6018681978102C08FEF2C
S1131FD09FEF2B960FB6F894DEBF0FBECDBFDF91F7
S1131FE0CF911F910F91FF90EF90DF90CF90BF9012
S1131FF0AF909F908F907F906F905F904F903F90A5
S11320002F900895FC010590615070400110D8F79D
S1132010809590958E0F9F1F0895FC01615070402C
S113202001900110D8F7809590958E0F9F1F089509
S11320300F931F93CF93DF93FB01238121FD03C0F3
S11320408FEF9FEF2CC022FF16C046815781248159
S113205035814217530744F4A081B1819D012F5F5C
S11320603F4F318320838C93268137812F5F3F4FED
S11320703783268314C08B01EC01FB010084F185B6
S1132080E02D0995892BE1F6D80116968D919C9146
S11320901797019617969C938E931697CE01DF910E
S11320A0CF911F910F910895FA01AA27283051F179
S11320B0203181F1E8946F936E7F6E5F7F4F8F4F75
S11320C09F4FAF4FB1E03ED0B4E03CD0670F781FD4
S11320D0891F9A1FA11D680F791F8A1F911DA11DB9
S11320E06A0F711D811D911DA11D20D009F46894F2
S11320F03F912AE0269F11243019305D3193DEF69A
S1132100CF010895462F4770405D4193B3E00FD04F
S1132110C9F7F6CF462F4F70405D4A3318F0495D3A
S113212031FD4052419302D0A9F7EACFB4E0A6951D
S11321309795879577956795BA95C9F7009761053F
S1132140710508959B01AC010A2E06945795479595
S113215037952795BA95C9F7620F731F841F951F8A
S10B2160A01D0895F894FFCFBF
S11321680000484200000003000000004704E8049F
S11321780000000000000000000000000000000053
S11321880000000000321400000000000025692C43
S113219825692C25752C25752C25752C25752C253C
S10521A86900C8
S9030000FC
