:1000000051C000006DC000006BC0000069C000005E
:1000100067C0000065C000000C94BF0961C000000B
:100020005FC000005DC000005BC0000059C0000060
:100030000C94540955C0000053C0000051C000008A
:100040000C94AD080C94B00D0C94610B49C00000E9
:1000500047C0000078C7000058C7000041C000003A
:100060003FC000003DC000003BC0000039C00000A0
:1000700037C0000035C0000033C0000031C00000B0
:100080009BC700007BC700002BC0000029C00000F8
:1000900027C00000330B380B3E0B440B4A0B4F0BB1
:1000A000550B5B0B11241FBECFEFD0E1DEBFCDBFE0
:1000B00011E0A0E0B1E0EEE0F6E200E00BBF02C02C
:1000C00007900D92AE33B107D9F723E0AEE3B1E06C
:1000D00001C01D92AE39B207E1F7B0D70C940513F9
:1000E0008FCF10923F011092400110924101109267
:1000F00042010895682F70E080E090E00E94F00EC9
:1001000020E030E048E452E40E94EC0D23E333E3C6
:1001100043EC51E40E94550E60933F0170934001FF
:10012000809341019093420108958F929F92AF92E4
:10013000BF92CF92DF92EF92FF920F931F93CF93D4
:10014000DF93EC018C8D823021F46E89162F11958E
:1001500001C010E08C8D813009F41D8989A18111C5
:100160008BC0C0900001D0900101E0900201F0909E
:10017000030120E030E04EEB52E4C701B6010E94DB
:10018000A00F882354F420E030E048E452E4C70193
:10019000B6010E94510E1816ACF081E080933E012A
:1001A000C880D980EA80FB80612F110F770B880B04
:1001B000990B0E94F00EA70196010E94EC0D6B01B5
:1001C0007C012DC010923E01C880D980EA80FB805E
:1001D000612F110F770B880B990B0E94F00EA7016E
:1001E00096010E94EC0D6B017C012AE037ED43EA99
:1001F0005BE30E94A40F9B01AC0160913F017091F1
:10020000400180914101909142010E94ED0D609367
:100210003F0170934001809341019093420123E399
:1002200033E343EC51E460913F01709140018091D0
:100230004101909142010E94A40F4B015C0129E60B
:100240003FE640ED5EE3C701B6010E94A40F9B01AB
:10025000AC01C501B4010E94ED0D20E030E048E49E
:1002600052E40E94ED0D60930001709301018093B0
:1002700002019093030119C089A18130B1F46F8903
:1002800070E080E090E00E94EE0E609300017093B9
:100290000101809302019093030188819981AA81D1
:1002A000BB8188819981AA81BB81C0900001D090D7
:1002B0000101E0900201F090030120E030E04EEBFC
:1002C00052E4C701B6010E94A00F18166CF480E03A
:1002D00090E0AEEBB2E48093000190930101A09313
:1002E0000201B093030116C020E030E048E452E47C
:1002F000C701B6010E94510E882364F480E090E0AB
:10030000A8E4B2E48093000190930101A09302015C
:10031000B093030106E910E0F801E080F18020E0ED
:1003200030E048EC52E4609100017091010180914D
:100330000201909103010E94550E4B015C01B7012F
:1003400080E090E00E94EE0E9B01AC01C501B4017B
:100350000E94A40F0E94BD0E7093990060939800B4
:10036000F801608171810081118180E090E00E943C
:10037000EE0E6B017C0120E030E048EC52E460912D
:1003800000017091010180910201909103010E948E
:10039000550E4B015C01B80180E090E00E94EE0E2A
:1003A0009B01AC01C501B4010E94A40F9B01AC01EB
:1003B000C701B6010E94EC0D0E94BD0E70939B0018
:1003C00060939A0060910001709101018091020197
:1003D000909103010E94C20E6F8BDF91CF911F910C
:1003E0000F91FF90EF90DF90CF90BF90AF909F90D4
:1003F0008F900895249A0895813011F42C9A0895CD
:100400002C980895CF93DF93EC0166E471E080E0CF
:100410000E942B0B21E043E050E063E471E086E4AE
:1004200091E00E948C0DE3E4F1E061816F716183E2
:1004300070E0762F66278281682B40E0CE01CAD714
:10044000DF91CF910895CF93DF93EC0166E471E0E3
:1004500081E00E942B0B21E043E050E063E471E077
:1004600086E491E00E948C0DE3E4F1E061816F711C
:10047000618370E0762F66278281682B41E0CE0190
:10048000A9D7DF91CF910895CF93DF93EC0166E474
:1004900071E082E00E942B0B21E043E050E063E436
:1004A00071E086E491E00E948C0DE3E4F1E061816B
:1004B0006F71618370E0762F66278281682B80E000
:1004C00090E00E94EE0E20E030E049E852E40E9405
:1004D000550E2AE939E949E95EE30E94ED0D68838A
:1004E00079838A839B83DF91CF910895CF93DF93A4
:1004F000EC0166E471E084E00E942B0B21E043E014
:1005000050E063E471E086E491E00E948C0DE3E446
:10051000F1E061816F71618370E0762F66278281DF
:10052000682BCE01D2D7DF91CF9108950F931F93FF
:10053000CF93DF938C01EB01CB010E94A70C8823A2
:1005400009F449C0F801848D843009F444C08881DD
:1005500099818032F2E09F07A9F180339240D9F56A
:1005600081E0F801858F11A282E390E0918F808F66
:100570008E818B3060F09DEC899F812D11248695B2
:1005800086958695858B8EE190E0938F828F8D8105
:100590008C3180F09DEC899F812D11248695869564
:1005A0008695F801868B8EE190E0938F828F8D8106
:1005B0008C3110F4F801168A8E818B3060F4F801CA
:1005C000158A09C081E0F80182A38B819C81948BFC
:1005D000838B8D81868FDF91CF911F910F9108952D
:1005E0000F931F93CF93DF93CDB7DEB705E013E0F2
:1005F00080E692E0F8019183808388E082838BA17A
:1006000083836F81788589859A8520E030E040E298
:1006100051E40E94A40F0E94BD0EF80164836F850F
:10062000788989899A8920E030E040E251E40E948B
:10063000A40F0E94C20EF801768365836B897C89C2
:100640008D899E890E94BD0E072E000C880B990B88
:100650000E94F00E20E030E048EC52E40E94550E7B
:100660000E94BD0E9B01772324F422273327261BEB
:10067000370B30930D0320930C03688D798D05E0C3
:1006800013E080E090E00E94EE0E26E636E646E6B5
:1006900050E40E94A40F20E030E040E05FE30E94BD
:1006A000A40F0E94C20EF80161878F898287C8015A
:1006B0000E94EA0CDF91CF911F910F910895CF9383
:1006C000DF93CDB7DEB7EAEFF2E081E692E0918307
:1006D000808381E082838CA18383CF010E94EA0C16
:1006E000DF91CF910895EF92FF920F931F93CF93D5
:1006F000DF93CDB7DEB785E391E00E9428106985CE
:100700007A858B859C8520E030E04AE754E40E949E
:10071000A40F0E94BD0E7F936F930F2EF7E3EF2E71
:10072000F1E0FF2EF02DFF92EF920E9410108CE26C
:1007300090E00E94231088A11F928F930AE311E09A
:100740001F930F930E9410108CE290E00E942310E0
:100750004E8D28EE33E0429FC001439F900D11243F
:100760009F938F931F930F930E9410108CE290E041
:100770000E9423106A8D7B8D80E090E00E94EE0E37
:1007800020E030E044EB53E40E94A40F0E94C20E2C
:100790007F936F931F930F930E9410108CE290E051
:1007A0000E9423106C8D7D8D80E090E00E94EE0E03
:1007B00023EC35EF40EA50E40E94A40F0E94C20EE1
:1007C0007F936F931F930F930E9410108CE290E021
:1007D0000E94231069897A898B899C8920E030E006
:1007E00040E251E40E94A40F0E94C20E7F936F93D7
:1007F0001F930F930E9410108CE290E00E94231030
:100800006D857E858F85988920E030E04AE754E445
:100810000E94A40F0E94BD0E7F936F93FF92EF92F0
:100820000E9410100FB6F894DEBF0FBECDBFDF914F
:10083000CF911F910F91FF90EF900895CF93DF9389
:10084000CDB7DEB789A1823091F128F4882349F031
:10085000813019F149C08430F1F198F1853099F077
:1008600043C080E40E94680D80E80E94720D8D8D67
:100870009E8D892B21F480E20E94720D35C080E2AA
:100880000E94680D31C080E20E94680D80E40E94E1
:10089000720D80E80E94720D27C080E20E94680DF0
:1008A00080E80E94680D80E40E94770D1DC080E200
:1008B0000E94680D80E80E94680D80E40E94770D18
:1008C00013C080E20E94680D80E80E94680D80E4F9
:1008D0000E94720D09C080E40E94680D80E80E94A9
:1008E000680D80E20E94720DDF91CF9108956D989E
:1008F0007598ED98EAE6F0E0808184608083E59A5F
:10090000ED9A08950F931F93CF93DF93FB012081FE
:10091000318127303105B8F0EB018C0160817181A4
:1009200080E090E00E94EE0E9B01AC0160E076E773
:1009300088E096E40E94550E0E94C20EF801718371
:10094000608319821882DF91CF911F910F910895D2
:10095000CF92DF92EF92FF92CF93DF931F92CDB7AA
:10096000DEB7898369017A01613019F5698170E028
:1009700080E090E00E94F00E29E33DE24AE75EE36A
:100980000E94A40FA70196010E94550E20E030E0BE
:1009900048EC52E40E94A40F20E030E048E452E426
:1009A0000E94ED0D0E94C20E862F623329F584E36A
:1009B00023C0623001F5698170E080E090E00E9420
:1009C000F00E22E03BE740E55EE30E94A40FA701A2
:1009D00096010E94550E20E030E048EC52E40E945F
:1009E000A40F20E030E048E452E40E94ED0D0E94A4
:1009F000C20E862F01C082E30F90DF91CF91FF904E
:100A0000EF90DF90CF9008950F931F93CF93DF93D4
:100A1000EC01688579858A859B8520E030E040E798
:100A200051E40E94A00F8823D4F1688579858A85D6
:100A30009B8520E030E048EC52E40E94510E882370
:100A40000CF44CC110E030C0688179818A819B81AF
:100A500020E030E040E751EC0E94510E181664F49B
:100A6000688579858A859B8520E030E04CE552E4F5
:100A70000E94A00F1816ACF480914B018F5F8093F9
:100A80004B01833081F481E080934C0180914801D7
:100A90008F5F8093480188E592E011E00BC010E081
:100AA00003C011E001C011E08091490190914A0119
:100AB0000097C1F0019790934A01809349018C8D72
:100AC000823009F4B5C030F48823C9F0813009F4CC
:100AD00086C0E7C0843009F4D2C018F1853009F42B
:100AE00045C0DFC080914C01882309F41AC1809170
:100AF0004801833008F000C110924C0112C1888D6A
:100B0000998D892B21F0112311F083E08C8F80E0E7
:100B100073DC18A2E6DA1E8A1D8A82E38F8B1F8E91
:100B2000C0C08AA181110CC0CE01FFDA8E89882352
:100B300011F082E08C8F8D89882311F081E08C8FF9
:100B40008AA1813009F0ADC08D89811103C08E89E1
:100B5000882329F08E8D811102C085E08C8F80E082
:100B60004BDC1F8EBEDA82E38F8B9BC001E00F8FC0
:100B7000288539854A855B856F8D89899A89E8DE64
:100B80008F8B8F89B7DA89A109A3CE01CEDA81E0F4
:100B900033DC8E89882349F09E8D8F8D981305C094
:100BA0008E8D882311F082E08C8F8D89882349F007
:100BB0009E8D8F8D981305C08E8D882311F081E056
:100BC0008C8F8D8981116DC08E8981116AC08A8D4B
:100BD0009B8D892B09F065C083E08C8F62C0888D66
:100BE000998D899708F41D8A19A2CE019EDA81E0B9
:100BF00003DC8D89811106C08A8D9B8D892B11F4B0
:100C000083E08C8F8AA1813029F48E8D811102C0FE
:100C100085E08C8F8AA1813009F043C08E898823BA
:100C200009F43FC08D8981113CC082E08C8F39C0AE
:100C3000888D998D899708F41E8A19A2CE0175DADC
:100C400081E0DADB8E89811106C08A8D9B8D892B2C
:100C500011F483E08C8F8AA1813029F48E8D81116B
:100C600002C085E08C8F8AA18130D9F48E898111F0
:100C700018C08D898823A9F081E08C8F12C08091E3
:100C80004C01811105C08889843610F483E08C8F73
:100C900080E0B2DB18A21F8E24DA1E8A1D8A82E34E
:100CA0008F8B8C8D833049F08C8D813031F08C8D21
:100CB000823019F08C8D853039F4888D998D892B8F
:100CC00011F0111101C01C8E80914C01811103C0E3
:100CD00088898436D8F184E08C8F38C06881798126
:100CE0008A819B8120E030E040E751E40E94A00F20
:100CF00088230CF0C1CEA8CE8C8D823009F498CF19
:100D000038F4882309F4FBCE813009F468CFC9CFC9
:100D1000843009F4BDCF08F404CF853009F426CF20
:100D2000C0CF8C8D823009F483CF38F4882309F446
:100D3000E6CE813009F453CFB4CF843009F4A3CF89
:100D400008F4EFCE853009F411CFABCFDF91CF910E
:100D50001F910F910895CF93DF938EB1877E8EB947
:100D60008DB188618DB9A1E9B0E08C9180618C93DF
:100D70008C91877F8C93E0E9F0E0808182608083B2
:100D800080818E7F808380818068808380818F7B5B
:100D9000808380818062808380818F7E80838C913C
:100DA00081608C938C91897F8C93C6E9D0E085E833
:100DB00090E0998388836881798180E090E00E9447
:100DC000EE0E20E030E040E05FE30E94A40FD5D7B4
:100DD000E8E9F0E071836083888199812081318125
:100DE000821B930B90939B0080939A00DF91CF918D
:100DF0000895909153039F5F9F7120913103921743
:100E0000E1F3E92FF0E0E858FC4F80832FB7F89426
:100E100090935303E1ECF0E08081806280832FBFE8
:100E20000895909177039F5F9F71209175039217AA
:100E3000E1F3E92FF0E0ED5CFC4F80832FB7F894ED
:100E400090937703E9ECF0E08081806280832FBF8C
:100E50000895CF93C82FFB0184859585019739F0BC
:100E6000CA3011F48DE0C5DF8C2FC3DF06C0CA3055
:100E700011F48DE0D6DF8C2FD4DF80E090E0CF91AD
:100E800008958091320390917403891761F08F5F08
:100E90008F71E82FF0E0E05FFC4F90818093320388
:100EA000892F90E008958FEF9FEF08958091300390
:100EB00090917603891761F08F5F8F71E82FF0E0D2
:100EC000EC5AFC4F908180933003892F90E0089575
:100ED0008FEF9FEF0895CF93DF93FC018485958575
:100EE000019741F0CEDFEC019923E4F382DFCE01DC
:100EF000992707C0DBDFEC019923E4F392DFCE01F1
:100F000099279927DF91CF9108950F930FB7EF930A
:100F1000FF93E0913103F0915303E395EF71EF13E9
:100F200005C0F091C100FF7DF093C100E093310353
:100F3000F0E0E858FC4FE081E093C600FF91EF91AC
:100F40000FBF0F9118950F930FB79F939091C60005
:100F5000EF93FF93E0917403F0913203E395EF7107
:100F6000FE1731F0E0937403F0E0E05FFC4F9083F4
:100F7000FF91EF919F910FBF0F9118950F930FB7AE
:100F8000EF93FF93E0917503F0917703E395EF7191
:100F9000EF1305C0F091C900FF7DF093C900E09305
:100FA0007503F0E0ED5CFC4FE081E093CE00FF9133
:100FB000EF910FBF0F9118950F930FB79F939091DB
:100FC000CE00EF93FF93E0917603F0913003E39529
:100FD000EF71FE1731F0E0937603F0E0EC5AFC4F2E
:100FE0009083FF91EF919F910FBF0F911895E1E8CA
:100FF000F0E08081836080838081886080831092AC
:10100000850010928400EFE6F0E0808182608083AA
:101010008DE790E09093890080938800089584B5CF
:10102000856084BD84B5886084BD16BCEEE6F0E0C2
:1010300080818260808387E287BD0895F8944CD5D3
:101040008ADE60E070E080E090E02CD4D0DFE7DF63
:101050004EDC80E050D51092C4001092C50088E9A3
:101060008093C100E8E9F3E084E091E09383828318
:1010700091838083BFD980E0BFD97894C1E064EECA
:1010800072E082E191E052DA80915201882309F402
:1010900041C0809151018823F1F08DB79EB78397AD
:1010A0000FB6F8949EBF0FBE8DBFADB7BEB71196F9
:1010B00083E2E2E1F1E001900D928A95E1F790DAA6
:1010C000109251018DB79EB783960FB6F8949EBFCC
:1010D0000FBE8DBF1DC08DB79EB783970FB6F89416
:1010E0009EBF0FBE8DBFADB7BEB7119683E2E2E1E2
:1010F000F1E001900D928A95E1F7E1DAC093510198
:101100008DB79EB783960FB6F8949EBF0FBE8DBF66
:101110001092520180915001882309F4B0CF8DB70D
:101120009EB783970FB6F8949EBF0FBE8DBFADB725
:10113000BEB7119683E2E2E1F1E001900D928A954B
:10114000E1F7D1DA109250018DB79EB783960FB6B2
:10115000F8949EBF0FBE8DBF92CF1F920F920FB615
:101160000F9211240BB60F92EF920F931F932F93B0
:101170003F934F935F936F937F938F939F93AF931F
:10118000BF93EF93FF9382E191E03EDC80915501A4
:10119000873009F044C081E0809352018093500170
:1011A00080912A0190912B01892B59F080912F0178
:1011B000813039F4E2E1F1E0808D918D0197918FDA
:1011C000808F80912C0190912D01892B61F080916D
:1011D0002F01813041F4E2E1F1E0828D938D01979E
:1011E000938F828F08C080912F01811104C01092CB
:1011F0002D0110922C01E2E1F1E00085118522859C
:10120000338544815581668177810F2EF9E2EF2E77
:10121000F02D8EE191E0C2D11092550103C08F5F95
:10122000809355018091530190915401843691052A
:1012300001F58DB79EB783970FB6F8949EBF0FBE8A
:101240008DBFADB7BEB7119683E2E2E1F1E0019048
:101250000D928A95E1F7F2DA10925401109253013F
:101260008DB79EB783960FB6F8949EBF0FBE8DBF05
:1012700005C001969093540180935301FF91EF9123
:10128000BF91AF919F918F917F916F915F914F919E
:101290003F912F911F910F91EF900F900BBE0F90E8
:1012A0000FBE0F901F9018951F920F920FB60F92BE
:1012B00011240BB60F922F933F934F935F936F932D
:1012C0007F938F939F93AF93BF93EF93FF938091FF
:1012D0004D0190914E01803D974050F480914D0119
:1012E00090914E01019690934E0180934D0108C05C
:1012F000109224011092230110924E0110924D0180
:1013000080914F01833031F482E291E0EFD8109266
:101310004F0116C0823041F48AE191E0B5D8809146
:101320004F018F5F80934F0180914F01813041F4D5
:1013300086E191E088D880914F018F5F80934F01C3
:1013400080914F01811108C082E191E05BD88091CA
:101350004F018F5F80934F01FF91EF91BF91AF914C
:101360009F918F917F916F915F914F913F912F91BD
:101370000F900BBE0F900FBE0F901F9018951F92ED
:101380000F920FB60F9211240BB60F922F933F932B
:101390004F935F936F937F938F939F93AF93BF937D
:1013A000EF93FF936DE471E083E291E0ABDAFF919C
:1013B000EF91BF91AF919F918F917F916F915F91CD
:1013C0004F913F912F910F900BBE0F900FBE0F903A
:1013D0001F9018958F929F92AF92BF92CF92DF92FB
:1013E000EF92FF920F931F93CF93DF9300D000D023
:1013F000CDB7DEB78C01F42E80E090E0EFD420E092
:1014000030E040EA50E4A0D520E030E040E859E385
:101410009BD52EEA37E441E250E4DED323EC34E6F8
:101420004AE25DE342D469837A838B839C83FF2005
:1014300069F069817A818B819C8120E030E0A9018B
:10144000CCD369837A838B839C830DC069817A8135
:101450008B819C812DEC3CEC4CE45EE3BED3698334
:101460007A838B839C83F80160817181828193816F
:1014700089809A80AB80BC8026E636E646E65FE34C
:1014800063D56B017C012DEC3CEC4CEC5DE3C501BC
:10149000B4015AD59B01AC01C701B6019ED3F80136
:1014A00060837183828393830F900F900F900F90CE
:1014B000DF91CF911F910F91FF90EF90DF90CF9030
:1014C000BF90AF909F908F900895CF92DF92EF9250
:1014D000FF92CF93DF93EC0180E090E07FD420E097
:1014E00030E040EA50E430D520E030E040E859E315
:1014F0002BD56B017C012DEC3CEC4CE650E4D1D3B8
:10150000181674F020E030E040EA51E4C701B6015B
:101510001BD520E030E040EB51E45ED333D4688348
:1015200026E636E646E950E4C701B601BAD31816F6
:10153000BCF02DEC3CEC4CE650E4C701B60100D504
:10154000181674F420E030E04EE552E4C701B6010D
:10155000FBD420E030E84BE153E43ED313D468835E
:1015600026E636E646E950E4C701B601E9D4181686
:1015700074F420E030E048E453E4C701B601E4D459
:1015800020E030E042E554E427D3FCD36883DF91C8
:10159000CF91FF90EF90DF90CF9008954F925F92A0
:1015A0006F927F928F929F92AF92BF92CF92DF9273
:1015B000EF920F931F93CF93DF93CDB7DEB72897AA
:1015C0000FB6F894DEBF0FBECDBF6C0149835A83BE
:1015D0006B837C830D831E832F8338876D817E818F
:1015E0008F81988529813A814B815C81F6018080C9
:1015F0009180A280B380A8D42B013C016E2D70E0B5
:1016000080E090E0EBD39B01AC01C301B2019CD41C
:1016100020E030E04AE754E448D3A5019401DDD24C
:10162000F601608371838283938328960FB6F894C2
:10163000DEBF0FBECDBFDF91CF911F910F91EF9015
:10164000DF90CF90BF90AF909F908F907F906F90E2
:101650005F904F90089590E08830910588F5FC01E7
:10166000E65BFF4FD4C486E0FB01808311820895BE
:1016700086E0FB01808380E48183089586E0FB019E
:10168000808380E88183089586E0FB01808380EC7D
:101690008183089587E0FB0180831182089587E0AC
:1016A000FB01808380E48183089587E0FB018083D0
:1016B00080E88183089587E0FB01808380EC81834B
:1016C00008951F920F920FB60F9211240BB60F922E
:1016D0002F933F934F935F936F938F939F93AF930A
:1016E000BF93EF93FF93CF93DF931F92CDB7DEB7F6
:1016F0008091E00080FF47C09091DE0090FF43C0E2
:101700001092ED00EEEEF0E08081898380818F7B86
:10171000808380915B0190915A01981789F18F70B5
:101720002BE0829FC0011124FC01E45FFD4F20816A
:101730002093F00020812093F20021812093F30078
:101740002381AAEFB0E02C9324812C9325812C9344
:1017500026812C9327812C9320852C9321852C93F3
:1017600022852C93FC01E25FFD4F80818F708064A5
:101770008093EF0080915B018F5F80935B017DC060
:10178000109259017AC081FF78C08091DE0081FFFC
:1017900074C080E18093ED0080915701282F30E0E4
:1017A00090915801291B31092F77332720313105BA
:1017B0000CF058C0E82FEF709091EF002E2F30E022
:1017C0004BE0E49FF0011124E45AFE4F9F704281E8
:1017D000407F942B92834091F2009091F000407EE4
:1017E0009770942B90839091F3009183AAEFB0E0CF
:1017F0009C9193839C9194839C9195839C919683D7
:101800009C9197839C9190879C9191879C919287C2
:101810008F5F809357014081429546954770518173
:10182000652F660F660F660F862F842B952F929576
:1018300096959770892BB1F48BE0829FF001839F7E
:10184000F00D1124E45AFE4F8381833059F498E05F
:1018500088E10FB6F894A895809360000FBE90932E
:101860006000FFCFEEEEF0E0808189838981808186
:101870008F7D808380E88093EF000F90DF91CF9180
:10188000FF91EF91BF91AF919F918F916F915F9178
:101890004F913F912F910F900BBE0F900FBE0F9065
:1018A0001F901895CF93DF93E8EDF0E021E02083BF
:1018B0001092E2002CE02093E30027E32093E40061
:1018C0001092E7001092E6001092E9001092E800F2
:1018D0001092EC001092E500CDEED0E01882AEEE52
:1018E000B0E01C9220E128831C921092F400282F73
:1018F0002295220F207E2093F60096958795969547
:101900008795969587958093F7001092F000862F23
:101910008295880F807E8093F20076956795769504
:101920006795769567956093F30080E88093EF0064
:1019300083E08093DC008093DE0080EB8093DB000B
:1019400082E0808310925601DF91CF910895CF936A
:10195000DF93EC014091580120915701241789F140
:10196000A42FAF708BE0A89FB0011124FB01E45AB3
:10197000FE4F20812295269527703181532F550FD8
:10198000550F550F252B329536953770288339839F
:10199000FB01E25AFE4F20812F702A83222399F007
:1019A000DB01A15ABE4FFE01339630E02D5F3F4F61
:1019B000CE01820F931F2D912193E817F907D9F7D4
:1019C00002C080E004C04F5F4093580181E0DF9186
:1019D000CF910895CF93DF93FC01ABEDB0E08C91F4
:1019E0008F778C9380915901811127C01092ED005F
:1019F00080818295880F807E8093F2008081918122
:101A00009695879596958795969587958093F300FB
:101A1000DF0113969F01255F3F4FCAEFD0E09D91F4
:101A20009883A217B307D9F781E080935901828187
:101A300080648093EF0081E043C020915A01822F9F
:101A400090E030915B01831B91098F779927409734
:101A5000B1F1A22FAF708BE0A89FD0011124ED014E
:101A6000C45FDD4F8081982F9295990F907E888179
:101A70008F71892B88838081982F9695969596955E
:101A80008981807E892B898391819295990F907E9F
:101A90008F71892B89838281982F9F708A81807FA3
:101AA000892B8A83A15FBD4F339688E001900D9208
:101AB0008A95E1F72F5F20935A0181E001C080E011
:101AC000EBEDF0E0908190689083DF91CF910895E5
:101AD00095B1892B85B9089584B1806E84B980EE63
:101AE000F7CF089595B18095982395B9089595B14C
:101AF000892785B9089594B1976094B982FB992795
:101B000090F9282F227081708065822B8CBD8CB556
:101B1000837F8CBD9DBD0895CF93DF93EC01289802
:101B200041155105C1F0FB01DC01460F571F8FEF36
:101B3000209711F09C9101C0982F9EBD0DB407FE17
:101B4000FDCF6115710511F09EB590833196119608
:101B5000E417F50769F72111289ADF91CF910895CD
:101B60001F920F920FB60F9211240BB60F922F9364
:101B70003F934F935F936F937F938F93AF93BF93F5
:101B8000EF93FF93ACEDB2E0ECEBF2E02CED32E042
:101B90008D91882359F04081518162817381505E1B
:101BA0006F4F7F4F40835183628373833496E21774
:101BB000F30771F7FF91EF91BF91AF918F917F91F3
:101BC0006F915F914F913F912F910F900BBE0F90AE
:101BD0000FBE0F901F9018955058BB27AA270ED004
:101BE00075C166D130F06BD120F031F49F3F11F414
:101BF0001EF45BC10EF4E095E7FB51C1E92F77D1EC
:101C000080F3BA17620773078407950718F071F419
:101C10009EF58FC10EF4E0950B2EBA2FA02D0B016F
:101C2000B90190010C01CA01A0011124FF27591B21
:101C300099F0593F50F4503E68F11A16F040A22F27
:101C4000232F342F4427585FF3CF46953795279598
:101C5000A795F0405395C9F77EF41F16BA0B620B97
:101C6000730B840BBAF09150A1F0FF0FBB1F661FDE
:101C7000771F881FC2F70EC0BA0F621F731F841F21
:101C800048F4879577956795B795F7959E3F08F047
:101C9000B3CF9395880F08F09927EE0F9795879506
:101CA0000895D9D008F481E008950CD00FC107D170
:101CB00040F0FED030F021F45F3F19F0F0C0511138
:101CC00039C1F3C014D198F39923C9F35523B1F363
:101CD000951B550BBB27AA2762177307840738F09B
:101CE0009F5F5F4F220F331F441FAA1FA9F333D0FA
:101CF0000E2E3AF0E0E830D091505040E695001CAE
:101D0000CAF729D0FE2F27D0660F771F881FBB1F69
:101D1000261737074807AB07B0E809F0BB0B802D43
:101D2000BF01FF2793585F4F2AF09E3F510568F08F
:101D3000B6C000C15F3FECF3983EDCF38695779523
:101D40006795B795F7959F5FC9F7880F911D969591
:101D5000879597F90895E1E0660F771F881FBB1FED
:101D6000621773078407BA0720F0621B730B840B9A
:101D7000BA0BEE1F88F7E095089504D06894B1116E
:101D8000D9C00895BCD088F09F5790F0B92F9927FB
:101D9000B751A0F0D1F0660F771F881F991F1AF076
:101DA000BA95C9F712C0B13081F0C3D0B1E008953F
:101DB000C0C0672F782F8827B85F39F0B93FCCF3C0
:101DC000869577956795B395D9F73EF4909580956C
:101DD000709561957F4F8F4F9F4F0895E89409C08C
:101DE00097FB3EF490958095709561957F4F8F4F4E
:101DF0009F4F9923A9F0F92F96E9BB279395F69564
:101E0000879577956795B795F111F8CFFAF4BB0FE1
:101E100011F460FF1BC06F5F7F4F8F4F9F4F16C045
:101E2000882311F096E911C0772321F09EE8872FCF
:101E3000762F05C0662371F096E8862F70E060E08B
:101E40002AF09A95660F771F881FDAF7880F969504
:101E5000879597F90895990F0008550FAA0BE0E8A8
:101E6000FEEF16161706E807F907C0F0121613065C
:101E7000E407F50798F0621B730B840B950B39F49C
:101E80000A2661F0232B242B252B21F408950A2602
:101E900009F4A140A6958FEF811D811D089597F942
:101EA0009F6780E870E060E008959FEF80EC089500
:101EB00000240A9416161706180609060895002429
:101EC0000A9412161306140605060895092E0394A3
:101ED000000C11F4882352F0BB0F40F4BF2B11F417
:101EE00060FF04C06F5F7F4F8F4F9F4F089557FD76
:101EF0009058440F551F59F05F3F71F04795880F78
:101F000097FB991F61F09F3F79F08795089512160E
:101F100013061406551FF2CF4695F1DF08C01616BA
:101F200017061806991FF1CF86957105610508946B
:101F30000895E894BB2766277727CB0197F9089582
:101F40008ADF08F48FEF08950BD0C0CFB1DF28F0FF
:101F5000B6DF18F0952309F0A2CFA7CF1124EACF5E
:101F6000C6DFA0F3959FD1F3950F50E0551F629FF8
:101F7000F001729FBB27F00DB11D639FAA27F00DE2
:101F8000B11DAA1F649F6627B00DA11D661F829F09
:101F90002227B00DA11D621F739FB00DA11D621FEE
:101FA000839FA00D611D221F749F3327A00D611D0B
:101FB000231F849F600D211D822F762F6A2F1124ED
:101FC0009F5750408AF0E1F088234AF0EE0FFF1F40
:101FD000BB1F661F771F881F91505040A9F79E3F77
:101FE000510570F05CCFA6CF5F3FECF3983EDCF379
:101FF000869577956795B795F795E7959F5FC1F7B4
:10200000FE2B880F911D9695879597F90895EE0FF1
:10201000FF1F0024001C0BBE0790F691E02D0994D1
:10202000CF93DF93CDB7DEB7AE014B5F5F4FFA01C1
:1020300061917191AF0180919A0390919B0338D087
:10204000DF91CF91089560919A0370919B0343C2F1
:102050000F931F93CF93DF93E0919A03F0919B032B
:10206000238121FF1BC08C01D0E0C0E0F8018191E9
:102070008F0160919A0370919B03DB011896ED919B
:10208000FC911997882331F00995892B79F3DFEFBB
:10209000CFEFECCF8AE00995892B19F08FEF9FEFF6
:1020A00002C08D2F9C2FDF91CF911F910F9108952A
:1020B0002F923F924F925F926F927F928F929F9258
:1020C000AF92BF92CF92DF92EF92FF920F931F9346
:1020D000CF93DF93CDB7DEB72B970FB6F894DEBF63
:1020E0000FBECDBF6C017B018A01FC0117821682F5
:1020F000838181FFBFC1CE0101963C01F60193812E
:10210000F70193FD859193FF81917F01882309F465
:10211000ADC1853239F493FD859193FF81917F01A3
:10212000853221F4B60190E0D6D1E8CF912C212C54
:10213000312CFFE1F315D8F08B3279F038F480328E
:1021400079F08332A1F4232D20611DC08D3261F01E
:10215000803369F4232D216016C0832D8260382ED0
:10216000E32DE4603E2E2AC0F32DF8601DC037FC3D
:102170002DC020ED280F2A3040F08E32B9F436FC05
:1021800075C1232D2064322E19C036FE06C08AE0A8
:10219000989E200D1124922E11C0EAE02E9E200D53
:1021A0001124222EF32DF0623F2E08C08C3621F42C
:1021B000832D8068382E02C0883641F4F70193FDE4
:1021C000859193FF81917F018111B3CF982F9F7DDE
:1021D0009554933028F40C5F1F4F9FE399830DC0F3
:1021E000833631F0833771F0833509F055C020C054
:1021F000F801808189830E5F1F4F88248394912C7E
:10220000530112C02801F2E04F0E511CF801A080CA
:10221000B18036FE03C0692D70E002C06FEF7FEF22
:10222000C5014ED14C018201F32DFF773F2E15C021
:10223000280122E0420E511CF801A080B18036FE38
:1022400003C0692D70E002C06FEF7FEFC5012DD193
:102250004C01F32DF0683F2E820133FC19C0822D12
:1022600090E088169906A0F4B60180E290E033D1A0
:102270002A94F5CFF50137FC859137FE81915F01F6
:10228000B60190E028D121102A9421E0821A910809
:102290008114910479F7E1C0843611F0893639F55B
:1022A000F80137FE07C060817181828193810C5FE4
:1022B0001F4F08C060817181072E000C880B990B9D
:1022C0000E5F1F4FF32DFF763F2E97FF09C09095AD
:1022D0008095709561957F4F8F4F9F4FF0683F2E8F
:1022E0002AE030E0A30133D1882E861844C0853718
:1022F00031F4232D2F7EB22E2AE030E025C0932D1D
:10230000997FB92E8F36C1F018F4883579F0AEC0B8
:10231000803719F0883721F0A9C0E92FE061BE2E7F
:10232000B4FE0DC0FB2DF460BF2E09C034FE0AC000
:10233000292F2660B22E06C028E030E005C020E13B
:1023400030E002C020E132E0F801B7FE07C0608152
:102350007181828193810C5F1F4F06C06081718102
:1023600080E090E00E5F1F4FA301F1D0882E861809
:10237000FB2DFF773F2E36FE0DC0232D2E7FA22E84
:10238000891458F434FE0BC032FC09C0832D8E7EB4
:10239000A82E05C0B82CA32C03C0B82C01C0B92CA2
:1023A000A4FE0FC0FE01E80DF11D8081803321F4F1
:1023B0009A2D997EA92E09C0A2FE06C0B394B394AB
:1023C00004C08A2D867809F0B394A3FC10C0A0FE47
:1023D00006C0B21480F4280C922C9B180DC0B214C5
:1023E00058F4B60180E290E076D0B394F8CFB214FE
:1023F00018F42B1802C0982C212CA4FE0FC0B60193
:1024000080E390E068D0A2FE16C0A1FC03C088E77C
:1024100090E002C088E590E0B6010CC08A2D867875
:1024200051F0A1FE02C08BE201C080E2A7FC8DE268
:10243000B60190E050D0891430F4B60180E390E00A
:102440004AD09A94F8CF8A94F301E80DF11D808167
:10245000B60190E040D08110F6CF222009F44ECE94
:10246000B60180E290E037D02A94F7CFF60186815A
:10247000978102C08FEF9FEF2B960FB6F894DEBFC7
:102480000FBECDBFDF91CF911F910F91FF90EF90C5
:10249000DF90CF90BF90AF909F908F907F906F9084
:1024A0005F904F903F902F900895FC0105906150F0
:1024B00070400110D8F7809590958E0F9F1F08955A
:1024C000FC016150704001900110D8F78095909503
:1024D0008E0F9F1F08950F931F93CF93DF93FB01E0
:1024E000238121FD03C08FEF9FEF2CC022FF16C078
:1024F00046815781248135814217530744F4A081D6
:10250000B1819D012F5F3F4F318320838C932681C2
:1025100037812F5F3F4F3783268314C08B01EC0137
:10252000FB010084F185E02D0995892BE1F6D801A6
:1025300016968D919C911797019617969C938E9362
:102540001697CE01DF91CF911F910F910895FA0157
:10255000AA27283051F1203181F1E8946F936E7FE2
:102560006E5F7F4F8F4F9F4FAF4FB1E03ED0B4E0D3
:102570003CD0670F781F891F9A1FA11D680F791F14
:102580008A1F911DA11D6A0F711D811D911DA11D25
:1025900020D009F468943F912AE0269F1124301935
:1025A000305D3193DEF6CF010895462F4770405DD0
:1025B0004193B3E00FD0C9F7F6CF462F4F70405D7F
:1025C0004A3318F0495D31FD4052419302D0A9F7DA
:1025D000EACFB4E0A6959795879577956795BA95D4
:1025E000C9F700976105710508959B01AC010A2E9A
:1025F00006945795479537952795BA95C9F7620F71
:0E260000731F841F951FA01D0895F894FFCF2F
:10260E0000004842000000030000000029076B078D
:10261E0000000000000000000000000000000000AC
:10262E000000000000000000003200000000000169
:0E263E0000000000000D002569002575000059
:00000001FF
