S01C00004D6F746F72436F6E74726F6C6C65725F323031382E73726563A9
S113000051C000006DC000006BC0000069C000005A
S113001067C0000065C00000E5C5000061C00000C5
S11300205FC000005DC000005BC0000059C000005C
S1130030F9C4000055C0000053C0000051C00000C6
S11300405BC400000C94E90938C7000049C00000F3
S113005047C0000079C2000059C2000041C000003E
S11300603FC000003DC000003BC0000039C000009C
S113007037C0000035C0000033C0000031C00000AC
S11300809CC200007CC200002BC0000029C00000FC
S113009027C000002F0734073A07400746074B07DD
S11300A05107570711241FBECFEFD0E1DEBFCDBFEC
S11300B011E0A0E0B1E0EAE6FEE100E00BBF02C01F
S11300C007900D92AC32B107D9F723E0ACE2B1E06E
S11300D001C01D92A83AB207E1F739D30C94330F4B
S11300E08FCF10923101109232011092330110928D
S11300F0340108954F925F926F927F928F929F92F4
S1130100AF92BF92CF92DF92EF92FF920F931F9321
S1130110CF93DF934B015C0129013A01C0900001A8
S1130120D0900101E0900201F090030120E030E062
S11301304EEB52E4C701B6010E94D90B882354F454
S113014020E030E048E452E4C701B6010E948A0A84
S1130150181624F081E080932C0102C010922C0127
S1130160A3019201C501B4010E94250A6B017C011F
S113017060932D0170932E0180932F019093300191
S113018080912C0181111CC02AE037ED43E25CE32D
S1130190C701B6010E94DD0B9B01AC0160913101E6
S11301A07091320180913301909134010E94260AAA
S11301B06093310170933201809333019093340141
S11301C023E333E343E752E4609131017091320158
S11301D080913301909134010E94DD0B4B015C014D
S11301E029EF3FE049E75FE3C701B6010E94DD0B59
S11301F09B01AC01C501B4010E94260A20E030E055
S113020048E452E40E94260A6B017C0160930001D9
S113021070930101809302019093030120E030E088
S11302204EEB52E40E94D90B18166CF480E090E077
S1130230AEEBB2E48093000190930101A09302011C
S1130240B093030116C020E030E048E452E4C70153
S1130250B6010E948A0A882364F480E090E0A8E44E
S1130260B2E48093000190930101A0930201B09342
S11302700301C0919600D091970020E030E048EC53
S113028052E460910001709101018091020190910A
S113029003010E948E0A6B017C01BE0180E090E0A4
S11302A00E94270B9B01AC01C701B6010E94DD0B24
S11302B00E94F60AE8E9F0E071836083808191810D
S11302C090939B0080939A006091000170910101CA
S11302D080910201909103010E94FB0AF80160835E
S11302E0DF91CF911F910F91FF90EF90DF90CF900E
S11302F0BF90AF909F908F907F906F905F904F9042
S11303000895249A0895882311F02C9A08952C981E
S113031008956D987598ED98EAE6F0E080818C6018
S11303208083E59AED9A0895909117039F5F9F71DA
S11303302091F5029217E1F3E92FF0E0E45CFC4F21
S113034080832FB7F89490931703E1ECF0E0808159
S1130350806280832FBF08959091F50280911703E6
S11303609813FACF089590913B039F5F9F7120915A
S113037039039217E1F3E92FF0E0E950FD4F808350
S11303802FB7F89490933B03E9ECF0E0808180620E
S113039080832FBF0895CF93C82FFB018485958553
S11303A0019739F0CA3011F48DE0BEDF8C2FBCDF29
S11303B006C0CA3011F48DE0D6DF8C2FD4DF80E084
S11303C090E0CF9108958091F602909138038917B7
S11303D059F08F5F982F9F71E92FF0E0EC52FD4F99
S11303E080819093F602089580E00895EF92FF9241
S11303F00F931F93CF93DF937C01162FE4DFF70154
S113040080838132D8F3E70121961230C1F0135072
S1130410812F90E002968701080F191FD4DF88838B
S11304208823E1F38D3021F4CEDF8823E9F307C07C
S1130430813228F021960C171D0781F7E8011882F4
S1130440DF91CF911F910F91FF90EF900895CF937B
S1130450DF93CDB7DEB727970FB6F894DEBF0FBE94
S1130460CDBF67E0CE010196C1DFCE0101960E94A7
S1130470490C27960FB6F894DEBF0FBECDBFDF91AF
S1130480CF9108958091F60290913803891761F015
S11304908F5F8F71E82FF0E0EC52FD4F90818093D5
S11304A0F602892F90E008958FEF9FEF08958091D1
S11304B0F40290913A03891761F08F5F8F71E82FEE
S11304C0F0E0E85EFC4F90818093F402892F90E085
S11304D008958FEF9FEF0895CF93DF93FC018485F8
S11304E09585019741F0CEDFEC019923E4F31CDFFD
S11304F0CE01992707C0DBDFEC019923E4F333DF56
S1130500CE0199279927DF91CF9108950F930FB7C3
S1130510EF93FF93E091F502F0911703E395EF71E8
S1130520EF1305C0F091C100FF7DF093C100E0938B
S1130530F502F0E0E45CFC4FE081E093C600FF913B
S1130540EF910FBF0F9118950F930FB79F93909151
S1130550C600EF93FF93E0913803F091F602E39520
S1130560EF71FE1731F0E0933803F0E0EC52FD4FE9
S11305709083FF91EF919F910FBF0F9118950F9367
S11305800FB7EF93FF93E0913903F0913B03E395A9
S1130590EF71EF1305C0F091C900FF7DF093C9001E
S11305A0E0933903F0E0E950FD4FE081E093CE00A1
S11305B0FF91EF910FBF0F9118950F930FB79F9372
S11305C09091CE00EF93FF93E0913A03F091F402FF
S11305D0E395EF71FE1731F0E0933A03F0E0E85E43
S11305E0FC4F9083FF91EF919F910FBF0F9118954E
S11305F0E1E8F0E08081836080838081886080838B
S11306001092850010928400EFE6F0E08081826011
S113061080838DE790E0909389008093880008950B
S113062084B5856084BD84B5886084BD16BCEEE65F
S1130630F0E080818260808387E287BD08950F9314
S11306401F93CF93DF938C01EB01CB017CD58823DF
S113065009F444C088819981803121E09207A1F195
S11306608033924009F03AC08E818B3088F081E06B
S1130670809324016E8170E080E090E0EAD720E06E
S113068030E040E251E44AD7B6D7F801668704C0A7
S113069010922401F80116868D818A31F8F0809138
S11306A0240181111BC082E0809324016D8170E0DC
S11306B080E090E0CED720E030E040E251E42ED755
S11306C09AD7F80166870AC0F8018389811103C0AB
S11306D082E0828B03C084E0F801828BDF91CF91AA
S11306E01F910F910895EF92FF920F931F93CF9351
S11306F0DF93FC012081222319F1EB018C010F2EE1
S1130700F7E9EF2EF3E0FF2EF02D8A89F7018383BA
S11307108E858483688179818A819B816CD7F70176
S11307207683658380919A0090919B00908787835C
S11307308D8590E092878187C70148D5F8011082A2
S1130740DF91CF911F910F91FF90EF900895CF9378
S1130750DF9300D0CDB7DEB7F894812C912C5401EF
S1130760750164010DEC1CEC2CE43DE34DEC5CECF8
S11307706CEC7DE38FE793E04CD2A6D560E070E0AB
S113078080E090E08BD434DF4BDFC3DD80E0ECD538
S11307901092C4001092C50088E98093C100E2EA77
S11307A0F3E084E091E09383828391838083D1D5C5
S11307B0A8DDE7E9F3E080E594E09183808388E0B5
S11307C08283789480E8CBD50F2EF6E2EF2EF1E009
S11307D0FF2EF02D0F2EF8EECF2EF3E0DF2EF02DAE
S11307E009E211E06894AA24A1F8BB24B39462E15D
S11307F071E08DE391E077DF64E773E082E191E0FB
S11308001EDF0F2EF2E18F2EF1E09F2EF02D20E05F
S113081030E04AE754E4F40160817181828193817C
S1130820CCD7E9D67F936F93FF92EF920E946E0C20
S11308308CE290E00E94810CF40126852C9DC0017D
S11308402D9D900D11249F938F931F930F930E94BE
S11308506E0C8CE290E00E94810CF401678570E0DC
S113086080E090E0F6D620E030E040E251E4A5D705
S1130870C2D67F936F931F930F930E946E0C8AE0EE
S113088090E00E94810C809138039091F602891BBC
S11308908F710FB6F894DEBF0FBECDBF09F4A7CF9A
S11308A0D6DD9A83898358DD89819A810B9750F02C
S11308B089819A81459730F489819A81F4018A501B
S11308C08687A28A89819A81892B51F089819A81AC
S11308D00B9730F489819A81E2E1F1E08687B28A4C
S11308E089819A81892B09F082CF89819A81E2E1F9
S11308F0F1E08687128A7BCF1F920F920FB60F9278
S113090011240BB60F92CF92DF92EF92FF920F93C6
S11309101F932F933F934F935F936F937F938F9383
S11309209F93AF93BF93CF93DF93EF93FF9320E015
S113093030E040E751E460911A0170911B0180910D
S11309401C0190911D0135D718160CF04DC08091F3
S1130950240182508230D8F4C2E1D1E084EF91E0E6
S1130960998B888B81E0CFDCC880D980EA80FB80BA
S11309706E8570E0719561957109072E000C880BE6
S1130980990B67D601E211E0A7019601B3DB8091D0
S113099024018130B1F4C2E1D1E084EF91E0998B7C
S11309A0888B81E0B0DCC880D980EA80FB806E85CA
S11309B070E080E090E04BD601E211E0A7019601DF
S11309C099DB80912401811112C020911201309190
S11309D01301409114015091150101E211E060E00E
S11309E070E0CB0187DB03C080E08DDC7ADBFF9114
S11309F0EF91DF91CF91BF91AF919F918F917F91B3
S1130A006F915F914F913F912F911F910F91FF90A3
S1130A10EF90DF90CF900F900BBE0F900FBE0F9012
S1130A201F9018951F920F920FB60F9211240BB6B8
S1130A300F922F933F934F935F936F937F938F9373
S1130A409F93AF93BF93EF93FF9380913C018430C6
S1130A50E1F46AE371E0FBD121E043E050E067E3B5
S1130A6071E08AE391E091D4E7E3F1E081818F7151
S1130A70818390E0982F88272281822B90933F01D5
S1130A8080933E0110923C0128C0833021F484E01D
S1130A9080933C0144C080913C018230F1F46AE3CC
S1130AA071E0D5D121E043E050E067E371E08AE3EF
S1130AB091E06BD4E7E3F1E081818F71818390E071
S1130AC0982F88272281822B9093410180934001A3
S1130AD080913C018F5F80933C0180913C01813087
S1130AE0F1F46AE371E0B3D121E043E050E067E35D
S1130AF071E08AE391E049D4E7E3F1E081818F7109
S1130B00818390E0982F88272281822B9093430140
S1130B108093420180913C018F5F80933C018091DE
S1130B203C0181111EC06AE371E091D121E043E0F0
S1130B3050E067E371E08AE391E027D4E7E3F1E072
S1130B4081818F71818390E0982F88272281822B65
S1130B50909345018093440180913C018F5F809381
S1130B603C01609144017091450182E191E07DD0A6
S1130B70609142017091430186E191E076D06091E9
S1130B8040017091410180E090E061D523E333E3BB
S1130B9044E852E4C3D424EA30E74DEB5EE355D491
S1130BA060931A0170931B0180931C0190931D01A3
S1130BB060913E0170913F018EE191E0C6D0FF91BA
S1130BC0EF91BF91AF919F918F917F916F915F91C1
S1130BD04F913F912F910F900BBE0F900FBE0F902E
S1130BE01F9018951F920F920FB60F9211248F9396
S1130BF09F9380913501909136010196909336012F
S1130C00809335019F918F910F900FBE0F901F908D
S1130C1018958F929F92AF92BF92CF92DF92EF92EC
S1130C20FF920F931F93CF93DF93CDB7DEB7FC01F1
S1130C300487158726873787C48AD58AE68AF78A80
S1130C40808A918AA28AB38A408751876287738790
S1130C50DF91CF911F910F91FF90EF90DF90CF9094
S1130C60BF90AF909F908F9008958F929F92AF9274
S1130C70BF92CF92DF92EF92FF920F931F93CF9385
S1130C80DF9300D000D0CDB7DEB78C0180E090E0D8
S1130C90DED420E030E040EA50E48FD520E030E0BC
S1130CA040E859E38AD527ED33EA40E150E4CDD357
S1130CB023EC34E64AE25DE331D420E030E040E462
S1130CC050E42CD469837A838B839C8369817A81F1
S1130CD08B819C812EEA37E441EE5FE3B6D36983CE
S1130CE07A838B839C8389809A80AB80BC8026E640
S1130CF036E646E65FE3F801608171818281938183
S1130D005CD56B017C012DEC3CEC4CEC5DE3C50146
S1130D10B40153D59B01AC01C701B60197D3F801C7
S1130D2060837183828393830F900F900F900F9051
S1130D30DF91CF911F910F91FF90EF90DF90CF90B3
S1130D40BF90AF909F908F9008950F931F93CF9370
S1130D50DF9300D000D0CDB7DEB78C0180E090E007
S1130D6076D420E030E040EA50E427D520E030E0BB
S1130D7040E859E322D569837A838B839C83698114
S1130D807A818B819C812DEC3CEC4CE650E4C2D3FF
S1130D9018168CF069817A818B819C8120E030E087
S1130DA040EA51E40AD520E030E040EB51E44DD371
S1130DB022D4F801608369817A818B819C8126E643
S1130DC036E646E950E4A6D31816E4F069817A8140
S1130DD08B819C812DEC3CEC4CE650E4EAD4181653
S1130DE08CF469817A818B819C8120E030E04EE52E
S1130DF052E4E3D420E030E84BE153E426D3FBD3C0
S1130E00F801608369817A818B819C8126E636E6CC
S1130E1046E950E4CED418168CF469817A818B812A
S1130E209C8120E030E048E453E4C7D420E030E083
S1130E3042E554E40AD3DFD3F80160830F900F90A6
S1130E400F900F90DF91CF911F910F91089590E033
S1130E508830910588F5FC01E65BFF4F11C586E0FB
S1130E60FB0180831182089586E0FB01808380E486
S1130E708183089586E0FB01808380E8818308955F
S1130E8086E0FB01808380EC8183089587E0FB0189
S1130E9080831182089587E0FB01808380E481834D
S1130EA0089587E0FB01808380E88183089587E0CB
S1130EB0FB01808380EC818308951F920F920FB60B
S1130EC00F9211240BB60F922F933F934F935F937E
S1130ED06F938F939F93AF93BF93EF93FF93CF93AE
S1130EE0DF931F92CDB7DEB78091E00080FF47C04B
S1130EF09091DE0090FF43C01092ED00EEEEF0E022
S1130F008081898380818F7B808380914B01909144
S1130F104A01981789F18F702BE0829FC001112438
S1130F20FC01E450FE4F20812093F00020812093A7
S1130F30F20021812093F3002381AAEFB0E02C93E7
S1130F4024812C9325812C9326812C9327812C9307
S1130F5020852C9321852C9322852C93FC01E2502F
S1130F60FE4F80818F7080648093EF0080914B01ED
S1130F708F5F80934B017DC0109249017AC081FF3D
S1130F8078C08091DE0081FF74C080E18093ED0021
S1130F9080914701282F30E090914801291B3109A5
S1130FA02F773327203131050CF058C0E82FEF702C
S1130FB09091EF002E2F30E04BE0E49FF0011124DC
S1130FC0E45BFE4F9F704281407F942B928340915B
S1130FD0F2009091F000407E9770942B9083909152
S1130FE0F3009183AAEFB0E09C9193839C91948346
S1130FF09C9195839C9196839C9197839C919087D7
S11310009C9191879C9192878F5F80934701408147
S11310104295469547705181652F660F660F660F9E
S1131020862F842B952F929596959770892BB1F4E2
S11310308BE0829FF001839FF00D1124E45BFE4F4F
S11310408381833059F498E088E10FB6F894A89529
S1131050809360000FBE90936000FFCFEEEEF0E04F
S113106080818983898180818F7D808380E88093DA
S1131070EF000F90DF91CF91FF91EF91BF91AF916E
S11310809F918F916F915F914F913F912F910F900D
S11310900BBE0F900FBE0F901F901895CF93DF9348
S11310A0E8EDF0E021E020831092E2002CE02093B0
S11310B0E30027E32093E4001092E7001092E60097
S11310C01092E9001092E8001092EC001092E500F2
S11310D0CDEED0E01882AEEEB0E01C9220E1288381
S11310E01C921092F400282F2295220F207E209328
S11310F0F60096958795969587959695879580930E
S1131100F7001092F000862F8295880F807E8093DE
S1131110F2007695679576956795769567956093D1
S1131120F30080E88093EF0083E08093DC008093F9
S1131130DE0080EB8093DB0082E080831092460126
S1131140DF91CF910895CF93DF93EC014091480153
S113115020914701241789F1A42FAF708BE0A89F39
S1131160B0011124FB01E45BFE4F208122952695FA
S113117027703181532F550F550F550F252B32955D
S11311803695377028833983FB01E25BFE4F20815B
S11311902F702A83222399F0DB01A15BBE4FFE014D
S11311A0339630E02D5F3F4FCE01820F931F2D9178
S11311B02193E817F907D9F702C080E004C04F5F14
S11311C04093480181E0DF91CF910895CF93DF935D
S11311D0FC01ABEDB0E08C918F778C938091490149
S11311E0811127C01092ED0080818295880F807E46
S11311F08093F20080819181969587959695879545
S1131200969587958093F300DF0113969F01255FE0
S11312103F4FCAEFD0E09D919883A217B307D9F747
S113122081E080934901828180648093EF0081E0B2
S113123043C020914A01822F90E030914B01831BDF
S113124091098F7799274097B1F1A22FAF708BE066
S1131250A89FD0011124ED01C450DE4F8081982F46
S11312609295990F907E88818F71892B88838081D4
S1131270982F9695969596958981807E892B89835A
S113128091819295990F907E8F71892B89838281A8
S1131290982F9F708A81807F892B8A83A150BE4FAB
S11312A0339688E001900D928A95E1F72F5F2093A1
S11312B04A0181E001C080E0EBEDF0E090819068AC
S11312C09083DF91CF9108958EB1877E8EB98DB1D1
S11312D088618DB9A1E9B0E08C9188618C93E0E9D3
S11312E0F0E080818260808380818E7F8083808132
S11312F08068808380818F7B80838081806280830B
S11313008081806180838C9181608C938C91897FB2
S11313108C93E6E9F0E089E991E091838083608130
S1131320718180E090E093D120E030E040E05FE321
S113133044D25CD1E8E9F0E07183608380819181DB
S113134090939B0080939A00089595B1892B85B959
S1131350089584B1806E84B980EEF7CF089595B175
S11313608095982395B9089594B1976094B982FBB8
S1131370992790F9282F227081708065822B8CBD6B
S11313808CB5837F8CBD9DBD0895CF93DF93EC0115
S1131390289841155105C1F0FB01DC01460F571F88
S11313A08FEF209711F09C9101C0982F9EBD0DB432
S11313B007FEFDCF6115710511F09EB5908331963E
S11313C01196E417F50769F72111289ADF91CF9157
S11313D008951F920F920FB60F9211240BB60F921D
S11313E02F933F934F935F936F937F938F93AF9319
S11313F0BF93EF93FF93ACECB2E0ECEAF2E02CEC99
S113140032E08D91882359F040815181628173814A
S1131410505E6F4F7F4F4083518362837383349652
S1131420E217F30771F7FF91EF91BF91AF918F919D
S11314307F916F915F914F913F912F910F900BBED0
S11314400F900FBE0F901F9018955058BB27AA27D6
S11314500ED075C166D130F06BD120F031F49F3FCE
S113146011F41EF45BC10EF4E095E7FB51C1E92FC2
S113147077D180F3BA17620773078407950718F0CA
S113148071F49EF58FC10EF4E0950B2EBA2FA02DAA
S11314900B01B90190010C01CA01A0011124FF271D
S11314A0591B99F0593F50F4503E68F11A16F04018
S11314B0A22F232F342F4427585FF3CF4695379517
S11314C02795A795F0405395C9F77EF41F16BA0BDC
S11314D0620B730B840BBAF09150A1F0FF0FBB1F8A
S11314E0661F771F881FC2F70EC0BA0F621F731FD3
S11314F0841F48F4879577956795B795F7959E3F30
S113150008F0B3CF9395880F08F09927EE0F9795BD
S113151087950895D9D008F481E008950CD00FC1BF
S113152007D140F0FED030F021F45F3F19F0F0C055
S1131530511139C1F3C014D198F39923C9F3552338
S1131540B1F3951B550BBB27AA27621773078407B2
S113155038F09F5F5F4F220F331F441FAA1FA9F368
S113156033D00E2E3AF0E0E830D091505040E6955A
S1131570001CCAF729D0FE2F27D0660F771F881FBB
S1131580BB1F261737074807AB07B0E809F0BB0BAA
S1131590802DBF01FF2793585F4F2AF09E3F5105CE
S11315A068F0B6C000C15F3FECF3983EDCF386956B
S11315B077956795B795F7959F5FC9F7880F911D44
S11315C09695879597F90895E1E0660F771F881F30
S11315D0BB1F621773078407BA0720F0621B730BE3
S11315E0840BBA0BEE1F88F7E095089504D0689435
S11315F0B111D9C00895BCD088F09F5790F0B92F8D
S11316009927B751A0F0D1F0660F771F881F991F53
S11316101AF0BA95C9F712C0B13081F0C3D0B1E065
S11316200895C0C0672F782F8827B85F39F0B93F75
S1131630CCF3869577956795B395D9F73EF4909555
S11316408095709561957F4F8F4F9F4F0895E894D3
S113165009C097FB3EF490958095709561957F4FF6
S11316608F4F9F4F9923A9F0F92F96E9BB279395A4
S1131670F695879577956795B795F111F8CFFAF4B4
S1131680BB0F11F460FF1BC06F5F7F4F8F4F9F4FE5
S113169016C0882311F096E911C0772321F09EE843
S11316A0872F762F05C0662371F096E8862F70E0A9
S11316B060E02AF09A95660F771F881FDAF7880F83
S11316C09695879597F90895990F0008550FAA0BD9
S11316D0E0E8FEEF16161706E807F907C0F0121641
S11316E01306E407F50798F0621B730B840B950B44
S11316F039F40A2661F0232B242B252B21F4089599
S11317000A2609F4A140A6958FEF811D811D089535
S113171097F99F6780E870E060E008959FEF80ECA0
S1131720089500240A941616170618060906089543
S113173000240A9412161306140605060895092EA9
S11317400394000C11F4882352F0BB0F40F4BF2B18
S113175011F460FF04C06F5F7F4F8F4F9F4F089558
S113176057FD9058440F551F59F05F3F71F047954E
S1131770880F97FB991F61F09F3F79F08795089533
S1131780121613061406551FF2CF4695F1DF08C052
S1131790161617061806991FF1CF8695710561056F
S11317A008940895E894BB2766277727CB0197F917
S11317B008958ADF08F48FEF08950BD0C0CFB1DF0E
S11317C028F0B6DF18F0952309F0A2CFA7CF112493
S11317D0EACFC6DFA0F3959FD1F3950F50E0551FD4
S11317E0629FF001729FBB27F00DB11D639FAA2772
S11317F0F00DB11DAA1F649F6627B00DA11D661FC1
S1131800829F2227B00DA11D621F739FB00DA11DE1
S1131810621F839FA00D611D221F749F3327A00D9B
S1131820611D231F849F600D211D822F762F6A2F37
S113183011249F5750408AF0E1F088234AF0EE0FBC
S1131840FF1FBB1F661F771F881F91505040A9F7C9
S11318509E3F510570F05CCFA6CF5F3FECF3983EFE
S1131860DCF3869577956795B795F795E7959F5F30
S1131870C1F7FE2B880F911D9695879597F90895CA
S1131880EE0FFF1F0024001C0BBE0790F691E02D05
S11318900994FC0188279927E89421912032E9F3DF
S11318A0293010F02E30C8F32B3239F02D3231F4B8
S11318B0689403C00BD0820F911D219120532A30CC
S11318C0C8F31EF4909581959F4F08957AE0979FF1
S11318D0902D879F802D910D11240895CF93DF9330
S11318E0CDB7DEB7AE014B5F5F4FFA0161917191E5
S11318F0AF018091A4039091A50308D0DF91CF910B
S113190008956091A4037091A50313C22F923F928E
S11319104F925F926F927F928F929F92AF92BF92FB
S1131920CF92DF92EF92FF920F931F93CF93DF93A7
S1131930CDB7DEB72B970FB6F894DEBF0FBECDBF81
S11319406C017B018A01FC0117821682838181FF6D
S1131950BFC1CE0101963C01F6019381F70193FDCD
S1131960859193FF81917F01882309F4ADC185326C
S113197039F493FD859193FF81917F01853221F4A0
S1131980B60190E0D6D1E8CF912C212C312CFFE187
S1131990F315D8F08B3279F038F4803279F0833251
S11319A0A1F4232D20611DC08D3261F0803369F4D0
S11319B0232D216016C0832D8260382EE32DE46030
S11319C03E2E2AC0F32DF8601DC037FC2DC020ED3B
S11319D0280F2A3040F08E32B9F436FC75C1232D1D
S11319E02064322E19C036FE06C08AE0989E200D6F
S11319F01124922E11C0EAE02E9E200D1124222ED5
S1131A00F32DF0623F2E08C08C3621F4832D8068BC
S1131A10382E02C0883641F4F70193FD859193FF77
S1131A2081917F018111B3CF982F9F7D955493307D
S1131A3028F40C5F1F4F9FE399830DC0833631F068
S1131A40833771F0833509F055C020C0F8018081D7
S1131A5089830E5F1F4F88248394912C530112C0F5
S1131A602801F2E04F0E511CF801A080B18036FE2F
S1131A7003C0692D70E002C06FEF7FEFC5014ED146
S1131A804C018201F32DFF773F2E15C0280122E07F
S1131A90420E511CF801A080B18036FE03C0692DAE
S1131AA070E002C06FEF7FEFC5012DD14C01F32D23
S1131AB0F0683F2E820133FC19C0822D90E0881615
S1131AC09906A0F4B60180E290E033D12A94F5CFD0
S1131AD0F50137FC859137FE81915F01B60190E0F5
S1131AE028D121102A9421E0821A910881149104AA
S1131AF079F7E1C0843611F0893639F5F80137FEFB
S1131B0007C060817181828193810C5F1F4F08C07F
S1131B1060817181072E000C880B990B0E5F1F4F9B
S1131B20F32DFF763F2E97FF09C090958095709511
S1131B3061957F4F8F4F9F4FF0683F2E2AE030E032
S1131B40A30133D1882E861844C0853731F4232D60
S1131B502F7EB22E2AE030E025C0932D997FB92E36
S1131B608F36C1F018F4883579F0AEC0803719F09B
S1131B70883721F0A9C0E92FE061BE2EB4FE0DC064
S1131B80FB2DF460BF2E09C034FE0AC0292F266045
S1131B90B22E06C028E030E005C020E130E002C0EB
S1131BA020E132E0F801B7FE07C0608171818281D3
S1131BB093810C5F1F4F06C06081718180E090E0CB
S1131BC00E5F1F4FA301F1D0882E8618FB2DFF77DF
S1131BD03F2E36FE0DC0232D2E7FA22E891458F4DD
S1131BE034FE0BC032FC09C0832D8E7EA82E05C0A6
S1131BF0B82CA32C03C0B82C01C0B92CA4FE0FC070
S1131C00FE01E80DF11D8081803321F49A2D997E27
S1131C10A92E09C0A2FE06C0B394B39404C08A2DB1
S1131C20867809F0B394A3FC10C0A0FE06C0B214D9
S1131C3080F4280C922C9B180DC0B21458F4B601F1
S1131C4080E290E076D0B394F8CFB21418F42B1855
S1131C5002C0982C212CA4FE0FC0B60180E390E0B2
S1131C6068D0A2FE16C0A1FC03C088E790E002C0C1
S1131C7088E590E0B6010CC08A2D867851F0A1FE6B
S1131C8002C08BE201C080E2A7FC8DE2B60190E0C5
S1131C9050D0891430F4B60180E390E04AD09A948D
S1131CA0F8CF8A94F301E80DF11D8081B60190E02C
S1131CB040D08110F6CF222009F44ECEB60180E246
S1131CC090E037D02A94F7CFF6018681978102C03D
S1131CD08FEF9FEF2B960FB6F894DEBF0FBECDBFEC
S1131CE0DF91CF911F910F91FF90EF90DF90CF90F4
S1131CF0BF90AF909F908F907F906F905F904F9028
S1131D003F902F900895FC010590615070400110A0
S1131D10D8F7809590958E0F9F1F0895FC01615010
S1131D20704001900110D8F7809590958E0F9F1FF9
S1131D3008950F931F93CF93DF93FB01238121FD1C
S1131D4003C08FEF9FEF2CC022FF16C0468157813E
S1131D50248135814217530744F4A081B1819D0148
S1131D602F5F3F4F318320838C93268137812F5FF0
S1131D703F4F3783268314C08B01EC01FB010084A1
S1131D80F185E02D0995892BE1F6D80116968D9100
S1131D909C911797019617969C938E931697CE0154
S1131DA0DF91CF911F910F910895FA01AA2728304E
S1131DB051F1203181F1E8946F936E7F6E5F7F4F14
S1131DC08F4F9F4FAF4FB1E03ED0B4E03CD0670F90
S1131DD0781F891F9A1FA11D680F791F8A1F911DE3
S1131DE0A11D6A0F711D811D911DA11D20D009F433
S1131DF068943F912AE0269F11243019305D319375
S1131E00DEF6CF010895462F4770405D4193B3E05D
S1131E100FD0C9F7F6CF462F4F70405D4A3318F004
S1131E20495D31FD4052419302D0A9F7EACFB4E0B5
S1131E30A6959795879577956795BA95C9F700976D
S1131E406105710508959B01AC010A2E069457950E
S1131E50479537952795BA95C9F7620F731F841F65
S10D1E60951FA01D0895F894FFCF0C
S1131E6A000048420000000300000000CB016C029D
S1131E7A0000000000000000000000000000000054
S10F1E8A0032F4010000256900257500F9
S9030000FC
