:1000000051C000006DC000006BC0000069C000005E
:1000100067C0000065C000000C94F20861C00000D9
:100020005FC000005DC000005BC0000059C0000060
:100030000C94820855C0000053C0000051C000005D
:10004000BFC700000C94A40C0C946E0A49C00000B9
:1000500047C00000B3C6000093C6000041C00000C6
:100060003FC000003DC000003BC0000039C00000A0
:1000700037C0000035C0000033C0000031C00000B0
:10008000D6C60000B6C600002BC0000029C0000084
:1000900027C00000530A550A570A590A5B0A600A2A
:1000A000640A680A11241FBECFEFD0E1DEBFCDBFC6
:1000B00011E0A0E0B1E0E8E3F4E200E00BBF02C031
:1000C00007900D92AA33B107D9F723E0AAE3B1E074
:1000D00001C01D92A438B207E1F7EBD60C941A12B6
:1000E0008FCF10923F011092400110924101109267
:1000F00042010895682F70E080E090E00E94DB0DDF
:1001000060933F01709340018093410190934201BD
:1001100008954F925F926F927F928F929F92AF92CB
:10012000BF92CF92DF92EF92FF920F931F93CF93E4
:10013000DF93EC018E8D81117FC0C0900001D090C3
:100140000101E0900201F090030120E030E04EEB6D
:1001500052E4C701B6010E948D0E87FF0AC020E05D
:1001600030E048E452E4C701B6010E943E0D181683
:1001700024F081E080933A0102C010923A016B8929
:10018000062E000C770B880B990B0E94DD0D288141
:1001900039814A815B810E94D90C6B017C0160939B
:1001A0003B0170933C0180933D0190933E0180910F
:1001B0003A0181111CC02AE037ED43E25CE3C7013C
:1001C000B6010E94910E9B01AC0160913F017091BC
:1001D000400180914101909142010E94DA0C6093AC
:1001E0003F0170934001809341019093420123E3CA
:1001F00033E343E752E460913F0170914001809105
:100200004101909142010E94910E4B015C0129EF46
:100210003FE049E75FE3C701B6010E94910E9B01F1
:10022000AC01C501B4010E94DA0C20E030E048E4E2
:1002300052E40E94DA0C08C0813071F46C8970E0DD
:1002400080E090E00E94DB0D60930001709301015B
:10025000809302019093030120E030E04EEB52E4E2
:100260006091000170910101809102019091030160
:100270000E948D0E181664F480E090E0AEEBB2E4BC
:100280008093000190930101A0930201B0930301B8
:1002900020E030E048E452E46091000170910101F7
:1002A00080910201909103010E943E0D87FF0CC0D6
:1002B00080E090E0A8E4B2E4809300019093010113
:1002C000A0930201B0930301C0900001D0900101FE
:1002D000E0900201F090030120E030E048EC52E4AD
:1002E000C701B6010E94420D4B015C01609196006E
:1002F0007091970080E090E00E94DB0DA5019401D1
:100300000E94910E0E94AA0D70939900609398002C
:10031000609196007091970000919600109197005F
:1003200080E090E00E94DB0D2B013C01B80180E0F1
:1003300090E00E94DB0DA50194010E94910E9B01AB
:10034000AC01C301B2010E94D90C0E94AA0D7093A6
:100350009B0060939A00C701B6010E94AF0D6C8BA1
:10036000DF91CF911F910F91FF90EF90DF90CF9091
:10037000BF90AF909F908F907F906F905F904F90C5
:100380000895249A0895882311F02C9A08952C98A2
:100390000895CF93DF93EC0166E471E080E00E9462
:1003A000490A21E043E050E063E471E086E491E033
:1003B0000E94880CE3E4F1E061816F71618370E079
:1003C000762F66278281682B40E0CE01DF91CF91A6
:1003D00034C7CF93DF93EC0166E471E081E00E94C3
:1003E000490A21E043E050E063E471E086E491E0F3
:1003F0000E94880CE3E4F1E061816F71618370E039
:10040000762F66278281682B41E0CE01DF91CF9164
:1004100014C7CF93DF93EC0166E471E082E00E94A1
:10042000490A21E043E050E063E471E086E491E0B2
:100430000E94880CE3E4F1E061816F71618370E0F8
:10044000762F66278281682B80E090E00E94DB0D8A
:1004500023E333E344E852E40E94420D24EA30E708
:100460004DEB5EE30E94D90C688379838A839B837A
:10047000DF91CF910895CF93DF93EC0166E471E0B3
:1004800084E00E94490A21E043E050E063E471E027
:1004900086E491E00E94880CE3E4F1E061816F71F1
:1004A000618370E0762F66278281682BCE01DF9111
:1004B000CF9136C70F931F93CF93DF93EC018B013E
:1004C000CB010E94AE0B882309F441C0298D243052
:1004D000F1F1F801808191818032F1E09F0791F183
:1004E00080339240A1F581E08A8F1E8E48EC50E067
:1004F0005E8B4D8BF80186818B3050F0922F9D7F63
:10050000913031F46AE00E94F40E8B8B588F4F8B40
:10051000F80185818A3168F02250223050F490E051
:1005200066EF7FEF0E94000F6B8B88EC90E0988F56
:100530008F8BF80185818A3150F486818B3038F4B5
:100540001B8A05C081E088A3F80183818B8FDF912E
:10055000CF911F910F9108950F931F93CF93DF9326
:10056000CDB7DEB70BEE12E080E592E0F8019183A3
:10057000808388E0828388A1838320E030E040E2AA
:1005800051E46F81788589859A850E94910E0E9439
:10059000AA0DF801648320E030E040E251E46F8569
:1005A000788989899A890E94910E0E94AF0DF8017D
:1005B0007683658320E030E048EC52E46B897C89E7
:1005C0008D899E890E94420D0E94AF0DF8017087AF
:1005D0006783688D798D80E090E00E94DB0D26E6D0
:1005E00036E646E650E40E94910E0E94AF0DF801F7
:1005F00061878F898287C801DF91CF911F910F9109
:100600000C94EE0BCF93DF93CDB7DEB7EBEEF2E0B9
:1006100081E592E09183808381E0828389A1838355
:10062000CF01DF91CF910C94EE0B0F931F93CF93DB
:10063000DF9300D0CDB7DEB78C0190915A03809143
:100640001803981B9F71F1F0F801128E46D39A831C
:100650008983E6D2F801868D81110EC089819A8145
:10066000873F9F4F7CF089819A810A975CF489814A
:100670009A81F801838B06C0813021F489819A81A7
:10068000F801848B0F900F90DF91CF911F910F9104
:100690000895EF92FF920F931F93CF93DF93CDB7FF
:1006A000DEB788A5882309F46DC020E030E04AE772
:1006B00054E46D857E858F8598890E94910E0E94F5
:1006C000AA0D7F936F9303E311E01F930F930E9492
:1006D000550F8CE290E00E94680F20E030E04AE77E
:1006E00054E469897A898B899C890E94910E0E94C1
:1006F000AF0D7F936F9386E3E82E81E0F82EFF9293
:10070000EF920E94550F8CE290E00E94680F20E06B
:1007100030E04AE754E469857A858B859C850E94A0
:10072000910E0E94AA0D7F936F931F930F930E94C7
:10073000550F8CE290E00E94680F8D8D1F928F9371
:10074000FF92EF920E94550F8CE290E00E94680F9A
:100750008C8D282F082E000C330B3F938F931F9303
:100760000F930E94550F0FB6F894DEBF0FBECDBF9A
:100770008AE090E0DF91CF911F910F91FF90EF9071
:100780000C94680FDF91CF911F910F91FF90EF9024
:100790000895CF93DF93CDB7DEB78E8D8230D1F041
:1007A00028F4882379F08130A9F032C0843029F10F
:1007B000E0F0853069F580E20E94680C80E40E94D8
:1007C000710C06C080E40E94680C80E20E94680CF4
:1007D00080E81AC080E20E94680C80E80E94680CE1
:1007E00080E4DF91CF910C94760C80E20E94680C3B
:1007F00080E80E94680C80E407C080E40E94680CD6
:1008000080E80E94680C80E2DF91CF910C94710C1B
:10081000DF91CF9108956D987598ED98EAE6F0E034
:1008200080818C608083E59AED9A08950F931F93E1
:10083000CF93DF938C01EB016881798180E090E0B8
:100840000E94DB0D9B01AC0160E074E688E896E451
:100850000E94420D0E94AF0DF801718360831982DE
:100860001882DF91CF911F910F9108958F929F92DF
:10087000AF92BF92CF92DF92EF92FF92CF93DF932E
:100880001F92CDB7DEB769017A0192E39983613097
:1008900011F0623089F5682F70E080E090E00E94EE
:1008A000DB0D20E030E040E752E40E94910E22EEA2
:1008B0003AE34AED54E40E94420D9B01AC0160E032
:1008C00070E08CEC92E40E94420D4B015C01A701A8
:1008D0009601C701B6010E94DA0C9B01AC01C5016B
:1008E000B4010E94420D20E030E040E05FE30E944E
:1008F000DA0C0E94AF0D698389810F90DF91CF914F
:10090000FF90EF90DF90CF90BF90AF909F908F902F
:100910000895CF92DF92EF92FF920F931F93CF93A0
:10092000DF93EC01C884D984EA84FB8420E030E0C2
:1009300040E751E4C701B6010E948D0E87FD0EC04D
:1009400011E020E030E048EC52E4C701B6010E941B
:100950003E0D87FF10E01123E1F002C010E019C046
:1009600020E030E040E751E4688179818A819B8111
:100970000E948D0E87FF0AC020E030E04CE552E473
:10098000C701B6010E948D0E18161CF481E08093F9
:100990004901898D823009F481C030F4882359F0EF
:1009A000813009F463C0ADC0843009F499C0A0F06F
:1009B000853081F1A6C08D899E89892B21F0112374
:1009C00011F083E0898F80E0DEDC1D8E8ADB1B8ADC
:1009D00082E38C8B1C8E95C088A181110DC08B8900
:1009E000181614F481E003C0882311F082E0898F87
:1009F00081E0C9DCCE018DDB88A1813009F081C0A6
:100A00008B89882311F085E0898F80E0BCDC1C8E07
:100A100068DB77C081E0B7DC01E00C8F2885398581
:100A20004A855B8561E0898921DF8C8B63DB8E8D54
:100A3000809348010E8FCE016CDB8B8918164CF425
:100A40008B8D9C8D89135DC0882309F45AC0098F52
:100A500058C0882309F46DC08B8D9C8D891351C0BB
:100A6000882309F44EC082E0898F52C08D899E8907
:100A70008739910508F41B8A8B89811106C02F895B
:100A8000388D232B11F493E0998F98A1913011F5B3
:100A90009B8D91111BC095E0998F18C08D899E89FF
:100AA0008739910508F41B8A8B89811106C02F892B
:100AB000388D232B11F493E0998F98A1913051F444
:100AC0009B8D91113DC095E0998F3AC087FF02C080
:100AD00082E0898F809148018E8FCE011ADB11C090
:100AE00080914901811105C08889843610F483E022
:100AF000898F80E048DC1D8E1C8EF3DA1B8A82E32E
:100B00008C8B898D9FEF980F933010F0853039F4DE
:100B10008D899E89892B11F0111101C0198E809148
:100B20004901811103C08889843670F084E0898F7F
:100B30000BC08F89988D892B21F783E0898FE1CFB6
:100B4000181644F681E0C5CFDF91CF911F910F9128
:100B5000FF90EF90DF90CF900895CF93DF938EB109
:100B6000877E8EB98DB188618DB9A1E9B0E08C9195
:100B700080618C938C91877F8C93E0E9F0E0808199
:100B80008260808380818E7F808380818068808383
:100B900080818F7B808380818062808380818F7E53
:100BA00080838C9181608C938C91897F8C93C6E932
:100BB000D0E085E890E0998388836881798180E03E
:100BC00090E0F9D720E030E040E05FE30E94910E32
:100BD000C1D7E8E9F0E07183608388819981208141
:100BE0003181821B930B90939B0080939A00DF913D
:100BF000CF9108959091390393959F71B091170308
:100C0000B917E1F3A92FB0E0A25ABC4F8C93F89426
:100C1000909339039091C10090629093C100189510
:100C200090911703809139039813FACF089590910A
:100C30005D0393959F71B0915B03B917E1F3A92F01
:100C4000B0E0A75EBC4F8C93F89490935D039091B5
:100C5000C90090629093C9001895CF93C82FFB01EB
:100C600084859585019739F0CA3011F48DE0C2DF93
:100C70008C2FC0DF06C0CA3011F48DE0D8DF8C2F76
:100C8000D6DF80E090E0CF91089590911803809195
:100C90005A03981751F09F5F9F71A92FB0E0AA5097
:100CA000BD4F8C9190931803089580E00895FC0146
:100CB000ECDF8132E8F381936A956A9561F0E5DFB4
:100CC0008823E9F38D3021F0813228F08193F5CF2C
:100CD000DCDF8823E9F310820895CF93DF93CDB74B
:100CE000DEB727970FB6F894DEBF0FBECDBF67E023
:100CF000CE010196DCDFCE0101960E94300F2796CF
:100D00000FB6F894DEBF0FBECDBFDF91CF9108952F
:100D10009091180380915A03981759F09F5F9F7123
:100D2000A92FB0E0AA50BD4F8C919093180390E08A
:100D300008958FEF9FEF08959091160380915C03C3
:100D4000981759F09F5F9F71A92FB0E0A65CBC4F28
:100D50008C919093160390E008958FEF9FEF089584
:100D6000FC0184859585019729F0D2DF97FDFDCFA1
:100D700041DF04C0E1DF97FDFDCF59DF90E008952A
:100D80000F930FB7EF93FF93E0911703F09139039F
:100D9000E395EF71EF1305C0F091C100FF7DF09373
:100DA000C100E0931703F0E0E25AFC4FE081E093CA
:100DB000C600FF91EF910FBF0F9118950F930FB7DA
:100DC0009F939091C600EF93FF93E0915A03F091A7
:100DD0001803E395EF71FE1731F0E0935A03F0E04A
:100DE000EA50FD4F9083FF91EF919F910FBF0F91BC
:100DF00018950F930FB7EF93FF93E0915B03F0917A
:100E00005D03E395EF71EF1305C0F091C900FF7D1D
:100E1000F093C900E0935B03F0E0E75EFC4FE081F4
:100E2000E093CE00FF91EF910FBF0F9118950F93B4
:100E30000FB79F939091CE00EF93FF93E0915C03E7
:100E4000F0911603E395EF71FE1731F0E0935C0328
:100E5000F0E0E65CFC4F9083FF91EF919F910FBF14
:100E60000F911895E1E8F0E08081836080838081B4
:100E7000886080831092850010928400EFE6F0E095
:100E80008081826080838DE790E0909389008093D9
:100E90008800089584B5856084BD84B5886084BD6C
:100EA00016BCEEE6F0E080818260808387E287BD39
:100EB0000895F89411D551DE60E070E080E090E094
:100EC000FAD3D0DFE7DFA7DC80E014D51092C400AE
:100ED0001092C50088E98093C10084E091E090936E
:100EE00081038093800390937F0380937E0349DA8C
:100EF00080E049DA789460EE72E082E191E0DADA3B
:100F000082E191E092DB80914E018823B1F18DB7AF
:100F10009EB781970FB6F8949EBF0FBE8DBFADB739
:100F2000BEB7119681E2E2E1F1E001900D928A955F
:100F3000E1F712DB8DB79EB781960FB6F8949EBF8E
:100F40000FBE8DBF81970FB6F8949EBF0FBE8DBFA9
:100F5000ADB7BEB7119681E2E2E1F1E001900D92EA
:100F60008A95E1F74FDB10924E018DB79EB78196BF
:100F70000FB6F8949EBF0FBE8DBF80914D018823A0
:100F800009F4B9CF8DB79EB781970FB6F8949EBF7D
:100F90000FBE8DBFADB7BEB7119681E2E2E1F1E0C1
:100FA00001900D928A95E1F774DB10924D018DB797
:100FB0009EB781960FB6F8949EBF0FBE8DBF9BCF94
:100FC0001F920F920FB60F9211240BB60F92EF9251
:100FD0000F931F932F933F934F935F936F937F9341
:100FE0008F939F93AF93BF93EF93FF9380915101A2
:100FF0008130E9F580934D0180912701909128017E
:1010000020912C01009739F0213029F40197909319
:101010002801809327018091290190912A0100974E
:1010200041F0213031F4019790932A0180932901F6
:1010300006C0211104C010922A01109229010091CA
:101040001A0110911B0120911C0130911D0140914A
:1010500016015091170160911801709119018AE0F1
:10106000E82E8EE191E0DED11092510103C08F5F36
:101070008093510180914F019091500184369105E8
:1010800019F581E080934E018DB79EB781970FB619
:10109000F8949EBF0FBE8DBFADB7BEB7119681E26B
:1010A000E2E1F1E001900D928A95E1F772DB109296
:1010B000500110924F018DB79EB781960FB6F894EC
:1010C0009EBF0FBE8DBF05C00196909350018093C7
:1010D0004F0182E191E01DDCFF91EF91BF91AF9153
:1010E0009F918F917F916F915F914F913F912F9140
:1010F0001F910F91EF900F900BBE0F900FBE0F90AE
:101100001F9018951F920F920FB60F9211240BB6D5
:101110000F922F933F934F935F936F937F938F9390
:101120009F93AF93BF93EF93FF9380914A01909168
:101130004B018A3F2FEF920730F4019690934B01B9
:1011400080934A0108C0109224011092230110924A
:101150004B0110924A0180914C01843029F482E2C3
:1011600091E089D910924C0180914C01833019F49F
:1011700084E080934C0180914C01823041F48AE1FB
:1011800091E047D980914C018F5F80934C01809111
:101190004C01813041F486E191E01BD980914C01F2
:1011A0008F5F80934C0180914C01811108C082E1D6
:1011B00091E0EFD880914C018F5F80934C01FF91BB
:1011C000EF91BF91AF919F918F917F916F915F91BF
:1011D0004F913F912F910F900BBE0F900FBE0F902C
:1011E0001F9018951F920F920FB60F9211240BB6F5
:1011F0000F922F933F934F935F936F937F938F93B0
:101200009F93AF93BF93EF93FF936AE471E083E200
:1012100091E00CDBFF91EF91BF91AF919F918F9186
:101220007F916F915F914F913F912F910F900BBEE6
:101230000F900FBE0F901F9018958F929F92AF92B4
:10124000BF92CF92DF92EF92FF920F931F93CF93B3
:10125000DF9300D000D0CDB7DEB78C01F42E80E054
:1012600090E0A9D420E030E040EA50E45AD520E0F4
:1012700030E040E859E355D52EEA37E441E250E446
:1012800098D323EC34E64AE25DE3FCD369837A83A6
:101290008B839C8369817A818B819C81FF2029F0DB
:1012A00028E431EE4AE75FE304C020E030E040EAA2
:1012B0005FE380D369837A838B839C8389809A8060
:1012C000AB80BC8026E636E646E65FE3F801608147
:1012D00071818281938125D56B017C012DEC3CECE1
:1012E0004CEC5DE3C501B4011CD59B01AC01C70109
:1012F000B60160D3F80160837183828393830F907A
:101300000F900F900F90DF91CF911F910F91FF9051
:10131000EF90DF90CF90BF90AF909F908F90089507
:101320000F931F93CF93DF9300D000D0CDB7DEB7DC
:101330008C0180E090E03FD420E030E040EA50E4CF
:10134000F0D420E030E040E859E3EBD469837A83BD
:101350008B839C8369817A818B819C812DEC3CEC11
:101360004CE650E48BD318168CF069817A818B811E
:101370009C8120E030E040EA51E4D3D420E030E02A
:1013800040EB51E416D3EBD3F801608369817A8195
:101390008B819C8126E636E646E950E46FD3181629
:1013A000E4F069817A818B819C812DEC3CEC4CE6E8
:1013B00050E4B3D418168CF469817A818B819C81B6
:1013C00020E030E04EE552E4ACD420E030E84BE1E0
:1013D00053E4EFD2C4D3F801608369817A818B81B1
:1013E0009C8126E636E646E950E497D418168CF43C
:1013F00069817A818B819C8120E030E048E453E46C
:1014000090D420E030E042E554E4D3D2A8D3F801F0
:1014100060830F900F900F900F90DF91CF911F91ED
:101420000F9108958F929F92AF92BF92EF920F9378
:101430001F93CF93DF93EC014A015B01C901B8010F
:10144000A50194016ED44B015C016E2D70E080E02B
:1014500090E0B1D39B01AC01C501B40162D420E09E
:1014600030E04AE754E40ED39B01AC0168817981F6
:101470008A819B819FD2688379838A839B83DF9152
:10148000CF911F910F91EF90BF90AF909F908F9051
:101490000895DB01482F50E048305105F0F4FA017F
:1014A000E65BFF4FC0C486E007C086E00AC086E066
:1014B0000CC086E00EC087E08C9311961C920895B4
:1014C00087E08C9380E407C087E08C9380E803C0BA
:1014D00087E08C9380EC11968C9308951F920F9265
:1014E0000FB60F9211240BB60F922F933F934F9389
:1014F0005F938F939F93EF93FF93CF93DF931F920D
:10150000CDB7DEB78091E00080FF4EC09091DE0045
:1015100090FF4AC01092ED008091EE008983809187
:10152000EE008F7B8093EE008091570190915601E1
:101530009817B9F18F702BE0829FC0011124FC0134
:10154000E85FFD4F20812093F00020812093F2007E
:1015500021812093F30023812093FA00248120939A
:10156000FA0025812093FA0026812093FA00278132
:101570002093FA0020852093FA0021852093FA0019
:1015800022852093FA00FC01E65FFD4F80818F7079
:1015900080648093EF00809157018F5F80935701A3
:1015A00078C01092550175C081FF73C08091DE0034
:1015B00081FF6FC080E18093ED0090915301292F4E
:1015C00030E080915401281B31092F7733272031D7
:1015D00031050CF052C0E92FEF708091EF002BE045
:1015E000E29FF0011124E85AFE4F282F2F708281CC
:1015F000807F822B82832091F2008091F000207EF8
:101600008770822B80834091F30041835091FA00D0
:1016100053832091FA0024832091FA00258320919E
:10162000FA0026832091FA0027832091FA00208770
:101630002091FA0021872091FA0022879F5F9093E2
:101640005301829586958770942F990F990F990F62
:10165000292F282B342F329536953770232B69F498
:10166000533059F498E088E10FB6F894A895809328
:1016700060000FBE90936000FFCF8091EE008983E1
:1016800089818091EE008F7D8093EE0080E88093C9
:10169000EF000F90DF91CF91FF91EF919F918F918C
:1016A0005F914F913F912F910F900BBE0F900FBE06
:1016B0000F901F901895CF93DF93E8EDF0E021E0B5
:1016C00020831092E2002CE02093E30027E3209394
:1016D000E4001092E7001092E6001092E9001092E8
:1016E000E8001092EC001092E500CDEED0E01882F8
:1016F000AEEEB0E01C9220E128831C921092F40020
:10170000282F2295220F207E2093F60023E0969525
:1017100087952A95E1F78093F7001092F000862FC5
:101720008295880F807E8093F20033E076956795EE
:101730003A95E1F76093F30080E88093EF0083E04F
:101740008093DC008093DE0080EB8093DB0082E0FE
:10175000808310925201DF91CF910895FC01209176
:101760005401809153018217B9F1622F6F708BE0A1
:10177000689FA0011124DA01A85ABE4F8C9182956E
:101780008695877011969C91392F330F330F330F45
:10179000832B92959695977080839183DA01A65A50
:1017A000BE4F8C918F7082833396BA0140E050E037
:1017B00090E0481759075CF4DA01A60FB71FA85A42
:1017C000BE4F13963C9131934F5F5F4FF2CF2F5F27
:1017D0002093540181E0089580E00895CF93DF9332
:1017E000FC018091DB008F778093DB0080915501B5
:1017F000811123C01092ED0080818295880F807E38
:101800008093F2008081918123E0969587952A95B7
:10181000E1F78093F300DF011396CF010B962D9132
:101820002093FA00A817B907D1F781E080935501FA
:10183000828180648093EF0040C020915601822F06
:1018400090E030915701831B91098F77992740973A
:10185000B1F1A22FAF708BE0A89FD0011124ED0150
:10186000C85FDD4F8081982F9295990F907E888177
:101870008F71892B88838081982F96959695969560
:101880008981807E892B898391819295990F907EA1
:101890008F71892B89838281982F9F708A81807FA5
:1018A000892B8A83A55FBD4F339688E001900D9206
:1018B0008A95E1F72F5F2093560181E001C080E017
:1018C0009091DB0090689093DB00DF91CF910895B9
:1018D00095B1892B85B9089584B1806E84B980EE65
:1018E000F7CF95B18095982395B9089595B189273B
:1018F00085B9089594B1976094B982FB992790F9BE
:10190000837080658CBD8CB5837F8CBD9DBD089533
:101910002898FB01DC01460F571FE417F50789F0F3
:10192000009711F03C9101C03FEF3EBD0DB407FEA2
:10193000FDCF6115710511F03EB5308331961196DA
:10194000ECCF2111289A08951F920F920FB60F9293
:1019500011240BB60F928F939F93AF93BF93CF93A6
:10196000DF93EF93FF93C8EDD2E0E8EBF2E08991CB
:10197000882359F080819181A281B381905EAF4F1D
:10198000BF4F80839183A283B383349682E0E83D86
:10199000F80769F7FF91EF91DF91CF91BF91AF9178
:1019A0009F918F910F900BBE0F900FBE0F901F90C5
:1019B00018955058BB27AA270ED075C166D130F0B4
:1019C0006BD120F031F49F3F11F41EF45BC10EF493
:1019D000E095E7FB51C1E92F77D180F3BA17620791
:1019E00073078407950718F071F49EF58FC10EF404
:1019F000E0950B2EBA2FA02D0B01B90190010C011F
:101A0000CA01A0011124FF27591B99F0593F50F436
:101A1000503E68F11A16F040A22F232F342F44278E
:101A2000585FF3CF469537952795A795F040539586
:101A3000C9F77EF41F16BA0B620B730B840BBAF056
:101A40009150A1F0FF0FBB1F661F771F881FC2F7C1
:101A50000EC0BA0F621F731F841F48F487957795D5
:101A60006795B795F7959E3F08F0B3CF9395880F8C
:101A700008F09927EE0F979587950895D9D008F427
:101A800081E008950CD00FC107D140F0FED030F0B6
:101A900021F45F3F19F0F0C0511139C1F3C014D1E6
:101AA00098F39923C9F35523B1F3951B550BBB2725
:101AB000AA2762177307840738F09F5F5F4F220FD2
:101AC000331F441FAA1FA9F333D00E2E3AF0E0E8CB
:101AD00030D091505040E695001CCAF729D0FE2F17
:101AE00027D0660F771F881FBB1F261737074807A9
:101AF000AB07B0E809F0BB0B802DBF01FF2793585F
:101B00005F4F2AF09E3F510568F0B6C000C15F3FAD
:101B1000ECF3983EDCF3869577956795B795F79546
:101B20009F5FC9F7880F911D9695879597F908953E
:101B3000E1E0660F771F881FBB1F621773078407DA
:101B4000BA0720F0621B730B840BBA0BEE1F88F7E9
:101B5000E095089504D06894B111D9C00895BCD01F
:101B600088F09F5790F0B92F9927B751A0F0D1F086
:101B7000660F771F881F991F1AF0BA95C9F712C010
:101B8000B13081F0C3D0B1E00895C0C0672F782F85
:101B90008827B85F39F0B93FCCF38695779567957C
:101BA000B395D9F73EF490958095709561957F4FE8
:101BB0008F4F9F4F0895E89409C097FB3EF490958E
:101BC0008095709561957F4F8F4F9F4F9923A9F016
:101BD000F92F96E9BB279395F695879577956795A5
:101BE000B795F111F8CFFAF4BB0F11F460FF1BC0E9
:101BF0006F5F7F4F8F4F9F4F16C0882311F096E97C
:101C000011C0772321F09EE8872F762F05C0662329
:101C100071F096E8862F70E060E02AF09A95660FE2
:101C2000771F881FDAF7880F9695879597F908959B
:101C3000990F0008550FAA0BE0E8FEEF16161706DD
:101C4000E807F907C0F012161306E407F50798F045
:101C5000621B730B840B950B39F40A2661F0232B5E
:101C6000242B252B21F408950A2609F4A140A695DA
:101C70008FEF811D811D089597F99F6780E870E0BF
:101C800060E008959FEF80EC089500240A941616F2
:101C9000170618060906089500240A94121613065A
:101CA000140605060895092E0394000C11F48823E8
:101CB00052F0BB0F40F4BF2B11F460FF04C06F5F04
:101CC0007F4F8F4F9F4F089557FD9058440F551FDA
:101CD00059F05F3F71F04795880F97FB991F61F0AE
:101CE0009F3F79F087950895121613061406551F25
:101CF000F2CF4695F1DF08C0161617061806991F91
:101D0000F1CF86957105610508940895E894BB2785
:101D100066277727CB0197F908958ADF08F48FEFBC
:101D200008950BD0C0CFB1DF28F0B6DF18F09523AF
:101D300009F0A2CFA7CF1124EACFC6DFA0F3959F69
:101D4000D1F3950F50E0551F629FF001729FBB27A2
:101D5000F00DB11D639FAA27F00DB11DAA1F649F4E
:101D60006627B00DA11D661F829F2227B00DA11D01
:101D7000621F739FB00DA11D621F839FA00D611D87
:101D8000221F749F3327A00D611D231F849F600DA8
:101D9000211D822F762F6A2F11249F5750408AF0E1
:101DA000E1F088234AF0EE0FFF1FBB1F661F771F6D
:101DB000881F91505040A9F79E3F510570F05CCFAD
:101DC000A6CF5F3FECF3983EDCF386957795679559
:101DD000B795F795E7959F5FC1F7FE2B880F911D8B
:101DE0009695879597F90895991B79E004C0991FF6
:101DF000961708F0961B881F7A95C9F78095089565
:101E000097FB072E16F4009406D077FD08D014D067
:101E100007FC05D03EF4909581959F4F08957095ED
:101E200061957F4F0895EE0FFF1F0024001C0BBE2D
:101E30000790F691E02D0994AA1BBB1B51E107C046
:101E4000AA1FBB1FA617B70710F0A61BB70B881F4A
:101E5000991F5A95A9F780959095BC01CD010895D9
:101E6000FC0188279927E89421912032E9F3293051
:101E700010F02E30C8F32B3239F02D3231F4689443
:101E800003C00BD0820F911D219120532A30C8F33B
:101E90001EF4909581959F4F08957AE0979F902D1D
:101EA000879F802D910D11240895CF93DF93CDB797
:101EB000DEB7AE014B5F5F4FFA0161917191AF01E7
:101EC000809180039091810308D0DF91CF91089594
:101ED000609180037091810313C22F923F924F92C1
:101EE0005F926F927F928F929F92AF92BF92CF92AA
:101EF000DF92EF92FF920F931F93CF93DF93CDB7B3
:101F0000DEB72B970FB6F894DEBF0FBECDBF6C01C6
:101F10007B018A01FC0117821682838181FFBFC188
:101F2000CE0101963C01F6019381F70193FD859165
:101F300093FF81917F01882309F4ADC1853239F483
:101F400093FD859193FF81917F01853221F4B60144
:101F500090E0D6D1E8CF912C212C312CFFE1F31564
:101F6000D8F08B3279F038F4803279F08332A1F4F2
:101F7000232D20611DC08D3261F0803369F4232D43
:101F8000216016C0832D8260382EE32DE4603E2E42
:101F90002AC0F32DF8601DC037FC2DC020ED280F9E
:101FA0002A3040F08E32B9F436FC75C1232D2064FE
:101FB000322E19C036FE06C08AE0989E200D1124EC
:101FC000922E11C0EAE02E9E200D1124222EF32D18
:101FD000F0623F2E08C08C3621F4832D8068382EA5
:101FE00002C0883641F4F70193FD859193FF8191FA
:101FF0007F018111B3CF982F9F7D9554933028F4A2
:102000000C5F1F4F9FE399830DC0833631F08337F8
:1020100071F0833509F055C020C0F80180818983B3
:102020000E5F1F4F88248394912C530112C0280106
:10203000F2E04F0E511CF801A080B18036FE03C0C3
:10204000692D70E002C06FEF7FEFC5014ED14C01EA
:102050008201F32DFF773F2E15C0280122E0420EAA
:10206000511CF801A080B18036FE03C0692D70E0DC
:1020700002C06FEF7FEFC5012DD14C01F32DF06849
:102080003F2E820133FC19C0822D90E088169906FC
:10209000A0F4B60180E290E033D12A94F5CFF501A7
:1020A00037FC859137FE81915F01B60190E028D120
:1020B00021102A9421E0821A91088114910479F761
:1020C000E1C0843611F0893639F5F80137FE07C0D2
:1020D00060817181828193810C5F1F4F08C0608194
:1020E0007181072E000C880B990B0E5F1F4FF32D8B
:1020F000FF763F2E97FF09C090958095709561956A
:102100007F4F8F4F9F4FF0683F2E2AE030E0A301B2
:1021100033D1882E861844C0853731F4232D2F7E85
:10212000B22E2AE030E025C0932D997FB92E8F364C
:10213000C1F018F4883579F0AEC0803719F08837CF
:1021400021F0A9C0E92FE061BE2EB4FE0DC0FB2D29
:10215000F460BF2E09C034FE0AC0292F2660B22EBB
:1021600006C028E030E005C020E130E002C020E1F8
:1021700032E0F801B7FE07C06081718182819381EE
:102180000C5F1F4F06C06081718180E090E00E5FA0
:102190001F4FA301F1D0882E8618FB2DFF773F2E0D
:1021A00036FE0DC0232D2E7FA22E891458F434FE46
:1021B0000BC032FC09C0832D8E7EA82E05C0B82C22
:1021C000A32C03C0B82C01C0B92CA4FE0FC0FE0183
:1021D000E80DF11D8081803321F49A2D997EA92E7E
:1021E00009C0A2FE06C0B394B39404C08A2D8678B9
:1021F00009F0B394A3FC10C0A0FE06C0B21480F492
:10220000280C922C9B180DC0B21458F4B60180E231
:1022100090E076D0B394F8CFB21418F42B1802C023
:10222000982C212CA4FE0FC0B60180E390E068D06A
:10223000A2FE16C0A1FC03C088E790E002C088E5BA
:1022400090E0B6010CC08A2D867851F0A1FE02C044
:102250008BE201C080E2A7FC8DE2B60190E050D095
:10226000891430F4B60180E390E04AD09A94F8CF14
:102270008A94F301E80DF11D8081B60190E040D011
:102280008110F6CF222009F44ECEB60180E290E014
:1022900037D02A94F7CFF6018681978102C08FEF5D
:1022A0009FEF2B960FB6F894DEBF0FBECDBFDF9128
:1022B000CF911F910F91FF90EF90DF90CF90BF9043
:1022C000AF909F908F907F906F905F904F903F90D6
:1022D0002F900895FC010590615070400110D8F7CF
:1022E000809590958E0F9F1F0895FC01615070405E
:1022F00001900110D8F7809590958E0F9F1F08953B
:102300000F931F93CF93DF93FB01238121FD03C024
:102310008FEF9FEF2CC022FF16C04681578124818A
:1023200035814217530744F4A081B1819D012F5F8D
:102330003F4F318320838C93268137812F5F3F4F1E
:102340003783268314C08B01EC01FB010084F185E7
:10235000E02D0995892BE1F6D80116968D919C9177
:102360001797019617969C938E931697CE01DF913F
:10237000CF911F910F910895FA01AA27283051F1AA
:10238000203181F1E8946F936E7F6E5F7F4F8F4FA6
:102390009F4FAF4FB1E03ED0B4E03CD0670F781F05
:1023A000891F9A1FA11D680F791F8A1F911DA11DEA
:1023B0006A0F711D811D911DA11D20D009F4689423
:1023C0003F912AE0269F11243019305D3193DEF6CB
:1023D000CF010895462F4770405D4193B3E00FD081
:1023E000C9F7F6CF462F4F70405D4A3318F0495D6C
:1023F00031FD4052419302D0A9F7EACFB4E0A6954F
:102400009795879577956795BA95C9F70097610570
:10241000710508959B01AC010A2E069457954795C6
:1024200037952795BA95C9F7620F731F841F951FBB
:08243000A01D0895F894FFCFF0
:102438000000484200000003000000002D06B0061E
:102448000000000000000000000000000000000084
:102458000000000000003200000000000100000041
:0A2468000000002569002575000042
:00000001FF
