:1000000051C000006DC000006BC0000069C000005E
:1000100067C0000065C000000C94890861C0000042
:100020005FC000005DC000005BC0000059C0000060
:100030000C942F0855C0000053C0000051C00000B0
:1000400079C700000C94270C0C94F10949C00000FA
:1000500047C00000A1C6000081C6000041C00000EA
:100060003FC000003DC000003BC0000039C00000A0
:1000700037C0000035C0000033C0000031C00000B0
:10008000C4C60000A4C600002BC0000029C00000A8
:1000900027C00000D609D809DA09DC09DE09E3091E
:1000A000E709EB0911241FBECFEFD0E1DEBFCDBFC2
:1000B00013E0A0E0B1E0EEE9F3E200E00BBF02C024
:1000C00007900D92AE3EB107D9F726E0AEEEB3E051
:1000D00001C01D92A833B207E1F7D9D60C94CD1117
:1000E0008FCF1092F3031092F4031092F503109245
:1000F000F60308954F925F926F927F928F929F9234
:10010000AF92BF92CF92DF92EF92FF920F931F9325
:10011000CF93DF934B015C0129013A01E801E11023
:1001200077C0C0900001D0900101E0900201F090F2
:10013000030120E030E04EEB52E4C701B6010E941B
:10014000100E87FF0AC020E030E048E452E4C70107
:10015000B6010E94C10C181624F081E08093EE03D2
:1001600002C01092EE03A3019201C501B4010E94E6
:100170005C0C6B017C016093EF037093F003809340
:10018000F1039093F2038091EE0381111CC02AE0E9
:1001900037ED43E25CE3C701B6010E94140E9B01F8
:1001A000AC016091F3037091F4038091F503909199
:1001B000F6030E945D0C6093F3037093F403809345
:1001C000F5039093F60323E333E343E752E46091AE
:1001D000F3037091F4038091F5039091F6030E946C
:1001E000140E4B015C0129EF3FE049E75FE3C701D3
:1001F000B6010E94140E9B01AC01C501B4010E941E
:100200005D0C20E030E048E452E40E945D0C09C03F
:1002100081E0E8120EC0688170E080E090E00E940A
:100220005E0D609300017093010180930201909331
:10023000030120E030E04EEB52E460910001709148
:10024000010180910201909103010E94100E181685
:1002500064F480E090E0AEEBB2E480930001909310
:100260000101A0930201B093030120E030E048E4D3
:1002700052E460910001709101018091020190911E
:1002800003010E94C10C87FF0CC080E090E0A8E44D
:10029000B2E48093000190930101A0930201B09316
:1002A0000301C0900001D0900101E0900201F090A4
:1002B000030120E030E048EC52E4C701B6010E949F
:1002C000C50C4B015C01609196007091970080E035
:1002D00090E00E945E0DA50194010E94140E0E9400
:1002E0002D0D709399006093980060919600709125
:1002F0009700009196001091970080E090E00E9496
:100300005E0D2B013C01B80180E090E00E945E0D83
:10031000A50194010E94140E9B01AC01C301B2011E
:100320000E945C0C0E942D0D70939B0060939A00BC
:10033000C701B6010E94320D6883DF91CF911F91F2
:100340000F91FF90EF90DF90CF90BF90AF909F9074
:100350008F907F906F905F904F900895249A0895AA
:10036000882311F02C9A08952C980895CF93DF9349
:10037000EC016BEF73E080E00E94CC0921E043E0E8
:1003800050E068EF73E08BEF93E00E940B0CE8EF16
:10039000F3E061816F71618370E0762F662782815F
:1003A000682B40E0CE01DF91CF91CAC6CF93DF9397
:1003B000EC016BEF73E081E0EFD721E043E050E028
:1003C00068EF73E08BEF93E00E940B0CE8EFF3E033
:1003D00061816F71618370E0762F66278281682B5F
:1003E00041E0CE01DF91CF91ABC6CF93DF93EC011B
:1003F0006BEF73E082E0D0D721E043E050E068EF9C
:1004000073E08BEF93E00E940B0CE8EFF3E0618167
:100410006F71618370E0762F66278281682B80E0A0
:1004200090E00E945E0D23E333E344E852E40E942F
:10043000C50C24EA30E74DEB5EE30E945C0C688358
:1004400079838A839B83DF91CF910895CF93DF9344
:10045000EC016BEF73E084E09FD721E043E050E0D4
:1004600068EF73E08BEF93E00E940B0CE8EFF3E092
:1004700061816F71618370E0762F66278281682BBE
:10048000CE01DF91CF91CFC60F931F93CF93DF9310
:10049000EC018B01CB010E94310B882389F12E895D
:1004A000243071F1F801808191818033924041F5CF
:1004B00081E08F8B1B8E88EC90E09D8B8C8BF801FC
:1004C00086818B3040F0922F9D7F913021F46FE038
:1004D0000E94770E8A8BF80185818A3148F022507C
:1004E000223030F490E061EF7FEF0E94830E6A8B40
:1004F000F80185818A3120F486818B3008F41A8ACC
:10050000DF91CF911F910F9108950F931F93CF9378
:10051000DF9320E532E03093A00520939F0528E08B
:100520002093A105FC012081222371F1EB018C01B4
:100530008E898093A2058B898093A3056881798138
:100540008A819B810E94320D7093A5056093A4055A
:1005500020E030E04AE754E46C857D858E859F85F8
:100560000E94140E0E94320D7093A7056093A60599
:10057000298930E03093A9052093A8058FE995E0FB
:100580000E94710BF8011082DF91CF911F910F91A2
:100590000895FF920F931F93CF93DF9300D000D065
:1005A00000D0CDB7DEB78C0190910E068091CC05BE
:1005B000981B9F7109F4A7C08091F703823009F05E
:1005C00054C0F8018789811187C075D39E838D83BC
:1005D00015D38D819E810B9769F4F801138E80E30A
:1005E00091E00E94F00E81E0F801848F88EC90E0A9
:1005F000958B848B8D819E810C9771F4FF24F394ED
:10060000F801F38E81E591E00E94F00EF801F48E7E
:1006100088EC90E0958B848B8D819E810D9769F499
:10062000F801158A148A8EE691E00E94F00E8CE79C
:1006300091E00E94F00EF801148EF801838D811173
:100640000EC08D819E81873F9F4F7CF08D819E8162
:100650000A975CF48D819E81F801828B06C08130FF
:1006600021F48D819E81F801838BF090F703F1E0F6
:10067000FF1232C020D39C838B83C0D28B819C819C
:10068000019749F481E991E00E94F00EF801F48E9F
:1006900082E08093F7038B819C810297E9F4F80153
:1006A000178A82E08093F70383EB91E00E94F00EBB
:1006B00081ED91E00E94F00E8AE092E00E94F00E3F
:1006C00083E492E00E94F00E8DE792E00E94F00E2B
:1006D0008AEE92E00E94F00E8091F703811113C020
:1006E0008FE293E00E94F00E82E693E00E94F00E0B
:1006F00085EA93E00E94F00EDED29A8389837ED24F
:1007000081E08093F70326960FB6F894DEBF0FBE04
:10071000CDBFDF91CF911F910F91FF900895EF9280
:10072000FF920F931F93CF93DF93CDB7DEB78DA1C9
:10073000882309F46DC020E030E04AE754E46D8579
:100740007E858F8598890E94140E0E942D0D7F93BF
:100750006F9308EE13E01F930F930E94D80E8CE264
:1007600090E00E94EB0E20E030E04AE754E4698913
:100770007A898B899C890E94140E0E94320D7F9386
:100780006F938BEEE82E83E0F82EFF92EF920E949B
:10079000D80E8CE290E00E94EB0E20E030E04AE7B9
:1007A00054E469857A858B859C850E94140E0E948D
:1007B0002D0D7F936F931F930F930E94D80E8CE2A1
:1007C00090E00E94EB0E8C8D1F928F93FF92EF9220
:1007D0000E94D80E8CE290E00E94EB0E8B8D282FA9
:1007E000082E000C330B3F938F931F930F930E949F
:1007F000D80E0FB6F894DEBF0FBECDBF8AE090E0F2
:10080000DF91CF911F910F91FF90EF900C94EB0E21
:10081000DF91CF911F910F91FF90EF900895CF93AB
:10082000DF93CDB7DEB78B8D8230B1F028F488230B
:1008300069F0813089F020C08330B1F08430E1F478
:1008400080E4C9D780E8C7D780E213C080E4C3D76B
:1008500080E2C1D780E80DC080E2BDD780E8BBD779
:1008600080E4DF91CF91C5C780E2B5D780E8B3D7E8
:1008700080E4DF91CF91B8C7DF91CF9108956D9853
:100880007598ED98EAE6F0E080818C608083E59AC7
:10089000ED9A08958F929F92AF92BF92CF92DF927E
:1008A000EF92FF920F931F93CF93DF931F92CDB7D9
:1008B000DEB76C017B018A01FB016081718180E000
:1008C00090E00E945E0D20E030E04AEF53E40E9489
:1008D000140E23EC35EF48E450E40E94140E4B0153
:1008E0005C01B80180E090E00E945E0D9B01AC01CC
:1008F000C501B4010E94C50C0E94320D6983898133
:10090000F6018083F701118210820F90DF91CF9161
:100910001F910F91FF90EF90DF90CF90BF90AF901D
:100920009F908F9008958F929F92AF92BF92EF9277
:10093000FF920F931F93CF93DF93EC0188849984E8
:10094000AA84BB8420E030E040E751E4C501B40153
:100950000E94100E87FD0FC011E020E030E048EC4F
:1009600052E4C501B4010E94C10C87FF10E0F12ED2
:100970001123E1F002C0F12C19C020E030E040E783
:1009800051E4688179818A819B810E94100E87FFE2
:100990000AC020E030E04CE552E4C501B4010E94F9
:1009A000100E18161CF481E08093FD038E898230AE
:1009B00009F46DC030F4882361F0813009F467C018
:1009C00097C0843009F483C0A8F0853009F441C091
:1009D0008FC08C899D89892B21F0FF2011F083E045
:1009E0008E8B80E0BDDC1A8E7CDB1A8A82E38B8BD7
:1009F000198E7EC08D8D81111EC08A89181614F43F
:100A000081E003C0882311F082E08E8B81E0A8DCB6
:100A100088809980AA80BB806A89062E000C770B9B
:100A2000880B990B0E94600DEB8C8E010D5E1F4FA1
:100A3000A50194015FDB8D8D813009F059C08A8951
:100A4000882311F085E08E8B80E08ADC198E49DBEB
:100A50004FC081E085DC0B8910E0EE24E39420E0B8
:100A600030E0A901CA01B90145DB81E0898F8A899B
:100A7000181624F4888D8130D9F550C0882309F4E4
:100A80004CC0888D8130A1F582E08E8B35C06A899B
:100A9000611102C083E08E8B8D8D813029F4888DA9
:100AA000811102C085E08E8B88809980AA80BB80EE
:100AB000062E000C770B880B990B0E94600DEB8CB7
:100AC0008E010D5E1F4FA501940114DB11C08091B2
:100AD000FD03811105C08889843610F483E08E8B74
:100AE00080E03EDC1A8E198EFCDA1A8A82E38B8B48
:100AF0008E898150833038F48C899D89892B11F03F
:100B0000F11001C01E8A8091FD03811103C0888904
:100B1000843630F084E08E8B03C083E08E8BE8CF88
:100B2000DF91CF911F910F91FF90EF90BF90AF9009
:100B30009F908F900895CF93DF938EB1877E8EB96B
:100B40008DB188618DB9A1E9B0E08C9180618C9301
:100B50008C91877F8C93E0E9F0E0808182608083D4
:100B600080818E7F808380818068808380818F7B7D
:100B7000808380818062808380818F7E80838C915E
:100B800081608C938C91897F8C93C6E9D0E085E855
:100B900090E0998388836881798180E090E08ED7A6
:100BA00020E030E040E05FE30E94140E56D7E8E911
:100BB000F0E0718360838881998120813181821B7B
:100BC000930B90939B0080939A00DF91CF910895AF
:100BD0009091ED0593959F71B091CB05B917E1F315
:100BE000A92FB0E0AE5EB94F8C93F8949093ED05C9
:100BF0009091C10090629093C10018959091CB059F
:100C00008091ED059813FACF089590911106939570
:100C10009F71B0910F06B917E1F3A92FB0E0A3536C
:100C2000BA4F8C93F894909311069091C9009062FA
:100C30009093C9001895CF93C82FFB0184859585A3
:100C4000019739F0CA3011F48DE0C2DF8C2FC0DF7C
:100C500006C0CA3011F48DE0D8DF8C2FD6DF80E0DB
:100C600090E0CF9108959091CC0580910E06981751
:100C700051F09F5F9F71A92FB0E0A655BA4F8C919C
:100C80009093CC05089580E00895FC01ECDF81325B
:100C9000E8F381936A956A9561F0E5DF8823E9F3CB
:100CA0008D3021F0813228F08193F5CFDCDF88236D
:100CB000E9F310820895CF93DF93CDB7DEB727977E
:100CC0000FB6F894DEBF0FBECDBF67E0CE01019630
:100CD000DCDFCE0101960E94B30E27960FB6F89482
:100CE000DEBF0FBECDBFDF91CF9108959091CC05AF
:100CF00080910E06981759F09F5F9F71A92FB0E061
:100D0000A655BA4F8C919093CC0590E008958FEF43
:100D10009FEF08959091CA0580911006981759F099
:100D20009F5F9F71A92FB0E0A251BA4F8C91909311
:100D3000CA0590E008958FEF9FEF0895FC01848528
:100D40009585019729F0D2DF97FDFDCF41DF04C0E3
:100D5000E1DF97FDFDCF59DF90E008950F930FB7C6
:100D6000EF93FF93E091CB05F091ED05E395EF71E3
:100D7000EF1305C0F091C100FF7DF093C100E09337
:100D8000CB05F0E0EE5EF94FE081E093C600FF9105
:100D9000EF910FBF0F9118950F930FB79F939091FD
:100DA000C600EF93FF93E0910E06F091CC05E3951A
:100DB000EF71FE1731F0E0930E06F0E0E655FA4FC2
:100DC0009083FF91EF919F910FBF0F9118950F9313
:100DD0000FB7EF93FF93E0910F06F0911106E395A3
:100DE000EF71EF1305C0F091C900FF7DF093C900CA
:100DF000E0930F06F0E0E353FA4FE081E093CE007A
:100E0000FF91EF910FBF0F9118950F930FB79F931D
:100E10009091CE00EF93FF93E0911006F091CA05F8
:100E2000E395EF71FE1731F0E0931006F0E0E25128
:100E3000FA4F9083FF91EF919F910FBF0F911895FB
:100E4000E1E8F0E080818360808380818860808336
:100E50001092850010928400EFE6F0E080818260BD
:100E600080838DE790E090938900809388000895B7
:100E700084B5856084BD84B5886084BD16BCEEE60B
:100E8000F0E080818260808387E287BD0895F894D6
:100E9000A6D451DE60E070E080E090E08FD3D0DF38
:100EA000E7DFEDDC80E0A9D41092C4001092C50009
:100EB00088E98093C10084E091E0909335068093A7
:100EC0003406909333068093320648DA789464E9C6
:100ED00075E082E191E0D8DA82E191E05ADB80911D
:100EE0000204882329F062E171E082E094E00DDBE6
:100EF00080910104882359F38DB79EB74E970FB6A2
:100F0000F8949EBF0FBE8DBFADB7BEB711968EE1F0
:100F1000E2E1F1E001900D928A95E1F700DC109298
:100F200001048DB79EB74E960FB6F8949EBF0FBEC4
:100F30008DBFCDCF1F920F920FB60F9211240BB61B
:100F40000F92EF920F931F932F933F934F935F93C3
:100F50006F937F938F939F93AF93BF93EF93FF9381
:100F600080910504813049F5809301048091260128
:100F700090912701009749F020912901213029F40F
:100F80000197909327018093260100911A011091F7
:100F90001B0120911C0130911D01409116015091BF
:100FA000170160911801709119018AE0E82E8EE115
:100FB00091E0BBD11092050403C08F5F80930504BC
:100FC00080910304909104048436910551F581E0E9
:100FD0008093020444EF51E06EEF73E083E291E00E
:100FE00059DC8DB79EB74E970FB6F8949EBF0FBED3
:100FF0008DBFADB7BEB711968EE1E2E1F1E0019091
:101000000D928A95E1F70BDC109204041092030410
:101010008DB79EB74E960FB6F8949EBF0FBE8DBF8C
:1010200005C00196909304048093030482E191E04B
:101030007ADCFF91EF91BF91AF919F918F917F915A
:101040006F915F914F913F912F911F910F91EF9071
:101050000F900BBE0F900FBE0F901F9018951F9210
:101060000F920FB60F9211240BB60F922F933F934E
:101070004F935F936F937F938F939F93AF93BF93A0
:10108000EF93FF9380910004843029F482E291E091
:10109000DDD91092000480910004833019F484E0BB
:1010A0008093000480910004823041F48AE191E051
:1010B0009CD9809100048F5F80930004809100048C
:1010C000813041F486E191E071D9809100048F5F15
:1010D0008093000480910004811108C082E191E0B6
:1010E00045D9809100048F5F80930004FF91EF91B8
:1010F000BF91AF919F918F917F916F915F914F9130
:101100003F912F910F900BBE0F900FBE0F901F902D
:1011100018951F920F920FB60F9211248F939F93E1
:101120008091FE039091FF0301969093FF038093BB
:10113000FE039F918F910F900FBE0F901F901895F7
:101140008F929F92AF92BF92CF92DF92EF92FF92D7
:101150000F931F93CF93DF9300D000D0CDB7DEB7AE
:101160008C01F42E80E090E0A9D420E030E040EA49
:1011700050E45AD520E030E040E859E355D52EEA56
:1011800037E441E250E498D323EC34E64AE25DE3ED
:10119000FCD369837A838B839C8369817A818B8179
:1011A0009C81FF2029F028E431EE4AE75FE304C088
:1011B00020E030E040EA5FE380D369837A838B8369
:1011C0009C8389809A80AB80BC8026E636E646E622
:1011D0005FE3F801608171818281938125D56B0184
:1011E0007C012DEC3CEC4CEC5DE3C501B4011CD55D
:1011F0009B01AC01C701B60160D3F8016083718324
:10120000828393830F900F900F900F90DF91CF9177
:101210001F910F91FF90EF90DF90CF90BF90AF9014
:101220009F908F9008950F931F93CF93DF9300D0DB
:1012300000D0CDB7DEB78C0180E090E03FD420E055
:1012400030E040EA50E4F0D420E030E040E859E3F8
:10125000EBD469837A838B839C8369817A818B81C8
:101260009C812DEC3CEC4CE650E48BD318168CF0B2
:1012700069817A818B819C8120E030E040EA51E4F1
:10128000D3D420E030E040EB51E416D3EBD3F801A7
:10129000608369817A818B819C8126E636E646E906
:1012A00050E46FD31816E4F069817A818B819C81B8
:1012B0002DEC3CEC4CE650E4B3D418168CF4698168
:1012C0007A818B819C8120E030E04EE552E4ACD401
:1012D00020E030E84BE153E4EFD2C4D3F80160835F
:1012E00069817A818B819C8126E636E646E950E465
:1012F00097D418168CF469817A818B819C8120E0C7
:1013000030E048E453E490D420E030E042E554E497
:10131000D3D2A8D3F80160830F900F900F900F9055
:10132000DF91CF911F910F9108958F929F92AF926D
:10133000BF92EF920F931F93CF93DF93EC014A017B
:101340005B01C901B801A50194016ED44B015C0198
:101350006E2D70E080E090E0B1D39B01AC01C5013F
:10136000B40162D420E030E04AE754E40ED39B019C
:10137000AC01688179818A819B819FD2688379835E
:101380008A839B83DF91CF911F910F91EF90BF9044
:10139000AF909F908F900895DB01482F50E0483028
:1013A0005105F0F4FA01E65BFF4FC0C486E007C0C8
:1013B00086E00AC086E00CC086E00EC087E08C9311
:1013C00011961C92089587E08C9380E407C087E013
:1013D0008C9380E803C087E08C9380EC11968C930B
:1013E00008951F920F920FB60F9211240BB60F9211
:1013F0002F933F934F935F938F939F93EF93FF931D
:10140000CF93DF931F92CDB7DEB78091E00080FFCE
:101410004EC09091DE0090FF4AC01092ED00809186
:10142000EE0089838091EE008F7B8093EE008091A7
:101430000B0490910A049817B9F18F702BE0829FEA
:10144000C0011124FC01E454FB4F20812093F000E3
:1014500020812093F20021812093F30023812093A7
:10146000FA0024812093FA0025812093FA00268136
:101470002093FA0027812093FA0020852093FA0018
:1014800021852093FA0022852093FA00FC01E25482
:10149000FB4F80818F7080648093EF0080910B04FC
:1014A0008F5F80930B0478C01092090475C081FF90
:1014B00073C08091DE0081FF6FC080E18093ED00FA
:1014C00090910704292F30E080910804281B3109EE
:1014D0002F773327203131050CF052C0E92FEF7000
:1014E0008091EF002BE0E29FF0011124E45FFB4FBD
:1014F000282F2F708281807F822B82832091F2009F
:101500008091F000207E8770822B80834091F300D1
:1015100041835091FA0053832091FA002483209153
:10152000FA0025832091FA0026832091FA00278370
:101530002091FA0020872091FA0021872091FA005B
:1015400022879F5F90930704829586958770942FDA
:10155000990F990F990F292F282B342F32953695F3
:101560003770232B69F4533059F498E088E10FB6B3
:10157000F894A895809360000FBE90936000FFCF11
:101580008091EE00898389818091EE008F7D809328
:10159000EE0080E88093EF000F90DF91CF91FF91F4
:1015A000EF919F918F915F914F913F912F910F906C
:1015B0000BBE0F900FBE0F901F901895CF93DF9327
:1015C000E8EDF0E021E020831092E2002CE020938F
:1015D000E30027E32093E4001092E7001092E60076
:1015E0001092E9001092E8001092EC001092E500D1
:1015F000CDEED0E01882AEEEB0E01C9220E1288360
:101600001C921092F400282F2295220F207E209306
:10161000F60023E0969587952A95E1F78093F700E9
:101620001092F000862F8295880F807E8093F200C2
:1016300033E0769567953A95E1F76093F30080E89B
:101640008093EF0083E08093DC008093DE0080EBEA
:101650008093DB0082E0808310920604DF91CF91BB
:101660000895FC0120910804809107048217B9F1C4
:10167000622F6F708BE0689FA0011124DA01A45FD4
:10168000BB4F8C9182958695877011969C91392FCE
:10169000330F330F330F832B92959695977080837A
:1016A0009183DA01A25FBB4F8C918F708283339656
:1016B000BA0140E050E090E0481759075CF4DA01C5
:1016C000A60FB71FA45FBB4F13963C9131934F5F9A
:1016D0005F4FF2CF2F5F2093080481E0089580E0F0
:1016E0000895CF93DF93FC018091DB008F77809387
:1016F000DB0080910904811123C01092ED008081EC
:101700008295880F807E8093F2008081918123E012
:10171000969587952A95E1F78093F300DF0113965C
:10172000CF010B962D912093FA00A817B907D1F796
:1017300081E080930904828180648093EF0040C03F
:1017400020910A04822F90E030910B04831B9109B1
:101750008F7799274097B1F1A22FAF708BE0A89FA8
:10176000D0011124ED01C454DB4F8081982F929554
:10177000990F907E88818F71892B88838081982F23
:101780009695969596958981807E892B89839181FE
:101790009295990F907E8F71892B89838281982FE2
:1017A0009F708A81807F892B8A83A154BB4F339697
:1017B00088E001900D928A95E1F72F5F20930A044B
:1017C00081E001C080E09091DB0090689093DB00A5
:1017D000DF91CF91089595B1892B85B9089584B192
:1017E000806E84B980EEF7CF95B18095982395B936
:1017F000089595B1892785B9089594B1976094B9F2
:1018000082FB992790F9837080658CBD8CB5837FAE
:101810008CBD9DBD08952898FB01DC01460F571F24
:10182000E417F50789F0009711F03C9101C03FEFF4
:101830003EBD0DB407FEFDCF6115710511F03EB53B
:10184000308331961196ECCF2111289A08951F927A
:101850000F920FB60F9211240BB60F928F939F9396
:10186000AF93BF93CF93DF93EF93FF93CCE8D5E093
:10187000ECE6F5E08991882359F080819181A2817D
:10188000B381905EAF4FBF4F80839183A283B383B8
:10189000349685E0EC38F80769F7FF91EF91DF9116
:1018A000CF91BF91AF919F918F910F900BBE0F90F1
:1018B0000FBE0F901F9018955058BB27AA270ED027
:1018C00075C166D130F06BD120F031F49F3F11F437
:1018D0001EF45BC10EF4E095E7FB51C1E92F77D10F
:1018E00080F3BA17620773078407950718F071F43D
:1018F0009EF58FC10EF4E0950B2EBA2FA02D0B0193
:10190000B90190010C01CA01A0011124FF27591B44
:1019100099F0593F50F4503E68F11A16F040A22F4A
:10192000232F342F4427585FF3CF469537952795BB
:10193000A795F0405395C9F77EF41F16BA0B620BBA
:10194000730B840BBAF09150A1F0FF0FBB1F661F01
:10195000771F881FC2F70EC0BA0F621F731F841F44
:1019600048F4879577956795B795F7959E3F08F06A
:10197000B3CF9395880F08F09927EE0F9795879529
:101980000895D9D008F481E008950CD00FC107D193
:1019900040F0FED030F021F45F3F19F0F0C051115B
:1019A00039C1F3C014D198F39923C9F35523B1F386
:1019B000951B550BBB27AA2762177307840738F0BE
:1019C0009F5F5F4F220F331F441FAA1FA9F333D01D
:1019D0000E2E3AF0E0E830D091505040E695001CD1
:1019E000CAF729D0FE2F27D0660F771F881FBB1F8D
:1019F000261737074807AB07B0E809F0BB0B802D67
:101A0000BF01FF2793585F4F2AF09E3F510568F0B2
:101A1000B6C000C15F3FECF3983EDCF38695779546
:101A20006795B795F7959F5FC9F7880F911D9695B4
:101A3000879597F90895E1E0660F771F881FBB1F10
:101A4000621773078407BA0720F0621B730B840BBD
:101A5000BA0BEE1F88F7E095089504D06894B11191
:101A6000D9C00895BCD088F09F5790F0B92F99271E
:101A7000B751A0F0D1F0660F771F881F991F1AF099
:101A8000BA95C9F712C0B13081F0C3D0B1E0089562
:101A9000C0C0672F782F8827B85F39F0B93FCCF3E3
:101AA000869577956795B395D9F73EF4909580958F
:101AB000709561957F4F8F4F9F4F0895E89409C0AF
:101AC00097FB3EF490958095709561957F4F8F4F71
:101AD0009F4F9923A9F0F92F96E9BB279395F69587
:101AE000879577956795B795F111F8CFFAF4BB0F05
:101AF00011F460FF1BC06F5F7F4F8F4F9F4F16C069
:101B0000882311F096E911C0772321F09EE8872FF2
:101B1000762F05C0662371F096E8862F70E060E0AE
:101B20002AF09A95660F771F881FDAF7880F969527
:101B3000879597F90895990F0008550FAA0BE0E8CB
:101B4000FEEF16161706E807F907C0F0121613067F
:101B5000E407F50798F0621B730B840B950B39F4BF
:101B60000A2661F0232B242B252B21F408950A2625
:101B700009F4A140A6958FEF811D811D089597F965
:101B80009F6780E870E060E008959FEF80EC089523
:101B900000240A941616170618060906089500244C
:101BA0000A9412161306140605060895092E0394C6
:101BB000000C11F4882352F0BB0F40F4BF2B11F43A
:101BC00060FF04C06F5F7F4F8F4F9F4F089557FD99
:101BD0009058440F551F59F05F3F71F04795880F9B
:101BE00097FB991F61F09F3F79F087950895121632
:101BF00013061406551FF2CF4695F1DF08C01616DE
:101C000017061806991FF1CF86957105610508948E
:101C10000895E894BB2766277727CB0197F90895A5
:101C20008ADF08F48FEF08950BD0C0CFB1DF28F022
:101C3000B6DF18F0952309F0A2CFA7CF1124EACF81
:101C4000C6DFA0F3959FD1F3950F50E0551F629F1B
:101C5000F001729FBB27F00DB11D639FAA27F00D05
:101C6000B11DAA1F649F6627B00DA11D661F829F2C
:101C70002227B00DA11D621F739FB00DA11D621F11
:101C8000839FA00D611D221F749F3327A00D611D2E
:101C9000231F849F600D211D822F762F6A2F112410
:101CA0009F5750408AF0E1F088234AF0EE0FFF1F63
:101CB000BB1F661F771F881F91505040A9F79E3F9A
:101CC000510570F05CCFA6CF5F3FECF3983EDCF39C
:101CD000869577956795B795F795E7959F5FC1F7D7
:101CE000FE2B880F911D9695879597F90895991B5E
:101CF00079E004C0991F961708F0961B881F7A9503
:101D0000C9F78095089597FB072E16F4009406D026
:101D100077FD08D014D007FC05D03EF4909581954E
:101D20009F4F0895709561957F4F0895EE0FFF1FA7
:101D30000024001C0BBE0790F691E02D0994AA1B0D
:101D4000BB1B51E107C0AA1FBB1FA617B70710F0A6
:101D5000A61BB70B881F991F5A95A9F780959095D8
:101D6000BC01CD010895FC0188279927E8942191B1
:101D70002032E9F3293010F02E30C8F32B3239F03D
:101D80002D3231F4689403C00BD0820F911D219144
:101D900020532A30C8F31EF4909581959F4F0895E3
:101DA0007AE0979F902D879F802D910D11240895A3
:101DB000CF93DF93CDB7DEB7AE014B5F5F4FFA0134
:101DC00061917191AF01809134069091350638D0C0
:101DD000DF91CF910895609134067091350643C22A
:101DE0000F931F93CF93DF93E0913406F091350664
:101DF000238121FF1BC08C01D0E0C0E0F80181915C
:101E00008F016091340670913506DB011896ED91D3
:101E1000FC911997882331F00995892B79F3DFEF2D
:101E2000CFEFECCF8AE00995892B19F08FEF9FEF68
:101E300002C08D2F9C2FDF91CF911F910F9108959C
:101E40002F923F924F925F926F927F928F929F92CA
:101E5000AF92BF92CF92DF92EF92FF920F931F93B8
:101E6000CF93DF93CDB7DEB72B970FB6F894DEBFD5
:101E70000FBECDBF6C017B018A01FC011782168267
:101E8000838181FFBFC1CE0101963C01F6019381A0
:101E9000F70193FD859193FF81917F01882309F4D8
:101EA000ADC1853239F493FD859193FF81917F0116
:101EB000853221F4B60190E0D6D1E8CF912C212CC7
:101EC000312CFFE1F315D8F08B3279F038F4803201
:101ED00079F08332A1F4232D20611DC08D3261F091
:101EE000803369F4232D216016C0832D8260382E43
:101EF000E32DE4603E2E2AC0F32DF8601DC037FCB0
:101F00002DC020ED280F2A3040F08E32B9F436FC77
:101F100075C1232D2064322E19C036FE06C08AE01A
:101F2000989E200D1124922E11C0EAE02E9E200DC5
:101F30001124222EF32DF0623F2E08C08C3621F49E
:101F4000832D8068382E02C0883641F4F70193FD56
:101F5000859193FF81917F018111B3CF982F9F7D50
:101F60009554933028F40C5F1F4F9FE399830DC065
:101F7000833631F0833771F0833509F055C020C0C6
:101F8000F801808189830E5F1F4F88248394912CF0
:101F9000530112C02801F2E04F0E511CF801A0803D
:101FA000B18036FE03C0692D70E002C06FEF7FEF95
:101FB000C5014ED14C018201F32DFF773F2E15C094
:101FC000280122E0420E511CF801A080B18036FEAB
:101FD00003C0692D70E002C06FEF7FEFC5012DD106
:101FE0004C01F32DF0683F2E820133FC19C0822D85
:101FF00090E088169906A0F4B60180E290E033D113
:102000002A94F5CFF50137FC859137FE81915F0168
:10201000B60190E028D121102A9421E0821A91087B
:102020008114910479F7E1C0843611F0893639F5CD
:10203000F80137FE07C060817181828193810C5F56
:102040001F4F08C060817181072E000C880B990B0F
:102050000E5F1F4FF32DFF763F2E97FF09C090951F
:102060008095709561957F4F8F4F9F4FF0683F2E01
:102070002AE030E0A30133D1882E861844C085378A
:1020800031F4232D2F7EB22E2AE030E025C0932D8F
:10209000997FB92E8F36C1F018F4883579F0AEC02B
:1020A000803719F0883721F0A9C0E92FE061BE2EF2
:1020B000B4FE0DC0FB2DF460BF2E09C034FE0AC073
:1020C000292F2660B22E06C028E030E005C020E1AE
:1020D00030E002C020E132E0F801B7FE07C06081C5
:1020E0007181828193810C5F1F4F06C06081718175
:1020F00080E090E00E5F1F4FA301F1D0882E86187C
:10210000FB2DFF773F2E36FE0DC0232D2E7FA22EF6
:10211000891458F434FE0BC032FC09C0832D8E7E26
:10212000A82E05C0B82CA32C03C0B82C01C0B92C14
:10213000A4FE0FC0FE01E80DF11D8081803321F463
:102140009A2D997EA92E09C0A2FE06C0B394B3941D
:1021500004C08A2D867809F0B394A3FC10C0A0FEB9
:1021600006C0B21480F4280C922C9B180DC0B21437
:1021700058F4B60180E290E076D0B394F8CFB21470
:1021800018F42B1802C0982C212CA4FE0FC0B60105
:1021900080E390E068D0A2FE16C0A1FC03C088E7EF
:1021A00090E002C088E590E0B6010CC08A2D8678E8
:1021B00051F0A1FE02C08BE201C080E2A7FC8DE2DB
:1021C000B60190E050D0891430F4B60180E390E07D
:1021D0004AD09A94F8CF8A94F301E80DF11D8081DA
:1021E000B60190E040D08110F6CF222009F44ECE07
:1021F000B60180E290E037D02A94F7CFF6018681CD
:10220000978102C08FEF9FEF2B960FB6F894DEBF39
:102210000FBECDBFDF91CF911F910F91FF90EF9037
:10222000DF90CF90BF90AF909F908F907F906F90F6
:102230005F904F903F902F900895FC010590615062
:1022400070400110D8F7809590958E0F9F1F0895CC
:10225000FC016150704001900110D8F78095909575
:102260008E0F9F1F08950F931F93CF93DF93FB0152
:10227000238121FD03C08FEF9FEF2CC022FF16C0EA
:1022800046815781248135814217530744F4A08148
:10229000B1819D012F5F3F4F318320838C93268135
:1022A00037812F5F3F4F3783268314C08B01EC01AA
:1022B000FB010084F185E02D0995892BE1F6D80119
:1022C00016968D919C911797019617969C938E93D5
:1022D0001697CE01DF91CF911F910F910895FA01CA
:1022E000AA27283051F1203181F1E8946F936E7F55
:1022F0006E5F7F4F8F4F9F4FAF4FB1E03ED0B4E046
:102300003CD0670F781F891F9A1FA11D680F791F86
:102310008A1F911DA11D6A0F711D811D911DA11D97
:1023200020D009F468943F912AE0269F11243019A7
:10233000305D3193DEF6CF010895462F4770405D42
:102340004193B3E00FD0C9F7F6CF462F4F70405DF1
:102350004A3318F0495D31FD4052419302D0A9F74C
:10236000EACFB4E0A6959795879577956795BA9546
:10237000C9F700976105710508959B01AC010A2E0C
:1023800006945795479537952795BA95C9F7620FE3
:0E239000731F841F951FA01D0895F894FFCFA2
:10239E000000484200000003000000001B069E06DD
:1023AE00000000000000000000000000000000001F
:1023BE0000000000003200000001000000000000DC
:1023CE000A43555252454E5420636F6E74726F6CB1
:1023DE00206D6F6465206163746976617465642E27
:1023EE00000A50574D20636F6E74726F6C206D6FC4
:1023FE006465206163746976617465642E000A54A5
:10240E0075726E696E67206F66662E00447269760D
:10241E006572732064656163746976617465642E98
:10242E00000A2043414E20636F6E74726F6C206DF4
:10243E006F64652E2073656E64696E6720646174C7
:10244E00612E0055415254206D657373616765208E
:10245E006D6F6465206163746976617465642E0ABC
:10246E0000666F722043555252454E5420636F6E74
:10247E0074726F6C206D6F64652C20777269746551
:10248E003A2031312C20666F6C6C6F776564206258
:10249E0079206120737061636500666F72205057FA
:1024AE004D20636F6E74726F6C206D6F64652C209F
:1024BE0077726974653A202020202031322C2066F4
:1024CE006F6C6C6F77656420627920612073706128
:1024DE00636500746F207475726E204F46462C2013
:1024EE0077726974653A2020202020202020202039
:1024FE002020202031332C20666F6C6C6F77656442
:10250E0020627920612073706163650A00496E2034
:10251E0043555252454E542C20666F7220616363B0
:10252E00656C65726174696F6E206F722062726184
:10253E006B696E672C2077726974652074686520EC
:10254E006E756D626572206F6620416D7073202806
:10255E00696E7465676572732C205B2D3130203186
:10256E00305D292C20666F6C6C6F77656420627904
:10257E0020612073706163650A00496E2050574DCB
:10258E002C2077726974652074686520647574797F
:10259E00206379636C652028696E74656765727354
:1025AE002C205B352039355D292C20666F6C6C6FC5
:1025BE0077656420627920612073706163650057CE
:1025CE00656C636F6D6520746F207468652055416E
:1025DE00525420696E74657266616365206F662061
:1025EE006D6F746F722064726976652076322E314B
:1025FE002E00546F20757365207468652043414E1C
:10260E002062757320617320636F6E74726F6C201D
:10261E006D656469756D2C20747970653A20312072
:10262E00666F6C6C6F7765642062792061207370C1
:10263E006163652E00546F20757365207468652084
:10264E005541525420617320636F6E74726F6C200B
:10265E006D656469756D2C20747970653A20202043
:10266E00203220666F6C6C6F776564206279206112
:0E267E002073706163652E00256900257500CC
:00000001FF
