:1000000051C000006DC000006BC0000069C000005E
:1000100067C0000065C00000C2C6000061C00000EB
:100020005FC000005DC000005BC0000059C0000060
:100030005CC6000055C0000053C0000051C0000065
:10004000B8C500000C94D30A0C949D0849C0000068
:1000500047C00000E4C40000C4C4000041C0000068
:100060003FC000003DC000003BC0000039C00000A0
:1000700037C0000035C0000033C0000031C00000B0
:1000800007C50000E7C400002BC0000029C0000025
:1000900027C0000082088408860888088A088F081C
:1000A0009308970811241FBECFEFD0E1DEBFCDBF6C
:1000B00011E0A0E0B1E0E6EEFFE100E00BBF02C01E
:1000C00007900D92A433B107D9F723E0A4E3B1E080
:1000D00001C01D92AC37B207E1F71CD50C94F10FAB
:1000E0008FCF2C9A08951092390110923A011092F4
:1000F0003B0110923C0108954F925F926F927F9264
:100100008F929F92AF92BF92CF92DF92EF92FF9227
:100110000F931F93CF93DF934B015C0129013A01A9
:10012000E801E11077C0C0900001D0900101E0909B
:100130000201F090030120E030E04EEB52E4C701F1
:10014000B6010E94BC0C87FF0AC020E030E048E402
:1001500052E4C701B6010E946D0B181624F081E02D
:100160008093340102C010923401A3019201C501B1
:10017000B4010E94080B6B017C0160933501709300
:1001800036018093370190933801809134018111B9
:100190001CC02AE037ED43E25CE3C701B6010E94D0
:1001A000C00C9B01AC016091390170913A018091C2
:1001B0003B0190913C010E94090B609339017093BF
:1001C0003A0180933B0190933C0123E333E343E7FF
:1001D00052E46091390170913A0180913B01909114
:1001E0003C010E94C00C4B015C0129EF3FE049E754
:1001F0005FE3C701B6010E94C00C9B01AC01C501C1
:10020000B4010E94090B20E030E048E452E40E946F
:10021000090B09C081E0E8120EC0688170E080E03F
:1002200090E00E940A0C609300017093010180939A
:1002300002019093030120E030E04EEB52E4609124
:1002400000017091010180910201909103010E94CF
:10025000BC0C181664F480E090E0AEEBB2E480933E
:10026000000190930101A0930201B093030120E0EB
:1002700030E048E452E46091000170910101809106
:100280000201909103010E946D0B87FF0CC080E07A
:1002900090E0A8E4B2E48093000190930101A09360
:1002A0000201B0930301C0900001D0900101E090E1
:1002B0000201F090030120E030E048EC52E4C70175
:1002C000B6010E94710B4B015C0160919600709128
:1002D000970080E090E00E940A0CA50194010E9422
:1002E000C00C0E94D90B70939900609398006091A4
:1002F000960070919700009196001091970080E011
:1003000090E00E940A0C2B013C01B80180E090E0D3
:100310000E940A0CA50194010E94C00C9B01AC0133
:10032000C301B2010E94080B0E94D90B70939B007D
:1003300060939A00C701B6010E94DE0B6883DF91CB
:10034000CF911F910F91FF90EF90DF90CF90BF90D2
:10035000AF909F908F907F906F905F904F90089597
:10036000249A08958111BDCE2C9808958F929F9262
:10037000AF92BF92EF920F931F93CF93DF93EC0155
:100380001E89123071F040F41123B1F1113009F0DF
:100390003AC0A7DE1A8F1EC01330C9F0143061F1C5
:1003A00032C09FDE81E08A8F8E010D5E1F4F8880F4
:1003B0009980AA80BB806A8970E071956195710906
:1003C000072E000C880B990B0E940C0C10C089DEC4
:1003D00081E08A8F8E010D5E1F4F88809980AA80F0
:1003E000BB806A8970E080E090E00E940A0CEB8C90
:1003F000A501940181DE07C080E0B4DF1A8E73DEB0
:100400001A8A82E38B8BDF91CF911F910F91EF902E
:10041000BF90AF909F908F900895CF93DF93EC01A2
:1004200060E471E080E064D621E043E050E06DE3F9
:1004300071E080E491E00E94B70AEDE3F1E06181B0
:100440006F71618370E0762F66278281682B40E0B0
:10045000CE01DF91CF91BAC4CF93DF93EC0160E47A
:1004600071E081E045D621E043E050E06DE371E0CA
:1004700080E491E00E94B70AEDE3F1E061816F71E1
:10048000618370E0762F66278281682B41E0CE0180
:10049000DF91CF919BC4CF93DF93EC0160E471E0D7
:1004A00082E026D621E043E050E06DE371E080E495
:1004B00091E00E94B70AEDE3F1E061816F71618321
:1004C00070E0762F66278281682B80E090E00E94A2
:1004D0000A0C23E333E344E852E40E94710B24EA5C
:1004E00030E74DEB5EE30E94080B688379838A83D3
:1004F0009B83DF91CF910895CF93DF93EC0160E46C
:1005000071E084E0F5D521E043E050E06DE371E077
:1005100080E491E00E94B70AEDE3F1E061816F7140
:10052000618370E0762F66278281682BCE01DF9190
:10053000CF91BFC40F931F93CF93DF93EC018B0137
:10054000CB013BD7882309F44AC08E89843009F453
:1005500046C0F801808191818033924009F03FC00C
:1005600088EC90E09D8B8C8BF80186818B30E0F0DD
:1005700081E08E8B8B8D813021F48681885D8B8B21
:1005800016C0811114C0F801668170E080E090E02F
:100590000E940C0C20E030E040E251E40E94710B1C
:1005A0000E94DE0B6A8B03C083E08E8B1A8AF801EF
:1005B00085818A31A0F08E89833089F482E08E8B28
:1005C000658170E080E090E00E940C0C20E030E05B
:1005D00040E251E40E94710B0E94DE0B6A8BDF91B6
:1005E000CF911F910F9108950F931F93CF93DF9396
:1005F00020E534E03093E4022093E30228E02093E6
:10060000E502FC012081222361F1EB018C018E893E
:100610008093E6021092E702688179818A819B814A
:100620000E94DE0B7093E9026093E80220E030E064
:100630004AE754E46C857D858E859F850E94C00CB9
:100640000E94DE0B7093EB026093EA02298930E08E
:100650003093ED022093EC0283EE92E0EED6F801A7
:100660001082DF91CF911F910F910895EF92FF9229
:100670000F931F93CF93DF93CDB7DEB720E030E029
:100680004AE754E46D857E858F8598890E94C00C69
:100690000E94D90B7F936F938EE2E82E81E0F82EB3
:1006A000FF92EF920E942C0D8CE290E00E943F0D91
:1006B00020E030E04AE754E469897A898B899C8993
:1006C0000E94C00C0E94DE0B7F936F9301E311E048
:1006D0001F930F930E942C0D8CE290E00E943F0D1F
:1006E00020E030E04AE754E469857A858B859C8573
:1006F0000E94C00C0E94D90B7F936F93FF92EF92E0
:100700000E942C0D8CE290E00E943F0D8C8D1F9278
:100710008F931F930F930E942C0D8CE290E00E9408
:100720003F0D8B8D1F928F931F930F930E942C0D63
:100730000FB6F894DEBF0FBECDBF8AE090E0DF9128
:10074000CF911F910F91FF90EF900C943F0DCF939D
:10075000DF93CDB7DEB78B8D8230B1F028F48823DC
:1007600069F0813089F020C08330B1F08430E1F449
:1007700080E4DDD680E8DBD680E213C080E4D7D603
:1007800080E2D5D680E80DC080E2D1D680E8CFD611
:1007900080E4DF91CF91D9C680E2C9D680E8C7D680
:1007A00080E4DF91CF91CCC6DF91CF9108956D9811
:1007B0007598ED98EAE6F0E080818C608083E59A98
:1007C000ED9A08958F929F92AF92BF92CF92DF924F
:1007D000EF92FF920F931F93CF93DF931F92CDB7AA
:1007E000DEB76C017B018A01FB016081718180E0D1
:1007F00090E00E940A0C20E030E04AEF53E40E94AF
:10080000C00C23EC35EF48E450E40E94C00C4B01CF
:100810005C01B80180E090E0FDD79B01AC01C5010F
:10082000B4015FD7CBD769838981F6018083F70153
:10083000118210820F90DF91CF911F910F91FF9045
:10084000EF90DF90CF90BF90AF909F908F900895E2
:10085000CF93DF938EB1877E8EB98DB188618DB9CC
:10086000A1E9B0E08C9180618C938C91877F8C930F
:10087000E0E9F0E080818260808380818E7F8083E8
:1008800080818068808380818F7B8083808180628B
:10089000808380818F7E80838C9181608C938C910A
:1008A000897F8C93C6E9D0E085E890E099838883BE
:1008B0006881798180E090E0ADD720E030E040E0D1
:1008C0005FE30E94C00C75D7E8E9F0E071836083B4
:1008D0008881998120813181821B930B90939B00A9
:1008E00080939A00DF91CF91089590913103939571
:1008F0009F71B0910F03B917E1F3A92FB0E0AA5A85
:10090000BC4F8C93F894909331039091C100906206
:100910009093C10018959091550393959F71B09154
:100920005303B917E1F3A92FB0E0AF5EBC4F8C932E
:10093000F894909355039091C90090629093C900E8
:100940001895CF93C82FFB0184859585019739F0C1
:10095000CA3011F48DE0C9DF8C2FC7DF06C0CA3062
:1009600011F48DE0D8DF8C2FD6DF80E090E0CF91BE
:1009700008959091100380915203981759F09F5F4A
:100980009F71A92FB0E0A251BD4F8C91909310039D
:1009900090E008958FEF9FEF089590910E0380915E
:1009A0005403981759F09F5F9F71A92FB0E0AE5C78
:1009B000BC4F8C9190930E0390E008958FEF9FEFC2
:1009C0000895FC0184859585019729F0D2DF97FD74
:1009D000FDCF8BDF04C0E1DF97FDFDCF9CDF90E012
:1009E00008950F930FB7EF93FF93E0910F03F091EA
:1009F0003103E395EF71EF1305C0F091C100FF7D66
:100A0000F093C100E0930F03F0E0EA5AFC4FE0815D
:100A1000E093C600FF91EF910FBF0F9118950F93D0
:100A20000FB79F939091C600EF93FF93E09152030D
:100A3000F0911003E395EF71FE1731F0E09352034C
:100A4000F0E0E251FD4F9083FF91EF919F910FBF36
:100A50000F9118950F930FB7EF93FF93E091530306
:100A6000F0915503E395EF71EF1305C0F091C900C4
:100A7000FF7DF093C900E0935303F0E0EF5EFC4F7D
:100A8000E081E093CE00FF91EF910FBF0F91189599
:100A90000F930FB79F939091CE00EF93FF93E09148
:100AA0005403F0910E03E395EF71FE1731F0E093DC
:100AB0005403F0E0EE5CFC4F9083FF91EF919F9127
:100AC0000FBF0F911895E1E8F0E08081836080838B
:100AD0008081886080831092850010928400EFE608
:100AE000F0E08081826080838DE790E090938900C0
:100AF00080938800089584B5856084BD84B588603E
:100B000084BD16BCEEE6F0E080818260808387E2DF
:100B100087BD0895F8940FD59BDE60E070E080E01B
:100B200090E0F8D3D0DFE7DF42DE80E012D510920C
:100B3000C4001092C50088E98093C10084E091E070
:100B4000909379038093780390937703809376034F
:100B500007DC789462E171E086E491E045DD68EDC0
:100B600072E082E191E0E6DC809145018823E9F0C2
:100B70008DB79EB74C970FB6F8949EBF0FBE8DBF32
:100B8000ADB7BEB711968CE1E2E1F1E001900D92B4
:100B90008A95E1F76BDD109245018DB79EB74C96B3
:100BA0000FB6F8949EBF0FBE8DBF82E191E03AD29E
:100BB000D1CF1F920F920FB60F9211240BB60F9246
:100BC000EF920F931F932F933F934F935F936F93E6
:100BD0007F938F939F93AF93BF93EF93FF938091F6
:100BE0004901813081F580934501809126019091E2
:100BF0002701009739F480912801843061F0109228
:100C0000280109C020912D01211105C00197909361
:100C100027018093260100911A0110911B01209158
:100C20001C0130911D0140911601509117016091F6
:100C30001801709119018AE0E82E8EE191E0BBD194
:100C40001092490103C08F5F809349018091470151
:100C5000909148018436910551F581E080934601D9
:100C600044EF51E062E471E083E291E0ABDD8DB7E7
:100C70009EB74C970FB6F8949EBF0FBE8DBFADB711
:100C8000BEB711968CE1E2E1F1E001900D928A95F8
:100C9000E1F75DDD10924801109247018DB79EB7D4
:100CA0004C960FB6F8949EBF0FBE8DBF05C001963F
:100CB000909348018093470182E191E057DBFF91D7
:100CC000EF91BF91AF919F918F917F916F915F91C4
:100CD0004F913F912F911F910F91EF900F900BBE6D
:100CE0000F900FBE0F901F9018951F920F920FB686
:100CF0000F9211240BB60F922F933F934F935F9354
:100D00006F937F938F939F93AF93BF93EF93FF93D3
:100D100080914401843029F482E291E0EDDB10926D
:100D2000440180914401833019F484E080934401AC
:100D300080914401823041F48AE191E0ACDB809102
:100D400044018F5F8093440180914401813041F4DC
:100D500086E191E081DB809144018F5F80934401C3
:100D600080914401811108C082E191E056DB8091BD
:100D700044018F5F80934401FF91EF91BF91AF9148
:100D80009F918F917F916F915F914F913F912F91A3
:100D90000F900BBE0F900FBE0F901F9018951F92D3
:100DA0000F920FB60F9211248F939F93809142015F
:100DB00090914301019690934301809342019F914A
:100DC0008F910F900FBE0F901F9018958F929F924A
:100DD000AF92BF92CF92DF92EF92FF920F931F9349
:100DE000CF93DF9300D000D0CDB7DEB78C01F42EC7
:100DF00080E090E00FD520E030E040EA50E4C0D53C
:100E000020E030E040E859E3BBD52EEA37E441E288
:100E100050E4FED323EC34E64AE25DE362D4698316
:100E20007A838B839C8369817A818B819C81FF206B
:100E300029F020E030E040E85FE304C02CEE31E52B
:100E400048E95FE3E6D369837A838B839C83898057
:100E50009A80AB80BC8026E636E646E65FE3F80182
:100E600060817181828193818BD56B017C012DEC36
:100E70003CEC4CEC5DE3C501B40182D59B01AC01B7
:100E8000C701B601C6D3F80160837183828393835F
:100E90000F900F900F900F90DF91CF911F910F91B6
:100EA000FF90EF90DF90CF90BF90AF909F908F908A
:100EB00008950F931F93CF93DF9300D000D0CDB749
:100EC000DEB78C0180E090E0A5D420E030E040EA7D
:100ED00050E456D520E030E040E859E351D569832D
:100EE0007A838B839C8369817A818B819C812DECB1
:100EF0003CEC4CE650E4F1D318168CF069817A8111
:100F00008B819C8120E030E040EA51E439D520E03B
:100F100030E040EB51E47CD351D4F8016083698127
:100F20007A818B819C8126E636E646E950E4D5D36A
:100F30001816E4F069817A818B819C812DEC3CEC60
:100F40004CE650E419D518168CF469817A818B81AE
:100F50009C8120E030E04EE552E412D520E030E8FC
:100F60004BE153E455D32AD4F801608369817A8137
:100F70008B819C8126E636E646E950E4FDD41816BE
:100F80008CF469817A818B819C8120E030E048E497
:100F900053E4F6D420E030E042E554E439D30ED4F3
:100FA000F80160830F900F900F900F90DF91CF9119
:100FB0001F910F9108958F929F92AF92BF92EF92DF
:100FC0000F931F93CF93DF93EC014A015B01C9019B
:100FD000B801A5019401D4D44B015C016E2D70E0E1
:100FE00080E090E017D49B01AC01C501B401C8D4E6
:100FF00020E030E04AE754E474D39B01AC016881FF
:1010000079818A819B8105D3688379838A839B83D5
:10101000DF91CF911F910F91EF90BF90AF909F9074
:101020008F900895CF92DF92EF92FF921F93CF930C
:10103000DF93EC01C884D984EA84FB8420E030E0AB
:1010400040E751E4C701B60148D387FD09C020E05D
:1010500030E048EC52E4C701B6018ED4181624F4EF
:101060008E89843009F01E8A20E030E048EC52E49A
:10107000C701B60132D3188987FF18C020E030E0DD
:1010800040E751E4688179818A819B8175D487FF2B
:101090000BC020E030E04CE552E4C701B6016CD44F
:1010A000181614F0143610F084E08E8B1436C0F449
:1010B0008E898430A9F420E030E040E751E4688173
:1010C00079818A819B8109D387FF0AC020E030E0C3
:1010D0004CE552E4C701B60100D318160CF01E8A85
:1010E000DF91CF911F91FF90EF90DF90CF90089507
:1010F000DB01482F50E048305105F0F4FA01E65B7F
:10110000FF4FA1C486E007C086E00AC086E00CC09D
:1011100086E00EC087E08C9311961C92089587E0BC
:101120008C9380E407C087E08C9380E803C087E05D
:101130008C9380EC11968C9308951F920F920FB6AA
:101140000F9211240BB60F922F933F934F935F93FF
:101150008F939F93EF93FF93CF93DF931F92CDB71E
:10116000DEB78091E00080FF4EC09091DE0090FFDE
:101170004AC01092ED008091EE0089838091EE00CC
:101180008F7B8093EE0080914F0190914E019817D4
:10119000B9F18F702BE0829FC0011124FC01E05057
:1011A000FE4F20812093F00020812093F2002181C6
:1011B0002093F30023812093FA0024812093FA00E6
:1011C00025812093FA0026812093FA00278120931D
:1011D000FA0020852093FA0021852093FA002285C9
:1011E0002093FA00FC01EE5FFD4F80818F708064D8
:1011F0008093EF0080914F018F5F80934F0178C003
:1012000010924D0175C081FF73C08091DE0081FF97
:101210006FC080E18093ED0090914B01292F30E069
:1012200080914C01281B31092F773327203131055C
:101230000CF052C0E92FEF708091EF002BE0E29F9D
:10124000F0011124E05BFE4F282F2F708281807FF8
:10125000822B82832091F2008091F000207E8770A3
:10126000822B80834091F30041835091FA00538395
:101270002091FA0024832091FA0025832091FA001E
:1012800026832091FA0027832091FA00208720915D
:10129000FA0021872091FA0022879F5F90934B01EB
:1012A000829586958770942F990F990F990F292F02
:1012B000282B342F329536953770232B69F4533011
:1012C00059F498E088E10FB6F894A89580936000EF
:1012D0000FBE90936000FFCF8091EE0089838981DB
:1012E0008091EE008F7D8093EE0080E88093EF0088
:1012F0000F90DF91CF91FF91EF919F918F915F912F
:101300004F913F912F910F900BBE0F900FBE0F90FA
:101310001F901895CF93DF93E8EDF0E021E0208354
:101320001092E2002CE02093E30027E32093E400F6
:101330001092E7001092E6001092E9001092E80087
:101340001092EC001092E500CDEED0E01882AEEEE7
:10135000B0E01C9220E128831C921092F400282F08
:101360002295220F207E2093F60023E09695879504
:101370002A95E1F78093F7001092F000862F82956E
:10138000880F807E8093F20033E0769567953A95DA
:10139000E1F76093F30080E88093EF0083E08093AF
:1013A000DC008093DE0080EB8093DB0082E08083B2
:1013B00010924A01DF91CF910895FC0120914C01D8
:1013C00080914B018217B9F1622F6F708BE0689F9B
:1013D000A0011124DA01A05BBE4F8C918295869505
:1013E000877011969C91392F330F330F330F832B56
:1013F00092959695977080839183DA01AE5ABE4F8D
:101400008C918F7082833396BA0140E050E090E077
:10141000481759075CF4DA01A60FB71FA05BBE4F4F
:1014200013963C9131934F5F5F4FF2CF2F5F209324
:101430004C0181E0089580E00895CF93DF93FC0193
:101440008091DB008F778093DB0080914D018111CB
:1014500023C01092ED0080818295880F807E80935A
:10146000F2008081918123E0969587952A95E1F796
:101470008093F300DF011396CF010B962D912093FB
:10148000FA00A817B907D1F781E080934D01828156
:1014900080648093EF0040C020914E01822F90E045
:1014A00030914F01831B91098F7799274097B1F1B4
:1014B000A22FAF708BE0A89FD0011124ED01C05086
:1014C000DE4F8081982F9295990F907E88818F7141
:1014D000892B88838081982F9695969596958981FA
:1014E000807E892B898391819295990F907E8F714F
:1014F000892B89838281982F9F708A81807F892B95
:101500008A83AD5FBD4F339688E001900D928A9536
:10151000E1F72F5F20934E0181E001C080E09091C0
:10152000DB0090689093DB00DF91CF91089595B137
:10153000892B85B9089584B1806E84B980EEF7CF88
:1015400095B18095982395B9089595B1892785B966
:10155000089594B1976094B982FB992790F98370AC
:1015600080658CBD8CB5837F8CBD9DBD089528980A
:10157000FB01DC01460F571FE417F50789F00097C0
:1015800011F03C9101C03FEF3EBD0DB407FEFDCF11
:101590006115710511F03EB5308331961196ECCF8F
:1015A0002111289A08951F920F920FB60F921124BD
:1015B0000BB60F928F939F93AF93BF93CF93DF930D
:1015C000EF93FF93C0EDD2E0E0EBF2E08991882346
:1015D00059F080819181A281B381905EAF4FBF4F5E
:1015E00080839183A283B383349682E0E03DF80741
:1015F00069F7FF91EF91DF91CF91BF91AF919F91EB
:101600008F910F900BBE0F900FBE0F901F901895EB
:101610005058BB27AA270ED075C166D130F06BD1C8
:1016200020F031F49F3F11F41EF45BC10EF4E095FD
:10163000E7FB51C1E92F77D180F3BA17620773072F
:101640008407950718F071F49EF58FC10EF4E095AC
:101650000B2EBA2FA02D0B01B90190010C01CA016C
:10166000A0011124FF27591B99F0593F50F4503E17
:1016700068F11A16F040A22F232F342F4427585F09
:10168000F3CF469537952795A795F0405395C9F721
:101690007EF41F16BA0B620B730B840BBAF09150D9
:1016A000A1F0FF0FBB1F661F771F881FC2F70EC078
:1016B000BA0F621F731F841F48F48795779567954B
:1016C000B795F7959E3F08F0B3CF9395880F08F034
:1016D0009927EE0F979587950895D9D008F481E062
:1016E00008950CD00FC107D140F0FED030F021F4A6
:1016F0005F3F19F0F0C0511139C1F3C014D198F314
:101700009923C9F35523B1F3951B550BBB27AA2782
:1017100062177307840738F09F5F5F4F220F331FF4
:10172000441FAA1FA9F333D00E2E3AF0E0E830D0C0
:1017300091505040E695001CCAF729D0FE2F27D0C3
:10174000660F771F881FBB1F261737074807AB0791
:10175000B0E809F0BB0B802DBF01FF2793585F4F06
:101760002AF09E3F510568F0B6C000C15F3FECF320
:10177000983EDCF3869577956795B795F7959F5FCB
:10178000C9F7880F911D9695879597F90895E1E01F
:10179000660F771F881FBB1F621773078407BA077E
:1017A00020F0621B730B840BBA0BEE1F88F7E095D9
:1017B000089504D06894B111D9C00895BCD088F0C0
:1017C0009F5790F0B92F9927B751A0F0D1F0660F2D
:1017D000771F881F991F1AF0BA95C9F712C0B13048
:1017E00081F0C3D0B1E00895C0C0672F782F88275B
:1017F000B85F39F0B93FCCF3869577956795B39587
:10180000D9F73EF490958095709561957F4F8F4FF5
:101810009F4F0895E89409C097FB3EF490958095FA
:10182000709561957F4F8F4F9F4F9923A9F0F92FA6
:1018300096E9BB279395F695879577956795B79524
:10184000F111F8CFFAF4BB0F11F460FF1BC06F5F0A
:101850007F4F8F4F9F4F16C0882311F096E911C01C
:10186000772321F09EE8872F762F05C0662371F03D
:1018700096E8862F70E060E02AF09A95660F771F51
:10188000881FDAF7880F9695879597F90895990F2D
:101890000008550FAA0BE0E8FEEF16161706E8073A
:1018A000F907C0F012161306E407F50798F0621B5B
:1018B000730B840B950B39F40A2661F0232B242B30
:1018C000252B21F408950A2609F4A140A6958FEF4F
:1018D000811D811D089597F99F6780E870E060E0A1
:1018E00008959FEF80EC089500240A9416161706B9
:1018F00018060906089500240A9412161306140601
:1019000005060895092E0394000C11F4882352F063
:10191000BB0F40F4BF2B11F460FF04C06F5F7F4F1B
:101920008F4F9F4F089557FD9058440F551F59F002
:101930005F3F71F04795880F97FB991F61F09F3FBC
:1019400079F087950895121613061406551FF2CFE5
:101950004695F1DF08C0161617061806991FF1CF35
:1019600086957105610508940895E894BB2766275C
:101970007727CB0197F908958ADF08F48FEF089550
:101980000BD0C0CFB1DF28F0B6DF18F0952309F0F7
:10199000A2CFA7CF1124EACFC6DFA0F3959FD1F342
:1019A000950F50E0551F629FF001729FBB27F00D0D
:1019B000B11D639FAA27F00DB11DAA1F649F662762
:1019C000B00DA11D661F829F2227B00DA11D621FB1
:1019D000739FB00DA11D621F839FA00D611D221F6B
:1019E000749F3327A00D611D231F849F600D211D4F
:1019F000822F762F6A2F11249F5750408AF0E1F0F2
:101A000088234AF0EE0FFF1FBB1F661F771F881F3A
:101A100091505040A9F79E3F510570F05CCFA6CF82
:101A20005F3FECF3983EDCF3869577956795B79525
:101A3000F795E7959F5FC1F7FE2B880F911D96954F
:101A4000879597F90895EE0FFF1F0024001C0BBE29
:101A50000790F691E02D0994CF93DF93CDB7DEB7D1
:101A6000AE014B5F5F4FFA0161917191AF018091BF
:101A700078039091790308D0DF91CF910895609118
:101A800078037091790313C22F923F924F925F9225
:101A90006F927F928F929F92AF92BF92CF92DF927E
:101AA000EF92FF920F931F93CF93DF93CDB7DEB7E3
:101AB0002B970FB6F894DEBF0FBECDBF6C017B0134
:101AC0008A01FC0117821682838181FFBFC1CE018A
:101AD00001963C01F6019381F70193FD859193FFF7
:101AE00081917F01882309F4ADC1853239F493FDDA
:101AF000859193FF81917F01853221F4B60190E0B9
:101B0000D6D1E8CF912C212C312CFFE1F315D8F060
:101B10008B3279F038F4803279F08332A1F4232DBE
:101B200020611DC08D3261F0803369F4232D216066
:101B300016C0832D8260382EE32DE4603E2E2AC02D
:101B4000F32DF8601DC037FC2DC020ED280F2A3082
:101B500040F08E32B9F436FC75C1232D2064322E4C
:101B600019C036FE06C08AE0989E200D1124922EE0
:101B700011C0EAE02E9E200D1124222EF32DF062DA
:101B80003F2E08C08C3621F4832D8068382E02C089
:101B9000883641F4F70193FD859193FF81917F0190
:101BA0008111B3CF982F9F7D9554933028F40C5F0B
:101BB0001F4F9FE399830DC0833631F0833771F057
:101BC000833509F055C020C0F801808189830E5FFC
:101BD0001F4F88248394912C530112C02801F2E0F6
:101BE0004F0E511CF801A080B18036FE03C0692D54
:101BF00070E002C06FEF7FEFC5014ED14C01820152
:101C0000F32DFF773F2E15C0280122E0420E511C14
:101C1000F801A080B18036FE03C0692D70E002C0DB
:101C20006FEF7FEFC5012DD14C01F32DF0683F2EF2
:101C3000820133FC19C0822D90E088169906A0F429
:101C4000B60180E290E033D12A94F5CFF50137FC5C
:101C5000859137FE81915F01B60190E028D1211076
:101C60002A9421E0821A91088114910479F7E1C045
:101C7000843611F0893639F5F80137FE07C06081E6
:101C80007181828193810C5F1F4F08C060817181D7
:101C9000072E000C880B990B0E5F1F4FF32DFF765C
:101CA0003F2E97FF09C090958095709561957F4F65
:101CB0008F4F9F4FF0683F2E2AE030E0A30133D1D1
:101CC000882E861844C0853731F4232D2F7EB22EFE
:101CD0002AE030E025C0932D997FB92E8F36C1F0D0
:101CE00018F4883579F0AEC0803719F0883721F0C4
:101CF000A9C0E92FE061BE2EB4FE0DC0FB2DF4603B
:101D0000BF2E09C034FE0AC0292F2660B22E06C09D
:101D100028E030E005C020E130E002C020E132E000
:101D2000F801B7FE07C060817181828193810C5FE9
:101D30001F4F06C06081718180E090E00E5F1F4FF1
:101D4000A301F1D0882E8618FB2DFF773F2E36FE9B
:101D50000DC0232D2E7FA22E891458F434FE0BC003
:101D600032FC09C0832D8E7EA82E05C0B82CA32C72
:101D700003C0B82C01C0B92CA4FE0FC0FE01E80DB1
:101D8000F11D8081803321F49A2D997EA92E09C0FE
:101D9000A2FE06C0B394B39404C08A2D867809F0DD
:101DA000B394A3FC10C0A0FE06C0B21480F4280CAB
:101DB000922C9B180DC0B21458F4B60180E290E04A
:101DC00076D0B394F8CFB21418F42B1802C0982C24
:101DD000212CA4FE0FC0B60180E390E068D0A2FEE3
:101DE00016C0A1FC03C088E790E002C088E590E03F
:101DF000B6010CC08A2D867851F0A1FE02C08BE29C
:101E000001C080E2A7FC8DE2B60190E050D08914B9
:101E100030F4B60180E390E04AD09A94F8CF8A94E7
:101E2000F301E80DF11D8081B60190E040D08110F2
:101E3000F6CF222009F44ECEB60180E290E037D0F2
:101E40002A94F7CFF6018681978102C08FEF9FEF2A
:101E50002B960FB6F894DEBF0FBECDBFDF91CF91AA
:101E60001F910F91FF90EF90DF90CF90BF90AF90B8
:101E70009F908F907F906F905F904F903F902F90AA
:101E80000895FC010590615070400110D8F78095CD
:101E900090958E0F9F1F0895FC0161507040019036
:101EA0000110D8F7809590958E0F9F1F08950F937E
:101EB0001F93CF93DF93FB01238121FD03C08FEF9D
:101EC0009FEF2CC022FF16C04681578124813581A7
:101ED0004217530744F4A081B1819D012F5F3F4F0A
:101EE000318320838C93268137812F5F3F4F378347
:101EF000268314C08B01EC01FB010084F185E02DE9
:101F00000995892BE1F6D80116968D919C9117972A
:101F1000019617969C938E931697CE01DF91CF91E1
:101F20001F910F910895FA01AA27283051F120310D
:101F300081F1E8946F936E7F6E5F7F4F8F4F9F4F5D
:101F4000AF4FB1E03ED0B4E03CD0670F781F891F9F
:101F50009A1FA11D680F791F8A1F911DA11D6A0F6D
:101F6000711D811D911DA11D20D009F468943F9120
:101F70002AE0269F11243019305D3193DEF6CF011F
:101F80000895462F4770405D4193B3E00FD0C9F7E5
:101F9000F6CF462F4F70405D4A3318F0495D31FD52
:101FA0004052419302D0A9F7EACFB4E0A6959795A5
:101FB000879577956795BA95C9F70097610571057B
:101FC00008959B01AC010A2E0694579547953795C5
:101FD0002795BA95C9F7620F731F841F951FA01D1F
:061FE0000895F894FFCF04
:101FE600000048420000000300000000A104E104D4
:101FF60000000000000000000000000000000000DB
:10200600000000000032C800000000000000256942
:04201600002575002C
:00000001FF
