:1000000051C000006DC000006BC0000069C000005E
:1000100067C0000065C00000C5C6000061C00000E8
:100020005FC000005DC000005BC0000059C0000060
:100030005FC6000055C0000053C0000051C0000062
:10004000BDC500000C941C0B0C94A50849C0000011
:1000500047C00000E5C40000C5C4000041C0000066
:100060003FC000003DC000003BC0000039C00000A0
:1000700037C0000035C0000033C0000031C00000B0
:1000800008C50000E8C400002BC0000029C0000023
:1000900027C000008A088C088E08900892089708EC
:1000A0009B089F0811241FBECFEFD0E1DEBFCDBF5C
:1000B00011E0A0E0B1E0E2ECF0E200E00BBF02C032
:1000C00007900D92A234B107D9F723E0A2E4B1E082
:1000D00001C01D92AA38B207E1F71DD50C945F103C
:1000E0008FCF2C9A089510924701109248011092D8
:1000F000490110924A0108954F925F926F927F9248
:100100008F929F92AF92BF92CF92DF92EF92FF9227
:100110000F931F93CF93DF934B015C0129013A01A9
:10012000C0900001D0900101E0900201F090030125
:1001300020E030E04EEB52E4C701B6010E94050D0D
:1001400087FF0AC020E030E048E452E4C701B6016E
:100150000E94B60B181624F081E08093420102C081
:1001600010924201A3019201C501B4010E94510BFA
:100170006B017C01609343017093440180934501BE
:10018000909346018091420181111CC02AE037ED15
:1001900043E25CE3C701B6010E94090D9B01AC017B
:1001A00060914701709148018091490190914A0105
:1001B0000E94520B6093470170934801809349015C
:1001C00090934A0123E333E343E752E4609147010C
:1001D000709148018091490190914A010E94090D56
:1001E0004B015C0129EF3FE049E75FE3C701B6013E
:1001F0000E94090D9B01AC01C501B4010E94520B84
:1002000020E030E048E452E40E94520B6B017C0194
:1002100020E030E04EEB52E40E94050D18164CF041
:10022000C0920001D0920101E0920201F09203011C
:100230000CC080E090E0AEEBB2E4809300019093BC
:100240000101A0930201B093030120E030E048E4F3
:1002500052E460910001709101018091020190913E
:1002600003010E94B60B87FF0CC080E090E0A8E479
:10027000B2E48093000190930101A0930201B09336
:100280000301C0900001D0900101E0900201F090C4
:100290000301C0919600D091970020E030E048EC37
:1002A00052E4C701B6010E94BA0B4B015C01BE01CA
:1002B00080E090E00E94530C9B01AC01C501B401A9
:1002C0000E94090D0E94220C70939900609398007F
:1002D000809198009091990090939B0080939A0050
:1002E000C701B6010E94270CF8016083DF91CF910E
:1002F0001F910F91FF90EF90DF90CF90BF90AF9044
:100300009F908F907F906F905F904F900895249A68
:1003100008958111E6CE2C980895CF92DF92EF9246
:10032000FF920F931F93CF93DF93EC011E8912303E
:10033000E1F0B0F4112309F43FC0113009F048C0D6
:10034000D0DE1A8F8E010D5E1F4FC880D980EA80E3
:10035000FB806A8970E080E090E00E94530C1AC034
:100360001330D9F0143041F133C0BBDE81E08A8F05
:100370008E010D5E1F4FC880D980EA80FB806A899C
:1003800070E0719561957109072E000C880B990B2F
:100390000E94550CA70196010DC0A3DE81E08A8F53
:1003A0008E010D5E1F4F288139814A815B8160E09B
:1003B00070E0CB01A1DE0CC080E0ABDF1A8EDF91D4
:1003C000CF911F910F91FF90EF90DF90CF908BCE48
:1003D000DF91CF911F910F91FF90EF90DF90CF9021
:1003E0000895CF93DF93EC016EE471E080E088D64E
:1003F00021E043E050E06BE471E08EE491E00E9484
:10040000000BEBE4F1E061816F71618370E0762FA6
:1004100066278281682BCE01DF91CF91DAC4CF931A
:10042000DF93EC016EE471E081E06AD621E043E005
:1004300050E06BE471E08EE491E00E94000BEBE48D
:10044000F1E061816F71618370E0762F66278281B0
:10045000682BCE01DF91CF91BCC4CF93DF93EC0129
:100460006EE471E082E04CD621E043E050E06BE4C2
:1004700071E08EE491E00E94000BEBE4F1E0618119
:100480006F71618370E0762F66278281682B80E030
:1004900090E00E94530C23E333E344E852E40E94CB
:1004A000BA0B24EA30E74DEB5EE30E94510B688300
:1004B00079838A839B83DF91CF910895CF93DF93D4
:1004C000EC016EE471E084E01BD621E043E050E0F3
:1004D0006BE471E08EE491E00E94000BEBE4F1E04C
:1004E00061816F71618370E0762F66278281682B4E
:1004F000CE01DF91CF91DDC40F931F93CF93DF9394
:10050000EC018B01CB0161D78823F1F18E89843016
:10051000D9F1F8018081918180339240A9F584E17D
:1005200090E09D8B8C8BF80186818B3090F081E080
:100530008E8B668170E080E090E00E94550C20E098
:1005400030E040E251E40E94BA0B0E94270C6A8B13
:1005500003C083E08E8B1A8AF80185818A31A0F06E
:100560008E89833089F482E08E8B658170E080E033
:1005700090E00E94550C20E030E040E251E40E94FF
:10058000BA0B0E94270C6A8BDF91CF911F910F91BC
:1005900008950F931F93CF93DF9320E534E03093BA
:1005A000F2022093F10228E02093F302FC01208163
:1005B000222361F1EB018C018E898093F402109269
:1005C000F502688179818A819B810E94270C709352
:1005D000F7026093F60220E030E04AE754E46C85CD
:1005E0007D858E859F850E94090D0E94270C709342
:1005F000F9026093F802298930E03093FB022093DE
:10060000FA0281EF92E021D7F8011082DF91CF91B9
:100610001F910F9108950F931F93CF93DF9300D0F5
:10062000CDB7DEB7FC019091600380911E03981B4B
:100630009F7179F18689843061F18F0180D19A832D
:10064000898320D189819A810B9758F089819A8179
:10065000459738F489819A818A50F801828B82E02B
:10066000868B89819A81892B51F089819A810B9798
:1006700030F489819A81F801828B81E0868B8981AF
:100680009A81892B31F489819A81F801828B83E0E8
:10069000868B0F900F90DF91CF911F910F9108954E
:1006A000CF93DF9300D0CDB7DEB78D8D823019F4B4
:1006B0008FEF9FEF02C081E090E09A838983898D5C
:1006C0001F928F938F891F928F938A8D1F928F9382
:1006D000888D1F928F9320E030E04AE754E46F85C5
:1006E000788989899A890E94090D0E94270C7F9335
:1006F0006F9320E030E04AE754E46B857C858D857C
:100700009E850E94090D0E94220C7F936F9320E02A
:1007100030E04AE754E46F81788589859A850E94A4
:10072000090D0E94220C7F936F938DE291E09F93BD
:100730008F930E949A0D8AE090E00E94AD0D0FB653
:10074000F894DEBF0FBECDBF0F900F90DF91CF9119
:100750000895CF93DF93CDB7DEB78B8D8230B1F0A4
:1007600028F4882369F0813089F020C08330B1F00B
:100770008430E1F480E424D780E822D780E213C0FB
:1007800080E41ED780E21CD780E80DC080E218D735
:1007900080E816D780E4DF91CF9120C780E210D7A0
:1007A00080E80ED780E4DF91CF9113C7DF91CF911E
:1007B00008956D987598ED98EAE6F0E080818C6078
:1007C0008083E59AED9A08958F929F92AF92BF929F
:1007D000CF92DF92EF92FF920F931F93CF93DF930D
:1007E0001F92CDB7DEB76C017B018A01FB016081EE
:1007F000718180E090E00E94530C20E030E04AEFED
:1008000053E40E94090D23EC35EF48E450E40E94C4
:10081000090D4B015C01B80180E090E00E94530C8F
:100820009B01AC01C501B401A5D70E94270C6983C7
:100830008981F6018083F701118210820F90DF9188
:10084000CF911F910F91FF90EF90DF90CF90BF90CD
:10085000AF909F908F90089590913F0393959F71D3
:10086000B0911D03B917E1F3A92FB0E0AC59BC4F0B
:100870008C93F89490933F039091C1009062909371
:10088000C100189590911D0380913F039813FACFF2
:1008900008959091630393959F71B0916103B91787
:1008A000E1F3A92FB0E0A15EBC4F8C93F894909334
:1008B00063039091C90090629093C9001895CF93FB
:1008C000C82FFB0184859585019739F0CA3011F452
:1008D0008DE0C2DF8C2FC0DF06C0CA3011F48DE07E
:1008E000D8DF8C2FD6DF80E090E0CF9108959091F3
:1008F0001E0380916003981751F09F5F9F71A92F8D
:10090000B0E0A450BD4F8C9190931E03089580E0F9
:100910000895FC01ECDF8132E8F381936A956A95D2
:1009200061F0E5DF8823E9F38D3021F0813228F092
:100930008193F5CFDCDF8823E9F310820895CF930C
:10094000DF93CDB7DEB727970FB6F894DEBF0FBEA3
:10095000CDBF67E0CE010196DCDFCE0101960E949B
:10096000750D27960FB6F894DEBF0FBECDBFDF9191
:10097000CF91089590911E0380916003981759F0CC
:100980009F5F9F71A92FB0E0A450BD4F8C919093B1
:100990001E0390E008958FEF9FEF089590911C0340
:1009A00080916203981759F09F5F9F71A92FB0E063
:1009B000A05CBC4F8C9190931C0390E008958FEF46
:1009C0009FEF0895FC0184859585019729F0D2DF7A
:1009D00097FDFDCF41DF04C0E1DF97FDFDCF59DF7B
:1009E00090E008950F930FB7EF93FF93E0911D03ED
:1009F000F0913F03E395EF71EF1305C0F091C10053
:100A0000FF7DF093C100E0931D03F0E0EC59FC4F33
:100A1000E081E093C600FF91EF910FBF0F91189511
:100A20000F930FB79F939091C600EF93FF93E091C0
:100A30006003F0911E03E395EF71FE1731F0E09330
:100A40006003F0E0E450FD4F9083FF91EF919F91A0
:100A50000FBF0F9118950F930FB7EF93FF93E0918E
:100A60006103F0916303E395EF71EF1305C0F0911B
:100A7000C900FF7DF093C900E0936103F0E0E15EFF
:100A8000FC4FE081E093CE00FF91EF910FBF0F91FB
:100A900018950F930FB79F939091CE00EF93FF930C
:100AA000E0916203F0911C03E395EF71FE1731F0C2
:100AB000E0936203F0E0E05CFC4F9083FF91EF91E4
:100AC0009F910FBF0F911895E1E8F0E0808183605E
:100AD00080838081886080831092850010928400DA
:100AE000EFE6F0E08081826080838DE790E0909374
:100AF000890080938800089584B5856084BD84B59D
:100B0000886084BD16BCEEE6F0E080818260808360
:100B100087E287BD0895F89457D511D560E070E05D
:100B200080E090E0FFD3D0DFE7DF43DE80E05AD5FE
:100B30001092C4001092C50088E98093C10084E03F
:100B400091E090938703809386039093850380932D
:100B500084033AD5DCDB789462E171E084E591E0CE
:100B600018DD66EE72E082E191E0C6DC809153010F
:100B70008823E9F08DB79EB74B970FB6F8949EBFC8
:100B80000FBE8DBFADB7BEB711968BE1E2E1F1E0CC
:100B900001900D928A95E1F783DD109253018DB794
:100BA0009EB74B960FB6F8949EBF0FBE8DBF82E1E5
:100BB00091E031DD82E191E035D2CECF1F920F92EC
:100BC0000FB60F9211240BB60F92EF920F931F9353
:100BD0002F933F934F935F936F937F938F939F9345
:100BE000AF93BF93CF93EF93FF93809157018130E1
:100BF00089F58091260190912701009739F4809121
:100C00002801843041F01092280105C0019790938B
:100C10002701809326014AE050E060E571E083E21D
:100C200091E0D2DD00911A0110911B0120911C016D
:100C300030911D01409116015091170160911801EA
:100C4000709119018AE0E82E8EE191E0B4D1109202
:100C5000570103C08F5F8093570180915501909198
:100C600056018436910529F5C1E0C09353018DB733
:100C70009EB74B970FB6F8949EBF0FBE8DBFADB712
:100C8000BEB711968BE1E2E1F1E001900D928A95F9
:100C9000E1F75FDDC09354011092560110925501A7
:100CA0008DB79EB74B960FB6F8949EBF0FBE8DBF03
:100CB00005C00196909356018093550182E191E021
:100CC0002CDBFF91EF91CF91BF91AF919F918F91CD
:100CD0007F916F915F914F913F912F911F910F9154
:100CE000EF900F900BBE0F900FBE0F901F901895B6
:100CF0001F920F920FB60F9211240BB60F922F93E3
:100D00003F934F935F936F937F938F939F93AF9393
:100D1000BF93EF93FF9380915201843029F482E2D4
:100D200091E0CCDB1092520180915201833019F492
:100D300084E08093520180915201823041F48AE133
:100D400091E08BDB809152018F5F80935201809103
:100D50005201813041F486E191E061DB80915201E2
:100D60008F5F8093520180915201811108C082E10E
:100D700091E037DB809152018F5F80935201FF91A8
:100D8000EF91BF91AF919F918F917F916F915F9103
:100D90004F913F912F910F900BBE0F900FBE0F9070
:100DA0001F9018951F920F920FB60F9211248F93D8
:100DB0009F93809150019091510101969093510120
:100DC000809350019F918F910F900FBE0F901F90B5
:100DD00018958F929F92AF92BF92CF92DF92EF922F
:100DE000FF920F931F93CF93DF9300D000D0CDB726
:100DF000DEB78C0180E090E056D520E030E040EA9C
:100E000050E407D620E030E040E859E302D629E27A
:100E10003CE54FE050E445D423EC34E64AE25DE3A0
:100E2000A9D420E030E040E450E4A4D469837A837C
:100E30008B839C8369817A818B819C812EEA37E444
:100E400041EE5FE32ED469837A838B839C83898010
:100E50009A80AB80BC8026E636E646E65FE3F80182
:100E60006081718182819381D4D56B017C012DECED
:100E70003CEC4CEC5DE3C501B401CBD59B01AC016E
:100E8000C701B6010FD4F801608371838283938315
:100E90000F900F900F900F90DF91CF911F910F91B6
:100EA000FF90EF90DF90CF90BF90AF909F908F908A
:100EB00008950F931F93CF93DF9300D000D0CDB749
:100EC000DEB78C0180E090E0EED420E030E040EA34
:100ED00050E49FD520E030E040E859E39AD569839B
:100EE0007A838B839C8369817A818B819C812DECB1
:100EF0003CEC4CE650E43AD418168CF069817A81C7
:100F00008B819C8120E030E040EA51E482D520E0F2
:100F100030E040EB51E4C5D39AD4F8016083698195
:100F20007A818B819C8126E636E646E950E41ED420
:100F30001816E4F069817A818B819C812DEC3CEC60
:100F40004CE650E462D518168CF469817A818B8165
:100F50009C8120E030E04EE552E45BD520E030E8B3
:100F60004BE153E49ED373D4F801608369817A81A5
:100F70008B819C8126E636E646E950E446D5181674
:100F80008CF469817A818B819C8120E030E048E497
:100F900053E43FD520E030E042E554E482D357D417
:100FA000F80160830F900F900F900F90DF91CF9119
:100FB0001F910F9108958F929F92AF92BF92EF92DF
:100FC0000F931F93CF93DF93EC014A015B01C9019B
:100FD000B801A50194011DD54B015C016E2D70E097
:100FE00080E090E060D49B01AC01C501B40111D553
:100FF00020E030E04AE754E4BDD39B01AC016881B6
:1010000079818A819B814ED3688379838A839B838C
:10101000DF91CF911F910F91EF90BF90AF909F9074
:101020008F9008958F929F92AF92BF92CF92DF924E
:10103000EF92FF921F93CF93DF93EC01C884D98482
:10104000EA84FB8420E030E040E751E4C701B601C8
:101050008DD387FD09C020E030E048EC52E4C701A1
:10106000B601D3D4181624F48E89843009F01E8A70
:1010700088809980AA80BB8020E030E040E751E47E
:10108000C501B401C2D4188987FF14C020E030E044
:101090004CE552E4C701B601B8D418164CF420E070
:1010A00030E048EC52E4C701B60160D387FD02C0CE
:1010B000143610F084E08E8B1436B0F48E898430B0
:1010C00099F420E030E040E751E4C501B4014ED38B
:1010D00087FF0AC020E030E04CE552E4C701B601CA
:1010E00045D318160CF01E8ADF91CF911F91FF9007
:1010F000EF90DF90CF90BF90AF909F908F9008952A
:10110000DB01482F50E048305105F0F4FA01E65B6E
:10111000FF4FE2C486E007C086E00AC086E00CC04C
:1011200086E00EC087E08C9311961C92089587E0AC
:101130008C9380E407C087E08C9380E803C087E04D
:101140008C9380EC11968C9308951F920F920FB69A
:101150000F9211240BB60F922F933F934F935F93EF
:101160008F939F93EF93FF93CF93DF931F92CDB70E
:10117000DEB78091E00080FF4EC09091DE0090FFCE
:101180004AC01092ED008091EE0089838091EE00BC
:101190008F7B8093EE0080915D0190915C019817A8
:1011A000B9F18F702BE0829FC0011124FC01E25F36
:1011B000FD4F20812093F00020812093F2002181B7
:1011C0002093F30023812093FA0024812093FA00D6
:1011D00025812093FA0026812093FA00278120930D
:1011E000FA0020852093FA0021852093FA002285B9
:1011F0002093FA00FC01E05FFD4F80818F708064D6
:101200008093EF0080915D018F5F80935D0178C0D6
:1012100010925B0175C081FF73C08091DE0081FF79
:101220006FC080E18093ED0090915901292F30E04B
:1012300080915A01281B31092F773327203131053E
:101240000CF052C0E92FEF708091EF002BE0E29F8D
:10125000F0011124E25AFE4F282F2F708281807FE7
:10126000822B82832091F2008091F000207E877093
:10127000822B80834091F30041835091FA00538385
:101280002091FA0024832091FA0025832091FA000E
:1012900026832091FA0027832091FA00208720914D
:1012A000FA0021872091FA0022879F5F90935901CD
:1012B000829586958770942F990F990F990F292FF2
:1012C000282B342F329536953770232B69F4533001
:1012D00059F498E088E10FB6F894A89580936000DF
:1012E0000FBE90936000FFCF8091EE0089838981CB
:1012F0008091EE008F7D8093EE0080E88093EF0078
:101300000F90DF91CF91FF91EF919F918F915F911E
:101310004F913F912F910F900BBE0F900FBE0F90EA
:101320001F901895CF93DF93E8EDF0E021E0208344
:101330001092E2002CE02093E30027E32093E400E6
:101340001092E7001092E6001092E9001092E80077
:101350001092EC001092E500CDEED0E01882AEEED7
:10136000B0E01C9220E128831C921092F400282FF8
:101370002295220F207E2093F60023E096958795F4
:101380002A95E1F78093F7001092F000862F82955E
:10139000880F807E8093F20033E0769567953A95CA
:1013A000E1F76093F30080E88093EF0083E080939F
:1013B000DC008093DE0080EB8093DB0082E08083A2
:1013C00010925801DF91CF910895FC0120915A01AC
:1013D000809159018217B9F1622F6F708BE0689F7D
:1013E000A0011124DA01A25ABE4F8C9182958695F4
:1013F000877011969C91392F330F330F330F832B46
:1014000092959695977080839183DA01A05ABE4F8A
:101410008C918F7082833396BA0140E050E090E067
:10142000481759075CF4DA01A60FB71FA25ABE4F3E
:1014300013963C9131934F5F5F4FF2CF2F5F209314
:101440005A0181E0089580E00895CF93DF93FC0175
:101450008091DB008F778093DB0080915B018111AD
:1014600023C01092ED0080818295880F807E80934A
:10147000F2008081918123E0969587952A95E1F786
:101480008093F300DF011396CF010B962D912093EB
:10149000FA00A817B907D1F781E080935B01828138
:1014A00080648093EF0040C020915C01822F90E027
:1014B00030915D01831B91098F7799274097B1F196
:1014C000A22FAF708BE0A89FD0011124ED01C25F65
:1014D000DD4F8081982F9295990F907E88818F7132
:1014E000892B88838081982F9695969596958981EA
:1014F000807E892B898391819295990F907E8F713F
:10150000892B89838281982F9F708A81807F892B84
:101510008A83AF5EBD4F339688E001900D928A9525
:10152000E1F72F5F20935C0181E001C080E09091A2
:10153000DB0090689093DB00DF91CF9108958EB12E
:10154000877E8EB98DB188618DB9A1E9B0E08C91AB
:1015500088618C93E0E9F0E0808182608083808103
:101560008E7F808380818068808380818F7B808371
:101570008081806280838081806180838C918160A2
:101580008C938C91897F8C93E6E9F0E089E991E076
:10159000918380836081718180E090E084D120E03C
:1015A00030E040E05FE335D24DD1E8E9F0E071830F
:1015B00060838081918190939B0080939A0008952D
:1015C00095B1892B85B9089584B1806E84B980EE78
:1015D000F7CF95B18095982395B9089595B189274E
:1015E00085B9089594B1976094B982FB992790F9D1
:1015F000837080658CBD8CB5837F8CBD9DBD089547
:101600002898FB01DC01460F571FE417F50789F006
:10161000009711F03C9101C03FEF3EBD0DB407FEB5
:10162000FDCF6115710511F03EB5308331961196ED
:10163000ECCF2111289A08951F920F920FB60F92A6
:1016400011240BB60F928F939F93AF93BF93CF93B9
:10165000DF93EF93FF93CEEDD2E0EEEBF2E08991D2
:10166000882359F080819181A281B381905EAF4F30
:10167000BF4F80839183A283B383349682E0EE3D93
:10168000F80769F7FF91EF91DF91CF91BF91AF918B
:101690009F918F910F900BBE0F900FBE0F901F90D8
:1016A00018955058BB27AA270ED075C166D130F0C7
:1016B0006BD120F031F49F3F11F41EF45BC10EF4A6
:1016C000E095E7FB51C1E92F77D180F3BA176207A4
:1016D00073078407950718F071F49EF58FC10EF417
:1016E000E0950B2EBA2FA02D0B01B90190010C0132
:1016F000CA01A0011124FF27591B99F0593F50F44A
:10170000503E68F11A16F040A22F232F342F4427A1
:10171000585FF3CF469537952795A795F040539599
:10172000C9F77EF41F16BA0B620B730B840BBAF069
:101730009150A1F0FF0FBB1F661F771F881FC2F7D4
:101740000EC0BA0F621F731F841F48F487957795E8
:101750006795B795F7959E3F08F0B3CF9395880F9F
:1017600008F09927EE0F979587950895D9D008F43A
:1017700081E008950CD00FC107D140F0FED030F0C9
:1017800021F45F3F19F0F0C0511139C1F3C014D1F9
:1017900098F39923C9F35523B1F3951B550BBB2738
:1017A000AA2762177307840738F09F5F5F4F220FE5
:1017B000331F441FAA1FA9F333D00E2E3AF0E0E8DE
:1017C00030D091505040E695001CCAF729D0FE2F2A
:1017D00027D0660F771F881FBB1F261737074807BC
:1017E000AB07B0E809F0BB0B802DBF01FF27935872
:1017F0005F4F2AF09E3F510568F0B6C000C15F3FC1
:10180000ECF3983EDCF3869577956795B795F79559
:101810009F5FC9F7880F911D9695879597F9089551
:10182000E1E0660F771F881FBB1F621773078407ED
:10183000BA0720F0621B730B840BBA0BEE1F88F7FC
:10184000E095089504D06894B111D9C00895BCD032
:1018500088F09F5790F0B92F9927B751A0F0D1F099
:10186000660F771F881F991F1AF0BA95C9F712C023
:10187000B13081F0C3D0B1E00895C0C0672F782F98
:101880008827B85F39F0B93FCCF38695779567958F
:10189000B395D9F73EF490958095709561957F4FFB
:1018A0008F4F9F4F0895E89409C097FB3EF49095A1
:1018B0008095709561957F4F8F4F9F4F9923A9F029
:1018C000F92F96E9BB279395F695879577956795B8
:1018D000B795F111F8CFFAF4BB0F11F460FF1BC0FC
:1018E0006F5F7F4F8F4F9F4F16C0882311F096E98F
:1018F00011C0772321F09EE8872F762F05C066233D
:1019000071F096E8862F70E060E02AF09A95660FF5
:10191000771F881FDAF7880F9695879597F90895AE
:10192000990F0008550FAA0BE0E8FEEF16161706F0
:10193000E807F907C0F012161306E407F50798F058
:10194000621B730B840B950B39F40A2661F0232B71
:10195000242B252B21F408950A2609F4A140A695ED
:101960008FEF811D811D089597F99F6780E870E0D2
:1019700060E008959FEF80EC089500240A94161605
:10198000170618060906089500240A94121613066D
:10199000140605060895092E0394000C11F48823FB
:1019A00052F0BB0F40F4BF2B11F460FF04C06F5F17
:1019B0007F4F8F4F9F4F089557FD9058440F551FED
:1019C00059F05F3F71F04795880F97FB991F61F0C1
:1019D0009F3F79F087950895121613061406551F38
:1019E000F2CF4695F1DF08C0161617061806991FA4
:1019F000F1CF86957105610508940895E894BB2799
:101A000066277727CB0197F908958ADF08F48FEFCF
:101A100008950BD0C0CFB1DF28F0B6DF18F09523C2
:101A200009F0A2CFA7CF1124EACFC6DFA0F3959F7C
:101A3000D1F3950F50E0551F629FF001729FBB27B5
:101A4000F00DB11D639FAA27F00DB11DAA1F649F61
:101A50006627B00DA11D661F829F2227B00DA11D14
:101A6000621F739FB00DA11D621F839FA00D611D9A
:101A7000221F749F3327A00D611D231F849F600DBB
:101A8000211D822F762F6A2F11249F5750408AF0F4
:101A9000E1F088234AF0EE0FFF1FBB1F661F771F80
:101AA000881F91505040A9F79E3F510570F05CCFC0
:101AB000A6CF5F3FECF3983EDCF38695779567956C
:101AC000B795F795E7959F5FC1F7FE2B880F911D9E
:101AD0009695879597F90895EE0FFF1F0024001C37
:101AE0000BBE0790F691E02D0994FC0188279927F9
:101AF000E89421912032E9F3293010F02E30C8F318
:101B00002B3239F02D3231F4689403C00BD0820FA0
:101B1000911D219120532A30C8F31EF49095819590
:101B20009F4F08957AE0979F902D879F802D910D6C
:101B300011240895CF93DF93CDB7DEB7AE014B5F8D
:101B40005F4FFA0161917191AF018091860390918D
:101B5000870308D0DF91CF9108956091860370913B
:101B6000870313C22F923F924F925F926F927F92A0
:101B70008F929F92AF92BF92CF92DF92EF92FF929D
:101B80000F931F93CF93DF93CDB7DEB72B970FB68D
:101B9000F894DEBF0FBECDBF6C017B018A01FC0152
:101BA00017821682838181FFBFC1CE0101963C015D
:101BB000F6019381F70193FD859193FF81917F0158
:101BC000882309F4ADC1853239F493FD859193FFE3
:101BD00081917F01853221F4B60190E0D6D1E8CF22
:101BE000912C212C312CFFE1F315D8F08B3279F0B8
:101BF00038F4803279F08332A1F4232D20611DC0A6
:101C00008D3261F0803369F4232D216016C0832D5D
:101C10008260382EE32DE4603E2E2AC0F32DF8605A
:101C20001DC037FC2DC020ED280F2A3040F08E3229
:101C3000B9F436FC75C1232D2064322E19C036FE4E
:101C400006C08AE0989E200D1124922E11C0EAE071
:101C50002E9E200D1124222EF32DF0623F2E08C05F
:101C60008C3621F4832D8068382E02C0883641F4EA
:101C7000F70193FD859193FF81917F018111B3CF8E
:101C8000982F9F7D9554933028F40C5F1F4F9FE34E
:101C900099830DC0833631F0833771F0833509F0B5
:101CA00055C020C0F801808189830E5F1F4F8824B2
:101CB0008394912C530112C02801F2E04F0E511C65
:101CC000F801A080B18036FE03C0692D70E002C02B
:101CD0006FEF7FEFC5014ED14C018201F32DFF77ED
:101CE0003F2E15C0280122E0420E511CF801A080B1
:101CF000B18036FE03C0692D70E002C06FEF7FEF48
:101D0000C5012DD14C01F32DF0683F2E820133FC2B
:101D100019C0822D90E088169906A0F4B60180E2E1
:101D200090E033D12A94F5CFF50137FC859137FE49
:101D300081915F01B60190E028D121102A9421E021
:101D4000821A91088114910479F7E1C0843611F068
:101D5000893639F5F80137FE07C0608171818281CB
:101D600093810C5F1F4F08C060817181072E000CAA
:101D7000880B990B0E5F1F4FF32DFF763F2E97FFB9
:101D800009C090958095709561957F4F8F4F9F4FBB
:101D9000F0683F2E2AE030E0A30133D1882E861868
:101DA00044C0853731F4232D2F7EB22E2AE030E057
:101DB00025C0932D997FB92E8F36C1F018F4883540
:101DC00079F0AEC0803719F0883721F0A9C0E92F2B
:101DD000E061BE2EB4FE0DC0FB2DF460BF2E09C025
:101DE00034FE0AC0292F2660B22E06C028E030E05B
:101DF00005C020E130E002C020E132E0F801B7FE8A
:101E000007C060817181828193810C5F1F4F06C082
:101E10006081718180E090E00E5F1F4FA301F1D0DF
:101E2000882E8618FB2DFF773F2E36FE0DC0232D02
:101E30002E7FA22E891458F434FE0BC032FC09C048
:101E4000832D8E7EA82E05C0B82CA32C03C0B82CE1
:101E500001C0B92CA4FE0FC0FE01E80DF11D808168
:101E6000803321F49A2D997EA92E09C0A2FE06C0C6
:101E7000B394B39404C08A2D867809F0B394A3FC7C
:101E800010C0A0FE06C0B21480F4280C922C9B183F
:101E90000DC0B21458F4B60180E290E076D0B3944D
:101EA000F8CFB21418F42B1802C0982C212CA4FEE1
:101EB0000FC0B60180E390E068D0A2FE16C0A1FC7E
:101EC00003C088E790E002C088E590E0B6010CC04E
:101ED0008A2D867851F0A1FE02C08BE201C080E21B
:101EE000A7FC8DE2B60190E050D0891430F4B60121
:101EF00080E390E04AD09A94F8CF8A94F301E80DF9
:101F0000F11D8081B60190E040D08110F6CF2220F3
:101F100009F44ECEB60180E290E037D02A94F7CF94
:101F2000F6018681978102C08FEF9FEF2B960FB647
:101F3000F894DEBF0FBECDBFDF91CF911F910F91FF
:101F4000FF90EF90DF90CF90BF90AF909F908F90D9
:101F50007F906F905F904F903F902F900895FC017D
:101F60000590615070400110D8F7809590958E0FC4
:101F70009F1F0895FC016150704001900110D8F737
:101F8000809590958E0F9F1F08950F931F93CF9369
:101F9000DF93FB01238121FD03C08FEF9FEF2CC056
:101FA00022FF16C04681578124813581421753078D
:101FB00044F4A081B1819D012F5F3F4F3183208385
:101FC0008C93268137812F5F3F4F3783268314C040
:101FD0008B01EC01FB010084F185E02D0995892B33
:101FE000E1F6D80116968D919C9117970196179658
:101FF0009C938E931697CE01DF91CF911F910F91F5
:102000000895FA01AA27283051F1203181F1E8948E
:102010006F936E7F6E5F7F4F8F4F9F4FAF4FB1E0DB
:102020003ED0B4E03CD0670F781F891F9A1FA11DD6
:10203000680F791F8A1F911DA11D6A0F711D811DD7
:10204000911DA11D20D009F468943F912AE0269F9C
:1020500011243019305D3193DEF6CF010895462FFB
:102060004770405D4193B3E00FD0C9F7F6CF462FDC
:102070004F70405D4A3318F0495D31FD4052419345
:1020800002D0A9F7EACFB4E0A69597958795779502
:102090006795BA95C9F700976105710508959B0189
:1020A000AC010A2E06945795479537952795BA9512
:1020B000C9F7620F731F841F951FA01D0895F89420
:0220C000FFCF50
:1020C2000000484200000003000000005F04E20438
:1020D20000000000000000000000000000000000FE
:1020E2000000000000321400000000000025692CEE
:1020F20025692C25752C25752C25752C25752C25E7
:02210200690072
:00000001FF
