:1000000051C000006DC000006BC0000069C000005E
:1000100067C0000065C000008CC5000061C0000022
:100020005FC000005DC000005BC0000059C0000060
:100030009CC4000055C0000053C0000051C0000027
:10004000F1C300000C946609CEC6000049C0000050
:1000500047C0000052C2000032C2000041C0000090
:100060003FC000003DC000003BC0000039C00000A0
:1000700037C0000035C0000033C0000031C00000B0
:1000800075C2000055C200002BC0000029C000004E
:1000900027C00000D806DA06DC06DE06E006E50624
:1000A000E906ED0611241FBECFEFD0E1DEBFCDBFC4
:1000B00011E0A0E0B1E0E6E5FDE100E00BBF02C029
:1000C00007900D92AA32B107D9F723E0AAE2B1E076
:1000D00001C01D92A63AB207E1F709D30C94A90E0C
:1000E0008FCF4F925F926F927F928F929F92AF923B
:1000F000BF92CF92DF92EF92FF920F931F93CF9315
:10010000DF934B015C0129013A01EE2041F010928E
:100110002F01109230011092310110923201C090E3
:100120000001D0900101E0900201F090030120E075
:1001300030E04EEB52E4C701B6010E944F0B87FF3F
:100140000AC020E030E048E452E4C701B6010E9452
:10015000000A181624F081E080932A0102C0109250
:100160002A01A3019201C501B4010E949B096B0100
:100170007C0160932B0170932C0180932D0190934F
:100180002E0180912A0181111CC02AE037ED43E243
:100190005CE3C701B6010E94530B9B01AC01609167
:1001A0002F017091300180913101909132010E94B4
:1001B0009C0960932F0170933001809331019093DB
:1001C000320123E333E343E752E460912F0170915E
:1001D000300180913101909132010E94530B4B010B
:1001E0005C0129EF3FE049E75FE3C701B6010E94E8
:1001F000530B9B01AC01C501B4010E949C0920E096
:1002000030E048E452E40E949C096B017C0120E04C
:1002100030E04EEB52E40E944F0B18164CF0C092A7
:100220000001D0920101E0920201F09203010CC0A2
:1002300080E090E0AEEBB2E4809300019093010186
:10024000A0930201B093030120E030E048E452E4BF
:100250006091000170910101809102019091030170
:100260000E94000A87FF0CC080E090E0A8E4B2E49E
:100270008093000190930101A0930201B0930301C8
:10028000C0900001D0900101E0900201F0900301C4
:10029000C0919600D091970020E030E048EC52E405
:1002A000C701B6010E94040A4B015C01BE0180E057
:1002B00090E00E949D0A9B01AC01C501B4010E941F
:1002C000530B0E946C0A7093990060939800809180
:1002D00098009091990090939B0080939A00C70199
:1002E000B6010E94710AF8016083DF91CF911F91DE
:1002F0000F91FF90EF90DF90CF90BF90AF909F90C5
:100300008F907F906F905F904F900895249A0895FA
:10031000882311F02C9A08952C9808956D9875985B
:10032000ED98EAE6F0E080818C608083E59AED9AB2
:1003300008959091150393959F71B091F302B917A9
:10034000E1F3A92FB0E0A65CBC4F8C93F894909396
:1003500015039091C10090629093C10018959091FF
:10036000F302809115039813FACF08959091390301
:1003700093959F71B0913703B917E1F3A92FB0E0BE
:10038000AB50BD4F8C93F894909339039091C90072
:1003900090629093C9001895CF93C82FFB01848574
:1003A0009585019739F0CA3011F48DE0C2DF8C2FAA
:1003B000C0DF06C0CA3011F48DE0D8DF8C2FD6DF45
:1003C00080E090E0CF9108959091F40280913603FF
:1003D000981751F09F5F9F71A92FB0E0AE52BD4FAB
:1003E0008C919093F402089580E00895FC01ECDF75
:1003F0008132E8F381936A956A9561F0E5DF88239D
:10040000E9F38D3021F0813228F08193F5CFDCDFE4
:100410008823E9F310820895CF93DF93CDB7DEB739
:1004200027970FB6F894DEBF0FBECDBF67E0CE01B1
:100430000196DCDFCE0101960E94BF0B27960FB616
:10044000F894DEBF0FBECDBFDF91CF91089590919C
:10045000F40280913603981759F09F5F9F71A92F7E
:10046000B0E0AE52BD4F8C919093F40290E00895AD
:100470008FEF9FEF08959091F202809138039817C3
:1004800059F09F5F9F71A92FB0E0AA5EBC4F8C917D
:100490009093F20290E008958FEF9FEF0895FC0192
:1004A00084859585019729F0D2DF97FDFDCF41DF47
:1004B00004C0E1DF97FDFDCF59DF90E008950F9371
:1004C0000FB7EF93FF93E091F302F0911503E395DB
:1004D000EF71EF1305C0F091C100FF7DF093C100F3
:1004E000E093F302F0E0E65CFC4FE081E093C600AD
:1004F000FF91EF910FBF0F9118950F930FB79F9337
:100500009091C600EF93FF93E0913603F091F402CF
:10051000E395EF71FE1731F0E0933603F0E0EE5211
:10052000FD4F9083FF91EF919F910FBF0F91189511
:100530000F930FB7EF93FF93E0913703F0913903D7
:10054000E395EF71EF1305C0F091C900FF7DF093C3
:10055000C900E0933703F0E0EB50FD4FE081E093FA
:10056000CE00FF91EF910FBF0F9118950F930FB72A
:100570009F939091CE00EF93FF93E0913803F09119
:10058000F202E395EF71FE1731F0E0933803F0E0EB
:10059000EA5EFC4F9083FF91EF919F910FBF0F9107
:1005A0001895E1E8F0E08081836080838081886035
:1005B00080831092850010928400EFE6F0E0808145
:1005C000826080838DE790E090938900809388001B
:1005D000089584B5856084BD84B5886084BD16BCEB
:1005E000EEE6F0E080818260808387E287BD089537
:1005F0000F931F93CF93DF93EC018B01CB0133D586
:10060000882309F43EC0F801808191818031F1E0B6
:100610009F0781F180339240A1F5F80166816B302C
:1006200078F081E08093240170E080E090E087D74B
:1006300020E030E040E251E4E7D653D76E8703C0B4
:10064000109224011E86F80165816A31D0F08091F4
:100650002401811116C082E08093240170E080E0C3
:1006600090E06DD720E030E040E251E4CDD639D7BC
:100670006E8707C08B89811102C082E001C084E0CF
:100680008A8BDF91CF911F910F9108950F931F9344
:10069000CF93DF93FC012081222321F1EB018C0118
:1006A0008A89809398038E858093990368817981E4
:1006B0008A819B8116D770939B0360939A038091E4
:1006C0009A0090919B0090939D0380939C032D85AD
:1006D00030E030939F0320939E0385E993E003D598
:1006E000F8011082DF91CF911F910F910895CF9360
:1006F000DF9300D0CDB7DEB7F894812C912C540154
:10070000750164010DEC1CEC2CE43DE34DEC5CEC5C
:100710006CEC7DE38DE793E023D25FD560E070E081
:1007200080E090E04DD43DDF54DFF8DD80E0A4D5DB
:100730001092C4001092C50088E98093C10084E043
:1007400091E09093A3038093A2039093A1038093DD
:10075000A00388D5DBDD80E594E090939603809339
:10076000950388E080939703789480E880D507E22A
:1007700011E082E0F82EEE24E39462E171E08BE375
:1007800091E084DF62E773E082E191E031DF609124
:100790001A0170911B0180911C0190911D01A1D63D
:1007A0007F936F931F930F930E94E40B8AE090E076
:1007B0000E94F70B809136039091F402891B8F7190
:1007C0000F900F900F900F90C1F226DE9A838983CD
:1007D000C6DD89819A810B9758F089819A81459766
:1007E00038F489819A818A5080932001F092240103
:1007F00089819A81892B51F089819A810B9730F4F4
:1008000089819A8180932001E092240189819A81D3
:10081000892B09F0B2CF89819A81809320011092AF
:100820002401ABCF1F920F920FB60F9211240BB67B
:100830000F928F929F92AF92BF92EF920F931F935E
:100840002F933F934F935F936F937F938F939F93D8
:10085000AF93BF93EF93FF93809124018250823036
:1008600018F584EF91E0909323018093220181E0B9
:100870004FDD109226018090120190901301A090FC
:100880001401B09015016091200170E0719561959F
:100890007109072E000C880B990B51D6E12C01E24F
:1008A00011E0A50194011DDC809124018130F1F457
:1008B00084EF91E0909323018093220181E028DD71
:1008C000109226018090120190901301A0901401C3
:1008D000B09015016091200170E080E090E02DD68D
:1008E000E12C01E211E0A5019401FBDB80912401E0
:1008F000811121C08091220190912301009731F450
:1009000080E006DD81E08093260105C00197909389
:100910002301809322012091120130911301409113
:10092000140150911501E090260101E211E060E010
:1009300070E0CB01D6DBFF91EF91BF91AF919F911A
:100940008F917F916F915F914F913F912F911F9167
:100950000F91EF90BF90AF909F908F900F900BBE34
:100960000F900FBE0F901F9018951F920F920FB609
:100970000F9211240BB60F922F933F934F935F93D7
:100980006F937F938F939F93AF93BF93EF93FF9357
:1009900080913A018430E1F468E371E0FFD121E015
:1009A00043E050E065E371E088E391E073D4809127
:1009B00036018F718093360190E0982F882720911F
:1009C0003701822B90933D0180933C0110923A01B4
:1009D00080913A01833019F484E080933A01809148
:1009E0003A018230F9F468E371E0D8D121E043E0C4
:1009F00050E065E371E088E391E04CD480913601EA
:100A00008F718093360190E0982F882720913701CD
:100A1000822B90933F0180933E0180913A018F5F3A
:100A200080933A0180913A018130F9F468E371E0F2
:100A3000B5D121E043E050E065E371E088E391E067
:100A400029D4809136018F718093360190E0982FE0
:100A5000882720913701822B909341018093400198
:100A600080913A018F5F80933A0180913A01811120
:100A70001FC068E371E092D121E043E050E065E3FC
:100A800071E088E391E006D4809136018F71809304
:100A9000360190E0982F882720913701822B909380
:100AA00043018093420180913A018F5F80933A0124
:100AB000609142017091430182E191E07DD06091AB
:100AC00040017091410186E191E076D060913E0154
:100AD00070913F0180E090E030D52AE939E94BE49C
:100AE00052E492D420E030E040E85FE324D4609305
:100AF0001A0170931B0180931C0190931D0160915A
:100B00003C0170913D018EE191E0C6D0FF91EF91E3
:100B1000BF91AF919F918F917F916F915F914F9115
:100B20003F912F910F900BBE0F900FBE0F901F9013
:100B300018951F920F920FB60F9211248F939F93C7
:100B40008091330190913401019690933401809308
:100B500033019F918F910F900FBE0F901F901895AA
:100B60008F929F92AF92BF92CF92DF92EF92FF92BD
:100B70000F931F93CF93DF93CDB7DEB7FC010487AC
:100B8000158726873787C48AD58AE68AF78A808AB6
:100B9000918AA28AB38A4087518762877387DF91DF
:100BA000CF911F910F91FF90EF90DF90CF90BF906A
:100BB000AF909F908F9008958F929F92AF92BF9227
:100BC000CF92DF92EF92FF920F931F93CF93DF9319
:100BD00000D000D0CDB7DEB78C0180E090E0ADD47E
:100BE00020E030E040EA50E45ED520E030E040E82C
:100BF00059E359D527ED33EA40E150E49CD323EC87
:100C000034E64AE25DE300D420E030E040E450E422
:100C1000FBD369837A838B839C8369817A818B81FF
:100C20009C812EEA37E441EE5FE385D369837A83C2
:100C30008B839C8389809A80AB80BC8026E636E6D5
:100C400046E65FE3F80160817181828193812BD553
:100C50006B017C012DEC3CEC4CEC5DE3C501B40177
:100C600022D59B01AC01C701B60166D3F8016083B0
:100C70007183828393830F900F900F900F90DF9179
:100C8000CF911F910F91FF90EF90DF90CF90BF9089
:100C9000AF909F908F9008950F931F93CF93DF9302
:100CA00000D000D0CDB7DEB78C0180E090E045D415
:100CB00020E030E040EA50E4F6D420E030E040E8C4
:100CC00059E3F1D469837A838B839C8369817A8128
:100CD0008B819C812DEC3CEC4CE650E491D31816B2
:100CE0008CF069817A818B819C8120E030E040EA40
:100CF00051E4D9D420E030E040EB51E41CD3F1D3EF
:100D0000F801608369817A818B819C8126E636E6D1
:100D100046E950E475D31816E4F069817A818B8135
:100D20009C812DEC3CEC4CE650E4B9D418168CF4C4
:100D300069817A818B819C8120E030E04EE552E42C
:100D4000B2D420E030E84BE153E4F5D2CAD3F80145
:100D5000608369817A818B819C8126E636E646E94B
:100D600050E49DD418168CF469817A818B819C8122
:100D700020E030E048E453E496D420E030E042E55F
:100D800054E4D9D2AED3F80160830F900F900F9046
:100D90000F90DF91CF911F910F910895DB01482FA4
:100DA00050E048305105F0F4FA01E65BFF4FDEC435
:100DB00086E007C086E00AC086E00CC086E00EC070
:100DC00087E08C9311961C92089587E08C9380E4C1
:100DD00007C087E08C9380E803C087E08C9380ECA9
:100DE00011968C9308951F920F920FB60F921124B3
:100DF0000BB60F922F933F934F935F938F939F93D5
:100E0000EF93FF93CF93DF931F92CDB7DEB780911F
:100E1000E00080FF4EC09091DE0090FF4AC010922B
:100E2000ED008091EE0089838091EE008F7B8093AE
:100E3000EE0080914901909148019817B9F18F70A7
:100E40002BE0829FC0011124FC01E650FE4F20815F
:100E50002093F00020812093F20021812093F30061
:100E600023812093FA0024812093FA002581209386
:100E7000FA0026812093FA0027812093FA0020852A
:100E80002093FA0021852093FA0022852093FA000E
:100E9000FC01E450FE4F80818F7080648093EF00EE
:100EA000809149018F5F8093490178C0109247017A
:100EB00075C081FF73C08091DE0081FF6FC080E14B
:100EC0008093ED0090914501292F30E080914601FB
:100ED000281B31092F773327203131050CF052C000
:100EE000E92FEF708091EF002BE0E29FF0011124D9
:100EF000E65BFE4F282F2F708281807F822B8283BA
:100F00002091F2008091F000207E8770822B8083F8
:100F10004091F30041835091FA0053832091FA00ED
:100F200024832091FA0025832091FA0026832091C2
:100F3000FA0027832091FA0020872091FA00218768
:100F40002091FA0022879F5F9093450182958695B4
:100F50008770942F990F990F990F292F282B342FD1
:100F6000329536953770232B69F4533059F498E055
:100F700088E10FB6F894A895809360000FBE909317
:100F80006000FFCF8091EE00898389818091EE001F
:100F90008F7D8093EE0080E88093EF000F90DF91CB
:100FA000CF91FF91EF919F918F915F914F913F91E1
:100FB0002F910F900BBE0F900FBE0F901F901895A2
:100FC000CF93DF93E8EDF0E021E020831092E20080
:100FD0002CE02093E30027E32093E4001092E70045
:100FE0001092E6001092E9001092E8001092EC00D6
:100FF0001092E500CDEED0E01882AEEEB0E01C928B
:1010000020E128831C921092F400282F2295220FB1
:10101000207E2093F60023E0969587952A95E1F7A8
:101020008093F7001092F000862F8295880F807EC3
:101030008093F20033E0769567953A95E1F76093F7
:10104000F30080E88093EF0083E08093DC008093DE
:10105000DE0080EB8093DB0082E08083109244010D
:10106000DF91CF910895FC012091460180914501C7
:101070008217B9F1622F6F708BE0689FA001112475
:10108000DA01A65BBE4F8C9182958695877011968A
:101090009C91392F330F330F330F832B92959695F5
:1010A000977080839183DA01A45BBE4F8C918F701F
:1010B00082833396BA0140E050E090E04817590728
:1010C0005CF4DA01A60FB71FA65BBE4F13963C91E6
:1010D00031934F5F5F4FF2CF2F5F2093460181E046
:1010E000089580E00895CF93DF93FC018091DB00A9
:1010F0008F778093DB0080914701811123C010928C
:10110000ED0080818295880F807E8093F20080813F
:10111000918123E0969587952A95E1F78093F300D6
:10112000DF011396CF010B962D912093FA00A8179B
:10113000B907D1F781E08093470182818064809371
:10114000EF0040C020914801822F90E0309149018A
:10115000831B91098F7799274097B1F1A22FAF7028
:101160008BE0A89FD0011124ED01C650DE4F808195
:10117000982F9295990F907E88818F71892B888303
:101180008081982F9695969596958981807E892B5A
:10119000898391819295990F907E8F71892B898394
:1011A0008281982F9F708A81807F892B8A83A350A8
:1011B000BE4F339688E001900D928A95E1F72F5F3C
:1011C0002093480181E001C080E09091DB009068AD
:1011D0009093DB00DF91CF9108958EB1877E8EB919
:1011E0008DB188618DB9A1E9B0E08C9188618C9353
:1011F000E0E9F0E080818260808380818E7F80835F
:1012000080818068808380818F7B80838081806201
:1012100080838081806180838C9181608C938C91AC
:10122000897F8C93E6E9F0E089E991E091838083FE
:101230006081718180E090E080D120E030E040E08A
:101240005FE331D249D1E8E9F0E0718360838081C6
:10125000918190939B0080939A00089595B1892B7A
:1012600085B9089584B1806E84B980EEF7CF95B1C9
:101270008095982395B9089594B1976094B982FBAD
:10128000992790F9837080658CBD8CB5837F8CBD68
:101290009DBD08952898FB01DC01460F571FE417F8
:1012A000F50789F0009711F03C9101C03FEF3EBD7A
:1012B0000DB407FEFDCF6115710511F03EB5308309
:1012C00031961196ECCF2111289A08951F920F9212
:1012D0000FB60F9211240BB60F928F939F93AF937B
:1012E000BF93CF93DF93EF93FF93CAECD2E0EAEA88
:1012F000F2E08991882359F080819181A281B381A4
:10130000905EAF4FBF4F80839183A283B3833496A7
:1013100082E0EA3CF80769F7FF91EF91DF91CF9106
:10132000BF91AF919F918F910F900BBE0F900FBE09
:101330000F901F9018955058BB27AA270ED075C143
:1013400066D130F06BD120F031F49F3F11F41EF4E0
:101350005BC10EF4E095E7FB51C1E92F77D180F333
:10136000BA17620773078407950718F071F49EF5A2
:101370008FC10EF4E0950B2EBA2FA02D0B01B901F1
:1013800090010C01CA01A0011124FF27591B99F0FB
:10139000593F50F4503E68F11A16F040A22F232F07
:1013A000342F4427585FF3CF469537952795A79557
:1013B000F0405395C9F77EF41F16BA0B620B730BFE
:1013C000840BBAF09150A1F0FF0FBB1F661F771F6F
:1013D000881FC2F70EC0BA0F621F731F841F48F424
:1013E000879577956795B795F7959E3F08F0B3CFAA
:1013F0009395880F08F09927EE0F97958795089594
:10140000D9D008F481E008950CD00FC107D140F085
:10141000FED030F021F45F3F19F0F0C0511139C116
:10142000F3C014D198F39923C9F35523B1F3951B55
:10143000550BBB27AA2762177307840738F09F5FF5
:101440005F4F220F331F441FAA1FA9F333D00E2E64
:101450003AF0E0E830D091505040E695001CCAF7D1
:1014600029D0FE2F27D0660F771F881FBB1F261796
:1014700037074807AB07B0E809F0BB0B802DBF0169
:10148000FF2793585F4F2AF09E3F510568F0B6C082
:1014900000C15F3FECF3983EDCF386957795679546
:1014A000B795F7959F5FC9F7880F911D969587951A
:1014B00097F90895E1E0660F771F881FBB1F621739
:1014C00073078407BA0720F0621B730B840BBA0BF7
:1014D000EE1F88F7E095089504D06894B111D9C043
:1014E0000895BCD088F09F5790F0B92F9927B75135
:1014F000A0F0D1F0660F771F881F991F1AF0BA95D8
:10150000C9F712C0B13081F0C3D0B1E00895C0C0B6
:10151000672F782F8827B85F39F0B93FCCF38695CD
:1015200077956795B395D9F73EF49095809570952A
:1015300061957F4F8F4F9F4F0895E89409C097FBA7
:101540003EF490958095709561957F4F8F4F9F4F9A
:101550009923A9F0F92F96E9BB279395F6958795DE
:1015600077956795B795F111F8CFFAF4BB0F11F4A1
:1015700060FF1BC06F5F7F4F8F4F9F4F16C0882348
:1015800011F096E911C0772321F09EE8872F762F7E
:1015900005C0662371F096E8862F70E060E02AF0BF
:1015A0009A95660F771F881FDAF7880F96958795AB
:1015B00097F90895990F0008550FAA0BE0E8FEEF80
:1015C00016161706E807F907C0F012161306E40707
:1015D000F50798F0621B730B840B950B39F40A2600
:1015E00061F0232B242B252B21F408950A2609F4DE
:1015F000A140A6958FEF811D811D089597F99F67E2
:1016000080E870E060E008959FEF80EC089500248A
:101610000A941616170618060906089500240A9457
:1016200012161306140605060895092E0394000CDD
:1016300011F4882352F0BB0F40F4BF2B11F460FF6C
:1016400004C06F5F7F4F8F4F9F4F089557FD905895
:10165000440F551F59F05F3F71F04795880F97FB76
:10166000991F61F09F3F79F0879508951216130630
:101670001406551FF2CF4695F1DF08C0161617065F
:101680001806991FF1CF8695710561050894089594
:10169000E894BB2766277727CB0197F908958ADF5F
:1016A00008F48FEF08950BD0C0CFB1DF28F0B6DF7C
:1016B00018F0952309F0A2CFA7CF1124EACFC6DFF7
:1016C000A0F3959FD1F3950F50E0551F629FF00155
:1016D000729FBB27F00DB11D639FAA27F00DB11DAE
:1016E000AA1F649F6627B00DA11D661F829F222737
:1016F000B00DA11D621F739FB00DA11D621F839FBE
:10170000A00D611D221F749F3327A00D611D231F93
:10171000849F600D211D822F762F6A2F11249F57E1
:1017200050408AF0E1F088234AF0EE0FFF1FBB1F04
:10173000661F771F881F91505040A9F79E3F5105A3
:1017400070F05CCFA6CF5F3FECF3983EDCF386955C
:1017500077956795B795F795E7959F5FC1F7FE2B4E
:10176000880F911D9695879597F90895EE0FFF1FA5
:101770000024001C0BBE0790F691E02D0994FC019B
:1017800088279927E89421912032E9F3293010F035
:101790002E30C8F32B3239F02D3231F4689403C067
:1017A0000BD0820F911D219120532A30C8F31EF4D3
:1017B000909581959F4F08957AE0979F902D879FF0
:1017C000802D910D11240895CF93DF93CDB7DEB70F
:1017D000AE014B5F5F4FFA0161917191AF01809152
:1017E000A2039091A30308D0DF91CF910895609157
:1017F000A2037091A30313C22F923F924F925F9264
:101800006F927F928F929F92AF92BF92CF92DF9210
:10181000EF92FF920F931F93CF93DF93CDB7DEB775
:101820002B970FB6F894DEBF0FBECDBF6C017B01C6
:101830008A01FC0117821682838181FFBFC1CE011C
:1018400001963C01F6019381F70193FD859193FF89
:1018500081917F01882309F4ADC1853239F493FD6C
:10186000859193FF81917F01853221F4B60190E04B
:10187000D6D1E8CF912C212C312CFFE1F315D8F0F3
:101880008B3279F038F4803279F08332A1F4232D51
:1018900020611DC08D3261F0803369F4232D2160F9
:1018A00016C0832D8260382EE32DE4603E2E2AC0C0
:1018B000F32DF8601DC037FC2DC020ED280F2A3015
:1018C00040F08E32B9F436FC75C1232D2064322EDF
:1018D00019C036FE06C08AE0989E200D1124922E73
:1018E00011C0EAE02E9E200D1124222EF32DF0626D
:1018F0003F2E08C08C3621F4832D8068382E02C01C
:10190000883641F4F70193FD859193FF81917F0122
:101910008111B3CF982F9F7D9554933028F40C5F9D
:101920001F4F9FE399830DC0833631F0833771F0E9
:10193000833509F055C020C0F801808189830E5F8E
:101940001F4F88248394912C530112C02801F2E088
:101950004F0E511CF801A080B18036FE03C0692DE6
:1019600070E002C06FEF7FEFC5014ED14C018201E4
:10197000F32DFF773F2E15C0280122E0420E511CA7
:10198000F801A080B18036FE03C0692D70E002C06E
:101990006FEF7FEFC5012DD14C01F32DF0683F2E85
:1019A000820133FC19C0822D90E088169906A0F4BC
:1019B000B60180E290E033D12A94F5CFF50137FCEF
:1019C000859137FE81915F01B60190E028D1211009
:1019D0002A9421E0821A91088114910479F7E1C0D8
:1019E000843611F0893639F5F80137FE07C0608179
:1019F0007181828193810C5F1F4F08C0608171816A
:101A0000072E000C880B990B0E5F1F4FF32DFF76EE
:101A10003F2E97FF09C090958095709561957F4FF7
:101A20008F4F9F4FF0683F2E2AE030E0A30133D163
:101A3000882E861844C0853731F4232D2F7EB22E90
:101A40002AE030E025C0932D997FB92E8F36C1F062
:101A500018F4883579F0AEC0803719F0883721F056
:101A6000A9C0E92FE061BE2EB4FE0DC0FB2DF460CD
:101A7000BF2E09C034FE0AC0292F2660B22E06C030
:101A800028E030E005C020E130E002C020E132E093
:101A9000F801B7FE07C060817181828193810C5F7C
:101AA0001F4F06C06081718180E090E00E5F1F4F84
:101AB000A301F1D0882E8618FB2DFF773F2E36FE2E
:101AC0000DC0232D2E7FA22E891458F434FE0BC096
:101AD00032FC09C0832D8E7EA82E05C0B82CA32C05
:101AE00003C0B82C01C0B92CA4FE0FC0FE01E80D44
:101AF000F11D8081803321F49A2D997EA92E09C091
:101B0000A2FE06C0B394B39404C08A2D867809F06F
:101B1000B394A3FC10C0A0FE06C0B21480F4280C3D
:101B2000922C9B180DC0B21458F4B60180E290E0DC
:101B300076D0B394F8CFB21418F42B1802C0982CB6
:101B4000212CA4FE0FC0B60180E390E068D0A2FE75
:101B500016C0A1FC03C088E790E002C088E590E0D1
:101B6000B6010CC08A2D867851F0A1FE02C08BE22E
:101B700001C080E2A7FC8DE2B60190E050D089144C
:101B800030F4B60180E390E04AD09A94F8CF8A947A
:101B9000F301E80DF11D8081B60190E040D0811085
:101BA000F6CF222009F44ECEB60180E290E037D085
:101BB0002A94F7CFF6018681978102C08FEF9FEFBD
:101BC0002B960FB6F894DEBF0FBECDBFDF91CF913D
:101BD0001F910F91FF90EF90DF90CF90BF90AF904B
:101BE0009F908F907F906F905F904F903F902F903D
:101BF0000895FC010590615070400110D8F7809560
:101C000090958E0F9F1F0895FC01615070400190C8
:101C10000110D8F7809590958E0F9F1F08950F9310
:101C20001F93CF93DF93FB01238121FD03C08FEF2F
:101C30009FEF2CC022FF16C0468157812481358139
:101C40004217530744F4A081B1819D012F5F3F4F9C
:101C5000318320838C93268137812F5F3F4F3783D9
:101C6000268314C08B01EC01FB010084F185E02D7B
:101C70000995892BE1F6D80116968D919C911797BD
:101C8000019617969C938E931697CE01DF91CF9174
:101C90001F910F910895FA01AA27283051F12031A0
:101CA00081F1E8946F936E7F6E5F7F4F8F4F9F4FF0
:101CB000AF4FB1E03ED0B4E03CD0670F781F891F32
:101CC0009A1FA11D680F791F8A1F911DA11D6A0F00
:101CD000711D811D911DA11D20D009F468943F91B3
:101CE0002AE0269F11243019305D3193DEF6CF01B2
:101CF0000895462F4770405D4193B3E00FD0C9F778
:101D0000F6CF462F4F70405D4A3318F0495D31FDE4
:101D10004052419302D0A9F7EACFB4E0A695979537
:101D2000879577956795BA95C9F70097610571050D
:101D300008959B01AC010A2E069457954795379557
:101D40002795BA95C9F7620F731F841F951FA01DB1
:061D50000895F894FFCF96
:101D5600000048420000000300000000CC014F02D2
:101D6600000000000000000000000000000000006D
:0A1D76000032F401000001257500A1
:00000001FF
